{
	"data": {
		"bytecode": {
			"linkReferences": {},
			"object": "608060405234801561000f575f80fd5b50604051611ad7380380611ad783398181016040528101906100319190610115565b815f806101000a81548173ffffffffffffffffffffffffffffffffffffffff021916908373ffffffffffffffffffffffffffffffffffffffff1602179055508060015f6101000a81548173ffffffffffffffffffffffffffffffffffffffff021916908373ffffffffffffffffffffffffffffffffffffffff1602179055505050610153565b5f80fd5b5f73ffffffffffffffffffffffffffffffffffffffff82169050919050565b5f6100e4826100bb565b9050919050565b6100f4816100da565b81146100fe575f80fd5b50565b5f8151905061010f816100eb565b92915050565b5f806040838503121561012b5761012a6100b7565b5b5f61013885828601610101565b925050602061014985828601610101565b9150509250929050565b611977806101605f395ff3fe608060405260043610610180575f3560e01c80638803dbee116100d0578063baa2abde11610089578063ded9382a11610063578063ded9382a14610613578063e8e3370014610650578063f305d7191461068e578063fb3bdb41146106c057610180565b8063baa2abde14610570578063c45a0155146105ad578063d06ca61f146105d757610180565b80638803dbee1461044c578063966dae0e14610488578063ad5c4648146104b2578063ad615dec146104dc578063af2979eb14610518578063b6f9de951461055457610180565b806338ed17391161013d5780635c11d795116101175780635c11d79514610390578063791ac947146103b85780637ff36ab5146103e057806385f8c2591461041057610180565b806338ed1739146102dc5780634a25d94a146103185780635b0d59841461035457610180565b806302751cec14610184578063054d50d4146101c15780630af88b24146101fd57806318cbafe5146102275780631f00ca74146102635780632195995c1461029f575b5f80fd5b34801561018f575f80fd5b506101aa60048036038101906101a59190610fa9565b6106f0565b6040516101b8929190611041565b60405180910390f35b3480156101cc575f80fd5b506101e760048036038101906101e29190611068565b61071b565b6040516101f491906110b8565b60405180910390f35b348015610208575f80fd5b5061021161076b565b60405161021e91906110e0565b60405180910390f35b348015610232575f80fd5b5061024d6004803603810190610248919061115a565b610790565b60405161025a91906112a7565b60405180910390f35b34801561026e575f80fd5b50610289600480360381019061028491906112c7565b61082e565b60405161029691906112a7565b60405180910390f35b3480156102aa575f80fd5b506102c560048036038101906102c091906113c2565b610942565b6040516102d3929190611041565b60405180910390f35b3480156102e7575f80fd5b5061030260048036038101906102fd919061115a565b610972565b60405161030f91906112a7565b60405180910390f35b348015610323575f80fd5b5061033e6004803603810190610339919061115a565b610a10565b60405161034b91906112a7565b60405180910390f35b34801561035f575f80fd5b5061037a600480360381019061037591906114af565b610aae565b60405161038791906110b8565b60405180910390f35b34801561039b575f80fd5b506103b660048036038101906103b1919061115a565b610acc565b005b3480156103c3575f80fd5b506103de60048036038101906103d9919061115a565b610ad4565b005b6103fa60048036038101906103f59190611588565b610adc565b60405161040791906112a7565b60405180910390f35b34801561041b575f80fd5b5061043660048036038101906104319190611068565b610b79565b60405161044391906110b8565b60405180910390f35b348015610457575f80fd5b50610472600480360381019061046d919061115a565b610bd5565b60405161047f91906112a7565b60405180910390f35b348015610493575f80fd5b5061049c610c73565b6040516104a991906110e0565b60405180910390f35b3480156104bd575f80fd5b506104c6610c96565b6040516104d391906110e0565b60405180910390f35b3480156104e7575f80fd5b5061050260048036038101906104fd9190611068565b610c9a565b60405161050f91906110b8565b60405180910390f35b348015610523575f80fd5b5061053e60048036038101906105399190610fa9565b610cbb565b60405161054b91906110b8565b60405180910390f35b61056e60048036038101906105699190611588565b610cd5565b005b34801561057b575f80fd5b506105966004803603810190610591919061160c565b610cdc565b6040516105a4929190611041565b60405180910390f35b3480156105b8575f80fd5b506105c1610d08565b6040516105ce91906110e0565b60405180910390f35b3480156105e2575f80fd5b506105fd60048036038101906105f891906112c7565b610d0c565b60405161060a91906112a7565b60405180910390f35b34801561061e575f80fd5b50610639600480360381019061063491906114af565b610e00565b604051610647929190611041565b60405180910390f35b34801561065b575f80fd5b50610676600480360381019061067191906116a9565b610e2f565b6040516106859392919061175a565b60405180910390f35b6106a860048036038101906106a39190610fa9565b610e54565b6040516106b79392919061175a565b60405180910390f35b6106da60048036038101906106d59190611588565b610e77565b6040516106e791906112a7565b60405180910390f35b5f806002876106ff91906117e9565b60028861070c91906117e9565b91509150965096945050505050565b5f6063846107299190611819565b6064846107369190611819565b610740919061185a565b8260638661074e9190611819565b6107589190611819565b61076291906117e9565b90509392505050565b60015f9054906101000a900473ffffffffffffffffffffffffffffffffffffffff1681565b60605f600267ffffffffffffffff8111156107ae576107ad61188d565b5b6040519080825280602002602001820160405280156107dc5781602001602082028036833780820191505090505b50905087815f815181106107f3576107f26118ba565b5b6020026020010181815250508681600181518110610814576108136118ba565b5b602002602001018181525050809150509695505050505050565b60608282905067ffffffffffffffff81111561084d5761084c61188d565b5b60405190808252806020026020018201604052801561087b5781602001602082028036833780820191505090505b509050838160018585905061089091906118e7565b815181106108a1576108a06118ba565b5b6020026020010181815250505f6001848490506108be91906118e7565b90505b5f81111561093a57606460658383815181106108e0576108df6118ba565b5b60200260200101516108f29190611819565b6108fc91906117e9565b8260018361090a91906118e7565b8151811061091b5761091a6118ba565b5b60200260200101818152505080806109329061191a565b9150506108c1565b509392505050565b5f8060028b61095191906117e9565b60028c61095e91906117e9565b915091509b509b9950505050505050505050565b60605f600267ffffffffffffffff8111156109905761098f61188d565b5b6040519080825280602002602001820160405280156109be5781602001602082028036833780820191505090505b50905087815f815181106109d5576109d46118ba565b5b60200260200101818152505086816001815181106109f6576109f56118ba565b5b602002602001018181525050809150509695505050505050565b60605f600267ffffffffffffffff811115610a2e57610a2d61188d565b5b604051908082528060200260200182016040528015610a5c5781602001602082028036833780820191505090505b50905087815f81518110610a7357610a726118ba565b5b6020026020010181815250508681600181518110610a9457610a936118ba565b5b602002602001018181525050809150509695505050505050565b5f60028a610abc91906117e9565b90509a9950505050505050505050565b505050505050565b505050505050565b60605f600267ffffffffffffffff811115610afa57610af961188d565b5b604051908082528060200260200182016040528015610b285781602001602082028036833780820191505090505b50905034815f81518110610b3f57610b3e6118ba565b5b6020026020010181815250508681600181518110610b6057610b5f6118ba565b5b6020026020010181815250508091505095945050505050565b5f6001606385610b899190611819565b606384610b969190611819565b610ba091906118e7565b60648686610bae9190611819565b610bb89190611819565b610bc291906117e9565b610bcc919061185a565b90509392505050565b60605f600267ffffffffffffffff811115610bf357610bf261188d565b5b604051908082528060200260200182016040528015610c215781602001602082028036833780820191505090505b50905087815f81518110610c3857610c376118ba565b5b6020026020010181815250508681600181518110610c5957610c586118ba565b5b602002602001018181525050809150509695505050505050565b5f8054906101000a900473ffffffffffffffffffffffffffffffffffffffff1681565b5f90565b5f828285610ca89190611819565b610cb291906117e9565b90509392505050565b5f600286610cc991906117e9565b90509695505050505050565b5050505050565b5f80600287610ceb91906117e9565b600288610cf891906117e9565b9150915097509795505050505050565b5f90565b60608282905067ffffffffffffffff811115610d2b57610d2a61188d565b5b604051908082528060200260200182016040528015610d595781602001602082028036833780820191505090505b50905083815f81518110610d7057610d6f6118ba565b5b6020026020010181815250505f600190505b83839050811015610df8576064606383600184610d9f91906118e7565b81518110610db057610daf6118ba565b5b6020026020010151610dc29190611819565b610dcc91906117e9565b828281518110610ddf57610dde6118ba565b5b6020026020010181815250508080600101915050610d82565b509392505050565b5f8060028b610e0f91906117e9565b60028c610e1c91906117e9565b915091509a509a98505050505050505050565b5f805f8888898b610e40919061185a565b925092509250985098509895505050505050565b5f805f8734348a610e65919061185a565b92509250925096509650969350505050565b60605f600267ffffffffffffffff811115610e9557610e9461188d565b5b604051908082528060200260200182016040528015610ec35781602001602082028036833780820191505090505b50905086815f81518110610eda57610ed96118ba565b5b6020026020010181815250503481600181518110610efb57610efa6118ba565b5b6020026020010181815250508091505095945050505050565b5f80fd5b5f80fd5b5f73ffffffffffffffffffffffffffffffffffffffff82169050919050565b5f610f4582610f1c565b9050919050565b610f5581610f3b565b8114610f5f575f80fd5b50565b5f81359050610f7081610f4c565b92915050565b5f819050919050565b610f8881610f76565b8114610f92575f80fd5b50565b5f81359050610fa381610f7f565b92915050565b5f805f805f8060c08789031215610fc357610fc2610f14565b5b5f610fd089828a01610f62565b9650506020610fe189828a01610f95565b9550506040610ff289828a01610f95565b945050606061100389828a01610f95565b935050608061101489828a01610f62565b92505060a061102589828a01610f95565b9150509295509295509295565b61103b81610f76565b82525050565b5f6040820190506110545f830185611032565b6110616020830184611032565b9392505050565b5f805f6060848603121561107f5761107e610f14565b5b5f61108c86828701610f95565b935050602061109d86828701610f95565b92505060406110ae86828701610f95565b9150509250925092565b5f6020820190506110cb5f830184611032565b92915050565b6110da81610f3b565b82525050565b5f6020820190506110f35f8301846110d1565b92915050565b5f80fd5b5f80fd5b5f80fd5b5f8083601f84011261111a576111196110f9565b5b8235905067ffffffffffffffff811115611137576111366110fd565b5b60208301915083602082028301111561115357611152611101565b5b9250929050565b5f805f805f8060a0878903121561117457611173610f14565b5b5f61118189828a01610f95565b965050602061119289828a01610f95565b955050604087013567ffffffffffffffff8111156111b3576111b2610f18565b5b6111bf89828a01611105565b945094505060606111d289828a01610f62565b92505060806111e389828a01610f95565b9150509295509295509295565b5f81519050919050565b5f82825260208201905092915050565b5f819050602082019050919050565b61122281610f76565b82525050565b5f6112338383611219565b60208301905092915050565b5f602082019050919050565b5f611255826111f0565b61125f81856111fa565b935061126a8361120a565b805f5b8381101561129a5781516112818882611228565b975061128c8361123f565b92505060018101905061126d565b5085935050505092915050565b5f6020820190508181035f8301526112bf818461124b565b905092915050565b5f805f604084860312156112de576112dd610f14565b5b5f6112eb86828701610f95565b935050602084013567ffffffffffffffff81111561130c5761130b610f18565b5b61131886828701611105565b92509250509250925092565b5f8115159050919050565b61133881611324565b8114611342575f80fd5b50565b5f813590506113538161132f565b92915050565b5f60ff82169050919050565b61136e81611359565b8114611378575f80fd5b50565b5f8135905061138981611365565b92915050565b5f819050919050565b6113a18161138f565b81146113ab575f80fd5b50565b5f813590506113bc81611398565b92915050565b5f805f805f805f805f805f6101608c8e0312156113e2576113e1610f14565b5b5f6113ef8e828f01610f62565b9b505060206114008e828f01610f62565b9a505060406114118e828f01610f95565b99505060606114228e828f01610f95565b98505060806114338e828f01610f95565b97505060a06114448e828f01610f62565b96505060c06114558e828f01610f95565b95505060e06114668e828f01611345565b9450506101006114788e828f0161137b565b93505061012061148a8e828f016113ae565b92505061014061149c8e828f016113ae565b9150509295989b509295989b9093969950565b5f805f805f805f805f806101408b8d0312156114ce576114cd610f14565b5b5f6114db8d828e01610f62565b9a505060206114ec8d828e01610f95565b99505060406114fd8d828e01610f95565b985050606061150e8d828e01610f95565b975050608061151f8d828e01610f62565b96505060a06115308d828e01610f95565b95505060c06115418d828e01611345565b94505060e06115528d828e0161137b565b9350506101006115648d828e016113ae565b9250506101206115768d828e016113ae565b9150509295989b9194979a5092959850565b5f805f805f608086880312156115a1576115a0610f14565b5b5f6115ae88828901610f95565b955050602086013567ffffffffffffffff8111156115cf576115ce610f18565b5b6115db88828901611105565b945094505060406115ee88828901610f62565b92505060606115ff88828901610f95565b9150509295509295909350565b5f805f805f805f60e0888a03121561162757611626610f14565b5b5f6116348a828b01610f62565b97505060206116458a828b01610f62565b96505060406116568a828b01610f95565b95505060606116678a828b01610f95565b94505060806116788a828b01610f95565b93505060a06116898a828b01610f62565b92505060c061169a8a828b01610f95565b91505092959891949750929550565b5f805f805f805f80610100898b0312156116c6576116c5610f14565b5b5f6116d38b828c01610f62565b98505060206116e48b828c01610f62565b97505060406116f58b828c01610f95565b96505060606117068b828c01610f95565b95505060806117178b828c01610f95565b94505060a06117288b828c01610f95565b93505060c06117398b828c01610f62565b92505060e061174a8b828c01610f95565b9150509295985092959890939650565b5f60608201905061176d5f830186611032565b61177a6020830185611032565b6117876040830184611032565b949350505050565b7f4e487b71000000000000000000000000000000000000000000000000000000005f52601260045260245ffd5b7f4e487b71000000000000000000000000000000000000000000000000000000005f52601160045260245ffd5b5f6117f382610f76565b91506117fe83610f76565b92508261180e5761180d61178f565b5b828204905092915050565b5f61182382610f76565b915061182e83610f76565b925082820261183c81610f76565b91508282048414831517611853576118526117bc565b5b5092915050565b5f61186482610f76565b915061186f83610f76565b9250828201905080821115611887576118866117bc565b5b92915050565b7f4e487b71000000000000000000000000000000000000000000000000000000005f52604160045260245ffd5b7f4e487b71000000000000000000000000000000000000000000000000000000005f52603260045260245ffd5b5f6118f182610f76565b91506118fc83610f76565b9250828203905081811115611914576119136117bc565b5b92915050565b5f61192482610f76565b91505f8203611936576119356117bc565b5b60018203905091905056fea26469706673582212201465b2ce81c2e090c6483efa162da237fc73ae3c15ad6abf17138c05ff1a2a9864736f6c634300081a0033",
			"opcodes": "PUSH1 0x80 PUSH1 0x40 MSTORE CALLVALUE DUP1 ISZERO PUSH2 0xF JUMPI PUSH0 DUP1 REVERT JUMPDEST POP PUSH1 0x40 MLOAD PUSH2 0x1AD7 CODESIZE SUB DUP1 PUSH2 0x1AD7 DUP4 CODECOPY DUP2 DUP2 ADD PUSH1 0x40 MSTORE DUP2 ADD SWAP1 PUSH2 0x31 SWAP2 SWAP1 PUSH2 0x115 JUMP JUMPDEST DUP2 PUSH0 DUP1 PUSH2 0x100 EXP DUP2 SLOAD DUP2 PUSH20 0xFFFFFFFFFFFFFFFFFFFFFFFFFFFFFFFFFFFFFFFF MUL NOT AND SWAP1 DUP4 PUSH20 0xFFFFFFFFFFFFFFFFFFFFFFFFFFFFFFFFFFFFFFFF AND MUL OR SWAP1 SSTORE POP DUP1 PUSH1 0x1 PUSH0 PUSH2 0x100 EXP DUP2 SLOAD DUP2 PUSH20 0xFFFFFFFFFFFFFFFFFFFFFFFFFFFFFFFFFFFFFFFF MUL NOT AND SWAP1 DUP4 PUSH20 0xFFFFFFFFFFFFFFFFFFFFFFFFFFFFFFFFFFFFFFFF AND MUL OR SWAP1 SSTORE POP POP POP PUSH2 0x153 JUMP JUMPDEST PUSH0 DUP1 REVERT JUMPDEST PUSH0 PUSH20 0xFFFFFFFFFFFFFFFFFFFFFFFFFFFFFFFFFFFFFFFF DUP3 AND SWAP1 POP SWAP2 SWAP1 POP JUMP JUMPDEST PUSH0 PUSH2 0xE4 DUP3 PUSH2 0xBB JUMP JUMPDEST SWAP1 POP SWAP2 SWAP1 POP JUMP JUMPDEST PUSH2 0xF4 DUP2 PUSH2 0xDA JUMP JUMPDEST DUP2 EQ PUSH2 0xFE JUMPI PUSH0 DUP1 REVERT JUMPDEST POP JUMP JUMPDEST PUSH0 DUP2 MLOAD SWAP1 POP PUSH2 0x10F DUP2 PUSH2 0xEB JUMP JUMPDEST SWAP3 SWAP2 POP POP JUMP JUMPDEST PUSH0 DUP1 PUSH1 0x40 DUP4 DUP6 SUB SLT ISZERO PUSH2 0x12B JUMPI PUSH2 0x12A PUSH2 0xB7 JUMP JUMPDEST JUMPDEST PUSH0 PUSH2 0x138 DUP6 DUP3 DUP7 ADD PUSH2 0x101 JUMP JUMPDEST SWAP3 POP POP PUSH1 0x20 PUSH2 0x149 DUP6 DUP3 DUP7 ADD PUSH2 0x101 JUMP JUMPDEST SWAP2 POP POP SWAP3 POP SWAP3 SWAP1 POP JUMP JUMPDEST PUSH2 0x1977 DUP1 PUSH2 0x160 PUSH0 CODECOPY PUSH0 RETURN INVALID PUSH1 0x80 PUSH1 0x40 MSTORE PUSH1 0x4 CALLDATASIZE LT PUSH2 0x180 JUMPI PUSH0 CALLDATALOAD PUSH1 0xE0 SHR DUP1 PUSH4 0x8803DBEE GT PUSH2 0xD0 JUMPI DUP1 PUSH4 0xBAA2ABDE GT PUSH2 0x89 JUMPI DUP1 PUSH4 0xDED9382A GT PUSH2 0x63 JUMPI DUP1 PUSH4 0xDED9382A EQ PUSH2 0x613 JUMPI DUP1 PUSH4 0xE8E33700 EQ PUSH2 0x650 JUMPI DUP1 PUSH4 0xF305D719 EQ PUSH2 0x68E JUMPI DUP1 PUSH4 0xFB3BDB41 EQ PUSH2 0x6C0 JUMPI PUSH2 0x180 JUMP JUMPDEST DUP1 PUSH4 0xBAA2ABDE EQ PUSH2 0x570 JUMPI DUP1 PUSH4 0xC45A0155 EQ PUSH2 0x5AD JUMPI DUP1 PUSH4 0xD06CA61F EQ PUSH2 0x5D7 JUMPI PUSH2 0x180 JUMP JUMPDEST DUP1 PUSH4 0x8803DBEE EQ PUSH2 0x44C JUMPI DUP1 PUSH4 0x966DAE0E EQ PUSH2 0x488 JUMPI DUP1 PUSH4 0xAD5C4648 EQ PUSH2 0x4B2 JUMPI DUP1 PUSH4 0xAD615DEC EQ PUSH2 0x4DC JUMPI DUP1 PUSH4 0xAF2979EB EQ PUSH2 0x518 JUMPI DUP1 PUSH4 0xB6F9DE95 EQ PUSH2 0x554 JUMPI PUSH2 0x180 JUMP JUMPDEST DUP1 PUSH4 0x38ED1739 GT PUSH2 0x13D JUMPI DUP1 PUSH4 0x5C11D795 GT PUSH2 0x117 JUMPI DUP1 PUSH4 0x5C11D795 EQ PUSH2 0x390 JUMPI DUP1 PUSH4 0x791AC947 EQ PUSH2 0x3B8 JUMPI DUP1 PUSH4 0x7FF36AB5 EQ PUSH2 0x3E0 JUMPI DUP1 PUSH4 0x85F8C259 EQ PUSH2 0x410 JUMPI PUSH2 0x180 JUMP JUMPDEST DUP1 PUSH4 0x38ED1739 EQ PUSH2 0x2DC JUMPI DUP1 PUSH4 0x4A25D94A EQ PUSH2 0x318 JUMPI DUP1 PUSH4 0x5B0D5984 EQ PUSH2 0x354 JUMPI PUSH2 0x180 JUMP JUMPDEST DUP1 PUSH4 0x2751CEC EQ PUSH2 0x184 JUMPI DUP1 PUSH4 0x54D50D4 EQ PUSH2 0x1C1 JUMPI DUP1 PUSH4 0xAF88B24 EQ PUSH2 0x1FD JUMPI DUP1 PUSH4 0x18CBAFE5 EQ PUSH2 0x227 JUMPI DUP1 PUSH4 0x1F00CA74 EQ PUSH2 0x263 JUMPI DUP1 PUSH4 0x2195995C EQ PUSH2 0x29F JUMPI JUMPDEST PUSH0 DUP1 REVERT JUMPDEST CALLVALUE DUP1 ISZERO PUSH2 0x18F JUMPI PUSH0 DUP1 REVERT JUMPDEST POP PUSH2 0x1AA PUSH1 0x4 DUP1 CALLDATASIZE SUB DUP2 ADD SWAP1 PUSH2 0x1A5 SWAP2 SWAP1 PUSH2 0xFA9 JUMP JUMPDEST PUSH2 0x6F0 JUMP JUMPDEST PUSH1 0x40 MLOAD PUSH2 0x1B8 SWAP3 SWAP2 SWAP1 PUSH2 0x1041 JUMP JUMPDEST PUSH1 0x40 MLOAD DUP1 SWAP2 SUB SWAP1 RETURN JUMPDEST CALLVALUE DUP1 ISZERO PUSH2 0x1CC JUMPI PUSH0 DUP1 REVERT JUMPDEST POP PUSH2 0x1E7 PUSH1 0x4 DUP1 CALLDATASIZE SUB DUP2 ADD SWAP1 PUSH2 0x1E2 SWAP2 SWAP1 PUSH2 0x1068 JUMP JUMPDEST PUSH2 0x71B JUMP JUMPDEST PUSH1 0x40 MLOAD PUSH2 0x1F4 SWAP2 SWAP1 PUSH2 0x10B8 JUMP JUMPDEST PUSH1 0x40 MLOAD DUP1 SWAP2 SUB SWAP1 RETURN JUMPDEST CALLVALUE DUP1 ISZERO PUSH2 0x208 JUMPI PUSH0 DUP1 REVERT JUMPDEST POP PUSH2 0x211 PUSH2 0x76B JUMP JUMPDEST PUSH1 0x40 MLOAD PUSH2 0x21E SWAP2 SWAP1 PUSH2 0x10E0 JUMP JUMPDEST PUSH1 0x40 MLOAD DUP1 SWAP2 SUB SWAP1 RETURN JUMPDEST CALLVALUE DUP1 ISZERO PUSH2 0x232 JUMPI PUSH0 DUP1 REVERT JUMPDEST POP PUSH2 0x24D PUSH1 0x4 DUP1 CALLDATASIZE SUB DUP2 ADD SWAP1 PUSH2 0x248 SWAP2 SWAP1 PUSH2 0x115A JUMP JUMPDEST PUSH2 0x790 JUMP JUMPDEST PUSH1 0x40 MLOAD PUSH2 0x25A SWAP2 SWAP1 PUSH2 0x12A7 JUMP JUMPDEST PUSH1 0x40 MLOAD DUP1 SWAP2 SUB SWAP1 RETURN JUMPDEST CALLVALUE DUP1 ISZERO PUSH2 0x26E JUMPI PUSH0 DUP1 REVERT JUMPDEST POP PUSH2 0x289 PUSH1 0x4 DUP1 CALLDATASIZE SUB DUP2 ADD SWAP1 PUSH2 0x284 SWAP2 SWAP1 PUSH2 0x12C7 JUMP JUMPDEST PUSH2 0x82E JUMP JUMPDEST PUSH1 0x40 MLOAD PUSH2 0x296 SWAP2 SWAP1 PUSH2 0x12A7 JUMP JUMPDEST PUSH1 0x40 MLOAD DUP1 SWAP2 SUB SWAP1 RETURN JUMPDEST CALLVALUE DUP1 ISZERO PUSH2 0x2AA JUMPI PUSH0 DUP1 REVERT JUMPDEST POP PUSH2 0x2C5 PUSH1 0x4 DUP1 CALLDATASIZE SUB DUP2 ADD SWAP1 PUSH2 0x2C0 SWAP2 SWAP1 PUSH2 0x13C2 JUMP JUMPDEST PUSH2 0x942 JUMP JUMPDEST PUSH1 0x40 MLOAD PUSH2 0x2D3 SWAP3 SWAP2 SWAP1 PUSH2 0x1041 JUMP JUMPDEST PUSH1 0x40 MLOAD DUP1 SWAP2 SUB SWAP1 RETURN JUMPDEST CALLVALUE DUP1 ISZERO PUSH2 0x2E7 JUMPI PUSH0 DUP1 REVERT JUMPDEST POP PUSH2 0x302 PUSH1 0x4 DUP1 CALLDATASIZE SUB DUP2 ADD SWAP1 PUSH2 0x2FD SWAP2 SWAP1 PUSH2 0x115A JUMP JUMPDEST PUSH2 0x972 JUMP JUMPDEST PUSH1 0x40 MLOAD PUSH2 0x30F SWAP2 SWAP1 PUSH2 0x12A7 JUMP JUMPDEST PUSH1 0x40 MLOAD DUP1 SWAP2 SUB SWAP1 RETURN JUMPDEST CALLVALUE DUP1 ISZERO PUSH2 0x323 JUMPI PUSH0 DUP1 REVERT JUMPDEST POP PUSH2 0x33E PUSH1 0x4 DUP1 CALLDATASIZE SUB DUP2 ADD SWAP1 PUSH2 0x339 SWAP2 SWAP1 PUSH2 0x115A JUMP JUMPDEST PUSH2 0xA10 JUMP JUMPDEST PUSH1 0x40 MLOAD PUSH2 0x34B SWAP2 SWAP1 PUSH2 0x12A7 JUMP JUMPDEST PUSH1 0x40 MLOAD DUP1 SWAP2 SUB SWAP1 RETURN JUMPDEST CALLVALUE DUP1 ISZERO PUSH2 0x35F JUMPI PUSH0 DUP1 REVERT JUMPDEST POP PUSH2 0x37A PUSH1 0x4 DUP1 CALLDATASIZE SUB DUP2 ADD SWAP1 PUSH2 0x375 SWAP2 SWAP1 PUSH2 0x14AF JUMP JUMPDEST PUSH2 0xAAE JUMP JUMPDEST PUSH1 0x40 MLOAD PUSH2 0x387 SWAP2 SWAP1 PUSH2 0x10B8 JUMP JUMPDEST PUSH1 0x40 MLOAD DUP1 SWAP2 SUB SWAP1 RETURN JUMPDEST CALLVALUE DUP1 ISZERO PUSH2 0x39B JUMPI PUSH0 DUP1 REVERT JUMPDEST POP PUSH2 0x3B6 PUSH1 0x4 DUP1 CALLDATASIZE SUB DUP2 ADD SWAP1 PUSH2 0x3B1 SWAP2 SWAP1 PUSH2 0x115A JUMP JUMPDEST PUSH2 0xACC JUMP JUMPDEST STOP JUMPDEST CALLVALUE DUP1 ISZERO PUSH2 0x3C3 JUMPI PUSH0 DUP1 REVERT JUMPDEST POP PUSH2 0x3DE PUSH1 0x4 DUP1 CALLDATASIZE SUB DUP2 ADD SWAP1 PUSH2 0x3D9 SWAP2 SWAP1 PUSH2 0x115A JUMP JUMPDEST PUSH2 0xAD4 JUMP JUMPDEST STOP JUMPDEST PUSH2 0x3FA PUSH1 0x4 DUP1 CALLDATASIZE SUB DUP2 ADD SWAP1 PUSH2 0x3F5 SWAP2 SWAP1 PUSH2 0x1588 JUMP JUMPDEST PUSH2 0xADC JUMP JUMPDEST PUSH1 0x40 MLOAD PUSH2 0x407 SWAP2 SWAP1 PUSH2 0x12A7 JUMP JUMPDEST PUSH1 0x40 MLOAD DUP1 SWAP2 SUB SWAP1 RETURN JUMPDEST CALLVALUE DUP1 ISZERO PUSH2 0x41B JUMPI PUSH0 DUP1 REVERT JUMPDEST POP PUSH2 0x436 PUSH1 0x4 DUP1 CALLDATASIZE SUB DUP2 ADD SWAP1 PUSH2 0x431 SWAP2 SWAP1 PUSH2 0x1068 JUMP JUMPDEST PUSH2 0xB79 JUMP JUMPDEST PUSH1 0x40 MLOAD PUSH2 0x443 SWAP2 SWAP1 PUSH2 0x10B8 JUMP JUMPDEST PUSH1 0x40 MLOAD DUP1 SWAP2 SUB SWAP1 RETURN JUMPDEST CALLVALUE DUP1 ISZERO PUSH2 0x457 JUMPI PUSH0 DUP1 REVERT JUMPDEST POP PUSH2 0x472 PUSH1 0x4 DUP1 CALLDATASIZE SUB DUP2 ADD SWAP1 PUSH2 0x46D SWAP2 SWAP1 PUSH2 0x115A JUMP JUMPDEST PUSH2 0xBD5 JUMP JUMPDEST PUSH1 0x40 MLOAD PUSH2 0x47F SWAP2 SWAP1 PUSH2 0x12A7 JUMP JUMPDEST PUSH1 0x40 MLOAD DUP1 SWAP2 SUB SWAP1 RETURN JUMPDEST CALLVALUE DUP1 ISZERO PUSH2 0x493 JUMPI PUSH0 DUP1 REVERT JUMPDEST POP PUSH2 0x49C PUSH2 0xC73 JUMP JUMPDEST PUSH1 0x40 MLOAD PUSH2 0x4A9 SWAP2 SWAP1 PUSH2 0x10E0 JUMP JUMPDEST PUSH1 0x40 MLOAD DUP1 SWAP2 SUB SWAP1 RETURN JUMPDEST CALLVALUE DUP1 ISZERO PUSH2 0x4BD JUMPI PUSH0 DUP1 REVERT JUMPDEST POP PUSH2 0x4C6 PUSH2 0xC96 JUMP JUMPDEST PUSH1 0x40 MLOAD PUSH2 0x4D3 SWAP2 SWAP1 PUSH2 0x10E0 JUMP JUMPDEST PUSH1 0x40 MLOAD DUP1 SWAP2 SUB SWAP1 RETURN JUMPDEST CALLVALUE DUP1 ISZERO PUSH2 0x4E7 JUMPI PUSH0 DUP1 REVERT JUMPDEST POP PUSH2 0x502 PUSH1 0x4 DUP1 CALLDATASIZE SUB DUP2 ADD SWAP1 PUSH2 0x4FD SWAP2 SWAP1 PUSH2 0x1068 JUMP JUMPDEST PUSH2 0xC9A JUMP JUMPDEST PUSH1 0x40 MLOAD PUSH2 0x50F SWAP2 SWAP1 PUSH2 0x10B8 JUMP JUMPDEST PUSH1 0x40 MLOAD DUP1 SWAP2 SUB SWAP1 RETURN JUMPDEST CALLVALUE DUP1 ISZERO PUSH2 0x523 JUMPI PUSH0 DUP1 REVERT JUMPDEST POP PUSH2 0x53E PUSH1 0x4 DUP1 CALLDATASIZE SUB DUP2 ADD SWAP1 PUSH2 0x539 SWAP2 SWAP1 PUSH2 0xFA9 JUMP JUMPDEST PUSH2 0xCBB JUMP JUMPDEST PUSH1 0x40 MLOAD PUSH2 0x54B SWAP2 SWAP1 PUSH2 0x10B8 JUMP JUMPDEST PUSH1 0x40 MLOAD DUP1 SWAP2 SUB SWAP1 RETURN JUMPDEST PUSH2 0x56E PUSH1 0x4 DUP1 CALLDATASIZE SUB DUP2 ADD SWAP1 PUSH2 0x569 SWAP2 SWAP1 PUSH2 0x1588 JUMP JUMPDEST PUSH2 0xCD5 JUMP JUMPDEST STOP JUMPDEST CALLVALUE DUP1 ISZERO PUSH2 0x57B JUMPI PUSH0 DUP1 REVERT JUMPDEST POP PUSH2 0x596 PUSH1 0x4 DUP1 CALLDATASIZE SUB DUP2 ADD SWAP1 PUSH2 0x591 SWAP2 SWAP1 PUSH2 0x160C JUMP JUMPDEST PUSH2 0xCDC JUMP JUMPDEST PUSH1 0x40 MLOAD PUSH2 0x5A4 SWAP3 SWAP2 SWAP1 PUSH2 0x1041 JUMP JUMPDEST PUSH1 0x40 MLOAD DUP1 SWAP2 SUB SWAP1 RETURN JUMPDEST CALLVALUE DUP1 ISZERO PUSH2 0x5B8 JUMPI PUSH0 DUP1 REVERT JUMPDEST POP PUSH2 0x5C1 PUSH2 0xD08 JUMP JUMPDEST PUSH1 0x40 MLOAD PUSH2 0x5CE SWAP2 SWAP1 PUSH2 0x10E0 JUMP JUMPDEST PUSH1 0x40 MLOAD DUP1 SWAP2 SUB SWAP1 RETURN JUMPDEST CALLVALUE DUP1 ISZERO PUSH2 0x5E2 JUMPI PUSH0 DUP1 REVERT JUMPDEST POP PUSH2 0x5FD PUSH1 0x4 DUP1 CALLDATASIZE SUB DUP2 ADD SWAP1 PUSH2 0x5F8 SWAP2 SWAP1 PUSH2 0x12C7 JUMP JUMPDEST PUSH2 0xD0C JUMP JUMPDEST PUSH1 0x40 MLOAD PUSH2 0x60A SWAP2 SWAP1 PUSH2 0x12A7 JUMP JUMPDEST PUSH1 0x40 MLOAD DUP1 SWAP2 SUB SWAP1 RETURN JUMPDEST CALLVALUE DUP1 ISZERO PUSH2 0x61E JUMPI PUSH0 DUP1 REVERT JUMPDEST POP PUSH2 0x639 PUSH1 0x4 DUP1 CALLDATASIZE SUB DUP2 ADD SWAP1 PUSH2 0x634 SWAP2 SWAP1 PUSH2 0x14AF JUMP JUMPDEST PUSH2 0xE00 JUMP JUMPDEST PUSH1 0x40 MLOAD PUSH2 0x647 SWAP3 SWAP2 SWAP1 PUSH2 0x1041 JUMP JUMPDEST PUSH1 0x40 MLOAD DUP1 SWAP2 SUB SWAP1 RETURN JUMPDEST CALLVALUE DUP1 ISZERO PUSH2 0x65B JUMPI PUSH0 DUP1 REVERT JUMPDEST POP PUSH2 0x676 PUSH1 0x4 DUP1 CALLDATASIZE SUB DUP2 ADD SWAP1 PUSH2 0x671 SWAP2 SWAP1 PUSH2 0x16A9 JUMP JUMPDEST PUSH2 0xE2F JUMP JUMPDEST PUSH1 0x40 MLOAD PUSH2 0x685 SWAP4 SWAP3 SWAP2 SWAP1 PUSH2 0x175A JUMP JUMPDEST PUSH1 0x40 MLOAD DUP1 SWAP2 SUB SWAP1 RETURN JUMPDEST PUSH2 0x6A8 PUSH1 0x4 DUP1 CALLDATASIZE SUB DUP2 ADD SWAP1 PUSH2 0x6A3 SWAP2 SWAP1 PUSH2 0xFA9 JUMP JUMPDEST PUSH2 0xE54 JUMP JUMPDEST PUSH1 0x40 MLOAD PUSH2 0x6B7 SWAP4 SWAP3 SWAP2 SWAP1 PUSH2 0x175A JUMP JUMPDEST PUSH1 0x40 MLOAD DUP1 SWAP2 SUB SWAP1 RETURN JUMPDEST PUSH2 0x6DA PUSH1 0x4 DUP1 CALLDATASIZE SUB DUP2 ADD SWAP1 PUSH2 0x6D5 SWAP2 SWAP1 PUSH2 0x1588 JUMP JUMPDEST PUSH2 0xE77 JUMP JUMPDEST PUSH1 0x40 MLOAD PUSH2 0x6E7 SWAP2 SWAP1 PUSH2 0x12A7 JUMP JUMPDEST PUSH1 0x40 MLOAD DUP1 SWAP2 SUB SWAP1 RETURN JUMPDEST PUSH0 DUP1 PUSH1 0x2 DUP8 PUSH2 0x6FF SWAP2 SWAP1 PUSH2 0x17E9 JUMP JUMPDEST PUSH1 0x2 DUP9 PUSH2 0x70C SWAP2 SWAP1 PUSH2 0x17E9 JUMP JUMPDEST SWAP2 POP SWAP2 POP SWAP7 POP SWAP7 SWAP5 POP POP POP POP POP JUMP JUMPDEST PUSH0 PUSH1 0x63 DUP5 PUSH2 0x729 SWAP2 SWAP1 PUSH2 0x1819 JUMP JUMPDEST PUSH1 0x64 DUP5 PUSH2 0x736 SWAP2 SWAP1 PUSH2 0x1819 JUMP JUMPDEST PUSH2 0x740 SWAP2 SWAP1 PUSH2 0x185A JUMP JUMPDEST DUP3 PUSH1 0x63 DUP7 PUSH2 0x74E SWAP2 SWAP1 PUSH2 0x1819 JUMP JUMPDEST PUSH2 0x758 SWAP2 SWAP1 PUSH2 0x1819 JUMP JUMPDEST PUSH2 0x762 SWAP2 SWAP1 PUSH2 0x17E9 JUMP JUMPDEST SWAP1 POP SWAP4 SWAP3 POP POP POP JUMP JUMPDEST PUSH1 0x1 PUSH0 SWAP1 SLOAD SWAP1 PUSH2 0x100 EXP SWAP1 DIV PUSH20 0xFFFFFFFFFFFFFFFFFFFFFFFFFFFFFFFFFFFFFFFF AND DUP2 JUMP JUMPDEST PUSH1 0x60 PUSH0 PUSH1 0x2 PUSH8 0xFFFFFFFFFFFFFFFF DUP2 GT ISZERO PUSH2 0x7AE JUMPI PUSH2 0x7AD PUSH2 0x188D JUMP JUMPDEST JUMPDEST PUSH1 0x40 MLOAD SWAP1 DUP1 DUP3 MSTORE DUP1 PUSH1 0x20 MUL PUSH1 0x20 ADD DUP3 ADD PUSH1 0x40 MSTORE DUP1 ISZERO PUSH2 0x7DC JUMPI DUP2 PUSH1 0x20 ADD PUSH1 0x20 DUP3 MUL DUP1 CALLDATASIZE DUP4 CALLDATACOPY DUP1 DUP3 ADD SWAP2 POP POP SWAP1 POP JUMPDEST POP SWAP1 POP DUP8 DUP2 PUSH0 DUP2 MLOAD DUP2 LT PUSH2 0x7F3 JUMPI PUSH2 0x7F2 PUSH2 0x18BA JUMP JUMPDEST JUMPDEST PUSH1 0x20 MUL PUSH1 0x20 ADD ADD DUP2 DUP2 MSTORE POP POP DUP7 DUP2 PUSH1 0x1 DUP2 MLOAD DUP2 LT PUSH2 0x814 JUMPI PUSH2 0x813 PUSH2 0x18BA JUMP JUMPDEST JUMPDEST PUSH1 0x20 MUL PUSH1 0x20 ADD ADD DUP2 DUP2 MSTORE POP POP DUP1 SWAP2 POP POP SWAP7 SWAP6 POP POP POP POP POP POP JUMP JUMPDEST PUSH1 0x60 DUP3 DUP3 SWAP1 POP PUSH8 0xFFFFFFFFFFFFFFFF DUP2 GT ISZERO PUSH2 0x84D JUMPI PUSH2 0x84C PUSH2 0x188D JUMP JUMPDEST JUMPDEST PUSH1 0x40 MLOAD SWAP1 DUP1 DUP3 MSTORE DUP1 PUSH1 0x20 MUL PUSH1 0x20 ADD DUP3 ADD PUSH1 0x40 MSTORE DUP1 ISZERO PUSH2 0x87B JUMPI DUP2 PUSH1 0x20 ADD PUSH1 0x20 DUP3 MUL DUP1 CALLDATASIZE DUP4 CALLDATACOPY DUP1 DUP3 ADD SWAP2 POP POP SWAP1 POP JUMPDEST POP SWAP1 POP DUP4 DUP2 PUSH1 0x1 DUP6 DUP6 SWAP1 POP PUSH2 0x890 SWAP2 SWAP1 PUSH2 0x18E7 JUMP JUMPDEST DUP2 MLOAD DUP2 LT PUSH2 0x8A1 JUMPI PUSH2 0x8A0 PUSH2 0x18BA JUMP JUMPDEST JUMPDEST PUSH1 0x20 MUL PUSH1 0x20 ADD ADD DUP2 DUP2 MSTORE POP POP PUSH0 PUSH1 0x1 DUP5 DUP5 SWAP1 POP PUSH2 0x8BE SWAP2 SWAP1 PUSH2 0x18E7 JUMP JUMPDEST SWAP1 POP JUMPDEST PUSH0 DUP2 GT ISZERO PUSH2 0x93A JUMPI PUSH1 0x64 PUSH1 0x65 DUP4 DUP4 DUP2 MLOAD DUP2 LT PUSH2 0x8E0 JUMPI PUSH2 0x8DF PUSH2 0x18BA JUMP JUMPDEST JUMPDEST PUSH1 0x20 MUL PUSH1 0x20 ADD ADD MLOAD PUSH2 0x8F2 SWAP2 SWAP1 PUSH2 0x1819 JUMP JUMPDEST PUSH2 0x8FC SWAP2 SWAP1 PUSH2 0x17E9 JUMP JUMPDEST DUP3 PUSH1 0x1 DUP4 PUSH2 0x90A SWAP2 SWAP1 PUSH2 0x18E7 JUMP JUMPDEST DUP2 MLOAD DUP2 LT PUSH2 0x91B JUMPI PUSH2 0x91A PUSH2 0x18BA JUMP JUMPDEST JUMPDEST PUSH1 0x20 MUL PUSH1 0x20 ADD ADD DUP2 DUP2 MSTORE POP POP DUP1 DUP1 PUSH2 0x932 SWAP1 PUSH2 0x191A JUMP JUMPDEST SWAP2 POP POP PUSH2 0x8C1 JUMP JUMPDEST POP SWAP4 SWAP3 POP POP POP JUMP JUMPDEST PUSH0 DUP1 PUSH1 0x2 DUP12 PUSH2 0x951 SWAP2 SWAP1 PUSH2 0x17E9 JUMP JUMPDEST PUSH1 0x2 DUP13 PUSH2 0x95E SWAP2 SWAP1 PUSH2 0x17E9 JUMP JUMPDEST SWAP2 POP SWAP2 POP SWAP12 POP SWAP12 SWAP10 POP POP POP POP POP POP POP POP POP POP JUMP JUMPDEST PUSH1 0x60 PUSH0 PUSH1 0x2 PUSH8 0xFFFFFFFFFFFFFFFF DUP2 GT ISZERO PUSH2 0x990 JUMPI PUSH2 0x98F PUSH2 0x188D JUMP JUMPDEST JUMPDEST PUSH1 0x40 MLOAD SWAP1 DUP1 DUP3 MSTORE DUP1 PUSH1 0x20 MUL PUSH1 0x20 ADD DUP3 ADD PUSH1 0x40 MSTORE DUP1 ISZERO PUSH2 0x9BE JUMPI DUP2 PUSH1 0x20 ADD PUSH1 0x20 DUP3 MUL DUP1 CALLDATASIZE DUP4 CALLDATACOPY DUP1 DUP3 ADD SWAP2 POP POP SWAP1 POP JUMPDEST POP SWAP1 POP DUP8 DUP2 PUSH0 DUP2 MLOAD DUP2 LT PUSH2 0x9D5 JUMPI PUSH2 0x9D4 PUSH2 0x18BA JUMP JUMPDEST JUMPDEST PUSH1 0x20 MUL PUSH1 0x20 ADD ADD DUP2 DUP2 MSTORE POP POP DUP7 DUP2 PUSH1 0x1 DUP2 MLOAD DUP2 LT PUSH2 0x9F6 JUMPI PUSH2 0x9F5 PUSH2 0x18BA JUMP JUMPDEST JUMPDEST PUSH1 0x20 MUL PUSH1 0x20 ADD ADD DUP2 DUP2 MSTORE POP POP DUP1 SWAP2 POP POP SWAP7 SWAP6 POP POP POP POP POP POP JUMP JUMPDEST PUSH1 0x60 PUSH0 PUSH1 0x2 PUSH8 0xFFFFFFFFFFFFFFFF DUP2 GT ISZERO PUSH2 0xA2E JUMPI PUSH2 0xA2D PUSH2 0x188D JUMP JUMPDEST JUMPDEST PUSH1 0x40 MLOAD SWAP1 DUP1 DUP3 MSTORE DUP1 PUSH1 0x20 MUL PUSH1 0x20 ADD DUP3 ADD PUSH1 0x40 MSTORE DUP1 ISZERO PUSH2 0xA5C JUMPI DUP2 PUSH1 0x20 ADD PUSH1 0x20 DUP3 MUL DUP1 CALLDATASIZE DUP4 CALLDATACOPY DUP1 DUP3 ADD SWAP2 POP POP SWAP1 POP JUMPDEST POP SWAP1 POP DUP8 DUP2 PUSH0 DUP2 MLOAD DUP2 LT PUSH2 0xA73 JUMPI PUSH2 0xA72 PUSH2 0x18BA JUMP JUMPDEST JUMPDEST PUSH1 0x20 MUL PUSH1 0x20 ADD ADD DUP2 DUP2 MSTORE POP POP DUP7 DUP2 PUSH1 0x1 DUP2 MLOAD DUP2 LT PUSH2 0xA94 JUMPI PUSH2 0xA93 PUSH2 0x18BA JUMP JUMPDEST JUMPDEST PUSH1 0x20 MUL PUSH1 0x20 ADD ADD DUP2 DUP2 MSTORE POP POP DUP1 SWAP2 POP POP SWAP7 SWAP6 POP POP POP POP POP POP JUMP JUMPDEST PUSH0 PUSH1 0x2 DUP11 PUSH2 0xABC SWAP2 SWAP1 PUSH2 0x17E9 JUMP JUMPDEST SWAP1 POP SWAP11 SWAP10 POP POP POP POP POP POP POP POP POP POP JUMP JUMPDEST POP POP POP POP POP POP JUMP JUMPDEST POP POP POP POP POP POP JUMP JUMPDEST PUSH1 0x60 PUSH0 PUSH1 0x2 PUSH8 0xFFFFFFFFFFFFFFFF DUP2 GT ISZERO PUSH2 0xAFA JUMPI PUSH2 0xAF9 PUSH2 0x188D JUMP JUMPDEST JUMPDEST PUSH1 0x40 MLOAD SWAP1 DUP1 DUP3 MSTORE DUP1 PUSH1 0x20 MUL PUSH1 0x20 ADD DUP3 ADD PUSH1 0x40 MSTORE DUP1 ISZERO PUSH2 0xB28 JUMPI DUP2 PUSH1 0x20 ADD PUSH1 0x20 DUP3 MUL DUP1 CALLDATASIZE DUP4 CALLDATACOPY DUP1 DUP3 ADD SWAP2 POP POP SWAP1 POP JUMPDEST POP SWAP1 POP CALLVALUE DUP2 PUSH0 DUP2 MLOAD DUP2 LT PUSH2 0xB3F JUMPI PUSH2 0xB3E PUSH2 0x18BA JUMP JUMPDEST JUMPDEST PUSH1 0x20 MUL PUSH1 0x20 ADD ADD DUP2 DUP2 MSTORE POP POP DUP7 DUP2 PUSH1 0x1 DUP2 MLOAD DUP2 LT PUSH2 0xB60 JUMPI PUSH2 0xB5F PUSH2 0x18BA JUMP JUMPDEST JUMPDEST PUSH1 0x20 MUL PUSH1 0x20 ADD ADD DUP2 DUP2 MSTORE POP POP DUP1 SWAP2 POP POP SWAP6 SWAP5 POP POP POP POP POP JUMP JUMPDEST PUSH0 PUSH1 0x1 PUSH1 0x63 DUP6 PUSH2 0xB89 SWAP2 SWAP1 PUSH2 0x1819 JUMP JUMPDEST PUSH1 0x63 DUP5 PUSH2 0xB96 SWAP2 SWAP1 PUSH2 0x1819 JUMP JUMPDEST PUSH2 0xBA0 SWAP2 SWAP1 PUSH2 0x18E7 JUMP JUMPDEST PUSH1 0x64 DUP7 DUP7 PUSH2 0xBAE SWAP2 SWAP1 PUSH2 0x1819 JUMP JUMPDEST PUSH2 0xBB8 SWAP2 SWAP1 PUSH2 0x1819 JUMP JUMPDEST PUSH2 0xBC2 SWAP2 SWAP1 PUSH2 0x17E9 JUMP JUMPDEST PUSH2 0xBCC SWAP2 SWAP1 PUSH2 0x185A JUMP JUMPDEST SWAP1 POP SWAP4 SWAP3 POP POP POP JUMP JUMPDEST PUSH1 0x60 PUSH0 PUSH1 0x2 PUSH8 0xFFFFFFFFFFFFFFFF DUP2 GT ISZERO PUSH2 0xBF3 JUMPI PUSH2 0xBF2 PUSH2 0x188D JUMP JUMPDEST JUMPDEST PUSH1 0x40 MLOAD SWAP1 DUP1 DUP3 MSTORE DUP1 PUSH1 0x20 MUL PUSH1 0x20 ADD DUP3 ADD PUSH1 0x40 MSTORE DUP1 ISZERO PUSH2 0xC21 JUMPI DUP2 PUSH1 0x20 ADD PUSH1 0x20 DUP3 MUL DUP1 CALLDATASIZE DUP4 CALLDATACOPY DUP1 DUP3 ADD SWAP2 POP POP SWAP1 POP JUMPDEST POP SWAP1 POP DUP8 DUP2 PUSH0 DUP2 MLOAD DUP2 LT PUSH2 0xC38 JUMPI PUSH2 0xC37 PUSH2 0x18BA JUMP JUMPDEST JUMPDEST PUSH1 0x20 MUL PUSH1 0x20 ADD ADD DUP2 DUP2 MSTORE POP POP DUP7 DUP2 PUSH1 0x1 DUP2 MLOAD DUP2 LT PUSH2 0xC59 JUMPI PUSH2 0xC58 PUSH2 0x18BA JUMP JUMPDEST JUMPDEST PUSH1 0x20 MUL PUSH1 0x20 ADD ADD DUP2 DUP2 MSTORE POP POP DUP1 SWAP2 POP POP SWAP7 SWAP6 POP POP POP POP POP POP JUMP JUMPDEST PUSH0 DUP1 SLOAD SWAP1 PUSH2 0x100 EXP SWAP1 DIV PUSH20 0xFFFFFFFFFFFFFFFFFFFFFFFFFFFFFFFFFFFFFFFF AND DUP2 JUMP JUMPDEST PUSH0 SWAP1 JUMP JUMPDEST PUSH0 DUP3 DUP3 DUP6 PUSH2 0xCA8 SWAP2 SWAP1 PUSH2 0x1819 JUMP JUMPDEST PUSH2 0xCB2 SWAP2 SWAP1 PUSH2 0x17E9 JUMP JUMPDEST SWAP1 POP SWAP4 SWAP3 POP POP POP JUMP JUMPDEST PUSH0 PUSH1 0x2 DUP7 PUSH2 0xCC9 SWAP2 SWAP1 PUSH2 0x17E9 JUMP JUMPDEST SWAP1 POP SWAP7 SWAP6 POP POP POP POP POP POP JUMP JUMPDEST POP POP POP POP POP JUMP JUMPDEST PUSH0 DUP1 PUSH1 0x2 DUP8 PUSH2 0xCEB SWAP2 SWAP1 PUSH2 0x17E9 JUMP JUMPDEST PUSH1 0x2 DUP9 PUSH2 0xCF8 SWAP2 SWAP1 PUSH2 0x17E9 JUMP JUMPDEST SWAP2 POP SWAP2 POP SWAP8 POP SWAP8 SWAP6 POP POP POP POP POP POP JUMP JUMPDEST PUSH0 SWAP1 JUMP JUMPDEST PUSH1 0x60 DUP3 DUP3 SWAP1 POP PUSH8 0xFFFFFFFFFFFFFFFF DUP2 GT ISZERO PUSH2 0xD2B JUMPI PUSH2 0xD2A PUSH2 0x188D JUMP JUMPDEST JUMPDEST PUSH1 0x40 MLOAD SWAP1 DUP1 DUP3 MSTORE DUP1 PUSH1 0x20 MUL PUSH1 0x20 ADD DUP3 ADD PUSH1 0x40 MSTORE DUP1 ISZERO PUSH2 0xD59 JUMPI DUP2 PUSH1 0x20 ADD PUSH1 0x20 DUP3 MUL DUP1 CALLDATASIZE DUP4 CALLDATACOPY DUP1 DUP3 ADD SWAP2 POP POP SWAP1 POP JUMPDEST POP SWAP1 POP DUP4 DUP2 PUSH0 DUP2 MLOAD DUP2 LT PUSH2 0xD70 JUMPI PUSH2 0xD6F PUSH2 0x18BA JUMP JUMPDEST JUMPDEST PUSH1 0x20 MUL PUSH1 0x20 ADD ADD DUP2 DUP2 MSTORE POP POP PUSH0 PUSH1 0x1 SWAP1 POP JUMPDEST DUP4 DUP4 SWAP1 POP DUP2 LT ISZERO PUSH2 0xDF8 JUMPI PUSH1 0x64 PUSH1 0x63 DUP4 PUSH1 0x1 DUP5 PUSH2 0xD9F SWAP2 SWAP1 PUSH2 0x18E7 JUMP JUMPDEST DUP2 MLOAD DUP2 LT PUSH2 0xDB0 JUMPI PUSH2 0xDAF PUSH2 0x18BA JUMP JUMPDEST JUMPDEST PUSH1 0x20 MUL PUSH1 0x20 ADD ADD MLOAD PUSH2 0xDC2 SWAP2 SWAP1 PUSH2 0x1819 JUMP JUMPDEST PUSH2 0xDCC SWAP2 SWAP1 PUSH2 0x17E9 JUMP JUMPDEST DUP3 DUP3 DUP2 MLOAD DUP2 LT PUSH2 0xDDF JUMPI PUSH2 0xDDE PUSH2 0x18BA JUMP JUMPDEST JUMPDEST PUSH1 0x20 MUL PUSH1 0x20 ADD ADD DUP2 DUP2 MSTORE POP POP DUP1 DUP1 PUSH1 0x1 ADD SWAP2 POP POP PUSH2 0xD82 JUMP JUMPDEST POP SWAP4 SWAP3 POP POP POP JUMP JUMPDEST PUSH0 DUP1 PUSH1 0x2 DUP12 PUSH2 0xE0F SWAP2 SWAP1 PUSH2 0x17E9 JUMP JUMPDEST PUSH1 0x2 DUP13 PUSH2 0xE1C SWAP2 SWAP1 PUSH2 0x17E9 JUMP JUMPDEST SWAP2 POP SWAP2 POP SWAP11 POP SWAP11 SWAP9 POP POP POP POP POP POP POP POP POP JUMP JUMPDEST PUSH0 DUP1 PUSH0 DUP9 DUP9 DUP10 DUP12 PUSH2 0xE40 SWAP2 SWAP1 PUSH2 0x185A JUMP JUMPDEST SWAP3 POP SWAP3 POP SWAP3 POP SWAP9 POP SWAP9 POP SWAP9 SWAP6 POP POP POP POP POP POP JUMP JUMPDEST PUSH0 DUP1 PUSH0 DUP8 CALLVALUE CALLVALUE DUP11 PUSH2 0xE65 SWAP2 SWAP1 PUSH2 0x185A JUMP JUMPDEST SWAP3 POP SWAP3 POP SWAP3 POP SWAP7 POP SWAP7 POP SWAP7 SWAP4 POP POP POP POP JUMP JUMPDEST PUSH1 0x60 PUSH0 PUSH1 0x2 PUSH8 0xFFFFFFFFFFFFFFFF DUP2 GT ISZERO PUSH2 0xE95 JUMPI PUSH2 0xE94 PUSH2 0x188D JUMP JUMPDEST JUMPDEST PUSH1 0x40 MLOAD SWAP1 DUP1 DUP3 MSTORE DUP1 PUSH1 0x20 MUL PUSH1 0x20 ADD DUP3 ADD PUSH1 0x40 MSTORE DUP1 ISZERO PUSH2 0xEC3 JUMPI DUP2 PUSH1 0x20 ADD PUSH1 0x20 DUP3 MUL DUP1 CALLDATASIZE DUP4 CALLDATACOPY DUP1 DUP3 ADD SWAP2 POP POP SWAP1 POP JUMPDEST POP SWAP1 POP DUP7 DUP2 PUSH0 DUP2 MLOAD DUP2 LT PUSH2 0xEDA JUMPI PUSH2 0xED9 PUSH2 0x18BA JUMP JUMPDEST JUMPDEST PUSH1 0x20 MUL PUSH1 0x20 ADD ADD DUP2 DUP2 MSTORE POP POP CALLVALUE DUP2 PUSH1 0x1 DUP2 MLOAD DUP2 LT PUSH2 0xEFB JUMPI PUSH2 0xEFA PUSH2 0x18BA JUMP JUMPDEST JUMPDEST PUSH1 0x20 MUL PUSH1 0x20 ADD ADD DUP2 DUP2 MSTORE POP POP DUP1 SWAP2 POP POP SWAP6 SWAP5 POP POP POP POP POP JUMP JUMPDEST PUSH0 DUP1 REVERT JUMPDEST PUSH0 DUP1 REVERT JUMPDEST PUSH0 PUSH20 0xFFFFFFFFFFFFFFFFFFFFFFFFFFFFFFFFFFFFFFFF DUP3 AND SWAP1 POP SWAP2 SWAP1 POP JUMP JUMPDEST PUSH0 PUSH2 0xF45 DUP3 PUSH2 0xF1C JUMP JUMPDEST SWAP1 POP SWAP2 SWAP1 POP JUMP JUMPDEST PUSH2 0xF55 DUP2 PUSH2 0xF3B JUMP JUMPDEST DUP2 EQ PUSH2 0xF5F JUMPI PUSH0 DUP1 REVERT JUMPDEST POP JUMP JUMPDEST PUSH0 DUP2 CALLDATALOAD SWAP1 POP PUSH2 0xF70 DUP2 PUSH2 0xF4C JUMP JUMPDEST SWAP3 SWAP2 POP POP JUMP JUMPDEST PUSH0 DUP2 SWAP1 POP SWAP2 SWAP1 POP JUMP JUMPDEST PUSH2 0xF88 DUP2 PUSH2 0xF76 JUMP JUMPDEST DUP2 EQ PUSH2 0xF92 JUMPI PUSH0 DUP1 REVERT JUMPDEST POP JUMP JUMPDEST PUSH0 DUP2 CALLDATALOAD SWAP1 POP PUSH2 0xFA3 DUP2 PUSH2 0xF7F JUMP JUMPDEST SWAP3 SWAP2 POP POP JUMP JUMPDEST PUSH0 DUP1 PUSH0 DUP1 PUSH0 DUP1 PUSH1 0xC0 DUP8 DUP10 SUB SLT ISZERO PUSH2 0xFC3 JUMPI PUSH2 0xFC2 PUSH2 0xF14 JUMP JUMPDEST JUMPDEST PUSH0 PUSH2 0xFD0 DUP10 DUP3 DUP11 ADD PUSH2 0xF62 JUMP JUMPDEST SWAP7 POP POP PUSH1 0x20 PUSH2 0xFE1 DUP10 DUP3 DUP11 ADD PUSH2 0xF95 JUMP JUMPDEST SWAP6 POP POP PUSH1 0x40 PUSH2 0xFF2 DUP10 DUP3 DUP11 ADD PUSH2 0xF95 JUMP JUMPDEST SWAP5 POP POP PUSH1 0x60 PUSH2 0x1003 DUP10 DUP3 DUP11 ADD PUSH2 0xF95 JUMP JUMPDEST SWAP4 POP POP PUSH1 0x80 PUSH2 0x1014 DUP10 DUP3 DUP11 ADD PUSH2 0xF62 JUMP JUMPDEST SWAP3 POP POP PUSH1 0xA0 PUSH2 0x1025 DUP10 DUP3 DUP11 ADD PUSH2 0xF95 JUMP JUMPDEST SWAP2 POP POP SWAP3 SWAP6 POP SWAP3 SWAP6 POP SWAP3 SWAP6 JUMP JUMPDEST PUSH2 0x103B DUP2 PUSH2 0xF76 JUMP JUMPDEST DUP3 MSTORE POP POP JUMP JUMPDEST PUSH0 PUSH1 0x40 DUP3 ADD SWAP1 POP PUSH2 0x1054 PUSH0 DUP4 ADD DUP6 PUSH2 0x1032 JUMP JUMPDEST PUSH2 0x1061 PUSH1 0x20 DUP4 ADD DUP5 PUSH2 0x1032 JUMP JUMPDEST SWAP4 SWAP3 POP POP POP JUMP JUMPDEST PUSH0 DUP1 PUSH0 PUSH1 0x60 DUP5 DUP7 SUB SLT ISZERO PUSH2 0x107F JUMPI PUSH2 0x107E PUSH2 0xF14 JUMP JUMPDEST JUMPDEST PUSH0 PUSH2 0x108C DUP7 DUP3 DUP8 ADD PUSH2 0xF95 JUMP JUMPDEST SWAP4 POP POP PUSH1 0x20 PUSH2 0x109D DUP7 DUP3 DUP8 ADD PUSH2 0xF95 JUMP JUMPDEST SWAP3 POP POP PUSH1 0x40 PUSH2 0x10AE DUP7 DUP3 DUP8 ADD PUSH2 0xF95 JUMP JUMPDEST SWAP2 POP POP SWAP3 POP SWAP3 POP SWAP3 JUMP JUMPDEST PUSH0 PUSH1 0x20 DUP3 ADD SWAP1 POP PUSH2 0x10CB PUSH0 DUP4 ADD DUP5 PUSH2 0x1032 JUMP JUMPDEST SWAP3 SWAP2 POP POP JUMP JUMPDEST PUSH2 0x10DA DUP2 PUSH2 0xF3B JUMP JUMPDEST DUP3 MSTORE POP POP JUMP JUMPDEST PUSH0 PUSH1 0x20 DUP3 ADD SWAP1 POP PUSH2 0x10F3 PUSH0 DUP4 ADD DUP5 PUSH2 0x10D1 JUMP JUMPDEST SWAP3 SWAP2 POP POP JUMP JUMPDEST PUSH0 DUP1 REVERT JUMPDEST PUSH0 DUP1 REVERT JUMPDEST PUSH0 DUP1 REVERT JUMPDEST PUSH0 DUP1 DUP4 PUSH1 0x1F DUP5 ADD SLT PUSH2 0x111A JUMPI PUSH2 0x1119 PUSH2 0x10F9 JUMP JUMPDEST JUMPDEST DUP3 CALLDATALOAD SWAP1 POP PUSH8 0xFFFFFFFFFFFFFFFF DUP2 GT ISZERO PUSH2 0x1137 JUMPI PUSH2 0x1136 PUSH2 0x10FD JUMP JUMPDEST JUMPDEST PUSH1 0x20 DUP4 ADD SWAP2 POP DUP4 PUSH1 0x20 DUP3 MUL DUP4 ADD GT ISZERO PUSH2 0x1153 JUMPI PUSH2 0x1152 PUSH2 0x1101 JUMP JUMPDEST JUMPDEST SWAP3 POP SWAP3 SWAP1 POP JUMP JUMPDEST PUSH0 DUP1 PUSH0 DUP1 PUSH0 DUP1 PUSH1 0xA0 DUP8 DUP10 SUB SLT ISZERO PUSH2 0x1174 JUMPI PUSH2 0x1173 PUSH2 0xF14 JUMP JUMPDEST JUMPDEST PUSH0 PUSH2 0x1181 DUP10 DUP3 DUP11 ADD PUSH2 0xF95 JUMP JUMPDEST SWAP7 POP POP PUSH1 0x20 PUSH2 0x1192 DUP10 DUP3 DUP11 ADD PUSH2 0xF95 JUMP JUMPDEST SWAP6 POP POP PUSH1 0x40 DUP8 ADD CALLDATALOAD PUSH8 0xFFFFFFFFFFFFFFFF DUP2 GT ISZERO PUSH2 0x11B3 JUMPI PUSH2 0x11B2 PUSH2 0xF18 JUMP JUMPDEST JUMPDEST PUSH2 0x11BF DUP10 DUP3 DUP11 ADD PUSH2 0x1105 JUMP JUMPDEST SWAP5 POP SWAP5 POP POP PUSH1 0x60 PUSH2 0x11D2 DUP10 DUP3 DUP11 ADD PUSH2 0xF62 JUMP JUMPDEST SWAP3 POP POP PUSH1 0x80 PUSH2 0x11E3 DUP10 DUP3 DUP11 ADD PUSH2 0xF95 JUMP JUMPDEST SWAP2 POP POP SWAP3 SWAP6 POP SWAP3 SWAP6 POP SWAP3 SWAP6 JUMP JUMPDEST PUSH0 DUP2 MLOAD SWAP1 POP SWAP2 SWAP1 POP JUMP JUMPDEST PUSH0 DUP3 DUP3 MSTORE PUSH1 0x20 DUP3 ADD SWAP1 POP SWAP3 SWAP2 POP POP JUMP JUMPDEST PUSH0 DUP2 SWAP1 POP PUSH1 0x20 DUP3 ADD SWAP1 POP SWAP2 SWAP1 POP JUMP JUMPDEST PUSH2 0x1222 DUP2 PUSH2 0xF76 JUMP JUMPDEST DUP3 MSTORE POP POP JUMP JUMPDEST PUSH0 PUSH2 0x1233 DUP4 DUP4 PUSH2 0x1219 JUMP JUMPDEST PUSH1 0x20 DUP4 ADD SWAP1 POP SWAP3 SWAP2 POP POP JUMP JUMPDEST PUSH0 PUSH1 0x20 DUP3 ADD SWAP1 POP SWAP2 SWAP1 POP JUMP JUMPDEST PUSH0 PUSH2 0x1255 DUP3 PUSH2 0x11F0 JUMP JUMPDEST PUSH2 0x125F DUP2 DUP6 PUSH2 0x11FA JUMP JUMPDEST SWAP4 POP PUSH2 0x126A DUP4 PUSH2 0x120A JUMP JUMPDEST DUP1 PUSH0 JUMPDEST DUP4 DUP2 LT ISZERO PUSH2 0x129A JUMPI DUP2 MLOAD PUSH2 0x1281 DUP9 DUP3 PUSH2 0x1228 JUMP JUMPDEST SWAP8 POP PUSH2 0x128C DUP4 PUSH2 0x123F JUMP JUMPDEST SWAP3 POP POP PUSH1 0x1 DUP2 ADD SWAP1 POP PUSH2 0x126D JUMP JUMPDEST POP DUP6 SWAP4 POP POP POP POP SWAP3 SWAP2 POP POP JUMP JUMPDEST PUSH0 PUSH1 0x20 DUP3 ADD SWAP1 POP DUP2 DUP2 SUB PUSH0 DUP4 ADD MSTORE PUSH2 0x12BF DUP2 DUP5 PUSH2 0x124B JUMP JUMPDEST SWAP1 POP SWAP3 SWAP2 POP POP JUMP JUMPDEST PUSH0 DUP1 PUSH0 PUSH1 0x40 DUP5 DUP7 SUB SLT ISZERO PUSH2 0x12DE JUMPI PUSH2 0x12DD PUSH2 0xF14 JUMP JUMPDEST JUMPDEST PUSH0 PUSH2 0x12EB DUP7 DUP3 DUP8 ADD PUSH2 0xF95 JUMP JUMPDEST SWAP4 POP POP PUSH1 0x20 DUP5 ADD CALLDATALOAD PUSH8 0xFFFFFFFFFFFFFFFF DUP2 GT ISZERO PUSH2 0x130C JUMPI PUSH2 0x130B PUSH2 0xF18 JUMP JUMPDEST JUMPDEST PUSH2 0x1318 DUP7 DUP3 DUP8 ADD PUSH2 0x1105 JUMP JUMPDEST SWAP3 POP SWAP3 POP POP SWAP3 POP SWAP3 POP SWAP3 JUMP JUMPDEST PUSH0 DUP2 ISZERO ISZERO SWAP1 POP SWAP2 SWAP1 POP JUMP JUMPDEST PUSH2 0x1338 DUP2 PUSH2 0x1324 JUMP JUMPDEST DUP2 EQ PUSH2 0x1342 JUMPI PUSH0 DUP1 REVERT JUMPDEST POP JUMP JUMPDEST PUSH0 DUP2 CALLDATALOAD SWAP1 POP PUSH2 0x1353 DUP2 PUSH2 0x132F JUMP JUMPDEST SWAP3 SWAP2 POP POP JUMP JUMPDEST PUSH0 PUSH1 0xFF DUP3 AND SWAP1 POP SWAP2 SWAP1 POP JUMP JUMPDEST PUSH2 0x136E DUP2 PUSH2 0x1359 JUMP JUMPDEST DUP2 EQ PUSH2 0x1378 JUMPI PUSH0 DUP1 REVERT JUMPDEST POP JUMP JUMPDEST PUSH0 DUP2 CALLDATALOAD SWAP1 POP PUSH2 0x1389 DUP2 PUSH2 0x1365 JUMP JUMPDEST SWAP3 SWAP2 POP POP JUMP JUMPDEST PUSH0 DUP2 SWAP1 POP SWAP2 SWAP1 POP JUMP JUMPDEST PUSH2 0x13A1 DUP2 PUSH2 0x138F JUMP JUMPDEST DUP2 EQ PUSH2 0x13AB JUMPI PUSH0 DUP1 REVERT JUMPDEST POP JUMP JUMPDEST PUSH0 DUP2 CALLDATALOAD SWAP1 POP PUSH2 0x13BC DUP2 PUSH2 0x1398 JUMP JUMPDEST SWAP3 SWAP2 POP POP JUMP JUMPDEST PUSH0 DUP1 PUSH0 DUP1 PUSH0 DUP1 PUSH0 DUP1 PUSH0 DUP1 PUSH0 PUSH2 0x160 DUP13 DUP15 SUB SLT ISZERO PUSH2 0x13E2 JUMPI PUSH2 0x13E1 PUSH2 0xF14 JUMP JUMPDEST JUMPDEST PUSH0 PUSH2 0x13EF DUP15 DUP3 DUP16 ADD PUSH2 0xF62 JUMP JUMPDEST SWAP12 POP POP PUSH1 0x20 PUSH2 0x1400 DUP15 DUP3 DUP16 ADD PUSH2 0xF62 JUMP JUMPDEST SWAP11 POP POP PUSH1 0x40 PUSH2 0x1411 DUP15 DUP3 DUP16 ADD PUSH2 0xF95 JUMP JUMPDEST SWAP10 POP POP PUSH1 0x60 PUSH2 0x1422 DUP15 DUP3 DUP16 ADD PUSH2 0xF95 JUMP JUMPDEST SWAP9 POP POP PUSH1 0x80 PUSH2 0x1433 DUP15 DUP3 DUP16 ADD PUSH2 0xF95 JUMP JUMPDEST SWAP8 POP POP PUSH1 0xA0 PUSH2 0x1444 DUP15 DUP3 DUP16 ADD PUSH2 0xF62 JUMP JUMPDEST SWAP7 POP POP PUSH1 0xC0 PUSH2 0x1455 DUP15 DUP3 DUP16 ADD PUSH2 0xF95 JUMP JUMPDEST SWAP6 POP POP PUSH1 0xE0 PUSH2 0x1466 DUP15 DUP3 DUP16 ADD PUSH2 0x1345 JUMP JUMPDEST SWAP5 POP POP PUSH2 0x100 PUSH2 0x1478 DUP15 DUP3 DUP16 ADD PUSH2 0x137B JUMP JUMPDEST SWAP4 POP POP PUSH2 0x120 PUSH2 0x148A DUP15 DUP3 DUP16 ADD PUSH2 0x13AE JUMP JUMPDEST SWAP3 POP POP PUSH2 0x140 PUSH2 0x149C DUP15 DUP3 DUP16 ADD PUSH2 0x13AE JUMP JUMPDEST SWAP2 POP POP SWAP3 SWAP6 SWAP9 SWAP12 POP SWAP3 SWAP6 SWAP9 SWAP12 SWAP1 SWAP4 SWAP7 SWAP10 POP JUMP JUMPDEST PUSH0 DUP1 PUSH0 DUP1 PUSH0 DUP1 PUSH0 DUP1 PUSH0 DUP1 PUSH2 0x140 DUP12 DUP14 SUB SLT ISZERO PUSH2 0x14CE JUMPI PUSH2 0x14CD PUSH2 0xF14 JUMP JUMPDEST JUMPDEST PUSH0 PUSH2 0x14DB DUP14 DUP3 DUP15 ADD PUSH2 0xF62 JUMP JUMPDEST SWAP11 POP POP PUSH1 0x20 PUSH2 0x14EC DUP14 DUP3 DUP15 ADD PUSH2 0xF95 JUMP JUMPDEST SWAP10 POP POP PUSH1 0x40 PUSH2 0x14FD DUP14 DUP3 DUP15 ADD PUSH2 0xF95 JUMP JUMPDEST SWAP9 POP POP PUSH1 0x60 PUSH2 0x150E DUP14 DUP3 DUP15 ADD PUSH2 0xF95 JUMP JUMPDEST SWAP8 POP POP PUSH1 0x80 PUSH2 0x151F DUP14 DUP3 DUP15 ADD PUSH2 0xF62 JUMP JUMPDEST SWAP7 POP POP PUSH1 0xA0 PUSH2 0x1530 DUP14 DUP3 DUP15 ADD PUSH2 0xF95 JUMP JUMPDEST SWAP6 POP POP PUSH1 0xC0 PUSH2 0x1541 DUP14 DUP3 DUP15 ADD PUSH2 0x1345 JUMP JUMPDEST SWAP5 POP POP PUSH1 0xE0 PUSH2 0x1552 DUP14 DUP3 DUP15 ADD PUSH2 0x137B JUMP JUMPDEST SWAP4 POP POP PUSH2 0x100 PUSH2 0x1564 DUP14 DUP3 DUP15 ADD PUSH2 0x13AE JUMP JUMPDEST SWAP3 POP POP PUSH2 0x120 PUSH2 0x1576 DUP14 DUP3 DUP15 ADD PUSH2 0x13AE JUMP JUMPDEST SWAP2 POP POP SWAP3 SWAP6 SWAP9 SWAP12 SWAP2 SWAP5 SWAP8 SWAP11 POP SWAP3 SWAP6 SWAP9 POP JUMP JUMPDEST PUSH0 DUP1 PUSH0 DUP1 PUSH0 PUSH1 0x80 DUP7 DUP9 SUB SLT ISZERO PUSH2 0x15A1 JUMPI PUSH2 0x15A0 PUSH2 0xF14 JUMP JUMPDEST JUMPDEST PUSH0 PUSH2 0x15AE DUP9 DUP3 DUP10 ADD PUSH2 0xF95 JUMP JUMPDEST SWAP6 POP POP PUSH1 0x20 DUP7 ADD CALLDATALOAD PUSH8 0xFFFFFFFFFFFFFFFF DUP2 GT ISZERO PUSH2 0x15CF JUMPI PUSH2 0x15CE PUSH2 0xF18 JUMP JUMPDEST JUMPDEST PUSH2 0x15DB DUP9 DUP3 DUP10 ADD PUSH2 0x1105 JUMP JUMPDEST SWAP5 POP SWAP5 POP POP PUSH1 0x40 PUSH2 0x15EE DUP9 DUP3 DUP10 ADD PUSH2 0xF62 JUMP JUMPDEST SWAP3 POP POP PUSH1 0x60 PUSH2 0x15FF DUP9 DUP3 DUP10 ADD PUSH2 0xF95 JUMP JUMPDEST SWAP2 POP POP SWAP3 SWAP6 POP SWAP3 SWAP6 SWAP1 SWAP4 POP JUMP JUMPDEST PUSH0 DUP1 PUSH0 DUP1 PUSH0 DUP1 PUSH0 PUSH1 0xE0 DUP9 DUP11 SUB SLT ISZERO PUSH2 0x1627 JUMPI PUSH2 0x1626 PUSH2 0xF14 JUMP JUMPDEST JUMPDEST PUSH0 PUSH2 0x1634 DUP11 DUP3 DUP12 ADD PUSH2 0xF62 JUMP JUMPDEST SWAP8 POP POP PUSH1 0x20 PUSH2 0x1645 DUP11 DUP3 DUP12 ADD PUSH2 0xF62 JUMP JUMPDEST SWAP7 POP POP PUSH1 0x40 PUSH2 0x1656 DUP11 DUP3 DUP12 ADD PUSH2 0xF95 JUMP JUMPDEST SWAP6 POP POP PUSH1 0x60 PUSH2 0x1667 DUP11 DUP3 DUP12 ADD PUSH2 0xF95 JUMP JUMPDEST SWAP5 POP POP PUSH1 0x80 PUSH2 0x1678 DUP11 DUP3 DUP12 ADD PUSH2 0xF95 JUMP JUMPDEST SWAP4 POP POP PUSH1 0xA0 PUSH2 0x1689 DUP11 DUP3 DUP12 ADD PUSH2 0xF62 JUMP JUMPDEST SWAP3 POP POP PUSH1 0xC0 PUSH2 0x169A DUP11 DUP3 DUP12 ADD PUSH2 0xF95 JUMP JUMPDEST SWAP2 POP POP SWAP3 SWAP6 SWAP9 SWAP2 SWAP5 SWAP8 POP SWAP3 SWAP6 POP JUMP JUMPDEST PUSH0 DUP1 PUSH0 DUP1 PUSH0 DUP1 PUSH0 DUP1 PUSH2 0x100 DUP10 DUP12 SUB SLT ISZERO PUSH2 0x16C6 JUMPI PUSH2 0x16C5 PUSH2 0xF14 JUMP JUMPDEST JUMPDEST PUSH0 PUSH2 0x16D3 DUP12 DUP3 DUP13 ADD PUSH2 0xF62 JUMP JUMPDEST SWAP9 POP POP PUSH1 0x20 PUSH2 0x16E4 DUP12 DUP3 DUP13 ADD PUSH2 0xF62 JUMP JUMPDEST SWAP8 POP POP PUSH1 0x40 PUSH2 0x16F5 DUP12 DUP3 DUP13 ADD PUSH2 0xF95 JUMP JUMPDEST SWAP7 POP POP PUSH1 0x60 PUSH2 0x1706 DUP12 DUP3 DUP13 ADD PUSH2 0xF95 JUMP JUMPDEST SWAP6 POP POP PUSH1 0x80 PUSH2 0x1717 DUP12 DUP3 DUP13 ADD PUSH2 0xF95 JUMP JUMPDEST SWAP5 POP POP PUSH1 0xA0 PUSH2 0x1728 DUP12 DUP3 DUP13 ADD PUSH2 0xF95 JUMP JUMPDEST SWAP4 POP POP PUSH1 0xC0 PUSH2 0x1739 DUP12 DUP3 DUP13 ADD PUSH2 0xF62 JUMP JUMPDEST SWAP3 POP POP PUSH1 0xE0 PUSH2 0x174A DUP12 DUP3 DUP13 ADD PUSH2 0xF95 JUMP JUMPDEST SWAP2 POP POP SWAP3 SWAP6 SWAP9 POP SWAP3 SWAP6 SWAP9 SWAP1 SWAP4 SWAP7 POP JUMP JUMPDEST PUSH0 PUSH1 0x60 DUP3 ADD SWAP1 POP PUSH2 0x176D PUSH0 DUP4 ADD DUP7 PUSH2 0x1032 JUMP JUMPDEST PUSH2 0x177A PUSH1 0x20 DUP4 ADD DUP6 PUSH2 0x1032 JUMP JUMPDEST PUSH2 0x1787 PUSH1 0x40 DUP4 ADD DUP5 PUSH2 0x1032 JUMP JUMPDEST SWAP5 SWAP4 POP POP POP POP JUMP JUMPDEST PUSH32 0x4E487B7100000000000000000000000000000000000000000000000000000000 PUSH0 MSTORE PUSH1 0x12 PUSH1 0x4 MSTORE PUSH1 0x24 PUSH0 REVERT JUMPDEST PUSH32 0x4E487B7100000000000000000000000000000000000000000000000000000000 PUSH0 MSTORE PUSH1 0x11 PUSH1 0x4 MSTORE PUSH1 0x24 PUSH0 REVERT JUMPDEST PUSH0 PUSH2 0x17F3 DUP3 PUSH2 0xF76 JUMP JUMPDEST SWAP2 POP PUSH2 0x17FE DUP4 PUSH2 0xF76 JUMP JUMPDEST SWAP3 POP DUP3 PUSH2 0x180E JUMPI PUSH2 0x180D PUSH2 0x178F JUMP JUMPDEST JUMPDEST DUP3 DUP3 DIV SWAP1 POP SWAP3 SWAP2 POP POP JUMP JUMPDEST PUSH0 PUSH2 0x1823 DUP3 PUSH2 0xF76 JUMP JUMPDEST SWAP2 POP PUSH2 0x182E DUP4 PUSH2 0xF76 JUMP JUMPDEST SWAP3 POP DUP3 DUP3 MUL PUSH2 0x183C DUP2 PUSH2 0xF76 JUMP JUMPDEST SWAP2 POP DUP3 DUP3 DIV DUP5 EQ DUP4 ISZERO OR PUSH2 0x1853 JUMPI PUSH2 0x1852 PUSH2 0x17BC JUMP JUMPDEST JUMPDEST POP SWAP3 SWAP2 POP POP JUMP JUMPDEST PUSH0 PUSH2 0x1864 DUP3 PUSH2 0xF76 JUMP JUMPDEST SWAP2 POP PUSH2 0x186F DUP4 PUSH2 0xF76 JUMP JUMPDEST SWAP3 POP DUP3 DUP3 ADD SWAP1 POP DUP1 DUP3 GT ISZERO PUSH2 0x1887 JUMPI PUSH2 0x1886 PUSH2 0x17BC JUMP JUMPDEST JUMPDEST SWAP3 SWAP2 POP POP JUMP JUMPDEST PUSH32 0x4E487B7100000000000000000000000000000000000000000000000000000000 PUSH0 MSTORE PUSH1 0x41 PUSH1 0x4 MSTORE PUSH1 0x24 PUSH0 REVERT JUMPDEST PUSH32 0x4E487B7100000000000000000000000000000000000000000000000000000000 PUSH0 MSTORE PUSH1 0x32 PUSH1 0x4 MSTORE PUSH1 0x24 PUSH0 REVERT JUMPDEST PUSH0 PUSH2 0x18F1 DUP3 PUSH2 0xF76 JUMP JUMPDEST SWAP2 POP PUSH2 0x18FC DUP4 PUSH2 0xF76 JUMP JUMPDEST SWAP3 POP DUP3 DUP3 SUB SWAP1 POP DUP2 DUP2 GT ISZERO PUSH2 0x1914 JUMPI PUSH2 0x1913 PUSH2 0x17BC JUMP JUMPDEST JUMPDEST SWAP3 SWAP2 POP POP JUMP JUMPDEST PUSH0 PUSH2 0x1924 DUP3 PUSH2 0xF76 JUMP JUMPDEST SWAP2 POP PUSH0 DUP3 SUB PUSH2 0x1936 JUMPI PUSH2 0x1935 PUSH2 0x17BC JUMP JUMPDEST JUMPDEST PUSH1 0x1 DUP3 SUB SWAP1 POP SWAP2 SWAP1 POP JUMP INVALID LOG2 PUSH5 0x6970667358 0x22 SLT KECCAK256 EQ PUSH6 0xB2CE81C2E090 0xC6 BASEFEE RETURNDATACOPY STATICCALL AND 0x2D LOG2 CALLDATACOPY 0xFC PUSH20 0xAE3C15AD6ABF17138C05FF1A2A9864736F6C6343 STOP ADDMOD BYTE STOP CALLER "
		},
		"gasEstimates": {
			"creation": {
				"codeDepositCost": "1303800",
				"executionCost": "infinite",
				"totalCost": "infinite"
			},
			"external": {
				"WETH()": "439",
				"WETHAddress()": "2576",
				"addLiquidity(address,address,uint256,uint256,uint256,uint256,address,uint256)": "infinite",
				"addLiquidityETH(address,uint256,uint256,uint256,address,uint256)": "infinite",
				"factory()": "439",
				"factoryAddress()": "2550",
				"getAmountIn(uint256,uint256,uint256)": "infinite",
				"getAmountOut(uint256,uint256,uint256)": "infinite",
				"getAmountsIn(uint256,address[])": "infinite",
				"getAmountsOut(uint256,address[])": "infinite",
				"quote(uint256,uint256,uint256)": "infinite",
				"removeLiquidity(address,address,uint256,uint256,uint256,address,uint256)": "infinite",
				"removeLiquidityETH(address,uint256,uint256,uint256,address,uint256)": "infinite",
				"removeLiquidityETHSupportingFeeOnTransferTokens(address,uint256,uint256,uint256,address,uint256)": "infinite",
				"removeLiquidityETHWithPermit(address,uint256,uint256,uint256,address,uint256,bool,uint8,bytes32,bytes32)": "infinite",
				"removeLiquidityETHWithPermitSupportingFeeOnTransferTokens(address,uint256,uint256,uint256,address,uint256,bool,uint8,bytes32,bytes32)": "infinite",
				"removeLiquidityWithPermit(address,address,uint256,uint256,uint256,address,uint256,bool,uint8,bytes32,bytes32)": "infinite",
				"swapETHForExactTokens(uint256,address[],address,uint256)": "infinite",
				"swapExactETHForTokens(uint256,address[],address,uint256)": "infinite",
				"swapExactETHForTokensSupportingFeeOnTransferTokens(uint256,address[],address,uint256)": "infinite",
				"swapExactTokensForETH(uint256,uint256,address[],address,uint256)": "infinite",
				"swapExactTokensForETHSupportingFeeOnTransferTokens(uint256,uint256,address[],address,uint256)": "infinite",
				"swapExactTokensForTokens(uint256,uint256,address[],address,uint256)": "infinite",
				"swapExactTokensForTokensSupportingFeeOnTransferTokens(uint256,uint256,address[],address,uint256)": "infinite",
				"swapTokensForExactETH(uint256,uint256,address[],address,uint256)": "infinite",
				"swapTokensForExactTokens(uint256,uint256,address[],address,uint256)": "infinite"
			}
		},
		"methodIdentifiers": {
			"WETH()": "ad5c4648",
			"WETHAddress()": "0af88b24",
			"addLiquidity(address,address,uint256,uint256,uint256,uint256,address,uint256)": "e8e33700",
			"addLiquidityETH(address,uint256,uint256,uint256,address,uint256)": "f305d719",
			"factory()": "c45a0155",
			"factoryAddress()": "966dae0e",
			"getAmountIn(uint256,uint256,uint256)": "85f8c259",
			"getAmountOut(uint256,uint256,uint256)": "054d50d4",
			"getAmountsIn(uint256,address[])": "1f00ca74",
			"getAmountsOut(uint256,address[])": "d06ca61f",
			"quote(uint256,uint256,uint256)": "ad615dec",
			"removeLiquidity(address,address,uint256,uint256,uint256,address,uint256)": "baa2abde",
			"removeLiquidityETH(address,uint256,uint256,uint256,address,uint256)": "02751cec",
			"removeLiquidityETHSupportingFeeOnTransferTokens(address,uint256,uint256,uint256,address,uint256)": "af2979eb",
			"removeLiquidityETHWithPermit(address,uint256,uint256,uint256,address,uint256,bool,uint8,bytes32,bytes32)": "ded9382a",
			"removeLiquidityETHWithPermitSupportingFeeOnTransferTokens(address,uint256,uint256,uint256,address,uint256,bool,uint8,bytes32,bytes32)": "5b0d5984",
			"removeLiquidityWithPermit(address,address,uint256,uint256,uint256,address,uint256,bool,uint8,bytes32,bytes32)": "2195995c",
			"swapETHForExactTokens(uint256,address[],address,uint256)": "fb3bdb41",
			"swapExactETHForTokens(uint256,address[],address,uint256)": "7ff36ab5",
			"swapExactETHForTokensSupportingFeeOnTransferTokens(uint256,address[],address,uint256)": "b6f9de95",
			"swapExactTokensForETH(uint256,uint256,address[],address,uint256)": "18cbafe5",
			"swapExactTokensForETHSupportingFeeOnTransferTokens(uint256,uint256,address[],address,uint256)": "791ac947",
			"swapExactTokensForTokens(uint256,uint256,address[],address,uint256)": "38ed1739",
			"swapExactTokensForTokensSupportingFeeOnTransferTokens(uint256,uint256,address[],address,uint256)": "5c11d795",
			"swapTokensForExactETH(uint256,uint256,address[],address,uint256)": "4a25d94a",
			"swapTokensForExactTokens(uint256,uint256,address[],address,uint256)": "8803dbee"
		}
	},
	"abi": [
		{
			"inputs": [
				{
					"internalType": "address",
					"name": "_factory",
					"type": "address"
				},
				{
					"internalType": "address",
					"name": "_WETH",
					"type": "address"
				}
			],
			"stateMutability": "nonpayable",
			"type": "constructor"
		},
		{
			"inputs": [],
			"name": "WETH",
			"outputs": [
				{
					"internalType": "address",
					"name": "",
					"type": "address"
				}
			],
			"stateMutability": "pure",
			"type": "function"
		},
		{
			"inputs": [],
			"name": "WETHAddress",
			"outputs": [
				{
					"internalType": "address",
					"name": "",
					"type": "address"
				}
			],
			"stateMutability": "view",
			"type": "function"
		},
		{
			"inputs": [
				{
					"internalType": "address",
					"name": "tokenA",
					"type": "address"
				},
				{
					"internalType": "address",
					"name": "tokenB",
					"type": "address"
				},
				{
					"internalType": "uint256",
					"name": "amountADesired",
					"type": "uint256"
				},
				{
					"internalType": "uint256",
					"name": "amountBDesired",
					"type": "uint256"
				},
				{
					"internalType": "uint256",
					"name": "amountAMin",
					"type": "uint256"
				},
				{
					"internalType": "uint256",
					"name": "amountBMin",
					"type": "uint256"
				},
				{
					"internalType": "address",
					"name": "to",
					"type": "address"
				},
				{
					"internalType": "uint256",
					"name": "deadline",
					"type": "uint256"
				}
			],
			"name": "addLiquidity",
			"outputs": [
				{
					"internalType": "uint256",
					"name": "amountA",
					"type": "uint256"
				},
				{
					"internalType": "uint256",
					"name": "amountB",
					"type": "uint256"
				},
				{
					"internalType": "uint256",
					"name": "liquidity",
					"type": "uint256"
				}
			],
			"stateMutability": "nonpayable",
			"type": "function"
		},
		{
			"inputs": [
				{
					"internalType": "address",
					"name": "token",
					"type": "address"
				},
				{
					"internalType": "uint256",
					"name": "amountTokenDesired",
					"type": "uint256"
				},
				{
					"internalType": "uint256",
					"name": "amountTokenMin",
					"type": "uint256"
				},
				{
					"internalType": "uint256",
					"name": "amountETHMin",
					"type": "uint256"
				},
				{
					"internalType": "address",
					"name": "to",
					"type": "address"
				},
				{
					"internalType": "uint256",
					"name": "deadline",
					"type": "uint256"
				}
			],
			"name": "addLiquidityETH",
			"outputs": [
				{
					"internalType": "uint256",
					"name": "amountToken",
					"type": "uint256"
				},
				{
					"internalType": "uint256",
					"name": "amountETH",
					"type": "uint256"
				},
				{
					"internalType": "uint256",
					"name": "liquidity",
					"type": "uint256"
				}
			],
			"stateMutability": "payable",
			"type": "function"
		},
		{
			"inputs": [],
			"name": "factory",
			"outputs": [
				{
					"internalType": "address",
					"name": "",
					"type": "address"
				}
			],
			"stateMutability": "pure",
			"type": "function"
		},
		{
			"inputs": [],
			"name": "factoryAddress",
			"outputs": [
				{
					"internalType": "address",
					"name": "",
					"type": "address"
				}
			],
			"stateMutability": "view",
			"type": "function"
		},
		{
			"inputs": [
				{
					"internalType": "uint256",
					"name": "amountOut",
					"type": "uint256"
				},
				{
					"internalType": "uint256",
					"name": "reserveIn",
					"type": "uint256"
				},
				{
					"internalType": "uint256",
					"name": "reserveOut",
					"type": "uint256"
				}
			],
			"name": "getAmountIn",
			"outputs": [
				{
					"internalType": "uint256",
					"name": "amountIn",
					"type": "uint256"
				}
			],
			"stateMutability": "pure",
			"type": "function"
		},
		{
			"inputs": [
				{
					"internalType": "uint256",
					"name": "amountIn",
					"type": "uint256"
				},
				{
					"internalType": "uint256",
					"name": "reserveIn",
					"type": "uint256"
				},
				{
					"internalType": "uint256",
					"name": "reserveOut",
					"type": "uint256"
				}
			],
			"name": "getAmountOut",
			"outputs": [
				{
					"internalType": "uint256",
					"name": "amountOut",
					"type": "uint256"
				}
			],
			"stateMutability": "pure",
			"type": "function"
		},
		{
			"inputs": [
				{
					"internalType": "uint256",
					"name": "amountOut",
					"type": "uint256"
				},
				{
					"internalType": "address[]",
					"name": "path",
					"type": "address[]"
				}
			],
			"name": "getAmountsIn",
			"outputs": [
				{
					"internalType": "uint256[]",
					"name": "amounts",
					"type": "uint256[]"
				}
			],
			"stateMutability": "view",
			"type": "function"
		},
		{
			"inputs": [
				{
					"internalType": "uint256",
					"name": "amountIn",
					"type": "uint256"
				},
				{
					"internalType": "address[]",
					"name": "path",
					"type": "address[]"
				}
			],
			"name": "getAmountsOut",
			"outputs": [
				{
					"internalType": "uint256[]",
					"name": "amounts",
					"type": "uint256[]"
				}
			],
			"stateMutability": "view",
			"type": "function"
		},
		{
			"inputs": [
				{
					"internalType": "uint256",
					"name": "amountA",
					"type": "uint256"
				},
				{
					"internalType": "uint256",
					"name": "reserveA",
					"type": "uint256"
				},
				{
					"internalType": "uint256",
					"name": "reserveB",
					"type": "uint256"
				}
			],
			"name": "quote",
			"outputs": [
				{
					"internalType": "uint256",
					"name": "amountB",
					"type": "uint256"
				}
			],
			"stateMutability": "pure",
			"type": "function"
		},
		{
			"inputs": [
				{
					"internalType": "address",
					"name": "tokenA",
					"type": "address"
				},
				{
					"internalType": "address",
					"name": "tokenB",
					"type": "address"
				},
				{
					"internalType": "uint256",
					"name": "liquidity",
					"type": "uint256"
				},
				{
					"internalType": "uint256",
					"name": "amountAMin",
					"type": "uint256"
				},
				{
					"internalType": "uint256",
					"name": "amountBMin",
					"type": "uint256"
				},
				{
					"internalType": "address",
					"name": "to",
					"type": "address"
				},
				{
					"internalType": "uint256",
					"name": "deadline",
					"type": "uint256"
				}
			],
			"name": "removeLiquidity",
			"outputs": [
				{
					"internalType": "uint256",
					"name": "amountA",
					"type": "uint256"
				},
				{
					"internalType": "uint256",
					"name": "amountB",
					"type": "uint256"
				}
			],
			"stateMutability": "nonpayable",
			"type": "function"
		},
		{
			"inputs": [
				{
					"internalType": "address",
					"name": "token",
					"type": "address"
				},
				{
					"internalType": "uint256",
					"name": "liquidity",
					"type": "uint256"
				},
				{
					"internalType": "uint256",
					"name": "amountTokenMin",
					"type": "uint256"
				},
				{
					"internalType": "uint256",
					"name": "amountETHMin",
					"type": "uint256"
				},
				{
					"internalType": "address",
					"name": "to",
					"type": "address"
				},
				{
					"internalType": "uint256",
					"name": "deadline",
					"type": "uint256"
				}
			],
			"name": "removeLiquidityETH",
			"outputs": [
				{
					"internalType": "uint256",
					"name": "amountToken",
					"type": "uint256"
				},
				{
					"internalType": "uint256",
					"name": "amountETH",
					"type": "uint256"
				}
			],
			"stateMutability": "nonpayable",
			"type": "function"
		},
		{
			"inputs": [
				{
					"internalType": "address",
					"name": "token",
					"type": "address"
				},
				{
					"internalType": "uint256",
					"name": "liquidity",
					"type": "uint256"
				},
				{
					"internalType": "uint256",
					"name": "amountTokenMin",
					"type": "uint256"
				},
				{
					"internalType": "uint256",
					"name": "amountETHMin",
					"type": "uint256"
				},
				{
					"internalType": "address",
					"name": "to",
					"type": "address"
				},
				{
					"internalType": "uint256",
					"name": "deadline",
					"type": "uint256"
				}
			],
			"name": "removeLiquidityETHSupportingFeeOnTransferTokens",
			"outputs": [
				{
					"internalType": "uint256",
					"name": "amountETH",
					"type": "uint256"
				}
			],
			"stateMutability": "nonpayable",
			"type": "function"
		},
		{
			"inputs": [
				{
					"internalType": "address",
					"name": "token",
					"type": "address"
				},
				{
					"internalType": "uint256",
					"name": "liquidity",
					"type": "uint256"
				},
				{
					"internalType": "uint256",
					"name": "amountTokenMin",
					"type": "uint256"
				},
				{
					"internalType": "uint256",
					"name": "amountETHMin",
					"type": "uint256"
				},
				{
					"internalType": "address",
					"name": "to",
					"type": "address"
				},
				{
					"internalType": "uint256",
					"name": "deadline",
					"type": "uint256"
				},
				{
					"internalType": "bool",
					"name": "approveMax",
					"type": "bool"
				},
				{
					"internalType": "uint8",
					"name": "v",
					"type": "uint8"
				},
				{
					"internalType": "bytes32",
					"name": "r",
					"type": "bytes32"
				},
				{
					"internalType": "bytes32",
					"name": "s",
					"type": "bytes32"
				}
			],
			"name": "removeLiquidityETHWithPermit",
			"outputs": [
				{
					"internalType": "uint256",
					"name": "amountToken",
					"type": "uint256"
				},
				{
					"internalType": "uint256",
					"name": "amountETH",
					"type": "uint256"
				}
			],
			"stateMutability": "nonpayable",
			"type": "function"
		},
		{
			"inputs": [
				{
					"internalType": "address",
					"name": "token",
					"type": "address"
				},
				{
					"internalType": "uint256",
					"name": "liquidity",
					"type": "uint256"
				},
				{
					"internalType": "uint256",
					"name": "amountTokenMin",
					"type": "uint256"
				},
				{
					"internalType": "uint256",
					"name": "amountETHMin",
					"type": "uint256"
				},
				{
					"internalType": "address",
					"name": "to",
					"type": "address"
				},
				{
					"internalType": "uint256",
					"name": "deadline",
					"type": "uint256"
				},
				{
					"internalType": "bool",
					"name": "approveMax",
					"type": "bool"
				},
				{
					"internalType": "uint8",
					"name": "v",
					"type": "uint8"
				},
				{
					"internalType": "bytes32",
					"name": "r",
					"type": "bytes32"
				},
				{
					"internalType": "bytes32",
					"name": "s",
					"type": "bytes32"
				}
			],
			"name": "removeLiquidityETHWithPermitSupportingFeeOnTransferTokens",
			"outputs": [
				{
					"internalType": "uint256",
					"name": "amountETH",
					"type": "uint256"
				}
			],
			"stateMutability": "nonpayable",
			"type": "function"
		},
		{
			"inputs": [
				{
					"internalType": "address",
					"name": "tokenA",
					"type": "address"
				},
				{
					"internalType": "address",
					"name": "tokenB",
					"type": "address"
				},
				{
					"internalType": "uint256",
					"name": "liquidity",
					"type": "uint256"
				},
				{
					"internalType": "uint256",
					"name": "amountAMin",
					"type": "uint256"
				},
				{
					"internalType": "uint256",
					"name": "amountBMin",
					"type": "uint256"
				},
				{
					"internalType": "address",
					"name": "to",
					"type": "address"
				},
				{
					"internalType": "uint256",
					"name": "deadline",
					"type": "uint256"
				},
				{
					"internalType": "bool",
					"name": "approveMax",
					"type": "bool"
				},
				{
					"internalType": "uint8",
					"name": "v",
					"type": "uint8"
				},
				{
					"internalType": "bytes32",
					"name": "r",
					"type": "bytes32"
				},
				{
					"internalType": "bytes32",
					"name": "s",
					"type": "bytes32"
				}
			],
			"name": "removeLiquidityWithPermit",
			"outputs": [
				{
					"internalType": "uint256",
					"name": "amountA",
					"type": "uint256"
				},
				{
					"internalType": "uint256",
					"name": "amountB",
					"type": "uint256"
				}
			],
			"stateMutability": "nonpayable",
			"type": "function"
		},
		{
			"inputs": [
				{
					"internalType": "uint256",
					"name": "amountOut",
					"type": "uint256"
				},
				{
					"internalType": "address[]",
					"name": "path",
					"type": "address[]"
				},
				{
					"internalType": "address",
					"name": "to",
					"type": "address"
				},
				{
					"internalType": "uint256",
					"name": "deadline",
					"type": "uint256"
				}
			],
			"name": "swapETHForExactTokens",
			"outputs": [
				{
					"internalType": "uint256[]",
					"name": "amounts",
					"type": "uint256[]"
				}
			],
			"stateMutability": "payable",
			"type": "function"
		},
		{
			"inputs": [
				{
					"internalType": "uint256",
					"name": "amountOutMin",
					"type": "uint256"
				},
				{
					"internalType": "address[]",
					"name": "path",
					"type": "address[]"
				},
				{
					"internalType": "address",
					"name": "to",
					"type": "address"
				},
				{
					"internalType": "uint256",
					"name": "deadline",
					"type": "uint256"
				}
			],
			"name": "swapExactETHForTokens",
			"outputs": [
				{
					"internalType": "uint256[]",
					"name": "amounts",
					"type": "uint256[]"
				}
			],
			"stateMutability": "payable",
			"type": "function"
		},
		{
			"inputs": [
				{
					"internalType": "uint256",
					"name": "amountOutMin",
					"type": "uint256"
				},
				{
					"internalType": "address[]",
					"name": "path",
					"type": "address[]"
				},
				{
					"internalType": "address",
					"name": "to",
					"type": "address"
				},
				{
					"internalType": "uint256",
					"name": "deadline",
					"type": "uint256"
				}
			],
			"name": "swapExactETHForTokensSupportingFeeOnTransferTokens",
			"outputs": [],
			"stateMutability": "payable",
			"type": "function"
		},
		{
			"inputs": [
				{
					"internalType": "uint256",
					"name": "amountIn",
					"type": "uint256"
				},
				{
					"internalType": "uint256",
					"name": "amountOutMin",
					"type": "uint256"
				},
				{
					"internalType": "address[]",
					"name": "path",
					"type": "address[]"
				},
				{
					"internalType": "address",
					"name": "to",
					"type": "address"
				},
				{
					"internalType": "uint256",
					"name": "deadline",
					"type": "uint256"
				}
			],
			"name": "swapExactTokensForETH",
			"outputs": [
				{
					"internalType": "uint256[]",
					"name": "amounts",
					"type": "uint256[]"
				}
			],
			"stateMutability": "nonpayable",
			"type": "function"
		},
		{
			"inputs": [
				{
					"internalType": "uint256",
					"name": "amountIn",
					"type": "uint256"
				},
				{
					"internalType": "uint256",
					"name": "amountOutMin",
					"type": "uint256"
				},
				{
					"internalType": "address[]",
					"name": "path",
					"type": "address[]"
				},
				{
					"internalType": "address",
					"name": "to",
					"type": "address"
				},
				{
					"internalType": "uint256",
					"name": "deadline",
					"type": "uint256"
				}
			],
			"name": "swapExactTokensForETHSupportingFeeOnTransferTokens",
			"outputs": [],
			"stateMutability": "nonpayable",
			"type": "function"
		},
		{
			"inputs": [
				{
					"internalType": "uint256",
					"name": "amountIn",
					"type": "uint256"
				},
				{
					"internalType": "uint256",
					"name": "amountOutMin",
					"type": "uint256"
				},
				{
					"internalType": "address[]",
					"name": "path",
					"type": "address[]"
				},
				{
					"internalType": "address",
					"name": "to",
					"type": "address"
				},
				{
					"internalType": "uint256",
					"name": "deadline",
					"type": "uint256"
				}
			],
			"name": "swapExactTokensForTokens",
			"outputs": [
				{
					"internalType": "uint256[]",
					"name": "amounts",
					"type": "uint256[]"
				}
			],
			"stateMutability": "nonpayable",
			"type": "function"
		},
		{
			"inputs": [
				{
					"internalType": "uint256",
					"name": "amountIn",
					"type": "uint256"
				},
				{
					"internalType": "uint256",
					"name": "amountOutMin",
					"type": "uint256"
				},
				{
					"internalType": "address[]",
					"name": "path",
					"type": "address[]"
				},
				{
					"internalType": "address",
					"name": "to",
					"type": "address"
				},
				{
					"internalType": "uint256",
					"name": "deadline",
					"type": "uint256"
				}
			],
			"name": "swapExactTokensForTokensSupportingFeeOnTransferTokens",
			"outputs": [],
			"stateMutability": "nonpayable",
			"type": "function"
		},
		{
			"inputs": [
				{
					"internalType": "uint256",
					"name": "amountOut",
					"type": "uint256"
				},
				{
					"internalType": "uint256",
					"name": "amountInMax",
					"type": "uint256"
				},
				{
					"internalType": "address[]",
					"name": "path",
					"type": "address[]"
				},
				{
					"internalType": "address",
					"name": "to",
					"type": "address"
				},
				{
					"internalType": "uint256",
					"name": "deadline",
					"type": "uint256"
				}
			],
			"name": "swapTokensForExactETH",
			"outputs": [
				{
					"internalType": "uint256[]",
					"name": "amounts",
					"type": "uint256[]"
				}
			],
			"stateMutability": "nonpayable",
			"type": "function"
		},
		{
			"inputs": [
				{
					"internalType": "uint256",
					"name": "amountOut",
					"type": "uint256"
				},
				{
					"internalType": "uint256",
					"name": "amountInMax",
					"type": "uint256"
				},
				{
					"internalType": "address[]",
					"name": "path",
					"type": "address[]"
				},
				{
					"internalType": "address",
					"name": "to",
					"type": "address"
				},
				{
					"internalType": "uint256",
					"name": "deadline",
					"type": "uint256"
				}
			],
			"name": "swapTokensForExactTokens",
			"outputs": [
				{
					"internalType": "uint256[]",
					"name": "amounts",
					"type": "uint256[]"
				}
			],
			"stateMutability": "nonpayable",
			"type": "function"
		}
	]
}