{
	"data": {
		"bytecode": {
			"linkReferences": {},
			"object": "6080604052348015600e575f80fd5b506040516104c43803806104c48339818101604052810190602e9190606b565b805f81905550506091565b5f80fd5b5f819050919050565b604d81603d565b81146056575f80fd5b50565b5f815190506065816046565b92915050565b5f60208284031215607d57607c6039565b5b5f6088848285016059565b91505092915050565b6104268061009e5f395ff3fe608060405234801561000f575f80fd5b5060043610610060575f3560e01c8063313ce5671461006457806354fd4d50146100825780637284e416146100a05780639a6fc8f5146100be578063f7a30806146100f2578063feaf968c1461010e575b5f80fd5b61006c610130565b60405161007991906101db565b60405180910390f35b61008a610138565b604051610097919061020c565b60405180910390f35b6100a8610140565b6040516100b59190610295565b60405180910390f35b6100d860048036038101906100d391906102f8565b61017d565b6040516100e995949392919061034a565b60405180910390f35b61010c600480360381019061010791906103c5565b61019b565b005b6101166101a4565b60405161012795949392919061034a565b60405180910390f35b5f6008905090565b5f6001905090565b60606040518060400160405280600f81526020017f4d6f636b20707269636520666565640000000000000000000000000000000000815250905090565b5f805f805f805f545f805f9450945094509450945091939590929450565b805f8190555050565b5f805f805f805f545f805f945094509450945094509091929394565b5f60ff82169050919050565b6101d5816101c0565b82525050565b5f6020820190506101ee5f8301846101cc565b92915050565b5f819050919050565b610206816101f4565b82525050565b5f60208201905061021f5f8301846101fd565b92915050565b5f81519050919050565b5f82825260208201905092915050565b8281835e5f83830152505050565b5f601f19601f8301169050919050565b5f61026782610225565b610271818561022f565b935061028181856020860161023f565b61028a8161024d565b840191505092915050565b5f6020820190508181035f8301526102ad818461025d565b905092915050565b5f80fd5b5f69ffffffffffffffffffff82169050919050565b6102d7816102b9565b81146102e1575f80fd5b50565b5f813590506102f2816102ce565b92915050565b5f6020828403121561030d5761030c6102b5565b5b5f61031a848285016102e4565b91505092915050565b61032c816102b9565b82525050565b5f819050919050565b61034481610332565b82525050565b5f60a08201905061035d5f830188610323565b61036a602083018761033b565b61037760408301866101fd565b61038460608301856101fd565b6103916080830184610323565b9695505050505050565b6103a481610332565b81146103ae575f80fd5b50565b5f813590506103bf8161039b565b92915050565b5f602082840312156103da576103d96102b5565b5b5f6103e7848285016103b1565b9150509291505056fea2646970667358221220ac8972d3745a3c19a3e72f8d8383013a46e16339a2f2729132d15de19dbacbc864736f6c634300081a0033",
			"opcodes": "PUSH1 0x80 PUSH1 0x40 MSTORE CALLVALUE DUP1 ISZERO PUSH1 0xE JUMPI PUSH0 DUP1 REVERT JUMPDEST POP PUSH1 0x40 MLOAD PUSH2 0x4C4 CODESIZE SUB DUP1 PUSH2 0x4C4 DUP4 CODECOPY DUP2 DUP2 ADD PUSH1 0x40 MSTORE DUP2 ADD SWAP1 PUSH1 0x2E SWAP2 SWAP1 PUSH1 0x6B JUMP JUMPDEST DUP1 PUSH0 DUP2 SWAP1 SSTORE POP POP PUSH1 0x91 JUMP JUMPDEST PUSH0 DUP1 REVERT JUMPDEST PUSH0 DUP2 SWAP1 POP SWAP2 SWAP1 POP JUMP JUMPDEST PUSH1 0x4D DUP2 PUSH1 0x3D JUMP JUMPDEST DUP2 EQ PUSH1 0x56 JUMPI PUSH0 DUP1 REVERT JUMPDEST POP JUMP JUMPDEST PUSH0 DUP2 MLOAD SWAP1 POP PUSH1 0x65 DUP2 PUSH1 0x46 JUMP JUMPDEST SWAP3 SWAP2 POP POP JUMP JUMPDEST PUSH0 PUSH1 0x20 DUP3 DUP5 SUB SLT ISZERO PUSH1 0x7D JUMPI PUSH1 0x7C PUSH1 0x39 JUMP JUMPDEST JUMPDEST PUSH0 PUSH1 0x88 DUP5 DUP3 DUP6 ADD PUSH1 0x59 JUMP JUMPDEST SWAP2 POP POP SWAP3 SWAP2 POP POP JUMP JUMPDEST PUSH2 0x426 DUP1 PUSH2 0x9E PUSH0 CODECOPY PUSH0 RETURN INVALID PUSH1 0x80 PUSH1 0x40 MSTORE CALLVALUE DUP1 ISZERO PUSH2 0xF JUMPI PUSH0 DUP1 REVERT JUMPDEST POP PUSH1 0x4 CALLDATASIZE LT PUSH2 0x60 JUMPI PUSH0 CALLDATALOAD PUSH1 0xE0 SHR DUP1 PUSH4 0x313CE567 EQ PUSH2 0x64 JUMPI DUP1 PUSH4 0x54FD4D50 EQ PUSH2 0x82 JUMPI DUP1 PUSH4 0x7284E416 EQ PUSH2 0xA0 JUMPI DUP1 PUSH4 0x9A6FC8F5 EQ PUSH2 0xBE JUMPI DUP1 PUSH4 0xF7A30806 EQ PUSH2 0xF2 JUMPI DUP1 PUSH4 0xFEAF968C EQ PUSH2 0x10E JUMPI JUMPDEST PUSH0 DUP1 REVERT JUMPDEST PUSH2 0x6C PUSH2 0x130 JUMP JUMPDEST PUSH1 0x40 MLOAD PUSH2 0x79 SWAP2 SWAP1 PUSH2 0x1DB JUMP JUMPDEST PUSH1 0x40 MLOAD DUP1 SWAP2 SUB SWAP1 RETURN JUMPDEST PUSH2 0x8A PUSH2 0x138 JUMP JUMPDEST PUSH1 0x40 MLOAD PUSH2 0x97 SWAP2 SWAP1 PUSH2 0x20C JUMP JUMPDEST PUSH1 0x40 MLOAD DUP1 SWAP2 SUB SWAP1 RETURN JUMPDEST PUSH2 0xA8 PUSH2 0x140 JUMP JUMPDEST PUSH1 0x40 MLOAD PUSH2 0xB5 SWAP2 SWAP1 PUSH2 0x295 JUMP JUMPDEST PUSH1 0x40 MLOAD DUP1 SWAP2 SUB SWAP1 RETURN JUMPDEST PUSH2 0xD8 PUSH1 0x4 DUP1 CALLDATASIZE SUB DUP2 ADD SWAP1 PUSH2 0xD3 SWAP2 SWAP1 PUSH2 0x2F8 JUMP JUMPDEST PUSH2 0x17D JUMP JUMPDEST PUSH1 0x40 MLOAD PUSH2 0xE9 SWAP6 SWAP5 SWAP4 SWAP3 SWAP2 SWAP1 PUSH2 0x34A JUMP JUMPDEST PUSH1 0x40 MLOAD DUP1 SWAP2 SUB SWAP1 RETURN JUMPDEST PUSH2 0x10C PUSH1 0x4 DUP1 CALLDATASIZE SUB DUP2 ADD SWAP1 PUSH2 0x107 SWAP2 SWAP1 PUSH2 0x3C5 JUMP JUMPDEST PUSH2 0x19B JUMP JUMPDEST STOP JUMPDEST PUSH2 0x116 PUSH2 0x1A4 JUMP JUMPDEST PUSH1 0x40 MLOAD PUSH2 0x127 SWAP6 SWAP5 SWAP4 SWAP3 SWAP2 SWAP1 PUSH2 0x34A JUMP JUMPDEST PUSH1 0x40 MLOAD DUP1 SWAP2 SUB SWAP1 RETURN JUMPDEST PUSH0 PUSH1 0x8 SWAP1 POP SWAP1 JUMP JUMPDEST PUSH0 PUSH1 0x1 SWAP1 POP SWAP1 JUMP JUMPDEST PUSH1 0x60 PUSH1 0x40 MLOAD DUP1 PUSH1 0x40 ADD PUSH1 0x40 MSTORE DUP1 PUSH1 0xF DUP2 MSTORE PUSH1 0x20 ADD PUSH32 0x4D6F636B20707269636520666565640000000000000000000000000000000000 DUP2 MSTORE POP SWAP1 POP SWAP1 JUMP JUMPDEST PUSH0 DUP1 PUSH0 DUP1 PUSH0 DUP1 PUSH0 SLOAD PUSH0 DUP1 PUSH0 SWAP5 POP SWAP5 POP SWAP5 POP SWAP5 POP SWAP5 POP SWAP2 SWAP4 SWAP6 SWAP1 SWAP3 SWAP5 POP JUMP JUMPDEST DUP1 PUSH0 DUP2 SWAP1 SSTORE POP POP JUMP JUMPDEST PUSH0 DUP1 PUSH0 DUP1 PUSH0 DUP1 PUSH0 SLOAD PUSH0 DUP1 PUSH0 SWAP5 POP SWAP5 POP SWAP5 POP SWAP5 POP SWAP5 POP SWAP1 SWAP2 SWAP3 SWAP4 SWAP5 JUMP JUMPDEST PUSH0 PUSH1 0xFF DUP3 AND SWAP1 POP SWAP2 SWAP1 POP JUMP JUMPDEST PUSH2 0x1D5 DUP2 PUSH2 0x1C0 JUMP JUMPDEST DUP3 MSTORE POP POP JUMP JUMPDEST PUSH0 PUSH1 0x20 DUP3 ADD SWAP1 POP PUSH2 0x1EE PUSH0 DUP4 ADD DUP5 PUSH2 0x1CC JUMP JUMPDEST SWAP3 SWAP2 POP POP JUMP JUMPDEST PUSH0 DUP2 SWAP1 POP SWAP2 SWAP1 POP JUMP JUMPDEST PUSH2 0x206 DUP2 PUSH2 0x1F4 JUMP JUMPDEST DUP3 MSTORE POP POP JUMP JUMPDEST PUSH0 PUSH1 0x20 DUP3 ADD SWAP1 POP PUSH2 0x21F PUSH0 DUP4 ADD DUP5 PUSH2 0x1FD JUMP JUMPDEST SWAP3 SWAP2 POP POP JUMP JUMPDEST PUSH0 DUP2 MLOAD SWAP1 POP SWAP2 SWAP1 POP JUMP JUMPDEST PUSH0 DUP3 DUP3 MSTORE PUSH1 0x20 DUP3 ADD SWAP1 POP SWAP3 SWAP2 POP POP JUMP JUMPDEST DUP3 DUP2 DUP4 MCOPY PUSH0 DUP4 DUP4 ADD MSTORE POP POP POP JUMP JUMPDEST PUSH0 PUSH1 0x1F NOT PUSH1 0x1F DUP4 ADD AND SWAP1 POP SWAP2 SWAP1 POP JUMP JUMPDEST PUSH0 PUSH2 0x267 DUP3 PUSH2 0x225 JUMP JUMPDEST PUSH2 0x271 DUP2 DUP6 PUSH2 0x22F JUMP JUMPDEST SWAP4 POP PUSH2 0x281 DUP2 DUP6 PUSH1 0x20 DUP7 ADD PUSH2 0x23F JUMP JUMPDEST PUSH2 0x28A DUP2 PUSH2 0x24D JUMP JUMPDEST DUP5 ADD SWAP2 POP POP SWAP3 SWAP2 POP POP JUMP JUMPDEST PUSH0 PUSH1 0x20 DUP3 ADD SWAP1 POP DUP2 DUP2 SUB PUSH0 DUP4 ADD MSTORE PUSH2 0x2AD DUP2 DUP5 PUSH2 0x25D JUMP JUMPDEST SWAP1 POP SWAP3 SWAP2 POP POP JUMP JUMPDEST PUSH0 DUP1 REVERT JUMPDEST PUSH0 PUSH10 0xFFFFFFFFFFFFFFFFFFFF DUP3 AND SWAP1 POP SWAP2 SWAP1 POP JUMP JUMPDEST PUSH2 0x2D7 DUP2 PUSH2 0x2B9 JUMP JUMPDEST DUP2 EQ PUSH2 0x2E1 JUMPI PUSH0 DUP1 REVERT JUMPDEST POP JUMP JUMPDEST PUSH0 DUP2 CALLDATALOAD SWAP1 POP PUSH2 0x2F2 DUP2 PUSH2 0x2CE JUMP JUMPDEST SWAP3 SWAP2 POP POP JUMP JUMPDEST PUSH0 PUSH1 0x20 DUP3 DUP5 SUB SLT ISZERO PUSH2 0x30D JUMPI PUSH2 0x30C PUSH2 0x2B5 JUMP JUMPDEST JUMPDEST PUSH0 PUSH2 0x31A DUP5 DUP3 DUP6 ADD PUSH2 0x2E4 JUMP JUMPDEST SWAP2 POP POP SWAP3 SWAP2 POP POP JUMP JUMPDEST PUSH2 0x32C DUP2 PUSH2 0x2B9 JUMP JUMPDEST DUP3 MSTORE POP POP JUMP JUMPDEST PUSH0 DUP2 SWAP1 POP SWAP2 SWAP1 POP JUMP JUMPDEST PUSH2 0x344 DUP2 PUSH2 0x332 JUMP JUMPDEST DUP3 MSTORE POP POP JUMP JUMPDEST PUSH0 PUSH1 0xA0 DUP3 ADD SWAP1 POP PUSH2 0x35D PUSH0 DUP4 ADD DUP9 PUSH2 0x323 JUMP JUMPDEST PUSH2 0x36A PUSH1 0x20 DUP4 ADD DUP8 PUSH2 0x33B JUMP JUMPDEST PUSH2 0x377 PUSH1 0x40 DUP4 ADD DUP7 PUSH2 0x1FD JUMP JUMPDEST PUSH2 0x384 PUSH1 0x60 DUP4 ADD DUP6 PUSH2 0x1FD JUMP JUMPDEST PUSH2 0x391 PUSH1 0x80 DUP4 ADD DUP5 PUSH2 0x323 JUMP JUMPDEST SWAP7 SWAP6 POP POP POP POP POP POP JUMP JUMPDEST PUSH2 0x3A4 DUP2 PUSH2 0x332 JUMP JUMPDEST DUP2 EQ PUSH2 0x3AE JUMPI PUSH0 DUP1 REVERT JUMPDEST POP JUMP JUMPDEST PUSH0 DUP2 CALLDATALOAD SWAP1 POP PUSH2 0x3BF DUP2 PUSH2 0x39B JUMP JUMPDEST SWAP3 SWAP2 POP POP JUMP JUMPDEST PUSH0 PUSH1 0x20 DUP3 DUP5 SUB SLT ISZERO PUSH2 0x3DA JUMPI PUSH2 0x3D9 PUSH2 0x2B5 JUMP JUMPDEST JUMPDEST PUSH0 PUSH2 0x3E7 DUP5 DUP3 DUP6 ADD PUSH2 0x3B1 JUMP JUMPDEST SWAP2 POP POP SWAP3 SWAP2 POP POP JUMP INVALID LOG2 PUSH5 0x6970667358 0x22 SLT KECCAK256 0xAC DUP10 PUSH19 0xD3745A3C19A3E72F8D8383013A46E16339A2F2 PUSH19 0x9132D15DE19DBACBC864736F6C634300081A00 CALLER "
		},
		"gasEstimates": {
			"creation": {
				"codeDepositCost": "212400",
				"executionCost": "infinite",
				"totalCost": "infinite"
			},
			"external": {
				"decimals()": "316",
				"description()": "infinite",
				"getRoundData(uint80)": "infinite",
				"latestRoundData()": "infinite",
				"setPrice(int256)": "22580",
				"version()": "332"
			}
		},
		"methodIdentifiers": {
			"decimals()": "313ce567",
			"description()": "7284e416",
			"getRoundData(uint80)": "9a6fc8f5",
			"latestRoundData()": "feaf968c",
			"setPrice(int256)": "f7a30806",
			"version()": "54fd4d50"
		}
	},
	"abi": [
		{
			"inputs": [
				{
					"internalType": "int256",
					"name": "initialPrice",
					"type": "int256"
				}
			],
			"stateMutability": "nonpayable",
			"type": "constructor"
		},
		{
			"inputs": [],
			"name": "decimals",
			"outputs": [
				{
					"internalType": "uint8",
					"name": "",
					"type": "uint8"
				}
			],
			"stateMutability": "view",
			"type": "function"
		},
		{
			"inputs": [],
			"name": "description",
			"outputs": [
				{
					"internalType": "string",
					"name": "",
					"type": "string"
				}
			],
			"stateMutability": "view",
			"type": "function"
		},
		{
			"inputs": [
				{
					"internalType": "uint80",
					"name": "_roundId",
					"type": "uint80"
				}
			],
			"name": "getRoundData",
			"outputs": [
				{
					"internalType": "uint80",
					"name": "roundId",
					"type": "uint80"
				},
				{
					"internalType": "int256",
					"name": "answer",
					"type": "int256"
				},
				{
					"internalType": "uint256",
					"name": "startedAt",
					"type": "uint256"
				},
				{
					"internalType": "uint256",
					"name": "updatedAt",
					"type": "uint256"
				},
				{
					"internalType": "uint80",
					"name": "answeredInRound",
					"type": "uint80"
				}
			],
			"stateMutability": "view",
			"type": "function"
		},
		{
			"inputs": [],
			"name": "latestRoundData",
			"outputs": [
				{
					"internalType": "uint80",
					"name": "roundId",
					"type": "uint80"
				},
				{
					"internalType": "int256",
					"name": "answer",
					"type": "int256"
				},
				{
					"internalType": "uint256",
					"name": "startedAt",
					"type": "uint256"
				},
				{
					"internalType": "uint256",
					"name": "updatedAt",
					"type": "uint256"
				},
				{
					"internalType": "uint80",
					"name": "answeredInRound",
					"type": "uint80"
				}
			],
			"stateMutability": "view",
			"type": "function"
		},
		{
			"inputs": [
				{
					"internalType": "int256",
					"name": "price",
					"type": "int256"
				}
			],
			"name": "setPrice",
			"outputs": [],
			"stateMutability": "nonpayable",
			"type": "function"
		},
		{
			"inputs": [],
			"name": "version",
			"outputs": [
				{
					"internalType": "uint256",
					"name": "",
					"type": "uint256"
				}
			],
			"stateMutability": "view",
			"type": "function"
		}
	]
}