{
	"contracts/DeFiFlow.sol": {
		"DeFiFlow": {
			"abi": [
				{
					"inputs": [
						{
							"internalType": "address",
							"name": "_tokenA",
							"type": "address"
						},
						{
							"internalType": "address",
							"name": "_tokenB",
							"type": "address"
						},
						{
							"internalType": "address",
							"name": "_tokenC",
							"type": "address"
						},
						{
							"internalType": "address",
							"name": "_uniswapRouter",
							"type": "address"
						},
						{
							"internalType": "address",
							"name": "_sushiSwapRouter",
							"type": "address"
						},
						{
							"internalType": "address",
							"name": "_priceFeed",
							"type": "address"
						},
						{
							"internalType": "uint256",
							"name": "_maxOrderSize",
							"type": "uint256"
						},
						{
							"internalType": "uint256",
							"name": "_minProfitThreshold",
							"type": "uint256"
						},
						{
							"internalType": "uint256",
							"name": "_rebalanceThreshold",
							"type": "uint256"
						},
						{
							"internalType": "uint256",
							"name": "_stopLossThreshold",
							"type": "uint256"
						}
					],
					"stateMutability": "nonpayable",
					"type": "constructor"
				},
				{
					"inputs": [
						{
							"internalType": "address",
							"name": "owner",
							"type": "address"
						}
					],
					"name": "OwnableInvalidOwner",
					"type": "error"
				},
				{
					"inputs": [
						{
							"internalType": "address",
							"name": "account",
							"type": "address"
						}
					],
					"name": "OwnableUnauthorizedAccount",
					"type": "error"
				},
				{
					"anonymous": false,
					"inputs": [
						{
							"indexed": false,
							"internalType": "uint256",
							"name": "liquidityWithdrawn",
							"type": "uint256"
						}
					],
					"name": "ImpermanentLossMitigation",
					"type": "event"
				},
				{
					"anonymous": false,
					"inputs": [
						{
							"indexed": false,
							"internalType": "uint256",
							"name": "amountA",
							"type": "uint256"
						},
						{
							"indexed": false,
							"internalType": "uint256",
							"name": "amountB",
							"type": "uint256"
						}
					],
					"name": "LiquidityAdded",
					"type": "event"
				},
				{
					"anonymous": false,
					"inputs": [
						{
							"indexed": false,
							"internalType": "uint256",
							"name": "amountA",
							"type": "uint256"
						},
						{
							"indexed": false,
							"internalType": "uint256",
							"name": "amountB",
							"type": "uint256"
						}
					],
					"name": "LiquidityRemoved",
					"type": "event"
				},
				{
					"anonymous": false,
					"inputs": [
						{
							"indexed": true,
							"internalType": "address",
							"name": "previousOwner",
							"type": "address"
						},
						{
							"indexed": true,
							"internalType": "address",
							"name": "newOwner",
							"type": "address"
						}
					],
					"name": "OwnershipTransferred",
					"type": "event"
				},
				{
					"anonymous": false,
					"inputs": [
						{
							"indexed": false,
							"internalType": "uint256",
							"name": "newPrice",
							"type": "uint256"
						}
					],
					"name": "Rebalanced",
					"type": "event"
				},
				{
					"anonymous": false,
					"inputs": [
						{
							"indexed": false,
							"internalType": "uint256",
							"name": "liquidityWithdrawn",
							"type": "uint256"
						}
					],
					"name": "StopLossTriggered",
					"type": "event"
				},
				{
					"anonymous": false,
					"inputs": [
						{
							"indexed": true,
							"internalType": "address",
							"name": "tokenIn",
							"type": "address"
						},
						{
							"indexed": true,
							"internalType": "address",
							"name": "tokenOut",
							"type": "address"
						},
						{
							"indexed": false,
							"internalType": "uint256",
							"name": "amountIn",
							"type": "uint256"
						},
						{
							"indexed": false,
							"internalType": "uint256",
							"name": "amountOut",
							"type": "uint256"
						}
					],
					"name": "SwapExecuted",
					"type": "event"
				},
				{
					"inputs": [
						{
							"internalType": "bytes",
							"name": "",
							"type": "bytes"
						}
					],
					"name": "checkUpkeep",
					"outputs": [
						{
							"internalType": "bool",
							"name": "upkeepNeeded",
							"type": "bool"
						},
						{
							"internalType": "bytes",
							"name": "performData",
							"type": "bytes"
						}
					],
					"stateMutability": "view",
					"type": "function"
				},
				{
					"inputs": [
						{
							"internalType": "uint256",
							"name": "amountIn",
							"type": "uint256"
						},
						{
							"internalType": "address[]",
							"name": "path",
							"type": "address[]"
						}
					],
					"name": "executeSwap",
					"outputs": [],
					"stateMutability": "nonpayable",
					"type": "function"
				},
				{
					"inputs": [],
					"name": "getCurrentMarketPrice",
					"outputs": [
						{
							"internalType": "uint256",
							"name": "",
							"type": "uint256"
						}
					],
					"stateMutability": "view",
					"type": "function"
				},
				{
					"inputs": [],
					"name": "lastRebalance",
					"outputs": [
						{
							"internalType": "uint256",
							"name": "",
							"type": "uint256"
						}
					],
					"stateMutability": "view",
					"type": "function"
				},
				{
					"inputs": [],
					"name": "maxOrderSize",
					"outputs": [
						{
							"internalType": "uint256",
							"name": "",
							"type": "uint256"
						}
					],
					"stateMutability": "view",
					"type": "function"
				},
				{
					"inputs": [],
					"name": "minProfitThreshold",
					"outputs": [
						{
							"internalType": "uint256",
							"name": "",
							"type": "uint256"
						}
					],
					"stateMutability": "view",
					"type": "function"
				},
				{
					"inputs": [],
					"name": "mitigateImpermanentLoss",
					"outputs": [],
					"stateMutability": "nonpayable",
					"type": "function"
				},
				{
					"inputs": [],
					"name": "owner",
					"outputs": [
						{
							"internalType": "address",
							"name": "",
							"type": "address"
						}
					],
					"stateMutability": "view",
					"type": "function"
				},
				{
					"inputs": [
						{
							"internalType": "bytes",
							"name": "",
							"type": "bytes"
						}
					],
					"name": "performUpkeep",
					"outputs": [],
					"stateMutability": "nonpayable",
					"type": "function"
				},
				{
					"inputs": [],
					"name": "priceFeed",
					"outputs": [
						{
							"internalType": "contract AggregatorV3Interface",
							"name": "",
							"type": "address"
						}
					],
					"stateMutability": "view",
					"type": "function"
				},
				{
					"inputs": [
						{
							"internalType": "uint256",
							"name": "amountA",
							"type": "uint256"
						},
						{
							"internalType": "uint256",
							"name": "amountB",
							"type": "uint256"
						}
					],
					"name": "provideLiquidity",
					"outputs": [],
					"stateMutability": "nonpayable",
					"type": "function"
				},
				{
					"inputs": [],
					"name": "rebalanceThreshold",
					"outputs": [
						{
							"internalType": "uint256",
							"name": "",
							"type": "uint256"
						}
					],
					"stateMutability": "view",
					"type": "function"
				},
				{
					"inputs": [
						{
							"internalType": "uint256",
							"name": "liquidity",
							"type": "uint256"
						}
					],
					"name": "removeLiquidity",
					"outputs": [],
					"stateMutability": "nonpayable",
					"type": "function"
				},
				{
					"inputs": [],
					"name": "renounceOwnership",
					"outputs": [],
					"stateMutability": "nonpayable",
					"type": "function"
				},
				{
					"inputs": [],
					"name": "stopLossThreshold",
					"outputs": [
						{
							"internalType": "uint256",
							"name": "",
							"type": "uint256"
						}
					],
					"stateMutability": "view",
					"type": "function"
				},
				{
					"inputs": [],
					"name": "sushiSwapRouter",
					"outputs": [
						{
							"internalType": "contract ISushiSwapRouter",
							"name": "",
							"type": "address"
						}
					],
					"stateMutability": "view",
					"type": "function"
				},
				{
					"inputs": [],
					"name": "tokenA",
					"outputs": [
						{
							"internalType": "contract IERC20",
							"name": "",
							"type": "address"
						}
					],
					"stateMutability": "view",
					"type": "function"
				},
				{
					"inputs": [],
					"name": "tokenB",
					"outputs": [
						{
							"internalType": "contract IERC20",
							"name": "",
							"type": "address"
						}
					],
					"stateMutability": "view",
					"type": "function"
				},
				{
					"inputs": [],
					"name": "tokenC",
					"outputs": [
						{
							"internalType": "contract IERC20",
							"name": "",
							"type": "address"
						}
					],
					"stateMutability": "view",
					"type": "function"
				},
				{
					"inputs": [
						{
							"internalType": "address",
							"name": "newOwner",
							"type": "address"
						}
					],
					"name": "transferOwnership",
					"outputs": [],
					"stateMutability": "nonpayable",
					"type": "function"
				},
				{
					"inputs": [],
					"name": "triggerStopLoss",
					"outputs": [],
					"stateMutability": "nonpayable",
					"type": "function"
				},
				{
					"inputs": [],
					"name": "uniswapPairAB",
					"outputs": [
						{
							"internalType": "contract IUniswapV2Pair",
							"name": "",
							"type": "address"
						}
					],
					"stateMutability": "view",
					"type": "function"
				},
				{
					"inputs": [],
					"name": "uniswapPairAC",
					"outputs": [
						{
							"internalType": "contract IUniswapV2Pair",
							"name": "",
							"type": "address"
						}
					],
					"stateMutability": "view",
					"type": "function"
				},
				{
					"inputs": [],
					"name": "uniswapPairBC",
					"outputs": [
						{
							"internalType": "contract IUniswapV2Pair",
							"name": "",
							"type": "address"
						}
					],
					"stateMutability": "view",
					"type": "function"
				},
				{
					"inputs": [],
					"name": "uniswapRouter",
					"outputs": [
						{
							"internalType": "contract IUniswapV2Router02",
							"name": "",
							"type": "address"
						}
					],
					"stateMutability": "view",
					"type": "function"
				},
				{
					"inputs": [
						{
							"internalType": "uint256",
							"name": "newMaxOrderSize",
							"type": "uint256"
						}
					],
					"name": "updateMaxOrderSize",
					"outputs": [],
					"stateMutability": "nonpayable",
					"type": "function"
				},
				{
					"inputs": [
						{
							"internalType": "uint256",
							"name": "newMinProfitThreshold",
							"type": "uint256"
						}
					],
					"name": "updateMinProfitThreshold",
					"outputs": [],
					"stateMutability": "nonpayable",
					"type": "function"
				},
				{
					"inputs": [
						{
							"internalType": "uint256",
							"name": "newRebalanceThreshold",
							"type": "uint256"
						}
					],
					"name": "updateRebalanceThreshold",
					"outputs": [],
					"stateMutability": "nonpayable",
					"type": "function"
				},
				{
					"inputs": [
						{
							"internalType": "uint256",
							"name": "newStopLossThreshold",
							"type": "uint256"
						}
					],
					"name": "updateStopLossThreshold",
					"outputs": [],
					"stateMutability": "nonpayable",
					"type": "function"
				}
			],
			"devdoc": {
				"errors": {
					"OwnableInvalidOwner(address)": [
						{
							"details": "The owner is not a valid owner account. (eg. `address(0)`)"
						}
					],
					"OwnableUnauthorizedAccount(address)": [
						{
							"details": "The caller account is not authorized to perform an operation."
						}
					]
				},
				"kind": "dev",
				"methods": {
					"checkUpkeep(bytes)": {
						"details": "This function checks if conditions are met for rebalancing.",
						"returns": {
							"performData": "Bytes to pass to performUpkeep if upkeep is needed.",
							"upkeepNeeded": "Returns true if upkeep is needed."
						}
					},
					"constructor": {
						"details": "Initializes the contract with the tokens, Uniswap router, and price feed.",
						"params": {
							"_maxOrderSize": "The maximum size for each order to limit exposure.",
							"_minProfitThreshold": "Minimum profit in basis points to consider an action.",
							"_priceFeed": "Address of the Chainlink price feed contract.",
							"_rebalanceThreshold": "Price change threshold in basis points for triggering rebalancing.",
							"_stopLossThreshold": "Price change threshold in basis points for triggering stop-loss.",
							"_sushiSwapRouter": "Address of the SushiSwap router contract.",
							"_tokenA": "Address of the first token in the pair.",
							"_tokenB": "Address of the second token in the pair.",
							"_tokenC": "Address of the third token (optional integration).",
							"_uniswapRouter": "Address of the Uniswap V2 router contract."
						}
					},
					"executeSwap(uint256,address[])": {
						"details": "This function swaps tokenA for tokenB, tokenA for tokenC, or tokenB for tokenC, choosing the best platform based on price.",
						"params": {
							"amountIn": "The amount of the input token.",
							"path": "The path of the swap, which could involve tokenC as well."
						}
					},
					"getCurrentMarketPrice()": {
						"returns": {
							"_0": "The current market price."
						}
					},
					"mitigateImpermanentLoss()": {
						"details": "This function checks volatility and impermanent loss, and mitigates if necessary."
					},
					"owner()": {
						"details": "Returns the address of the current owner."
					},
					"performUpkeep(bytes)": {
						"details": "This function is triggered by Chainlink Keepers when conditions are met."
					},
					"provideLiquidity(uint256,uint256)": {
						"details": "This function adds liquidity to the Uniswap pool."
					},
					"removeLiquidity(uint256)": {
						"details": "This function burns the LP tokens to remove liquidity from the pool."
					},
					"renounceOwnership()": {
						"details": "Leaves the contract without owner. It will not be possible to call `onlyOwner` functions. Can only be called by the current owner. NOTE: Renouncing ownership will leave the contract without an owner, thereby disabling any functionality that is only available to the owner."
					},
					"transferOwnership(address)": {
						"details": "Transfers ownership of the contract to a new account (`newOwner`). Can only be called by the current owner."
					},
					"triggerStopLoss()": {
						"details": "This function is triggered when the stop-loss threshold is reached."
					},
					"updateMaxOrderSize(uint256)": {
						"params": {
							"newMaxOrderSize": "The new maximum order size."
						}
					},
					"updateMinProfitThreshold(uint256)": {
						"params": {
							"newMinProfitThreshold": "The new minimum profit threshold in basis points."
						}
					},
					"updateRebalanceThreshold(uint256)": {
						"params": {
							"newRebalanceThreshold": "The new rebalance threshold in basis points."
						}
					},
					"updateStopLossThreshold(uint256)": {
						"params": {
							"newStopLossThreshold": "The new stop-loss threshold in basis points."
						}
					}
				},
				"version": 1
			},
			"evm": {
				"assembly": "    /* \"contracts/DeFiFlow.sol\":827:12086  contract DeFiFlow is Ownable, KeeperCompatibleInterface, ReentrancyGuard {... */\n  mstore(0x40, 0x80)\n    /* \"contracts/DeFiFlow.sol\":2923:4483  constructor(... */\n  callvalue\n  dup1\n  iszero\n  tag_1\n  jumpi\n  0x00\n  dup1\n  revert\ntag_1:\n  pop\n  mload(0x40)\n  sub(codesize, bytecodeSize)\n  dup1\n  bytecodeSize\n  dup4\n  codecopy\n  dup2\n  dup2\n  add\n  0x40\n  mstore\n  dup2\n  add\n  swap1\n  tag_2\n  swap2\n  swap1\n  tag_3\n  jump\t// in\ntag_2:\n    /* \"contracts/DeFiFlow.sol\":3260:3270  msg.sender */\n  caller\n    /* \"@openzeppelin/contracts/access/Ownable.sol\":1297:1298  0 */\n  0x00\n    /* \"@openzeppelin/contracts/access/Ownable.sol\":1273:1299  initialOwner == address(0) */\n  0xffffffffffffffffffffffffffffffffffffffff\n  and\n    /* \"@openzeppelin/contracts/access/Ownable.sol\":1273:1285  initialOwner */\n  dup2\n    /* \"@openzeppelin/contracts/access/Ownable.sol\":1273:1299  initialOwner == address(0) */\n  0xffffffffffffffffffffffffffffffffffffffff\n  and\n  sub\n    /* \"@openzeppelin/contracts/access/Ownable.sol\":1269:1364  if (initialOwner == address(0)) {... */\n  tag_8\n  jumpi\n    /* \"@openzeppelin/contracts/access/Ownable.sol\":1350:1351  0 */\n  0x00\n    /* \"@openzeppelin/contracts/access/Ownable.sol\":1322:1353  OwnableInvalidOwner(address(0)) */\n  mload(0x40)\n  0x1e4fbdf700000000000000000000000000000000000000000000000000000000\n  dup2\n  mstore\n  0x04\n  add\n  tag_9\n  swap2\n  swap1\n  tag_10\n  jump\t// in\ntag_9:\n  mload(0x40)\n  dup1\n  swap2\n  sub\n  swap1\n  revert\n    /* \"@openzeppelin/contracts/access/Ownable.sol\":1269:1364  if (initialOwner == address(0)) {... */\ntag_8:\n    /* \"@openzeppelin/contracts/access/Ownable.sol\":1373:1405  _transferOwnership(initialOwner) */\n  tag_11\n    /* \"@openzeppelin/contracts/access/Ownable.sol\":1392:1404  initialOwner */\n  dup2\n    /* \"@openzeppelin/contracts/access/Ownable.sol\":1373:1391  _transferOwnership */\n  shl(0x20, tag_12)\n    /* \"@openzeppelin/contracts/access/Ownable.sol\":1373:1405  _transferOwnership(initialOwner) */\n  0x20\n  shr\n  jump\t// in\ntag_11:\n    /* \"@openzeppelin/contracts/access/Ownable.sol\":1225:1412  constructor(address initialOwner) {... */\n  pop\n    /* \"@openzeppelin/contracts/security/ReentrancyGuard.sol\":1716:1717  1 */\n  0x01\n    /* \"@openzeppelin/contracts/security/ReentrancyGuard.sol\":1821:1828  _status */\n  dup1\n    /* \"@openzeppelin/contracts/security/ReentrancyGuard.sol\":1821:1843  _status = _NOT_ENTERED */\n  dup2\n  swap1\n  sstore\n  pop\n    /* \"contracts/DeFiFlow.sol\":3298:3305  _tokenA */\n  dup10\n    /* \"contracts/DeFiFlow.sol\":3282:3288  tokenA */\n  0x02\n  0x00\n    /* \"contracts/DeFiFlow.sol\":3282:3306  tokenA = IERC20(_tokenA) */\n  0x0100\n  exp\n  dup2\n  sload\n  dup2\n  0xffffffffffffffffffffffffffffffffffffffff\n  mul\n  not\n  and\n  swap1\n  dup4\n  0xffffffffffffffffffffffffffffffffffffffff\n  and\n  mul\n  or\n  swap1\n  sstore\n  pop\n    /* \"contracts/DeFiFlow.sol\":3332:3339  _tokenB */\n  dup9\n    /* \"contracts/DeFiFlow.sol\":3316:3322  tokenB */\n  0x03\n  0x00\n    /* \"contracts/DeFiFlow.sol\":3316:3340  tokenB = IERC20(_tokenB) */\n  0x0100\n  exp\n  dup2\n  sload\n  dup2\n  0xffffffffffffffffffffffffffffffffffffffff\n  mul\n  not\n  and\n  swap1\n  dup4\n  0xffffffffffffffffffffffffffffffffffffffff\n  and\n  mul\n  or\n  swap1\n  sstore\n  pop\n    /* \"contracts/DeFiFlow.sol\":3366:3373  _tokenC */\n  dup8\n    /* \"contracts/DeFiFlow.sol\":3350:3356  tokenC */\n  0x04\n  0x00\n    /* \"contracts/DeFiFlow.sol\":3350:3374  tokenC = IERC20(_tokenC) */\n  0x0100\n  exp\n  dup2\n  sload\n  dup2\n  0xffffffffffffffffffffffffffffffffffffffff\n  mul\n  not\n  and\n  swap1\n  dup4\n  0xffffffffffffffffffffffffffffffffffffffff\n  and\n  mul\n  or\n  swap1\n  sstore\n  pop\n    /* \"contracts/DeFiFlow.sol\":3420:3434  _uniswapRouter */\n  dup7\n    /* \"contracts/DeFiFlow.sol\":3385:3398  uniswapRouter */\n  0x05\n  0x00\n    /* \"contracts/DeFiFlow.sol\":3385:3435  uniswapRouter = IUniswapV2Router02(_uniswapRouter) */\n  0x0100\n  exp\n  dup2\n  sload\n  dup2\n  0xffffffffffffffffffffffffffffffffffffffff\n  mul\n  not\n  and\n  swap1\n  dup4\n  0xffffffffffffffffffffffffffffffffffffffff\n  and\n  mul\n  or\n  swap1\n  sstore\n  pop\n    /* \"contracts/DeFiFlow.sol\":3480:3496  _sushiSwapRouter */\n  dup6\n    /* \"contracts/DeFiFlow.sol\":3445:3460  sushiSwapRouter */\n  0x06\n  0x00\n    /* \"contracts/DeFiFlow.sol\":3445:3497  sushiSwapRouter = ISushiSwapRouter(_sushiSwapRouter) */\n  0x0100\n  exp\n  dup2\n  sload\n  dup2\n  0xffffffffffffffffffffffffffffffffffffffff\n  mul\n  not\n  and\n  swap1\n  dup4\n  0xffffffffffffffffffffffffffffffffffffffff\n  and\n  mul\n  or\n  swap1\n  sstore\n  pop\n    /* \"contracts/DeFiFlow.sol\":3541:3551  _priceFeed */\n  dup5\n    /* \"contracts/DeFiFlow.sol\":3507:3516  priceFeed */\n  0x0a\n  0x00\n    /* \"contracts/DeFiFlow.sol\":3507:3552  priceFeed = AggregatorV3Interface(_priceFeed) */\n  0x0100\n  exp\n  dup2\n  sload\n  dup2\n  0xffffffffffffffffffffffffffffffffffffffff\n  mul\n  not\n  and\n  swap1\n  dup4\n  0xffffffffffffffffffffffffffffffffffffffff\n  and\n  mul\n  or\n  swap1\n  sstore\n  pop\n    /* \"contracts/DeFiFlow.sol\":3577:3590  _maxOrderSize */\n  dup4\n    /* \"contracts/DeFiFlow.sol\":3562:3574  maxOrderSize */\n  0x0b\n    /* \"contracts/DeFiFlow.sol\":3562:3590  maxOrderSize = _maxOrderSize */\n  dup2\n  swap1\n  sstore\n  pop\n    /* \"contracts/DeFiFlow.sol\":3621:3640  _minProfitThreshold */\n  dup3\n    /* \"contracts/DeFiFlow.sol\":3600:3618  minProfitThreshold */\n  0x0c\n    /* \"contracts/DeFiFlow.sol\":3600:3640  minProfitThreshold = _minProfitThreshold */\n  dup2\n  swap1\n  sstore\n  pop\n    /* \"contracts/DeFiFlow.sol\":3671:3690  _rebalanceThreshold */\n  dup2\n    /* \"contracts/DeFiFlow.sol\":3650:3668  rebalanceThreshold */\n  0x0d\n    /* \"contracts/DeFiFlow.sol\":3650:3690  rebalanceThreshold = _rebalanceThreshold */\n  dup2\n  swap1\n  sstore\n  pop\n    /* \"contracts/DeFiFlow.sol\":3720:3738  _stopLossThreshold */\n  dup1\n    /* \"contracts/DeFiFlow.sol\":3700:3717  stopLossThreshold */\n  0x0e\n    /* \"contracts/DeFiFlow.sol\":3700:3738  stopLossThreshold = _stopLossThreshold */\n  dup2\n  swap1\n  sstore\n  pop\n    /* \"contracts/DeFiFlow.sol\":3749:3764  address factory */\n  0x00\n    /* \"contracts/DeFiFlow.sol\":3767:3780  uniswapRouter */\n  0x05\n  0x00\n  swap1\n  sload\n  swap1\n  0x0100\n  exp\n  swap1\n  div\n  0xffffffffffffffffffffffffffffffffffffffff\n  and\n    /* \"contracts/DeFiFlow.sol\":3767:3788  uniswapRouter.factory */\n  0xffffffffffffffffffffffffffffffffffffffff\n  and\n  0xc45a0155\n    /* \"contracts/DeFiFlow.sol\":3767:3790  uniswapRouter.factory() */\n  mload(0x40)\n  dup2\n  0xffffffff\n  and\n  0xe0\n  shl\n  dup2\n  mstore\n  0x04\n  add\n  0x20\n  mload(0x40)\n  dup1\n  dup4\n  sub\n  dup2\n  dup7\n  gas\n  staticcall\n  iszero\n  dup1\n  iszero\n  tag_16\n  jumpi\n  returndatasize\n  0x00\n  dup1\n  returndatacopy\n  revert(0x00, returndatasize)\ntag_16:\n  pop\n  pop\n  pop\n  pop\n  mload(0x40)\n  returndatasize\n  not(0x1f)\n  0x1f\n  dup3\n  add\n  and\n  dup3\n  add\n  dup1\n  0x40\n  mstore\n  pop\n  dup2\n  add\n  swap1\n  tag_17\n  swap2\n  swap1\n  tag_18\n  jump\t// in\ntag_17:\n    /* \"contracts/DeFiFlow.sol\":3749:3790  address factory = uniswapRouter.factory() */\n  swap1\n  pop\n    /* \"contracts/DeFiFlow.sol\":3800:3821  address pairAddressAB */\n  0x00\n    /* \"contracts/DeFiFlow.sol\":3842:3849  factory */\n  dup2\n    /* \"contracts/DeFiFlow.sol\":3824:3858  IUniswapV2Factory(factory).getPair */\n  0xffffffffffffffffffffffffffffffffffffffff\n  and\n  0xe6a43905\n    /* \"contracts/DeFiFlow.sol\":3859:3866  _tokenA */\n  dup14\n    /* \"contracts/DeFiFlow.sol\":3868:3875  _tokenB */\n  dup14\n    /* \"contracts/DeFiFlow.sol\":3824:3876  IUniswapV2Factory(factory).getPair(_tokenA, _tokenB) */\n  mload(0x40)\n  dup4\n  0xffffffff\n  and\n  0xe0\n  shl\n  dup2\n  mstore\n  0x04\n  add\n  tag_19\n  swap3\n  swap2\n  swap1\n  tag_20\n  jump\t// in\ntag_19:\n  0x20\n  mload(0x40)\n  dup1\n  dup4\n  sub\n  dup2\n  dup7\n  gas\n  staticcall\n  iszero\n  dup1\n  iszero\n  tag_22\n  jumpi\n  returndatasize\n  0x00\n  dup1\n  returndatacopy\n  revert(0x00, returndatasize)\ntag_22:\n  pop\n  pop\n  pop\n  pop\n  mload(0x40)\n  returndatasize\n  not(0x1f)\n  0x1f\n  dup3\n  add\n  and\n  dup3\n  add\n  dup1\n  0x40\n  mstore\n  pop\n  dup2\n  add\n  swap1\n  tag_23\n  swap2\n  swap1\n  tag_18\n  jump\t// in\ntag_23:\n    /* \"contracts/DeFiFlow.sol\":3800:3876  address pairAddressAB = IUniswapV2Factory(factory).getPair(_tokenA, _tokenB) */\n  swap1\n  pop\n    /* \"contracts/DeFiFlow.sol\":3919:3920  0 */\n  0x00\n    /* \"contracts/DeFiFlow.sol\":3894:3921  pairAddressAB != address(0) */\n  0xffffffffffffffffffffffffffffffffffffffff\n  and\n    /* \"contracts/DeFiFlow.sol\":3894:3907  pairAddressAB */\n  dup2\n    /* \"contracts/DeFiFlow.sol\":3894:3921  pairAddressAB != address(0) */\n  0xffffffffffffffffffffffffffffffffffffffff\n  and\n  sub\n    /* \"contracts/DeFiFlow.sol\":3886:3957  require(pairAddressAB != address(0), \"Uniswap pair A/B doesn't exist.\") */\n  tag_24\n  jumpi\n  mload(0x40)\n  0x08c379a000000000000000000000000000000000000000000000000000000000\n  dup2\n  mstore\n  0x04\n  add\n  tag_25\n  swap1\n  tag_26\n  jump\t// in\ntag_25:\n  mload(0x40)\n  dup1\n  swap2\n  sub\n  swap1\n  revert\ntag_24:\n    /* \"contracts/DeFiFlow.sol\":3998:4011  pairAddressAB */\n  dup1\n    /* \"contracts/DeFiFlow.sol\":3967:3980  uniswapPairAB */\n  0x07\n  0x00\n    /* \"contracts/DeFiFlow.sol\":3967:4012  uniswapPairAB = IUniswapV2Pair(pairAddressAB) */\n  0x0100\n  exp\n  dup2\n  sload\n  dup2\n  0xffffffffffffffffffffffffffffffffffffffff\n  mul\n  not\n  and\n  swap1\n  dup4\n  0xffffffffffffffffffffffffffffffffffffffff\n  and\n  mul\n  or\n  swap1\n  sstore\n  pop\n    /* \"contracts/DeFiFlow.sol\":4089:4110  address pairAddressAC */\n  0x00\n    /* \"contracts/DeFiFlow.sol\":4131:4138  factory */\n  dup3\n    /* \"contracts/DeFiFlow.sol\":4113:4147  IUniswapV2Factory(factory).getPair */\n  0xffffffffffffffffffffffffffffffffffffffff\n  and\n  0xe6a43905\n    /* \"contracts/DeFiFlow.sol\":4148:4155  _tokenA */\n  dup15\n    /* \"contracts/DeFiFlow.sol\":4157:4164  _tokenC */\n  dup14\n    /* \"contracts/DeFiFlow.sol\":4113:4165  IUniswapV2Factory(factory).getPair(_tokenA, _tokenC) */\n  mload(0x40)\n  dup4\n  0xffffffff\n  and\n  0xe0\n  shl\n  dup2\n  mstore\n  0x04\n  add\n  tag_27\n  swap3\n  swap2\n  swap1\n  tag_20\n  jump\t// in\ntag_27:\n  0x20\n  mload(0x40)\n  dup1\n  dup4\n  sub\n  dup2\n  dup7\n  gas\n  staticcall\n  iszero\n  dup1\n  iszero\n  tag_29\n  jumpi\n  returndatasize\n  0x00\n  dup1\n  returndatacopy\n  revert(0x00, returndatasize)\ntag_29:\n  pop\n  pop\n  pop\n  pop\n  mload(0x40)\n  returndatasize\n  not(0x1f)\n  0x1f\n  dup3\n  add\n  and\n  dup3\n  add\n  dup1\n  0x40\n  mstore\n  pop\n  dup2\n  add\n  swap1\n  tag_30\n  swap2\n  swap1\n  tag_18\n  jump\t// in\ntag_30:\n    /* \"contracts/DeFiFlow.sol\":4089:4165  address pairAddressAC = IUniswapV2Factory(factory).getPair(_tokenA, _tokenC) */\n  swap1\n  pop\n    /* \"contracts/DeFiFlow.sol\":4204:4205  0 */\n  0x00\n    /* \"contracts/DeFiFlow.sol\":4179:4206  pairAddressAC != address(0) */\n  0xffffffffffffffffffffffffffffffffffffffff\n  and\n    /* \"contracts/DeFiFlow.sol\":4179:4192  pairAddressAC */\n  dup2\n    /* \"contracts/DeFiFlow.sol\":4179:4206  pairAddressAC != address(0) */\n  0xffffffffffffffffffffffffffffffffffffffff\n  and\n  eq\n    /* \"contracts/DeFiFlow.sol\":4175:4278  if (pairAddressAC != address(0)) {... */\n  tag_31\n  jumpi\n    /* \"contracts/DeFiFlow.sol\":4253:4266  pairAddressAC */\n  dup1\n    /* \"contracts/DeFiFlow.sol\":4222:4235  uniswapPairAC */\n  0x08\n  0x00\n    /* \"contracts/DeFiFlow.sol\":4222:4267  uniswapPairAC = IUniswapV2Pair(pairAddressAC) */\n  0x0100\n  exp\n  dup2\n  sload\n  dup2\n  0xffffffffffffffffffffffffffffffffffffffff\n  mul\n  not\n  and\n  swap1\n  dup4\n  0xffffffffffffffffffffffffffffffffffffffff\n  and\n  mul\n  or\n  swap1\n  sstore\n  pop\n    /* \"contracts/DeFiFlow.sol\":4175:4278  if (pairAddressAC != address(0)) {... */\ntag_31:\n    /* \"contracts/DeFiFlow.sol\":4288:4309  address pairAddressBC */\n  0x00\n    /* \"contracts/DeFiFlow.sol\":4330:4337  factory */\n  dup4\n    /* \"contracts/DeFiFlow.sol\":4312:4346  IUniswapV2Factory(factory).getPair */\n  0xffffffffffffffffffffffffffffffffffffffff\n  and\n  0xe6a43905\n    /* \"contracts/DeFiFlow.sol\":4347:4354  _tokenB */\n  dup15\n    /* \"contracts/DeFiFlow.sol\":4356:4363  _tokenC */\n  dup15\n    /* \"contracts/DeFiFlow.sol\":4312:4364  IUniswapV2Factory(factory).getPair(_tokenB, _tokenC) */\n  mload(0x40)\n  dup4\n  0xffffffff\n  and\n  0xe0\n  shl\n  dup2\n  mstore\n  0x04\n  add\n  tag_32\n  swap3\n  swap2\n  swap1\n  tag_20\n  jump\t// in\ntag_32:\n  0x20\n  mload(0x40)\n  dup1\n  dup4\n  sub\n  dup2\n  dup7\n  gas\n  staticcall\n  iszero\n  dup1\n  iszero\n  tag_34\n  jumpi\n  returndatasize\n  0x00\n  dup1\n  returndatacopy\n  revert(0x00, returndatasize)\ntag_34:\n  pop\n  pop\n  pop\n  pop\n  mload(0x40)\n  returndatasize\n  not(0x1f)\n  0x1f\n  dup3\n  add\n  and\n  dup3\n  add\n  dup1\n  0x40\n  mstore\n  pop\n  dup2\n  add\n  swap1\n  tag_35\n  swap2\n  swap1\n  tag_18\n  jump\t// in\ntag_35:\n    /* \"contracts/DeFiFlow.sol\":4288:4364  address pairAddressBC = IUniswapV2Factory(factory).getPair(_tokenB, _tokenC) */\n  swap1\n  pop\n    /* \"contracts/DeFiFlow.sol\":4403:4404  0 */\n  0x00\n    /* \"contracts/DeFiFlow.sol\":4378:4405  pairAddressBC != address(0) */\n  0xffffffffffffffffffffffffffffffffffffffff\n  and\n    /* \"contracts/DeFiFlow.sol\":4378:4391  pairAddressBC */\n  dup2\n    /* \"contracts/DeFiFlow.sol\":4378:4405  pairAddressBC != address(0) */\n  0xffffffffffffffffffffffffffffffffffffffff\n  and\n  eq\n    /* \"contracts/DeFiFlow.sol\":4374:4477  if (pairAddressBC != address(0)) {... */\n  tag_36\n  jumpi\n    /* \"contracts/DeFiFlow.sol\":4452:4465  pairAddressBC */\n  dup1\n    /* \"contracts/DeFiFlow.sol\":4421:4434  uniswapPairBC */\n  0x09\n  0x00\n    /* \"contracts/DeFiFlow.sol\":4421:4466  uniswapPairBC = IUniswapV2Pair(pairAddressBC) */\n  0x0100\n  exp\n  dup2\n  sload\n  dup2\n  0xffffffffffffffffffffffffffffffffffffffff\n  mul\n  not\n  and\n  swap1\n  dup4\n  0xffffffffffffffffffffffffffffffffffffffff\n  and\n  mul\n  or\n  swap1\n  sstore\n  pop\n    /* \"contracts/DeFiFlow.sol\":4374:4477  if (pairAddressBC != address(0)) {... */\ntag_36:\n    /* \"contracts/DeFiFlow.sol\":3272:4483  {... */\n  pop\n  pop\n  pop\n  pop\n    /* \"contracts/DeFiFlow.sol\":2923:4483  constructor(... */\n  pop\n  pop\n  pop\n  pop\n  pop\n  pop\n  pop\n  pop\n  pop\n  pop\n    /* \"contracts/DeFiFlow.sol\":827:12086  contract DeFiFlow is Ownable, KeeperCompatibleInterface, ReentrancyGuard {... */\n  jump(tag_37)\n    /* \"@openzeppelin/contracts/access/Ownable.sol\":2912:3099  function _transferOwnership(address newOwner) internal virtual {... */\ntag_12:\n    /* \"@openzeppelin/contracts/access/Ownable.sol\":2985:3001  address oldOwner */\n  0x00\n    /* \"@openzeppelin/contracts/access/Ownable.sol\":3004:3010  _owner */\n  dup1\n  0x00\n  swap1\n  sload\n  swap1\n  0x0100\n  exp\n  swap1\n  div\n  0xffffffffffffffffffffffffffffffffffffffff\n  and\n    /* \"@openzeppelin/contracts/access/Ownable.sol\":2985:3010  address oldOwner = _owner */\n  swap1\n  pop\n    /* \"@openzeppelin/contracts/access/Ownable.sol\":3029:3037  newOwner */\n  dup2\n    /* \"@openzeppelin/contracts/access/Ownable.sol\":3020:3026  _owner */\n  0x00\n  dup1\n    /* \"@openzeppelin/contracts/access/Ownable.sol\":3020:3037  _owner = newOwner */\n  0x0100\n  exp\n  dup2\n  sload\n  dup2\n  0xffffffffffffffffffffffffffffffffffffffff\n  mul\n  not\n  and\n  swap1\n  dup4\n  0xffffffffffffffffffffffffffffffffffffffff\n  and\n  mul\n  or\n  swap1\n  sstore\n  pop\n    /* \"@openzeppelin/contracts/access/Ownable.sol\":3083:3091  newOwner */\n  dup2\n    /* \"@openzeppelin/contracts/access/Ownable.sol\":3052:3092  OwnershipTransferred(oldOwner, newOwner) */\n  0xffffffffffffffffffffffffffffffffffffffff\n  and\n    /* \"@openzeppelin/contracts/access/Ownable.sol\":3073:3081  oldOwner */\n  dup2\n    /* \"@openzeppelin/contracts/access/Ownable.sol\":3052:3092  OwnershipTransferred(oldOwner, newOwner) */\n  0xffffffffffffffffffffffffffffffffffffffff\n  and\n  0x8be0079c531659141344cd1fd0a4f28419497f9722a3daafe3b4186f6b6457e0\n  mload(0x40)\n  mload(0x40)\n  dup1\n  swap2\n  sub\n  swap1\n  log3\n    /* \"@openzeppelin/contracts/access/Ownable.sol\":2975:3099  {... */\n  pop\n    /* \"@openzeppelin/contracts/access/Ownable.sol\":2912:3099  function _transferOwnership(address newOwner) internal virtual {... */\n  pop\n  jump\t// out\n    /* \"#utility.yul\":88:205   */\ntag_40:\n    /* \"#utility.yul\":197:198   */\n  0x00\n    /* \"#utility.yul\":194:195   */\n  dup1\n    /* \"#utility.yul\":187:199   */\n  revert\n    /* \"#utility.yul\":334:460   */\ntag_42:\n    /* \"#utility.yul\":371:378   */\n  0x00\n    /* \"#utility.yul\":411:453   */\n  0xffffffffffffffffffffffffffffffffffffffff\n    /* \"#utility.yul\":404:409   */\n  dup3\n    /* \"#utility.yul\":400:454   */\n  and\n    /* \"#utility.yul\":389:454   */\n  swap1\n  pop\n    /* \"#utility.yul\":334:460   */\n  swap2\n  swap1\n  pop\n  jump\t// out\n    /* \"#utility.yul\":466:562   */\ntag_43:\n    /* \"#utility.yul\":503:510   */\n  0x00\n    /* \"#utility.yul\":532:556   */\n  tag_59\n    /* \"#utility.yul\":550:555   */\n  dup3\n    /* \"#utility.yul\":532:556   */\n  tag_42\n  jump\t// in\ntag_59:\n    /* \"#utility.yul\":521:556   */\n  swap1\n  pop\n    /* \"#utility.yul\":466:562   */\n  swap2\n  swap1\n  pop\n  jump\t// out\n    /* \"#utility.yul\":568:690   */\ntag_44:\n    /* \"#utility.yul\":641:665   */\n  tag_61\n    /* \"#utility.yul\":659:664   */\n  dup2\n    /* \"#utility.yul\":641:665   */\n  tag_43\n  jump\t// in\ntag_61:\n    /* \"#utility.yul\":634:639   */\n  dup2\n    /* \"#utility.yul\":631:666   */\n  eq\n    /* \"#utility.yul\":621:684   */\n  tag_62\n  jumpi\n    /* \"#utility.yul\":680:681   */\n  0x00\n    /* \"#utility.yul\":677:678   */\n  dup1\n    /* \"#utility.yul\":670:682   */\n  revert\n    /* \"#utility.yul\":621:684   */\ntag_62:\n    /* \"#utility.yul\":568:690   */\n  pop\n  jump\t// out\n    /* \"#utility.yul\":696:839   */\ntag_45:\n    /* \"#utility.yul\":753:758   */\n  0x00\n    /* \"#utility.yul\":784:790   */\n  dup2\n    /* \"#utility.yul\":778:791   */\n  mload\n    /* \"#utility.yul\":769:791   */\n  swap1\n  pop\n    /* \"#utility.yul\":800:833   */\n  tag_64\n    /* \"#utility.yul\":827:832   */\n  dup2\n    /* \"#utility.yul\":800:833   */\n  tag_44\n  jump\t// in\ntag_64:\n    /* \"#utility.yul\":696:839   */\n  swap3\n  swap2\n  pop\n  pop\n  jump\t// out\n    /* \"#utility.yul\":845:922   */\ntag_46:\n    /* \"#utility.yul\":882:889   */\n  0x00\n    /* \"#utility.yul\":911:916   */\n  dup2\n    /* \"#utility.yul\":900:916   */\n  swap1\n  pop\n    /* \"#utility.yul\":845:922   */\n  swap2\n  swap1\n  pop\n  jump\t// out\n    /* \"#utility.yul\":928:1050   */\ntag_47:\n    /* \"#utility.yul\":1001:1025   */\n  tag_67\n    /* \"#utility.yul\":1019:1024   */\n  dup2\n    /* \"#utility.yul\":1001:1025   */\n  tag_46\n  jump\t// in\ntag_67:\n    /* \"#utility.yul\":994:999   */\n  dup2\n    /* \"#utility.yul\":991:1026   */\n  eq\n    /* \"#utility.yul\":981:1044   */\n  tag_68\n  jumpi\n    /* \"#utility.yul\":1040:1041   */\n  0x00\n    /* \"#utility.yul\":1037:1038   */\n  dup1\n    /* \"#utility.yul\":1030:1042   */\n  revert\n    /* \"#utility.yul\":981:1044   */\ntag_68:\n    /* \"#utility.yul\":928:1050   */\n  pop\n  jump\t// out\n    /* \"#utility.yul\":1056:1199   */\ntag_48:\n    /* \"#utility.yul\":1113:1118   */\n  0x00\n    /* \"#utility.yul\":1144:1150   */\n  dup2\n    /* \"#utility.yul\":1138:1151   */\n  mload\n    /* \"#utility.yul\":1129:1151   */\n  swap1\n  pop\n    /* \"#utility.yul\":1160:1193   */\n  tag_70\n    /* \"#utility.yul\":1187:1192   */\n  dup2\n    /* \"#utility.yul\":1160:1193   */\n  tag_47\n  jump\t// in\ntag_70:\n    /* \"#utility.yul\":1056:1199   */\n  swap3\n  swap2\n  pop\n  pop\n  jump\t// out\n    /* \"#utility.yul\":1205:2967   */\ntag_3:\n    /* \"#utility.yul\":1356:1362   */\n  0x00\n    /* \"#utility.yul\":1364:1370   */\n  dup1\n    /* \"#utility.yul\":1372:1378   */\n  0x00\n    /* \"#utility.yul\":1380:1386   */\n  dup1\n    /* \"#utility.yul\":1388:1394   */\n  0x00\n    /* \"#utility.yul\":1396:1402   */\n  dup1\n    /* \"#utility.yul\":1404:1410   */\n  0x00\n    /* \"#utility.yul\":1412:1418   */\n  dup1\n    /* \"#utility.yul\":1420:1426   */\n  0x00\n    /* \"#utility.yul\":1428:1434   */\n  dup1\n    /* \"#utility.yul\":1477:1480   */\n  0x0140\n    /* \"#utility.yul\":1465:1474   */\n  dup12\n    /* \"#utility.yul\":1456:1463   */\n  dup14\n    /* \"#utility.yul\":1452:1475   */\n  sub\n    /* \"#utility.yul\":1448:1481   */\n  slt\n    /* \"#utility.yul\":1445:1565   */\n  iszero\n  tag_72\n  jumpi\n    /* \"#utility.yul\":1484:1563   */\n  tag_73\n  tag_40\n  jump\t// in\ntag_73:\n    /* \"#utility.yul\":1445:1565   */\ntag_72:\n    /* \"#utility.yul\":1604:1605   */\n  0x00\n    /* \"#utility.yul\":1629:1693   */\n  tag_74\n    /* \"#utility.yul\":1685:1692   */\n  dup14\n    /* \"#utility.yul\":1676:1682   */\n  dup3\n    /* \"#utility.yul\":1665:1674   */\n  dup15\n    /* \"#utility.yul\":1661:1683   */\n  add\n    /* \"#utility.yul\":1629:1693   */\n  tag_45\n  jump\t// in\ntag_74:\n    /* \"#utility.yul\":1619:1693   */\n  swap11\n  pop\n    /* \"#utility.yul\":1575:1703   */\n  pop\n    /* \"#utility.yul\":1742:1744   */\n  0x20\n    /* \"#utility.yul\":1768:1832   */\n  tag_75\n    /* \"#utility.yul\":1824:1831   */\n  dup14\n    /* \"#utility.yul\":1815:1821   */\n  dup3\n    /* \"#utility.yul\":1804:1813   */\n  dup15\n    /* \"#utility.yul\":1800:1822   */\n  add\n    /* \"#utility.yul\":1768:1832   */\n  tag_45\n  jump\t// in\ntag_75:\n    /* \"#utility.yul\":1758:1832   */\n  swap10\n  pop\n    /* \"#utility.yul\":1713:1842   */\n  pop\n    /* \"#utility.yul\":1881:1883   */\n  0x40\n    /* \"#utility.yul\":1907:1971   */\n  tag_76\n    /* \"#utility.yul\":1963:1970   */\n  dup14\n    /* \"#utility.yul\":1954:1960   */\n  dup3\n    /* \"#utility.yul\":1943:1952   */\n  dup15\n    /* \"#utility.yul\":1939:1961   */\n  add\n    /* \"#utility.yul\":1907:1971   */\n  tag_45\n  jump\t// in\ntag_76:\n    /* \"#utility.yul\":1897:1971   */\n  swap9\n  pop\n    /* \"#utility.yul\":1852:1981   */\n  pop\n    /* \"#utility.yul\":2020:2022   */\n  0x60\n    /* \"#utility.yul\":2046:2110   */\n  tag_77\n    /* \"#utility.yul\":2102:2109   */\n  dup14\n    /* \"#utility.yul\":2093:2099   */\n  dup3\n    /* \"#utility.yul\":2082:2091   */\n  dup15\n    /* \"#utility.yul\":2078:2100   */\n  add\n    /* \"#utility.yul\":2046:2110   */\n  tag_45\n  jump\t// in\ntag_77:\n    /* \"#utility.yul\":2036:2110   */\n  swap8\n  pop\n    /* \"#utility.yul\":1991:2120   */\n  pop\n    /* \"#utility.yul\":2159:2162   */\n  0x80\n    /* \"#utility.yul\":2186:2250   */\n  tag_78\n    /* \"#utility.yul\":2242:2249   */\n  dup14\n    /* \"#utility.yul\":2233:2239   */\n  dup3\n    /* \"#utility.yul\":2222:2231   */\n  dup15\n    /* \"#utility.yul\":2218:2240   */\n  add\n    /* \"#utility.yul\":2186:2250   */\n  tag_45\n  jump\t// in\ntag_78:\n    /* \"#utility.yul\":2176:2250   */\n  swap7\n  pop\n    /* \"#utility.yul\":2130:2260   */\n  pop\n    /* \"#utility.yul\":2299:2302   */\n  0xa0\n    /* \"#utility.yul\":2326:2390   */\n  tag_79\n    /* \"#utility.yul\":2382:2389   */\n  dup14\n    /* \"#utility.yul\":2373:2379   */\n  dup3\n    /* \"#utility.yul\":2362:2371   */\n  dup15\n    /* \"#utility.yul\":2358:2380   */\n  add\n    /* \"#utility.yul\":2326:2390   */\n  tag_45\n  jump\t// in\ntag_79:\n    /* \"#utility.yul\":2316:2390   */\n  swap6\n  pop\n    /* \"#utility.yul\":2270:2400   */\n  pop\n    /* \"#utility.yul\":2439:2442   */\n  0xc0\n    /* \"#utility.yul\":2466:2530   */\n  tag_80\n    /* \"#utility.yul\":2522:2529   */\n  dup14\n    /* \"#utility.yul\":2513:2519   */\n  dup3\n    /* \"#utility.yul\":2502:2511   */\n  dup15\n    /* \"#utility.yul\":2498:2520   */\n  add\n    /* \"#utility.yul\":2466:2530   */\n  tag_48\n  jump\t// in\ntag_80:\n    /* \"#utility.yul\":2456:2530   */\n  swap5\n  pop\n    /* \"#utility.yul\":2410:2540   */\n  pop\n    /* \"#utility.yul\":2579:2582   */\n  0xe0\n    /* \"#utility.yul\":2606:2670   */\n  tag_81\n    /* \"#utility.yul\":2662:2669   */\n  dup14\n    /* \"#utility.yul\":2653:2659   */\n  dup3\n    /* \"#utility.yul\":2642:2651   */\n  dup15\n    /* \"#utility.yul\":2638:2660   */\n  add\n    /* \"#utility.yul\":2606:2670   */\n  tag_48\n  jump\t// in\ntag_81:\n    /* \"#utility.yul\":2596:2670   */\n  swap4\n  pop\n    /* \"#utility.yul\":2550:2680   */\n  pop\n    /* \"#utility.yul\":2719:2722   */\n  0x0100\n    /* \"#utility.yul\":2746:2810   */\n  tag_82\n    /* \"#utility.yul\":2802:2809   */\n  dup14\n    /* \"#utility.yul\":2793:2799   */\n  dup3\n    /* \"#utility.yul\":2782:2791   */\n  dup15\n    /* \"#utility.yul\":2778:2800   */\n  add\n    /* \"#utility.yul\":2746:2810   */\n  tag_48\n  jump\t// in\ntag_82:\n    /* \"#utility.yul\":2736:2810   */\n  swap3\n  pop\n    /* \"#utility.yul\":2690:2820   */\n  pop\n    /* \"#utility.yul\":2859:2862   */\n  0x0120\n    /* \"#utility.yul\":2886:2950   */\n  tag_83\n    /* \"#utility.yul\":2942:2949   */\n  dup14\n    /* \"#utility.yul\":2933:2939   */\n  dup3\n    /* \"#utility.yul\":2922:2931   */\n  dup15\n    /* \"#utility.yul\":2918:2940   */\n  add\n    /* \"#utility.yul\":2886:2950   */\n  tag_48\n  jump\t// in\ntag_83:\n    /* \"#utility.yul\":2876:2950   */\n  swap2\n  pop\n    /* \"#utility.yul\":2830:2960   */\n  pop\n    /* \"#utility.yul\":1205:2967   */\n  swap3\n  swap6\n  swap9\n  swap12\n  swap2\n  swap5\n  swap8\n  swap11\n  pop\n  swap3\n  swap6\n  swap9\n  pop\n  jump\t// out\n    /* \"#utility.yul\":2973:3091   */\ntag_49:\n    /* \"#utility.yul\":3060:3084   */\n  tag_85\n    /* \"#utility.yul\":3078:3083   */\n  dup2\n    /* \"#utility.yul\":3060:3084   */\n  tag_43\n  jump\t// in\ntag_85:\n    /* \"#utility.yul\":3055:3058   */\n  dup3\n    /* \"#utility.yul\":3048:3085   */\n  mstore\n    /* \"#utility.yul\":2973:3091   */\n  pop\n  pop\n  jump\t// out\n    /* \"#utility.yul\":3097:3319   */\ntag_10:\n    /* \"#utility.yul\":3190:3194   */\n  0x00\n    /* \"#utility.yul\":3228:3230   */\n  0x20\n    /* \"#utility.yul\":3217:3226   */\n  dup3\n    /* \"#utility.yul\":3213:3231   */\n  add\n    /* \"#utility.yul\":3205:3231   */\n  swap1\n  pop\n    /* \"#utility.yul\":3241:3312   */\n  tag_87\n    /* \"#utility.yul\":3309:3310   */\n  0x00\n    /* \"#utility.yul\":3298:3307   */\n  dup4\n    /* \"#utility.yul\":3294:3311   */\n  add\n    /* \"#utility.yul\":3285:3291   */\n  dup5\n    /* \"#utility.yul\":3241:3312   */\n  tag_49\n  jump\t// in\ntag_87:\n    /* \"#utility.yul\":3097:3319   */\n  swap3\n  swap2\n  pop\n  pop\n  jump\t// out\n    /* \"#utility.yul\":3325:3676   */\ntag_18:\n    /* \"#utility.yul\":3395:3401   */\n  0x00\n    /* \"#utility.yul\":3444:3446   */\n  0x20\n    /* \"#utility.yul\":3432:3441   */\n  dup3\n    /* \"#utility.yul\":3423:3430   */\n  dup5\n    /* \"#utility.yul\":3419:3442   */\n  sub\n    /* \"#utility.yul\":3415:3447   */\n  slt\n    /* \"#utility.yul\":3412:3531   */\n  iszero\n  tag_89\n  jumpi\n    /* \"#utility.yul\":3450:3529   */\n  tag_90\n  tag_40\n  jump\t// in\ntag_90:\n    /* \"#utility.yul\":3412:3531   */\ntag_89:\n    /* \"#utility.yul\":3570:3571   */\n  0x00\n    /* \"#utility.yul\":3595:3659   */\n  tag_91\n    /* \"#utility.yul\":3651:3658   */\n  dup5\n    /* \"#utility.yul\":3642:3648   */\n  dup3\n    /* \"#utility.yul\":3631:3640   */\n  dup6\n    /* \"#utility.yul\":3627:3649   */\n  add\n    /* \"#utility.yul\":3595:3659   */\n  tag_45\n  jump\t// in\ntag_91:\n    /* \"#utility.yul\":3585:3659   */\n  swap2\n  pop\n    /* \"#utility.yul\":3541:3669   */\n  pop\n    /* \"#utility.yul\":3325:3676   */\n  swap3\n  swap2\n  pop\n  pop\n  jump\t// out\n    /* \"#utility.yul\":3682:4014   */\ntag_20:\n    /* \"#utility.yul\":3803:3807   */\n  0x00\n    /* \"#utility.yul\":3841:3843   */\n  0x40\n    /* \"#utility.yul\":3830:3839   */\n  dup3\n    /* \"#utility.yul\":3826:3844   */\n  add\n    /* \"#utility.yul\":3818:3844   */\n  swap1\n  pop\n    /* \"#utility.yul\":3854:3925   */\n  tag_93\n    /* \"#utility.yul\":3922:3923   */\n  0x00\n    /* \"#utility.yul\":3911:3920   */\n  dup4\n    /* \"#utility.yul\":3907:3924   */\n  add\n    /* \"#utility.yul\":3898:3904   */\n  dup6\n    /* \"#utility.yul\":3854:3925   */\n  tag_49\n  jump\t// in\ntag_93:\n    /* \"#utility.yul\":3935:4007   */\n  tag_94\n    /* \"#utility.yul\":4003:4005   */\n  0x20\n    /* \"#utility.yul\":3992:4001   */\n  dup4\n    /* \"#utility.yul\":3988:4006   */\n  add\n    /* \"#utility.yul\":3979:3985   */\n  dup5\n    /* \"#utility.yul\":3935:4007   */\n  tag_49\n  jump\t// in\ntag_94:\n    /* \"#utility.yul\":3682:4014   */\n  swap4\n  swap3\n  pop\n  pop\n  pop\n  jump\t// out\n    /* \"#utility.yul\":4020:4189   */\ntag_50:\n    /* \"#utility.yul\":4104:4115   */\n  0x00\n    /* \"#utility.yul\":4138:4144   */\n  dup3\n    /* \"#utility.yul\":4133:4136   */\n  dup3\n    /* \"#utility.yul\":4126:4145   */\n  mstore\n    /* \"#utility.yul\":4178:4182   */\n  0x20\n    /* \"#utility.yul\":4173:4176   */\n  dup3\n    /* \"#utility.yul\":4169:4183   */\n  add\n    /* \"#utility.yul\":4154:4183   */\n  swap1\n  pop\n    /* \"#utility.yul\":4020:4189   */\n  swap3\n  swap2\n  pop\n  pop\n  jump\t// out\n    /* \"#utility.yul\":4195:4376   */\ntag_51:\n    /* \"#utility.yul\":4335:4368   */\n  0x556e6973776170207061697220412f4220646f65736e27742065786973742e00\n    /* \"#utility.yul\":4331:4332   */\n  0x00\n    /* \"#utility.yul\":4323:4329   */\n  dup3\n    /* \"#utility.yul\":4319:4333   */\n  add\n    /* \"#utility.yul\":4312:4369   */\n  mstore\n    /* \"#utility.yul\":4195:4376   */\n  pop\n  jump\t// out\n    /* \"#utility.yul\":4382:4748   */\ntag_52:\n    /* \"#utility.yul\":4524:4527   */\n  0x00\n    /* \"#utility.yul\":4545:4612   */\n  tag_98\n    /* \"#utility.yul\":4609:4611   */\n  0x1f\n    /* \"#utility.yul\":4604:4607   */\n  dup4\n    /* \"#utility.yul\":4545:4612   */\n  tag_50\n  jump\t// in\ntag_98:\n    /* \"#utility.yul\":4538:4612   */\n  swap2\n  pop\n    /* \"#utility.yul\":4621:4714   */\n  tag_99\n    /* \"#utility.yul\":4710:4713   */\n  dup3\n    /* \"#utility.yul\":4621:4714   */\n  tag_51\n  jump\t// in\ntag_99:\n    /* \"#utility.yul\":4739:4741   */\n  0x20\n    /* \"#utility.yul\":4734:4737   */\n  dup3\n    /* \"#utility.yul\":4730:4742   */\n  add\n    /* \"#utility.yul\":4723:4742   */\n  swap1\n  pop\n    /* \"#utility.yul\":4382:4748   */\n  swap2\n  swap1\n  pop\n  jump\t// out\n    /* \"#utility.yul\":4754:5173   */\ntag_26:\n    /* \"#utility.yul\":4920:4924   */\n  0x00\n    /* \"#utility.yul\":4958:4960   */\n  0x20\n    /* \"#utility.yul\":4947:4956   */\n  dup3\n    /* \"#utility.yul\":4943:4961   */\n  add\n    /* \"#utility.yul\":4935:4961   */\n  swap1\n  pop\n    /* \"#utility.yul\":5007:5016   */\n  dup2\n    /* \"#utility.yul\":5001:5005   */\n  dup2\n    /* \"#utility.yul\":4997:5017   */\n  sub\n    /* \"#utility.yul\":4993:4994   */\n  0x00\n    /* \"#utility.yul\":4982:4991   */\n  dup4\n    /* \"#utility.yul\":4978:4995   */\n  add\n    /* \"#utility.yul\":4971:5018   */\n  mstore\n    /* \"#utility.yul\":5035:5166   */\n  tag_101\n    /* \"#utility.yul\":5161:5165   */\n  dup2\n    /* \"#utility.yul\":5035:5166   */\n  tag_52\n  jump\t// in\ntag_101:\n    /* \"#utility.yul\":5027:5166   */\n  swap1\n  pop\n    /* \"#utility.yul\":4754:5173   */\n  swap2\n  swap1\n  pop\n  jump\t// out\n    /* \"contracts/DeFiFlow.sol\":827:12086  contract DeFiFlow is Ownable, KeeperCompatibleInterface, ReentrancyGuard {... */\ntag_37:\n  dataSize(sub_0)\n  dup1\n  dataOffset(sub_0)\n  0x00\n  codecopy\n  0x00\n  return\nstop\n\nsub_0: assembly {\n        /* \"contracts/DeFiFlow.sol\":827:12086  contract DeFiFlow is Ownable, KeeperCompatibleInterface, ReentrancyGuard {... */\n      mstore(0x40, 0x80)\n      callvalue\n      dup1\n      iszero\n      tag_1\n      jumpi\n      0x00\n      dup1\n      revert\n    tag_1:\n      pop\n      jumpi(tag_2, lt(calldatasize, 0x04))\n      shr(0xe0, calldataload(0x00))\n      dup1\n      0x715018a6\n      gt\n      tag_32\n      jumpi\n      dup1\n      0x9c8f9f23\n      gt\n      tag_33\n      jumpi\n      dup1\n      0xf1a82c7e\n      gt\n      tag_34\n      jumpi\n      dup1\n      0xf1a82c7e\n      eq\n      tag_28\n      jumpi\n      dup1\n      0xf2fde38b\n      eq\n      tag_29\n      jumpi\n      dup1\n      0xfbf6db14\n      eq\n      tag_30\n      jumpi\n      dup1\n      0xfd829a23\n      eq\n      tag_31\n      jumpi\n      jump(tag_2)\n    tag_34:\n      dup1\n      0x9c8f9f23\n      eq\n      tag_24\n      jumpi\n      dup1\n      0xc483a308\n      eq\n      tag_25\n      jumpi\n      dup1\n      0xd3ec3eec\n      eq\n      tag_26\n      jumpi\n      dup1\n      0xd8fc0816\n      eq\n      tag_27\n      jumpi\n      jump(tag_2)\n    tag_33:\n      dup1\n      0x735de9f7\n      gt\n      tag_35\n      jumpi\n      dup1\n      0x735de9f7\n      eq\n      tag_20\n      jumpi\n      dup1\n      0x741bef1a\n      eq\n      tag_21\n      jumpi\n      dup1\n      0x7a16af7f\n      eq\n      tag_22\n      jumpi\n      dup1\n      0x8da5cb5b\n      eq\n      tag_23\n      jumpi\n      jump(tag_2)\n    tag_35:\n      dup1\n      0x715018a6\n      eq\n      tag_17\n      jumpi\n      dup1\n      0x730ab60f\n      eq\n      tag_18\n      jumpi\n      dup1\n      0x7341ab8c\n      eq\n      tag_19\n      jumpi\n      jump(tag_2)\n    tag_32:\n      dup1\n      0x3ebc480f\n      gt\n      tag_36\n      jumpi\n      dup1\n      0x58d0ee58\n      gt\n      tag_37\n      jumpi\n      dup1\n      0x58d0ee58\n      eq\n      tag_13\n      jumpi\n      dup1\n      0x5a11cd58\n      eq\n      tag_14\n      jumpi\n      dup1\n      0x5f64b55b\n      eq\n      tag_15\n      jumpi\n      dup1\n      0x6e04ff0d\n      eq\n      tag_16\n      jumpi\n      jump(tag_2)\n    tag_37:\n      dup1\n      0x3ebc480f\n      eq\n      tag_10\n      jumpi\n      dup1\n      0x4585e33b\n      eq\n      tag_11\n      jumpi\n      dup1\n      0x47c8e13c\n      eq\n      tag_12\n      jumpi\n      jump(tag_2)\n    tag_36:\n      dup1\n      0x1ae74cce\n      gt\n      tag_38\n      jumpi\n      dup1\n      0x1ae74cce\n      eq\n      tag_6\n      jumpi\n      dup1\n      0x2197634f\n      eq\n      tag_7\n      jumpi\n      dup1\n      0x28a5e10c\n      eq\n      tag_8\n      jumpi\n      dup1\n      0x3dfe9f6a\n      eq\n      tag_9\n      jumpi\n      jump(tag_2)\n    tag_38:\n      dup1\n      0x0fc63d10\n      eq\n      tag_3\n      jumpi\n      dup1\n      0x106b9ca1\n      eq\n      tag_4\n      jumpi\n      dup1\n      0x12ddbc4f\n      eq\n      tag_5\n      jumpi\n    tag_2:\n      0x00\n      dup1\n      revert\n        /* \"contracts/DeFiFlow.sol\":906:926  IERC20 public tokenA */\n    tag_3:\n      tag_39\n      tag_40\n      jump\t// in\n    tag_39:\n      mload(0x40)\n      tag_41\n      swap2\n      swap1\n      tag_42\n      jump\t// in\n    tag_41:\n      mload(0x40)\n      dup1\n      swap2\n      sub\n      swap1\n      return\n        /* \"contracts/DeFiFlow.sol\":1570:1598  uint256 public lastRebalance */\n    tag_4:\n      tag_43\n      tag_44\n      jump\t// in\n    tag_43:\n      mload(0x40)\n      tag_45\n      swap2\n      swap1\n      tag_46\n      jump\t// in\n    tag_45:\n      mload(0x40)\n      dup1\n      swap2\n      sub\n      swap1\n      return\n        /* \"contracts/DeFiFlow.sol\":9138:9281  function updateRebalanceThreshold(uint256 newRebalanceThreshold) external onlyOwner {... */\n    tag_5:\n      tag_47\n      0x04\n      dup1\n      calldatasize\n      sub\n      dup2\n      add\n      swap1\n      tag_48\n      swap2\n      swap1\n      tag_49\n      jump\t// in\n    tag_48:\n      tag_50\n      jump\t// in\n    tag_47:\n      stop\n        /* \"contracts/DeFiFlow.sol\":8278:8437  function getCurrentMarketPrice() public view returns (uint256) {... */\n    tag_6:\n      tag_51\n      tag_52\n      jump\t// in\n    tag_51:\n      mload(0x40)\n      tag_53\n      swap2\n      swap1\n      tag_46\n      jump\t// in\n    tag_53:\n      mload(0x40)\n      dup1\n      swap2\n      sub\n      swap1\n      return\n        /* \"contracts/DeFiFlow.sol\":1494:1526  uint256 public stopLossThreshold */\n    tag_7:\n      tag_54\n      tag_55\n      jump\t// in\n    tag_54:\n      mload(0x40)\n      tag_56\n      swap2\n      swap1\n      tag_46\n      jump\t// in\n    tag_56:\n      mload(0x40)\n      dup1\n      swap2\n      sub\n      swap1\n      return\n        /* \"contracts/DeFiFlow.sol\":1075:1110  IUniswapV2Pair public uniswapPairAB */\n    tag_8:\n      tag_57\n      tag_58\n      jump\t// in\n    tag_57:\n      mload(0x40)\n      tag_59\n      swap2\n      swap1\n      tag_60\n      jump\t// in\n    tag_59:\n      mload(0x40)\n      dup1\n      swap2\n      sub\n      swap1\n      return\n        /* \"contracts/DeFiFlow.sol\":1397:1430  uint256 public rebalanceThreshold */\n    tag_9:\n      tag_61\n      tag_62\n      jump\t// in\n    tag_61:\n      mload(0x40)\n      tag_63\n      swap2\n      swap1\n      tag_46\n      jump\t// in\n    tag_63:\n      mload(0x40)\n      dup1\n      swap2\n      sub\n      swap1\n      return\n        /* \"contracts/DeFiFlow.sol\":9431:9570  function updateStopLossThreshold(uint256 newStopLossThreshold) external onlyOwner {... */\n    tag_10:\n      tag_64\n      0x04\n      dup1\n      calldatasize\n      sub\n      dup2\n      add\n      swap1\n      tag_65\n      swap2\n      swap1\n      tag_49\n      jump\t// in\n    tag_65:\n      tag_66\n      jump\t// in\n    tag_64:\n      stop\n        /* \"contracts/DeFiFlow.sol\":10538:10700  function performUpkeep(bytes calldata) external override {... */\n    tag_11:\n      tag_67\n      0x04\n      dup1\n      calldatasize\n      sub\n      dup2\n      add\n      swap1\n      tag_68\n      swap2\n      swap1\n      tag_69\n      jump\t// in\n    tag_68:\n      tag_70\n      jump\t// in\n    tag_67:\n      stop\n        /* \"contracts/DeFiFlow.sol\":11823:12084  function triggerStopLoss() external onlyOwner nonReentrant {... */\n    tag_12:\n      tag_71\n      tag_72\n      jump\t// in\n    tag_71:\n      stop\n        /* \"contracts/DeFiFlow.sol\":8844:8987  function updateMinProfitThreshold(uint256 newMinProfitThreshold) external onlyOwner {... */\n    tag_13:\n      tag_73\n      0x04\n      dup1\n      calldatasize\n      sub\n      dup2\n      add\n      swap1\n      tag_74\n      swap2\n      swap1\n      tag_49\n      jump\t// in\n    tag_74:\n      tag_75\n      jump\t// in\n    tag_73:\n      stop\n        /* \"contracts/DeFiFlow.sol\":1189:1224  IUniswapV2Pair public uniswapPairBC */\n    tag_14:\n      tag_76\n      tag_77\n      jump\t// in\n    tag_76:\n      mload(0x40)\n      tag_78\n      swap2\n      swap1\n      tag_60\n      jump\t// in\n    tag_78:\n      mload(0x40)\n      dup1\n      swap2\n      sub\n      swap1\n      return\n        /* \"contracts/DeFiFlow.sol\":932:952  IERC20 public tokenB */\n    tag_15:\n      tag_79\n      tag_80\n      jump\t// in\n    tag_79:\n      mload(0x40)\n      tag_81\n      swap2\n      swap1\n      tag_42\n      jump\t// in\n    tag_81:\n      mload(0x40)\n      dup1\n      swap2\n      sub\n      swap1\n      return\n        /* \"contracts/DeFiFlow.sol\":9874:10367  function checkUpkeep(bytes calldata) external view override returns (bool upkeepNeeded, bytes memory performData) {... */\n    tag_16:\n      tag_82\n      0x04\n      dup1\n      calldatasize\n      sub\n      dup2\n      add\n      swap1\n      tag_83\n      swap2\n      swap1\n      tag_69\n      jump\t// in\n    tag_83:\n      tag_84\n      jump\t// in\n    tag_82:\n      mload(0x40)\n      tag_85\n      swap3\n      swap2\n      swap1\n      tag_86\n      jump\t// in\n    tag_85:\n      mload(0x40)\n      dup1\n      swap2\n      sub\n      swap1\n      return\n        /* \"@openzeppelin/contracts/access/Ownable.sol\":2293:2394  function renounceOwnership() public virtual onlyOwner {... */\n    tag_17:\n      tag_87\n      tag_88\n      jump\t// in\n    tag_87:\n      stop\n        /* \"contracts/DeFiFlow.sol\":8564:8683  function updateMaxOrderSize(uint256 newMaxOrderSize) external onlyOwner {... */\n    tag_18:\n      tag_89\n      0x04\n      dup1\n      calldatasize\n      sub\n      dup2\n      add\n      swap1\n      tag_90\n      swap2\n      swap1\n      tag_49\n      jump\t// in\n    tag_90:\n      tag_91\n      jump\t// in\n    tag_89:\n      stop\n        /* \"contracts/DeFiFlow.sol\":1339:1372  uint256 public minProfitThreshold */\n    tag_19:\n      tag_92\n      tag_93\n      jump\t// in\n    tag_92:\n      mload(0x40)\n      tag_94\n      swap2\n      swap1\n      tag_46\n      jump\t// in\n    tag_94:\n      mload(0x40)\n      dup1\n      swap2\n      sub\n      swap1\n      return\n        /* \"contracts/DeFiFlow.sol\":985:1024  IUniswapV2Router02 public uniswapRouter */\n    tag_20:\n      tag_95\n      tag_96\n      jump\t// in\n    tag_95:\n      mload(0x40)\n      tag_97\n      swap2\n      swap1\n      tag_98\n      jump\t// in\n    tag_97:\n      mload(0x40)\n      dup1\n      swap2\n      sub\n      swap1\n      return\n        /* \"contracts/DeFiFlow.sol\":1262:1300  AggregatorV3Interface public priceFeed */\n    tag_21:\n      tag_99\n      tag_100\n      jump\t// in\n    tag_99:\n      mload(0x40)\n      tag_101\n      swap2\n      swap1\n      tag_102\n      jump\t// in\n    tag_101:\n      mload(0x40)\n      dup1\n      swap2\n      sub\n      swap1\n      return\n        /* \"contracts/DeFiFlow.sol\":4644:5372  function provideLiquidity(uint256 amountA, uint256 amountB) external onlyOwner {... */\n    tag_22:\n      tag_103\n      0x04\n      dup1\n      calldatasize\n      sub\n      dup2\n      add\n      swap1\n      tag_104\n      swap2\n      swap1\n      tag_105\n      jump\t// in\n    tag_104:\n      tag_106\n      jump\t// in\n    tag_103:\n      stop\n        /* \"@openzeppelin/contracts/access/Ownable.sol\":1638:1723  function owner() public view virtual returns (address) {... */\n    tag_23:\n      tag_107\n      tag_108\n      jump\t// in\n    tag_107:\n      mload(0x40)\n      tag_109\n      swap2\n      swap1\n      tag_110\n      jump\t// in\n    tag_109:\n      mload(0x40)\n      dup1\n      swap2\n      sub\n      swap1\n      return\n        /* \"contracts/DeFiFlow.sol\":5553:6130  function removeLiquidity(uint256 liquidity) external onlyOwner nonReentrant {... */\n    tag_24:\n      tag_111\n      0x04\n      dup1\n      calldatasize\n      sub\n      dup2\n      add\n      swap1\n      tag_112\n      swap2\n      swap1\n      tag_49\n      jump\t// in\n    tag_112:\n      tag_113\n      jump\t// in\n    tag_111:\n      stop\n        /* \"contracts/DeFiFlow.sol\":958:978  IERC20 public tokenC */\n    tag_25:\n      tag_114\n      tag_115\n      jump\t// in\n    tag_114:\n      mload(0x40)\n      tag_116\n      swap2\n      swap1\n      tag_42\n      jump\t// in\n    tag_116:\n      mload(0x40)\n      dup1\n      swap2\n      sub\n      swap1\n      return\n        /* \"contracts/DeFiFlow.sol\":6466:8134  function executeSwap(uint256 amountIn, address[] calldata path) external onlyOwner nonReentrant {... */\n    tag_26:\n      tag_117\n      0x04\n      dup1\n      calldatasize\n      sub\n      dup2\n      add\n      swap1\n      tag_118\n      swap2\n      swap1\n      tag_119\n      jump\t// in\n    tag_118:\n      tag_120\n      jump\t// in\n    tag_117:\n      stop\n        /* \"contracts/DeFiFlow.sol\":11304:11650  function mitigateImpermanentLoss() external onlyOwner nonReentrant {... */\n    tag_27:\n      tag_121\n      tag_122\n      jump\t// in\n    tag_121:\n      stop\n        /* \"contracts/DeFiFlow.sol\":1306:1333  uint256 public maxOrderSize */\n    tag_28:\n      tag_123\n      tag_124\n      jump\t// in\n    tag_123:\n      mload(0x40)\n      tag_125\n      swap2\n      swap1\n      tag_46\n      jump\t// in\n    tag_125:\n      mload(0x40)\n      dup1\n      swap2\n      sub\n      swap1\n      return\n        /* \"@openzeppelin/contracts/access/Ownable.sol\":2543:2758  function transferOwnership(address newOwner) public virtual onlyOwner {... */\n    tag_29:\n      tag_126\n      0x04\n      dup1\n      calldatasize\n      sub\n      dup2\n      add\n      swap1\n      tag_127\n      swap2\n      swap1\n      tag_128\n      jump\t// in\n    tag_127:\n      tag_129\n      jump\t// in\n    tag_126:\n      stop\n        /* \"contracts/DeFiFlow.sol\":1116:1151  IUniswapV2Pair public uniswapPairAC */\n    tag_30:\n      tag_130\n      tag_131\n      jump\t// in\n    tag_130:\n      mload(0x40)\n      tag_132\n      swap2\n      swap1\n      tag_60\n      jump\t// in\n    tag_132:\n      mload(0x40)\n      dup1\n      swap2\n      sub\n      swap1\n      return\n        /* \"contracts/DeFiFlow.sol\":1030:1069  ISushiSwapRouter public sushiSwapRouter */\n    tag_31:\n      tag_133\n      tag_134\n      jump\t// in\n    tag_133:\n      mload(0x40)\n      tag_135\n      swap2\n      swap1\n      tag_136\n      jump\t// in\n    tag_135:\n      mload(0x40)\n      dup1\n      swap2\n      sub\n      swap1\n      return\n        /* \"contracts/DeFiFlow.sol\":906:926  IERC20 public tokenA */\n    tag_40:\n      0x02\n      0x00\n      swap1\n      sload\n      swap1\n      0x0100\n      exp\n      swap1\n      div\n      0xffffffffffffffffffffffffffffffffffffffff\n      and\n      dup2\n      jump\t// out\n        /* \"contracts/DeFiFlow.sol\":1570:1598  uint256 public lastRebalance */\n    tag_44:\n      sload(0x0f)\n      dup2\n      jump\t// out\n        /* \"contracts/DeFiFlow.sol\":9138:9281  function updateRebalanceThreshold(uint256 newRebalanceThreshold) external onlyOwner {... */\n    tag_50:\n        /* \"@openzeppelin/contracts/access/Ownable.sol\":1531:1544  _checkOwner() */\n      tag_138\n        /* \"@openzeppelin/contracts/access/Ownable.sol\":1531:1542  _checkOwner */\n      tag_139\n        /* \"@openzeppelin/contracts/access/Ownable.sol\":1531:1544  _checkOwner() */\n      jump\t// in\n    tag_138:\n        /* \"contracts/DeFiFlow.sol\":9253:9274  newRebalanceThreshold */\n      dup1\n        /* \"contracts/DeFiFlow.sol\":9232:9250  rebalanceThreshold */\n      0x0d\n        /* \"contracts/DeFiFlow.sol\":9232:9274  rebalanceThreshold = newRebalanceThreshold */\n      dup2\n      swap1\n      sstore\n      pop\n        /* \"contracts/DeFiFlow.sol\":9138:9281  function updateRebalanceThreshold(uint256 newRebalanceThreshold) external onlyOwner {... */\n      pop\n      jump\t// out\n        /* \"contracts/DeFiFlow.sol\":8278:8437  function getCurrentMarketPrice() public view returns (uint256) {... */\n    tag_52:\n        /* \"contracts/DeFiFlow.sol\":8332:8339  uint256 */\n      0x00\n        /* \"contracts/DeFiFlow.sol\":8354:8363  int price */\n      dup1\n        /* \"contracts/DeFiFlow.sol\":8372:8381  priceFeed */\n      0x0a\n      0x00\n      swap1\n      sload\n      swap1\n      0x0100\n      exp\n      swap1\n      div\n      0xffffffffffffffffffffffffffffffffffffffff\n      and\n        /* \"contracts/DeFiFlow.sol\":8372:8397  priceFeed.latestRoundData */\n      0xffffffffffffffffffffffffffffffffffffffff\n      and\n      0xfeaf968c\n        /* \"contracts/DeFiFlow.sol\":8372:8399  priceFeed.latestRoundData() */\n      mload(0x40)\n      dup2\n      0xffffffff\n      and\n      0xe0\n      shl\n      dup2\n      mstore\n      0x04\n      add\n      0xa0\n      mload(0x40)\n      dup1\n      dup4\n      sub\n      dup2\n      dup7\n      gas\n      staticcall\n      iszero\n      dup1\n      iszero\n      tag_143\n      jumpi\n      returndatasize\n      0x00\n      dup1\n      returndatacopy\n      revert(0x00, returndatasize)\n    tag_143:\n      pop\n      pop\n      pop\n      pop\n      mload(0x40)\n      returndatasize\n      not(0x1f)\n      0x1f\n      dup3\n      add\n      and\n      dup3\n      add\n      dup1\n      0x40\n      mstore\n      pop\n      dup2\n      add\n      swap1\n      tag_144\n      swap2\n      swap1\n      tag_145\n      jump\t// in\n    tag_144:\n        /* \"contracts/DeFiFlow.sol\":8351:8399  (, int price, , ,) = priceFeed.latestRoundData() */\n      pop\n      pop\n      pop\n      swap2\n      pop\n      pop\n        /* \"contracts/DeFiFlow.sol\":8424:8429  price */\n      dup1\n        /* \"contracts/DeFiFlow.sol\":8409:8430  return uint256(price) */\n      swap2\n      pop\n      pop\n        /* \"contracts/DeFiFlow.sol\":8278:8437  function getCurrentMarketPrice() public view returns (uint256) {... */\n      swap1\n      jump\t// out\n        /* \"contracts/DeFiFlow.sol\":1494:1526  uint256 public stopLossThreshold */\n    tag_55:\n      sload(0x0e)\n      dup2\n      jump\t// out\n        /* \"contracts/DeFiFlow.sol\":1075:1110  IUniswapV2Pair public uniswapPairAB */\n    tag_58:\n      0x07\n      0x00\n      swap1\n      sload\n      swap1\n      0x0100\n      exp\n      swap1\n      div\n      0xffffffffffffffffffffffffffffffffffffffff\n      and\n      dup2\n      jump\t// out\n        /* \"contracts/DeFiFlow.sol\":1397:1430  uint256 public rebalanceThreshold */\n    tag_62:\n      sload(0x0d)\n      dup2\n      jump\t// out\n        /* \"contracts/DeFiFlow.sol\":9431:9570  function updateStopLossThreshold(uint256 newStopLossThreshold) external onlyOwner {... */\n    tag_66:\n        /* \"@openzeppelin/contracts/access/Ownable.sol\":1531:1544  _checkOwner() */\n      tag_147\n        /* \"@openzeppelin/contracts/access/Ownable.sol\":1531:1542  _checkOwner */\n      tag_139\n        /* \"@openzeppelin/contracts/access/Ownable.sol\":1531:1544  _checkOwner() */\n      jump\t// in\n    tag_147:\n        /* \"contracts/DeFiFlow.sol\":9543:9563  newStopLossThreshold */\n      dup1\n        /* \"contracts/DeFiFlow.sol\":9523:9540  stopLossThreshold */\n      0x0e\n        /* \"contracts/DeFiFlow.sol\":9523:9563  stopLossThreshold = newStopLossThreshold */\n      dup2\n      swap1\n      sstore\n      pop\n        /* \"contracts/DeFiFlow.sol\":9431:9570  function updateStopLossThreshold(uint256 newStopLossThreshold) external onlyOwner {... */\n      pop\n      jump\t// out\n        /* \"contracts/DeFiFlow.sol\":10538:10700  function performUpkeep(bytes calldata) external override {... */\n    tag_70:\n        /* \"contracts/DeFiFlow.sol\":10605:10625  uint256 currentPrice */\n      0x00\n        /* \"contracts/DeFiFlow.sol\":10628:10651  getCurrentMarketPrice() */\n      tag_150\n        /* \"contracts/DeFiFlow.sol\":10628:10649  getCurrentMarketPrice */\n      tag_52\n        /* \"contracts/DeFiFlow.sol\":10628:10651  getCurrentMarketPrice() */\n      jump\t// in\n    tag_150:\n        /* \"contracts/DeFiFlow.sol\":10605:10651  uint256 currentPrice = getCurrentMarketPrice() */\n      swap1\n      pop\n        /* \"contracts/DeFiFlow.sol\":10661:10693  rebalanceLiquidity(currentPrice) */\n      tag_151\n        /* \"contracts/DeFiFlow.sol\":10680:10692  currentPrice */\n      dup2\n        /* \"contracts/DeFiFlow.sol\":10661:10679  rebalanceLiquidity */\n      tag_152\n        /* \"contracts/DeFiFlow.sol\":10661:10693  rebalanceLiquidity(currentPrice) */\n      jump\t// in\n    tag_151:\n        /* \"contracts/DeFiFlow.sol\":10595:10700  {... */\n      pop\n        /* \"contracts/DeFiFlow.sol\":10538:10700  function performUpkeep(bytes calldata) external override {... */\n      pop\n      pop\n      jump\t// out\n        /* \"contracts/DeFiFlow.sol\":11823:12084  function triggerStopLoss() external onlyOwner nonReentrant {... */\n    tag_72:\n        /* \"@openzeppelin/contracts/access/Ownable.sol\":1531:1544  _checkOwner() */\n      tag_154\n        /* \"@openzeppelin/contracts/access/Ownable.sol\":1531:1542  _checkOwner */\n      tag_139\n        /* \"@openzeppelin/contracts/access/Ownable.sol\":1531:1544  _checkOwner() */\n      jump\t// in\n    tag_154:\n        /* \"@openzeppelin/contracts/security/ReentrancyGuard.sol\":2261:2282  _nonReentrantBefore() */\n      tag_156\n        /* \"@openzeppelin/contracts/security/ReentrancyGuard.sol\":2261:2280  _nonReentrantBefore */\n      tag_157\n        /* \"@openzeppelin/contracts/security/ReentrancyGuard.sol\":2261:2282  _nonReentrantBefore() */\n      jump\t// in\n    tag_156:\n        /* \"contracts/DeFiFlow.sol\":11951:11977  uint256 liquidityWithdrawn */\n      0x00\n        /* \"contracts/DeFiFlow.sol\":12040:12077  StopLossTriggered(liquidityWithdrawn) */\n      0xac17dae82b629ef673f1b5fe90cb139d0174345aa580c06b230674ef96c8adc8\n        /* \"contracts/DeFiFlow.sol\":12058:12076  liquidityWithdrawn */\n      dup2\n        /* \"contracts/DeFiFlow.sol\":12040:12077  StopLossTriggered(liquidityWithdrawn) */\n      mload(0x40)\n      tag_159\n      swap2\n      swap1\n      tag_46\n      jump\t// in\n    tag_159:\n      mload(0x40)\n      dup1\n      swap2\n      sub\n      swap1\n      log1\n        /* \"contracts/DeFiFlow.sol\":11882:12084  {... */\n      pop\n        /* \"@openzeppelin/contracts/security/ReentrancyGuard.sol\":2303:2323  _nonReentrantAfter() */\n      tag_160\n        /* \"@openzeppelin/contracts/security/ReentrancyGuard.sol\":2303:2321  _nonReentrantAfter */\n      tag_161\n        /* \"@openzeppelin/contracts/security/ReentrancyGuard.sol\":2303:2323  _nonReentrantAfter() */\n      jump\t// in\n    tag_160:\n        /* \"contracts/DeFiFlow.sol\":11823:12084  function triggerStopLoss() external onlyOwner nonReentrant {... */\n      jump\t// out\n        /* \"contracts/DeFiFlow.sol\":8844:8987  function updateMinProfitThreshold(uint256 newMinProfitThreshold) external onlyOwner {... */\n    tag_75:\n        /* \"@openzeppelin/contracts/access/Ownable.sol\":1531:1544  _checkOwner() */\n      tag_163\n        /* \"@openzeppelin/contracts/access/Ownable.sol\":1531:1542  _checkOwner */\n      tag_139\n        /* \"@openzeppelin/contracts/access/Ownable.sol\":1531:1544  _checkOwner() */\n      jump\t// in\n    tag_163:\n        /* \"contracts/DeFiFlow.sol\":8959:8980  newMinProfitThreshold */\n      dup1\n        /* \"contracts/DeFiFlow.sol\":8938:8956  minProfitThreshold */\n      0x0c\n        /* \"contracts/DeFiFlow.sol\":8938:8980  minProfitThreshold = newMinProfitThreshold */\n      dup2\n      swap1\n      sstore\n      pop\n        /* \"contracts/DeFiFlow.sol\":8844:8987  function updateMinProfitThreshold(uint256 newMinProfitThreshold) external onlyOwner {... */\n      pop\n      jump\t// out\n        /* \"contracts/DeFiFlow.sol\":1189:1224  IUniswapV2Pair public uniswapPairBC */\n    tag_77:\n      0x09\n      0x00\n      swap1\n      sload\n      swap1\n      0x0100\n      exp\n      swap1\n      div\n      0xffffffffffffffffffffffffffffffffffffffff\n      and\n      dup2\n      jump\t// out\n        /* \"contracts/DeFiFlow.sol\":932:952  IERC20 public tokenB */\n    tag_80:\n      0x03\n      0x00\n      swap1\n      sload\n      swap1\n      0x0100\n      exp\n      swap1\n      div\n      0xffffffffffffffffffffffffffffffffffffffff\n      and\n      dup2\n      jump\t// out\n        /* \"contracts/DeFiFlow.sol\":9874:10367  function checkUpkeep(bytes calldata) external view override returns (bool upkeepNeeded, bytes memory performData) {... */\n    tag_84:\n        /* \"contracts/DeFiFlow.sol\":9943:9960  bool upkeepNeeded */\n      0x00\n        /* \"contracts/DeFiFlow.sol\":9962:9986  bytes memory performData */\n      0x60\n        /* \"contracts/DeFiFlow.sol\":9998:10018  uint256 currentPrice */\n      0x00\n        /* \"contracts/DeFiFlow.sol\":10021:10044  getCurrentMarketPrice() */\n      tag_166\n        /* \"contracts/DeFiFlow.sol\":10021:10042  getCurrentMarketPrice */\n      tag_52\n        /* \"contracts/DeFiFlow.sol\":10021:10044  getCurrentMarketPrice() */\n      jump\t// in\n    tag_166:\n        /* \"contracts/DeFiFlow.sol\":9998:10044  uint256 currentPrice = getCurrentMarketPrice() */\n      swap1\n      pop\n        /* \"contracts/DeFiFlow.sol\":10054:10071  uint256 priceDiff */\n      0x00\n        /* \"contracts/DeFiFlow.sol\":10089:10102  lastRebalance */\n      sload(0x0f)\n        /* \"contracts/DeFiFlow.sol\":10074:10086  currentPrice */\n      dup3\n        /* \"contracts/DeFiFlow.sol\":10074:10102  currentPrice > lastRebalance */\n      gt\n        /* \"contracts/DeFiFlow.sol\":10074:10164  currentPrice > lastRebalance ? currentPrice - lastRebalance : lastRebalance - currentPrice */\n      tag_167\n      jumpi\n        /* \"contracts/DeFiFlow.sol\":10152:10164  currentPrice */\n      dup2\n        /* \"contracts/DeFiFlow.sol\":10136:10149  lastRebalance */\n      sload(0x0f)\n        /* \"contracts/DeFiFlow.sol\":10136:10164  lastRebalance - currentPrice */\n      tag_168\n      swap2\n      swap1\n      tag_169\n      jump\t// in\n    tag_168:\n        /* \"contracts/DeFiFlow.sol\":10074:10164  currentPrice > lastRebalance ? currentPrice - lastRebalance : lastRebalance - currentPrice */\n      jump(tag_170)\n    tag_167:\n        /* \"contracts/DeFiFlow.sol\":10120:10133  lastRebalance */\n      sload(0x0f)\n        /* \"contracts/DeFiFlow.sol\":10105:10117  currentPrice */\n      dup3\n        /* \"contracts/DeFiFlow.sol\":10105:10133  currentPrice - lastRebalance */\n      tag_171\n      swap2\n      swap1\n      tag_169\n      jump\t// in\n    tag_171:\n        /* \"contracts/DeFiFlow.sol\":10074:10164  currentPrice > lastRebalance ? currentPrice - lastRebalance : lastRebalance - currentPrice */\n    tag_170:\n        /* \"contracts/DeFiFlow.sol\":10054:10164  uint256 priceDiff = currentPrice > lastRebalance ? currentPrice - lastRebalance : lastRebalance - currentPrice */\n      swap1\n      pop\n        /* \"contracts/DeFiFlow.sol\":10174:10194  uint256 priceDiffBps */\n      0x00\n        /* \"contracts/DeFiFlow.sol\":10217:10230  lastRebalance */\n      sload(0x0f)\n        /* \"contracts/DeFiFlow.sol\":10209:10214  10000 */\n      0x2710\n        /* \"contracts/DeFiFlow.sol\":10197:10206  priceDiff */\n      dup4\n        /* \"contracts/DeFiFlow.sol\":10197:10214  priceDiff * 10000 */\n      tag_172\n      swap2\n      swap1\n      tag_173\n      jump\t// in\n    tag_172:\n        /* \"contracts/DeFiFlow.sol\":10197:10230  priceDiff * 10000 / lastRebalance */\n      tag_174\n      swap2\n      swap1\n      tag_175\n      jump\t// in\n    tag_174:\n        /* \"contracts/DeFiFlow.sol\":10174:10230  uint256 priceDiffBps = priceDiff * 10000 / lastRebalance */\n      swap1\n      pop\n        /* \"contracts/DeFiFlow.sol\":10272:10290  rebalanceThreshold */\n      sload(0x0d)\n        /* \"contracts/DeFiFlow.sol\":10256:10268  priceDiffBps */\n      dup2\n        /* \"contracts/DeFiFlow.sol\":10256:10290  priceDiffBps >= rebalanceThreshold */\n      lt\n      iszero\n        /* \"contracts/DeFiFlow.sol\":10241:10290  upkeepNeeded = priceDiffBps >= rebalanceThreshold */\n      swap5\n      pop\n        /* \"contracts/DeFiFlow.sol\":10314:10323  bytes(\"\") */\n      mload(0x40)\n      dup1\n      0x20\n      add\n      0x40\n      mstore\n      dup1\n      0x00\n      dup2\n      mstore\n      pop\n        /* \"contracts/DeFiFlow.sol\":10300:10323  performData = bytes(\"\") */\n      swap4\n      pop\n        /* \"contracts/DeFiFlow.sol\":9988:10367  {... */\n      pop\n      pop\n      pop\n        /* \"contracts/DeFiFlow.sol\":9874:10367  function checkUpkeep(bytes calldata) external view override returns (bool upkeepNeeded, bytes memory performData) {... */\n      swap3\n      pop\n      swap3\n      swap1\n      pop\n      jump\t// out\n        /* \"@openzeppelin/contracts/access/Ownable.sol\":2293:2394  function renounceOwnership() public virtual onlyOwner {... */\n    tag_88:\n        /* \"@openzeppelin/contracts/access/Ownable.sol\":1531:1544  _checkOwner() */\n      tag_177\n        /* \"@openzeppelin/contracts/access/Ownable.sol\":1531:1542  _checkOwner */\n      tag_139\n        /* \"@openzeppelin/contracts/access/Ownable.sol\":1531:1544  _checkOwner() */\n      jump\t// in\n    tag_177:\n        /* \"@openzeppelin/contracts/access/Ownable.sol\":2357:2387  _transferOwnership(address(0)) */\n      tag_179\n        /* \"@openzeppelin/contracts/access/Ownable.sol\":2384:2385  0 */\n      0x00\n        /* \"@openzeppelin/contracts/access/Ownable.sol\":2357:2375  _transferOwnership */\n      tag_180\n        /* \"@openzeppelin/contracts/access/Ownable.sol\":2357:2387  _transferOwnership(address(0)) */\n      jump\t// in\n    tag_179:\n        /* \"@openzeppelin/contracts/access/Ownable.sol\":2293:2394  function renounceOwnership() public virtual onlyOwner {... */\n      jump\t// out\n        /* \"contracts/DeFiFlow.sol\":8564:8683  function updateMaxOrderSize(uint256 newMaxOrderSize) external onlyOwner {... */\n    tag_91:\n        /* \"@openzeppelin/contracts/access/Ownable.sol\":1531:1544  _checkOwner() */\n      tag_182\n        /* \"@openzeppelin/contracts/access/Ownable.sol\":1531:1542  _checkOwner */\n      tag_139\n        /* \"@openzeppelin/contracts/access/Ownable.sol\":1531:1544  _checkOwner() */\n      jump\t// in\n    tag_182:\n        /* \"contracts/DeFiFlow.sol\":8661:8676  newMaxOrderSize */\n      dup1\n        /* \"contracts/DeFiFlow.sol\":8646:8658  maxOrderSize */\n      0x0b\n        /* \"contracts/DeFiFlow.sol\":8646:8676  maxOrderSize = newMaxOrderSize */\n      dup2\n      swap1\n      sstore\n      pop\n        /* \"contracts/DeFiFlow.sol\":8564:8683  function updateMaxOrderSize(uint256 newMaxOrderSize) external onlyOwner {... */\n      pop\n      jump\t// out\n        /* \"contracts/DeFiFlow.sol\":1339:1372  uint256 public minProfitThreshold */\n    tag_93:\n      sload(0x0c)\n      dup2\n      jump\t// out\n        /* \"contracts/DeFiFlow.sol\":985:1024  IUniswapV2Router02 public uniswapRouter */\n    tag_96:\n      0x05\n      0x00\n      swap1\n      sload\n      swap1\n      0x0100\n      exp\n      swap1\n      div\n      0xffffffffffffffffffffffffffffffffffffffff\n      and\n      dup2\n      jump\t// out\n        /* \"contracts/DeFiFlow.sol\":1262:1300  AggregatorV3Interface public priceFeed */\n    tag_100:\n      0x0a\n      0x00\n      swap1\n      sload\n      swap1\n      0x0100\n      exp\n      swap1\n      div\n      0xffffffffffffffffffffffffffffffffffffffff\n      and\n      dup2\n      jump\t// out\n        /* \"contracts/DeFiFlow.sol\":4644:5372  function provideLiquidity(uint256 amountA, uint256 amountB) external onlyOwner {... */\n    tag_106:\n        /* \"@openzeppelin/contracts/access/Ownable.sol\":1531:1544  _checkOwner() */\n      tag_185\n        /* \"@openzeppelin/contracts/access/Ownable.sol\":1531:1542  _checkOwner */\n      tag_139\n        /* \"@openzeppelin/contracts/access/Ownable.sol\":1531:1544  _checkOwner() */\n      jump\t// in\n    tag_185:\n        /* \"contracts/DeFiFlow.sol\":4751:4752  0 */\n      0x00\n        /* \"contracts/DeFiFlow.sol\":4741:4748  amountA */\n      dup3\n        /* \"contracts/DeFiFlow.sol\":4741:4752  amountA > 0 */\n      gt\n        /* \"contracts/DeFiFlow.sol\":4741:4767  amountA > 0 && amountB > 0 */\n      dup1\n      iszero\n      tag_187\n      jumpi\n      pop\n        /* \"contracts/DeFiFlow.sol\":4766:4767  0 */\n      0x00\n        /* \"contracts/DeFiFlow.sol\":4756:4763  amountB */\n      dup2\n        /* \"contracts/DeFiFlow.sol\":4756:4767  amountB > 0 */\n      gt\n        /* \"contracts/DeFiFlow.sol\":4741:4767  amountA > 0 && amountB > 0 */\n    tag_187:\n        /* \"contracts/DeFiFlow.sol\":4733:4806  require(amountA > 0 && amountB > 0, \"Amounts must be greater than zero.\") */\n      tag_188\n      jumpi\n      mload(0x40)\n      0x08c379a000000000000000000000000000000000000000000000000000000000\n      dup2\n      mstore\n      0x04\n      add\n      tag_189\n      swap1\n      tag_190\n      jump\t// in\n    tag_189:\n      mload(0x40)\n      dup1\n      swap2\n      sub\n      swap1\n      revert\n    tag_188:\n        /* \"contracts/DeFiFlow.sol\":4835:4847  maxOrderSize */\n      sload(0x0b)\n        /* \"contracts/DeFiFlow.sol\":4824:4831  amountA */\n      dup3\n        /* \"contracts/DeFiFlow.sol\":4824:4847  amountA <= maxOrderSize */\n      gt\n      iszero\n        /* \"contracts/DeFiFlow.sol\":4824:4874  amountA <= maxOrderSize && amountB <= maxOrderSize */\n      dup1\n      iszero\n      tag_191\n      jumpi\n      pop\n        /* \"contracts/DeFiFlow.sol\":4862:4874  maxOrderSize */\n      sload(0x0b)\n        /* \"contracts/DeFiFlow.sol\":4851:4858  amountB */\n      dup2\n        /* \"contracts/DeFiFlow.sol\":4851:4874  amountB <= maxOrderSize */\n      gt\n      iszero\n        /* \"contracts/DeFiFlow.sol\":4824:4874  amountA <= maxOrderSize && amountB <= maxOrderSize */\n    tag_191:\n        /* \"contracts/DeFiFlow.sol\":4816:4902  require(amountA <= maxOrderSize && amountB <= maxOrderSize, \"Exceeds max order size.\") */\n      tag_192\n      jumpi\n      mload(0x40)\n      0x08c379a000000000000000000000000000000000000000000000000000000000\n      dup2\n      mstore\n      0x04\n      add\n      tag_193\n      swap1\n      tag_194\n      jump\t// in\n    tag_193:\n      mload(0x40)\n      dup1\n      swap2\n      sub\n      swap1\n      revert\n    tag_192:\n        /* \"contracts/DeFiFlow.sol\":4913:4919  tokenA */\n      0x02\n      0x00\n      swap1\n      sload\n      swap1\n      0x0100\n      exp\n      swap1\n      div\n      0xffffffffffffffffffffffffffffffffffffffff\n      and\n        /* \"contracts/DeFiFlow.sol\":4913:4927  tokenA.approve */\n      0xffffffffffffffffffffffffffffffffffffffff\n      and\n      0x095ea7b3\n        /* \"contracts/DeFiFlow.sol\":4936:4949  uniswapRouter */\n      0x05\n      0x00\n      swap1\n      sload\n      swap1\n      0x0100\n      exp\n      swap1\n      div\n      0xffffffffffffffffffffffffffffffffffffffff\n      and\n        /* \"contracts/DeFiFlow.sol\":4952:4959  amountA */\n      dup5\n        /* \"contracts/DeFiFlow.sol\":4913:4960  tokenA.approve(address(uniswapRouter), amountA) */\n      mload(0x40)\n      dup4\n      0xffffffff\n      and\n      0xe0\n      shl\n      dup2\n      mstore\n      0x04\n      add\n      tag_195\n      swap3\n      swap2\n      swap1\n      tag_196\n      jump\t// in\n    tag_195:\n      0x20\n      mload(0x40)\n      dup1\n      dup4\n      sub\n      dup2\n      0x00\n      dup8\n      gas\n      call\n      iszero\n      dup1\n      iszero\n      tag_198\n      jumpi\n      returndatasize\n      0x00\n      dup1\n      returndatacopy\n      revert(0x00, returndatasize)\n    tag_198:\n      pop\n      pop\n      pop\n      pop\n      mload(0x40)\n      returndatasize\n      not(0x1f)\n      0x1f\n      dup3\n      add\n      and\n      dup3\n      add\n      dup1\n      0x40\n      mstore\n      pop\n      dup2\n      add\n      swap1\n      tag_199\n      swap2\n      swap1\n      tag_200\n      jump\t// in\n    tag_199:\n      pop\n        /* \"contracts/DeFiFlow.sol\":4970:4976  tokenB */\n      0x03\n      0x00\n      swap1\n      sload\n      swap1\n      0x0100\n      exp\n      swap1\n      div\n      0xffffffffffffffffffffffffffffffffffffffff\n      and\n        /* \"contracts/DeFiFlow.sol\":4970:4984  tokenB.approve */\n      0xffffffffffffffffffffffffffffffffffffffff\n      and\n      0x095ea7b3\n        /* \"contracts/DeFiFlow.sol\":4993:5006  uniswapRouter */\n      0x05\n      0x00\n      swap1\n      sload\n      swap1\n      0x0100\n      exp\n      swap1\n      div\n      0xffffffffffffffffffffffffffffffffffffffff\n      and\n        /* \"contracts/DeFiFlow.sol\":5009:5016  amountB */\n      dup4\n        /* \"contracts/DeFiFlow.sol\":4970:5017  tokenB.approve(address(uniswapRouter), amountB) */\n      mload(0x40)\n      dup4\n      0xffffffff\n      and\n      0xe0\n      shl\n      dup2\n      mstore\n      0x04\n      add\n      tag_201\n      swap3\n      swap2\n      swap1\n      tag_196\n      jump\t// in\n    tag_201:\n      0x20\n      mload(0x40)\n      dup1\n      dup4\n      sub\n      dup2\n      0x00\n      dup8\n      gas\n      call\n      iszero\n      dup1\n      iszero\n      tag_203\n      jumpi\n      returndatasize\n      0x00\n      dup1\n      returndatacopy\n      revert(0x00, returndatasize)\n    tag_203:\n      pop\n      pop\n      pop\n      pop\n      mload(0x40)\n      returndatasize\n      not(0x1f)\n      0x1f\n      dup3\n      add\n      and\n      dup3\n      add\n      dup1\n      0x40\n      mstore\n      pop\n      dup2\n      add\n      swap1\n      tag_204\n      swap2\n      swap1\n      tag_200\n      jump\t// in\n    tag_204:\n      pop\n        /* \"contracts/DeFiFlow.sol\":5029:5051  uint256 amountADesired */\n      0x00\n        /* \"contracts/DeFiFlow.sol\":5053:5075  uint256 amountBDesired */\n      dup1\n        /* \"contracts/DeFiFlow.sol\":5081:5094  uniswapRouter */\n      0x05\n      0x00\n      swap1\n      sload\n      swap1\n      0x0100\n      exp\n      swap1\n      div\n      0xffffffffffffffffffffffffffffffffffffffff\n      and\n        /* \"contracts/DeFiFlow.sol\":5081:5107  uniswapRouter.addLiquidity */\n      0xffffffffffffffffffffffffffffffffffffffff\n      and\n      0xe8e33700\n        /* \"contracts/DeFiFlow.sol\":5129:5135  tokenA */\n      0x02\n      0x00\n      swap1\n      sload\n      swap1\n      0x0100\n      exp\n      swap1\n      div\n      0xffffffffffffffffffffffffffffffffffffffff\n      and\n        /* \"contracts/DeFiFlow.sol\":5158:5164  tokenB */\n      0x03\n      0x00\n      swap1\n      sload\n      swap1\n      0x0100\n      exp\n      swap1\n      div\n      0xffffffffffffffffffffffffffffffffffffffff\n      and\n        /* \"contracts/DeFiFlow.sol\":5179:5186  amountA */\n      dup8\n        /* \"contracts/DeFiFlow.sol\":5200:5207  amountB */\n      dup8\n        /* \"contracts/DeFiFlow.sol\":5221:5222  1 */\n      0x01\n        /* \"contracts/DeFiFlow.sol\":5236:5237  1 */\n      dup1\n        /* \"contracts/DeFiFlow.sol\":5259:5263  this */\n      address\n        /* \"contracts/DeFiFlow.sol\":5278:5293  block.timestamp */\n      timestamp\n        /* \"contracts/DeFiFlow.sol\":5081:5303  uniswapRouter.addLiquidity(... */\n      mload(0x40)\n      dup10\n      0xffffffff\n      and\n      0xe0\n      shl\n      dup2\n      mstore\n      0x04\n      add\n      tag_205\n      swap9\n      swap8\n      swap7\n      swap6\n      swap5\n      swap4\n      swap3\n      swap2\n      swap1\n      tag_206\n      jump\t// in\n    tag_205:\n      0x60\n      mload(0x40)\n      dup1\n      dup4\n      sub\n      dup2\n      0x00\n      dup8\n      gas\n      call\n      iszero\n      dup1\n      iszero\n      tag_208\n      jumpi\n      returndatasize\n      0x00\n      dup1\n      returndatacopy\n      revert(0x00, returndatasize)\n    tag_208:\n      pop\n      pop\n      pop\n      pop\n      mload(0x40)\n      returndatasize\n      not(0x1f)\n      0x1f\n      dup3\n      add\n      and\n      dup3\n      add\n      dup1\n      0x40\n      mstore\n      pop\n      dup2\n      add\n      swap1\n      tag_209\n      swap2\n      swap1\n      tag_210\n      jump\t// in\n    tag_209:\n        /* \"contracts/DeFiFlow.sol\":5028:5303  (uint256 amountADesired, uint256 amountBDesired, ) = uniswapRouter.addLiquidity(... */\n      pop\n      swap2\n      pop\n      swap2\n      pop\n        /* \"contracts/DeFiFlow.sol\":5319:5365  LiquidityAdded(amountADesired, amountBDesired) */\n      0x38f8a0c92f4c5b0b6877f878cb4c0c8d348a47b76d716c8e78f425043df9515b\n        /* \"contracts/DeFiFlow.sol\":5334:5348  amountADesired */\n      dup3\n        /* \"contracts/DeFiFlow.sol\":5350:5364  amountBDesired */\n      dup3\n        /* \"contracts/DeFiFlow.sol\":5319:5365  LiquidityAdded(amountADesired, amountBDesired) */\n      mload(0x40)\n      tag_211\n      swap3\n      swap2\n      swap1\n      tag_212\n      jump\t// in\n    tag_211:\n      mload(0x40)\n      dup1\n      swap2\n      sub\n      swap1\n      log1\n        /* \"contracts/DeFiFlow.sol\":4723:5372  {... */\n      pop\n      pop\n        /* \"contracts/DeFiFlow.sol\":4644:5372  function provideLiquidity(uint256 amountA, uint256 amountB) external onlyOwner {... */\n      pop\n      pop\n      jump\t// out\n        /* \"@openzeppelin/contracts/access/Ownable.sol\":1638:1723  function owner() public view virtual returns (address) {... */\n    tag_108:\n        /* \"@openzeppelin/contracts/access/Ownable.sol\":1684:1691  address */\n      0x00\n        /* \"@openzeppelin/contracts/access/Ownable.sol\":1710:1716  _owner */\n      dup1\n      0x00\n      swap1\n      sload\n      swap1\n      0x0100\n      exp\n      swap1\n      div\n      0xffffffffffffffffffffffffffffffffffffffff\n      and\n        /* \"@openzeppelin/contracts/access/Ownable.sol\":1703:1716  return _owner */\n      swap1\n      pop\n        /* \"@openzeppelin/contracts/access/Ownable.sol\":1638:1723  function owner() public view virtual returns (address) {... */\n      swap1\n      jump\t// out\n        /* \"contracts/DeFiFlow.sol\":5553:6130  function removeLiquidity(uint256 liquidity) external onlyOwner nonReentrant {... */\n    tag_113:\n        /* \"@openzeppelin/contracts/access/Ownable.sol\":1531:1544  _checkOwner() */\n      tag_215\n        /* \"@openzeppelin/contracts/access/Ownable.sol\":1531:1542  _checkOwner */\n      tag_139\n        /* \"@openzeppelin/contracts/access/Ownable.sol\":1531:1544  _checkOwner() */\n      jump\t// in\n    tag_215:\n        /* \"@openzeppelin/contracts/security/ReentrancyGuard.sol\":2261:2282  _nonReentrantBefore() */\n      tag_217\n        /* \"@openzeppelin/contracts/security/ReentrancyGuard.sol\":2261:2280  _nonReentrantBefore */\n      tag_157\n        /* \"@openzeppelin/contracts/security/ReentrancyGuard.sol\":2261:2282  _nonReentrantBefore() */\n      jump\t// in\n    tag_217:\n        /* \"contracts/DeFiFlow.sol\":5659:5660  0 */\n      0x00\n        /* \"contracts/DeFiFlow.sol\":5647:5656  liquidity */\n      dup2\n        /* \"contracts/DeFiFlow.sol\":5647:5660  liquidity > 0 */\n      gt\n        /* \"contracts/DeFiFlow.sol\":5639:5701  require(liquidity > 0, \"Liquidity must be greater than zero.\") */\n      tag_219\n      jumpi\n      mload(0x40)\n      0x08c379a000000000000000000000000000000000000000000000000000000000\n      dup2\n      mstore\n      0x04\n      add\n      tag_220\n      swap1\n      tag_221\n      jump\t// in\n    tag_220:\n      mload(0x40)\n      dup1\n      swap2\n      sub\n      swap1\n      revert\n    tag_219:\n        /* \"contracts/DeFiFlow.sol\":5712:5726  IERC20 lpToken */\n      0x00\n        /* \"contracts/DeFiFlow.sol\":5744:5757  uniswapPairAB */\n      0x07\n      0x00\n      swap1\n      sload\n      swap1\n      0x0100\n      exp\n      swap1\n      div\n      0xffffffffffffffffffffffffffffffffffffffff\n      and\n        /* \"contracts/DeFiFlow.sol\":5712:5759  IERC20 lpToken = IERC20(address(uniswapPairAB)) */\n      swap1\n      pop\n        /* \"contracts/DeFiFlow.sol\":5769:5776  lpToken */\n      dup1\n        /* \"contracts/DeFiFlow.sol\":5769:5784  lpToken.approve */\n      0xffffffffffffffffffffffffffffffffffffffff\n      and\n      0x095ea7b3\n        /* \"contracts/DeFiFlow.sol\":5793:5806  uniswapRouter */\n      0x05\n      0x00\n      swap1\n      sload\n      swap1\n      0x0100\n      exp\n      swap1\n      div\n      0xffffffffffffffffffffffffffffffffffffffff\n      and\n        /* \"contracts/DeFiFlow.sol\":5809:5818  liquidity */\n      dup5\n        /* \"contracts/DeFiFlow.sol\":5769:5819  lpToken.approve(address(uniswapRouter), liquidity) */\n      mload(0x40)\n      dup4\n      0xffffffff\n      and\n      0xe0\n      shl\n      dup2\n      mstore\n      0x04\n      add\n      tag_222\n      swap3\n      swap2\n      swap1\n      tag_196\n      jump\t// in\n    tag_222:\n      0x20\n      mload(0x40)\n      dup1\n      dup4\n      sub\n      dup2\n      0x00\n      dup8\n      gas\n      call\n      iszero\n      dup1\n      iszero\n      tag_224\n      jumpi\n      returndatasize\n      0x00\n      dup1\n      returndatacopy\n      revert(0x00, returndatasize)\n    tag_224:\n      pop\n      pop\n      pop\n      pop\n      mload(0x40)\n      returndatasize\n      not(0x1f)\n      0x1f\n      dup3\n      add\n      and\n      dup3\n      add\n      dup1\n      0x40\n      mstore\n      pop\n      dup2\n      add\n      swap1\n      tag_225\n      swap2\n      swap1\n      tag_200\n      jump\t// in\n    tag_225:\n      pop\n        /* \"contracts/DeFiFlow.sol\":5831:5846  uint256 amountA */\n      0x00\n        /* \"contracts/DeFiFlow.sol\":5848:5863  uint256 amountB */\n      dup1\n        /* \"contracts/DeFiFlow.sol\":5867:5880  uniswapRouter */\n      0x05\n      0x00\n      swap1\n      sload\n      swap1\n      0x0100\n      exp\n      swap1\n      div\n      0xffffffffffffffffffffffffffffffffffffffff\n      and\n        /* \"contracts/DeFiFlow.sol\":5867:5896  uniswapRouter.removeLiquidity */\n      0xffffffffffffffffffffffffffffffffffffffff\n      and\n      0xbaa2abde\n        /* \"contracts/DeFiFlow.sol\":5918:5924  tokenA */\n      0x02\n      0x00\n      swap1\n      sload\n      swap1\n      0x0100\n      exp\n      swap1\n      div\n      0xffffffffffffffffffffffffffffffffffffffff\n      and\n        /* \"contracts/DeFiFlow.sol\":5947:5953  tokenB */\n      0x03\n      0x00\n      swap1\n      sload\n      swap1\n      0x0100\n      exp\n      swap1\n      div\n      0xffffffffffffffffffffffffffffffffffffffff\n      and\n        /* \"contracts/DeFiFlow.sol\":5968:5977  liquidity */\n      dup8\n        /* \"contracts/DeFiFlow.sol\":5991:5992  1 */\n      0x01\n        /* \"contracts/DeFiFlow.sol\":6006:6007  1 */\n      dup1\n        /* \"contracts/DeFiFlow.sol\":6029:6033  this */\n      address\n        /* \"contracts/DeFiFlow.sol\":6048:6063  block.timestamp */\n      timestamp\n        /* \"contracts/DeFiFlow.sol\":5867:6073  uniswapRouter.removeLiquidity(... */\n      mload(0x40)\n      dup9\n      0xffffffff\n      and\n      0xe0\n      shl\n      dup2\n      mstore\n      0x04\n      add\n      tag_226\n      swap8\n      swap7\n      swap6\n      swap5\n      swap4\n      swap3\n      swap2\n      swap1\n      tag_227\n      jump\t// in\n    tag_226:\n      0x40\n      dup1\n      mload\n      dup1\n      dup4\n      sub\n      dup2\n      0x00\n      dup8\n      gas\n      call\n      iszero\n      dup1\n      iszero\n      tag_229\n      jumpi\n      returndatasize\n      0x00\n      dup1\n      returndatacopy\n      revert(0x00, returndatasize)\n    tag_229:\n      pop\n      pop\n      pop\n      pop\n      mload(0x40)\n      returndatasize\n      not(0x1f)\n      0x1f\n      dup3\n      add\n      and\n      dup3\n      add\n      dup1\n      0x40\n      mstore\n      pop\n      dup2\n      add\n      swap1\n      tag_230\n      swap2\n      swap1\n      tag_231\n      jump\t// in\n    tag_230:\n        /* \"contracts/DeFiFlow.sol\":5830:6073  (uint256 amountA, uint256 amountB) = uniswapRouter.removeLiquidity(... */\n      swap2\n      pop\n      swap2\n      pop\n        /* \"contracts/DeFiFlow.sol\":6089:6123  LiquidityRemoved(amountA, amountB) */\n      0x6f0f96292ae0038c04f9b6bab30f185d9ca02c471d0983f563f2a4f674aef137\n        /* \"contracts/DeFiFlow.sol\":6106:6113  amountA */\n      dup3\n        /* \"contracts/DeFiFlow.sol\":6115:6122  amountB */\n      dup3\n        /* \"contracts/DeFiFlow.sol\":6089:6123  LiquidityRemoved(amountA, amountB) */\n      mload(0x40)\n      tag_232\n      swap3\n      swap2\n      swap1\n      tag_212\n      jump\t// in\n    tag_232:\n      mload(0x40)\n      dup1\n      swap2\n      sub\n      swap1\n      log1\n        /* \"contracts/DeFiFlow.sol\":5629:6130  {... */\n      pop\n      pop\n      pop\n        /* \"@openzeppelin/contracts/security/ReentrancyGuard.sol\":2303:2323  _nonReentrantAfter() */\n      tag_233\n        /* \"@openzeppelin/contracts/security/ReentrancyGuard.sol\":2303:2321  _nonReentrantAfter */\n      tag_161\n        /* \"@openzeppelin/contracts/security/ReentrancyGuard.sol\":2303:2323  _nonReentrantAfter() */\n      jump\t// in\n    tag_233:\n        /* \"contracts/DeFiFlow.sol\":5553:6130  function removeLiquidity(uint256 liquidity) external onlyOwner nonReentrant {... */\n      pop\n      jump\t// out\n        /* \"contracts/DeFiFlow.sol\":958:978  IERC20 public tokenC */\n    tag_115:\n      0x04\n      0x00\n      swap1\n      sload\n      swap1\n      0x0100\n      exp\n      swap1\n      div\n      0xffffffffffffffffffffffffffffffffffffffff\n      and\n      dup2\n      jump\t// out\n        /* \"contracts/DeFiFlow.sol\":6466:8134  function executeSwap(uint256 amountIn, address[] calldata path) external onlyOwner nonReentrant {... */\n    tag_120:\n        /* \"@openzeppelin/contracts/access/Ownable.sol\":1531:1544  _checkOwner() */\n      tag_235\n        /* \"@openzeppelin/contracts/access/Ownable.sol\":1531:1542  _checkOwner */\n      tag_139\n        /* \"@openzeppelin/contracts/access/Ownable.sol\":1531:1544  _checkOwner() */\n      jump\t// in\n    tag_235:\n        /* \"@openzeppelin/contracts/security/ReentrancyGuard.sol\":2261:2282  _nonReentrantBefore() */\n      tag_237\n        /* \"@openzeppelin/contracts/security/ReentrancyGuard.sol\":2261:2280  _nonReentrantBefore */\n      tag_157\n        /* \"@openzeppelin/contracts/security/ReentrancyGuard.sol\":2261:2282  _nonReentrantBefore() */\n      jump\t// in\n    tag_237:\n        /* \"contracts/DeFiFlow.sol\":6591:6592  0 */\n      0x00\n        /* \"contracts/DeFiFlow.sol\":6580:6588  amountIn */\n      dup4\n        /* \"contracts/DeFiFlow.sol\":6580:6592  amountIn > 0 */\n      gt\n        /* \"contracts/DeFiFlow.sol\":6572:6630  require(amountIn > 0, \"Amount must be greater than zero.\") */\n      tag_239\n      jumpi\n      mload(0x40)\n      0x08c379a000000000000000000000000000000000000000000000000000000000\n      dup2\n      mstore\n      0x04\n      add\n      tag_240\n      swap1\n      tag_241\n      jump\t// in\n    tag_240:\n      mload(0x40)\n      dup1\n      swap2\n      sub\n      swap1\n      revert\n    tag_239:\n        /* \"contracts/DeFiFlow.sol\":6663:6664  2 */\n      0x02\n        /* \"contracts/DeFiFlow.sol\":6648:6652  path */\n      dup3\n      dup3\n        /* \"contracts/DeFiFlow.sol\":6648:6659  path.length */\n      swap1\n      pop\n        /* \"contracts/DeFiFlow.sol\":6648:6664  path.length >= 2 */\n      lt\n      iszero\n        /* \"contracts/DeFiFlow.sol\":6640:6687  require(path.length >= 2, \"Invalid swap path.\") */\n      tag_242\n      jumpi\n      mload(0x40)\n      0x08c379a000000000000000000000000000000000000000000000000000000000\n      dup2\n      mstore\n      0x04\n      add\n      tag_243\n      swap1\n      tag_244\n      jump\t// in\n    tag_243:\n      mload(0x40)\n      dup1\n      swap2\n      sub\n      swap1\n      revert\n    tag_242:\n        /* \"contracts/DeFiFlow.sol\":6754:6785  uint256[] memory amountsUniswap */\n      0x00\n        /* \"contracts/DeFiFlow.sol\":6788:6801  uniswapRouter */\n      0x05\n      0x00\n      swap1\n      sload\n      swap1\n      0x0100\n      exp\n      swap1\n      div\n      0xffffffffffffffffffffffffffffffffffffffff\n      and\n        /* \"contracts/DeFiFlow.sol\":6788:6815  uniswapRouter.getAmountsOut */\n      0xffffffffffffffffffffffffffffffffffffffff\n      and\n      0xd06ca61f\n        /* \"contracts/DeFiFlow.sol\":6816:6824  amountIn */\n      dup6\n        /* \"contracts/DeFiFlow.sol\":6826:6830  path */\n      dup6\n      dup6\n        /* \"contracts/DeFiFlow.sol\":6788:6831  uniswapRouter.getAmountsOut(amountIn, path) */\n      mload(0x40)\n      dup5\n      0xffffffff\n      and\n      0xe0\n      shl\n      dup2\n      mstore\n      0x04\n      add\n      tag_245\n      swap4\n      swap3\n      swap2\n      swap1\n      tag_246\n      jump\t// in\n    tag_245:\n      0x00\n      mload(0x40)\n      dup1\n      dup4\n      sub\n      dup2\n      dup7\n      gas\n      staticcall\n      iszero\n      dup1\n      iszero\n      tag_248\n      jumpi\n      returndatasize\n      0x00\n      dup1\n      returndatacopy\n      revert(0x00, returndatasize)\n    tag_248:\n      pop\n      pop\n      pop\n      pop\n      mload(0x40)\n      returndatasize\n      0x00\n      dup3\n      returndatacopy\n      returndatasize\n      not(0x1f)\n      0x1f\n      dup3\n      add\n      and\n      dup3\n      add\n      dup1\n      0x40\n      mstore\n      pop\n      dup2\n      add\n      swap1\n      tag_249\n      swap2\n      swap1\n      tag_250\n      jump\t// in\n    tag_249:\n        /* \"contracts/DeFiFlow.sol\":6754:6831  uint256[] memory amountsUniswap = uniswapRouter.getAmountsOut(amountIn, path) */\n      swap1\n      pop\n        /* \"contracts/DeFiFlow.sol\":6841:6874  uint256[] memory amountsSushiSwap */\n      0x00\n        /* \"contracts/DeFiFlow.sol\":6877:6892  sushiSwapRouter */\n      0x06\n      0x00\n      swap1\n      sload\n      swap1\n      0x0100\n      exp\n      swap1\n      div\n      0xffffffffffffffffffffffffffffffffffffffff\n      and\n        /* \"contracts/DeFiFlow.sol\":6877:6917  sushiSwapRouter.swapExactTokensForTokens */\n      0xffffffffffffffffffffffffffffffffffffffff\n      and\n      0x38ed1739\n        /* \"contracts/DeFiFlow.sol\":6918:6926  amountIn */\n      dup7\n        /* \"contracts/DeFiFlow.sol\":6928:6929  1 */\n      0x01\n        /* \"contracts/DeFiFlow.sol\":6931:6935  path */\n      dup8\n      dup8\n        /* \"contracts/DeFiFlow.sol\":6945:6949  this */\n      address\n        /* \"contracts/DeFiFlow.sol\":6952:6967  block.timestamp */\n      timestamp\n        /* \"contracts/DeFiFlow.sol\":6877:6968  sushiSwapRouter.swapExactTokensForTokens(amountIn, 1, path, address(this), block.timestamp) */\n      mload(0x40)\n      dup8\n      0xffffffff\n      and\n      0xe0\n      shl\n      dup2\n      mstore\n      0x04\n      add\n      tag_251\n      swap7\n      swap6\n      swap5\n      swap4\n      swap3\n      swap2\n      swap1\n      tag_252\n      jump\t// in\n    tag_251:\n      0x00\n      mload(0x40)\n      dup1\n      dup4\n      sub\n      dup2\n      0x00\n      dup8\n      gas\n      call\n      iszero\n      dup1\n      iszero\n      tag_254\n      jumpi\n      returndatasize\n      0x00\n      dup1\n      returndatacopy\n      revert(0x00, returndatasize)\n    tag_254:\n      pop\n      pop\n      pop\n      pop\n      mload(0x40)\n      returndatasize\n      0x00\n      dup3\n      returndatacopy\n      returndatasize\n      not(0x1f)\n      0x1f\n      dup3\n      add\n      and\n      dup3\n      add\n      dup1\n      0x40\n      mstore\n      pop\n      dup2\n      add\n      swap1\n      tag_255\n      swap2\n      swap1\n      tag_250\n      jump\t// in\n    tag_255:\n        /* \"contracts/DeFiFlow.sol\":6841:6968  uint256[] memory amountsSushiSwap = sushiSwapRouter.swapExactTokensForTokens(amountIn, 1, path, address(this), block.timestamp) */\n      swap1\n      pop\n        /* \"contracts/DeFiFlow.sol\":6979:7003  uint256 amountOutUniswap */\n      0x00\n        /* \"contracts/DeFiFlow.sol\":7006:7020  amountsUniswap */\n      dup3\n        /* \"contracts/DeFiFlow.sol\":7045:7046  1 */\n      0x01\n        /* \"contracts/DeFiFlow.sol\":7021:7035  amountsUniswap */\n      dup5\n        /* \"contracts/DeFiFlow.sol\":7021:7042  amountsUniswap.length */\n      mload\n        /* \"contracts/DeFiFlow.sol\":7021:7046  amountsUniswap.length - 1 */\n      tag_256\n      swap2\n      swap1\n      tag_169\n      jump\t// in\n    tag_256:\n        /* \"contracts/DeFiFlow.sol\":7006:7047  amountsUniswap[amountsUniswap.length - 1] */\n      dup2\n      mload\n      dup2\n      lt\n      tag_257\n      jumpi\n      tag_258\n      tag_259\n      jump\t// in\n    tag_258:\n    tag_257:\n      0x20\n      mul\n      0x20\n      add\n      add\n      mload\n        /* \"contracts/DeFiFlow.sol\":6979:7047  uint256 amountOutUniswap = amountsUniswap[amountsUniswap.length - 1] */\n      swap1\n      pop\n        /* \"contracts/DeFiFlow.sol\":7057:7083  uint256 amountOutSushiSwap */\n      0x00\n        /* \"contracts/DeFiFlow.sol\":7086:7102  amountsSushiSwap */\n      dup3\n        /* \"contracts/DeFiFlow.sol\":7129:7130  1 */\n      0x01\n        /* \"contracts/DeFiFlow.sol\":7103:7119  amountsSushiSwap */\n      dup5\n        /* \"contracts/DeFiFlow.sol\":7103:7126  amountsSushiSwap.length */\n      mload\n        /* \"contracts/DeFiFlow.sol\":7103:7130  amountsSushiSwap.length - 1 */\n      tag_260\n      swap2\n      swap1\n      tag_169\n      jump\t// in\n    tag_260:\n        /* \"contracts/DeFiFlow.sol\":7086:7131  amountsSushiSwap[amountsSushiSwap.length - 1] */\n      dup2\n      mload\n      dup2\n      lt\n      tag_261\n      jumpi\n      tag_262\n      tag_259\n      jump\t// in\n    tag_262:\n    tag_261:\n      0x20\n      mul\n      0x20\n      add\n      add\n      mload\n        /* \"contracts/DeFiFlow.sol\":7057:7131  uint256 amountOutSushiSwap = amountsSushiSwap[amountsSushiSwap.length - 1] */\n      swap1\n      pop\n        /* \"contracts/DeFiFlow.sol\":7166:7184  amountOutSushiSwap */\n      dup1\n        /* \"contracts/DeFiFlow.sol\":7146:7162  amountOutUniswap */\n      dup3\n        /* \"contracts/DeFiFlow.sol\":7146:7184  amountOutUniswap >= amountOutSushiSwap */\n      lt\n        /* \"contracts/DeFiFlow.sol\":7142:8128  if (amountOutUniswap >= amountOutSushiSwap) {... */\n      tag_263\n      jumpi\n        /* \"contracts/DeFiFlow.sol\":7246:7250  path */\n      dup6\n      dup6\n        /* \"contracts/DeFiFlow.sol\":7251:7252  0 */\n      0x00\n        /* \"contracts/DeFiFlow.sol\":7246:7253  path[0] */\n      dup2\n      dup2\n      lt\n      tag_264\n      jumpi\n      tag_265\n      tag_259\n      jump\t// in\n    tag_265:\n    tag_264:\n      swap1\n      pop\n      0x20\n      mul\n      add\n      0x20\n      dup2\n      add\n      swap1\n      tag_266\n      swap2\n      swap1\n      tag_128\n      jump\t// in\n    tag_266:\n        /* \"contracts/DeFiFlow.sol\":7239:7262  IERC20(path[0]).approve */\n      0xffffffffffffffffffffffffffffffffffffffff\n      and\n      0x095ea7b3\n        /* \"contracts/DeFiFlow.sol\":7271:7284  uniswapRouter */\n      0x05\n      0x00\n      swap1\n      sload\n      swap1\n      0x0100\n      exp\n      swap1\n      div\n      0xffffffffffffffffffffffffffffffffffffffff\n      and\n        /* \"contracts/DeFiFlow.sol\":7287:7295  amountIn */\n      dup10\n        /* \"contracts/DeFiFlow.sol\":7239:7296  IERC20(path[0]).approve(address(uniswapRouter), amountIn) */\n      mload(0x40)\n      dup4\n      0xffffffff\n      and\n      0xe0\n      shl\n      dup2\n      mstore\n      0x04\n      add\n      tag_267\n      swap3\n      swap2\n      swap1\n      tag_196\n      jump\t// in\n    tag_267:\n      0x20\n      mload(0x40)\n      dup1\n      dup4\n      sub\n      dup2\n      0x00\n      dup8\n      gas\n      call\n      iszero\n      dup1\n      iszero\n      tag_269\n      jumpi\n      returndatasize\n      0x00\n      dup1\n      returndatacopy\n      revert(0x00, returndatasize)\n    tag_269:\n      pop\n      pop\n      pop\n      pop\n      mload(0x40)\n      returndatasize\n      not(0x1f)\n      0x1f\n      dup3\n      add\n      and\n      dup3\n      add\n      dup1\n      0x40\n      mstore\n      pop\n      dup2\n      add\n      swap1\n      tag_270\n      swap2\n      swap1\n      tag_200\n      jump\t// in\n    tag_270:\n      pop\n        /* \"contracts/DeFiFlow.sol\":7310:7334  uint256[] memory amounts */\n      0x00\n        /* \"contracts/DeFiFlow.sol\":7337:7350  uniswapRouter */\n      0x05\n      0x00\n      swap1\n      sload\n      swap1\n      0x0100\n      exp\n      swap1\n      div\n      0xffffffffffffffffffffffffffffffffffffffff\n      and\n        /* \"contracts/DeFiFlow.sol\":7337:7375  uniswapRouter.swapExactTokensForTokens */\n      0xffffffffffffffffffffffffffffffffffffffff\n      and\n      0x38ed1739\n        /* \"contracts/DeFiFlow.sol\":7393:7401  amountIn */\n      dup10\n        /* \"contracts/DeFiFlow.sol\":7419:7435  amountOutUniswap */\n      dup6\n        /* \"contracts/DeFiFlow.sol\":7453:7457  path */\n      dup11\n      dup11\n        /* \"contracts/DeFiFlow.sol\":7483:7487  this */\n      address\n        /* \"contracts/DeFiFlow.sol\":7506:7521  block.timestamp */\n      timestamp\n        /* \"contracts/DeFiFlow.sol\":7337:7535  uniswapRouter.swapExactTokensForTokens(... */\n      mload(0x40)\n      dup8\n      0xffffffff\n      and\n      0xe0\n      shl\n      dup2\n      mstore\n      0x04\n      add\n      tag_271\n      swap7\n      swap6\n      swap5\n      swap4\n      swap3\n      swap2\n      swap1\n      tag_272\n      jump\t// in\n    tag_271:\n      0x00\n      mload(0x40)\n      dup1\n      dup4\n      sub\n      dup2\n      0x00\n      dup8\n      gas\n      call\n      iszero\n      dup1\n      iszero\n      tag_274\n      jumpi\n      returndatasize\n      0x00\n      dup1\n      returndatacopy\n      revert(0x00, returndatasize)\n    tag_274:\n      pop\n      pop\n      pop\n      pop\n      mload(0x40)\n      returndatasize\n      0x00\n      dup3\n      returndatacopy\n      returndatasize\n      not(0x1f)\n      0x1f\n      dup3\n      add\n      and\n      dup3\n      add\n      dup1\n      0x40\n      mstore\n      pop\n      dup2\n      add\n      swap1\n      tag_275\n      swap2\n      swap1\n      tag_250\n      jump\t// in\n    tag_275:\n        /* \"contracts/DeFiFlow.sol\":7310:7535  uint256[] memory amounts = uniswapRouter.swapExactTokensForTokens(... */\n      swap1\n      pop\n        /* \"contracts/DeFiFlow.sol\":7576:7580  path */\n      dup7\n      dup7\n        /* \"contracts/DeFiFlow.sol\":7595:7596  1 */\n      0x01\n        /* \"contracts/DeFiFlow.sol\":7581:7585  path */\n      dup10\n      dup10\n        /* \"contracts/DeFiFlow.sol\":7581:7592  path.length */\n      swap1\n      pop\n        /* \"contracts/DeFiFlow.sol\":7581:7596  path.length - 1 */\n      tag_276\n      swap2\n      swap1\n      tag_169\n      jump\t// in\n    tag_276:\n        /* \"contracts/DeFiFlow.sol\":7576:7597  path[path.length - 1] */\n      dup2\n      dup2\n      lt\n      tag_277\n      jumpi\n      tag_278\n      tag_259\n      jump\t// in\n    tag_278:\n    tag_277:\n      swap1\n      pop\n      0x20\n      mul\n      add\n      0x20\n      dup2\n      add\n      swap1\n      tag_279\n      swap2\n      swap1\n      tag_128\n      jump\t// in\n    tag_279:\n        /* \"contracts/DeFiFlow.sol\":7554:7639  SwapExecuted(path[0], path[path.length - 1], amounts[0], amounts[amounts.length - 1]) */\n      0xffffffffffffffffffffffffffffffffffffffff\n      and\n        /* \"contracts/DeFiFlow.sol\":7567:7571  path */\n      dup8\n      dup8\n        /* \"contracts/DeFiFlow.sol\":7572:7573  0 */\n      0x00\n        /* \"contracts/DeFiFlow.sol\":7567:7574  path[0] */\n      dup2\n      dup2\n      lt\n      tag_280\n      jumpi\n      tag_281\n      tag_259\n      jump\t// in\n    tag_281:\n    tag_280:\n      swap1\n      pop\n      0x20\n      mul\n      add\n      0x20\n      dup2\n      add\n      swap1\n      tag_282\n      swap2\n      swap1\n      tag_128\n      jump\t// in\n    tag_282:\n        /* \"contracts/DeFiFlow.sol\":7554:7639  SwapExecuted(path[0], path[path.length - 1], amounts[0], amounts[amounts.length - 1]) */\n      0xffffffffffffffffffffffffffffffffffffffff\n      and\n      0xdd36740e2a012d93061a0d99eaa9107860955de4e90027d3cf465a055026c407\n        /* \"contracts/DeFiFlow.sol\":7599:7606  amounts */\n      dup4\n        /* \"contracts/DeFiFlow.sol\":7607:7608  0 */\n      0x00\n        /* \"contracts/DeFiFlow.sol\":7599:7609  amounts[0] */\n      dup2\n      mload\n      dup2\n      lt\n      tag_283\n      jumpi\n      tag_284\n      tag_259\n      jump\t// in\n    tag_284:\n    tag_283:\n      0x20\n      mul\n      0x20\n      add\n      add\n      mload\n        /* \"contracts/DeFiFlow.sol\":7611:7618  amounts */\n      dup5\n        /* \"contracts/DeFiFlow.sol\":7636:7637  1 */\n      0x01\n        /* \"contracts/DeFiFlow.sol\":7619:7626  amounts */\n      dup7\n        /* \"contracts/DeFiFlow.sol\":7619:7633  amounts.length */\n      mload\n        /* \"contracts/DeFiFlow.sol\":7619:7637  amounts.length - 1 */\n      tag_285\n      swap2\n      swap1\n      tag_169\n      jump\t// in\n    tag_285:\n        /* \"contracts/DeFiFlow.sol\":7611:7638  amounts[amounts.length - 1] */\n      dup2\n      mload\n      dup2\n      lt\n      tag_286\n      jumpi\n      tag_287\n      tag_259\n      jump\t// in\n    tag_287:\n    tag_286:\n      0x20\n      mul\n      0x20\n      add\n      add\n      mload\n        /* \"contracts/DeFiFlow.sol\":7554:7639  SwapExecuted(path[0], path[path.length - 1], amounts[0], amounts[amounts.length - 1]) */\n      mload(0x40)\n      tag_288\n      swap3\n      swap2\n      swap1\n      tag_212\n      jump\t// in\n    tag_288:\n      mload(0x40)\n      dup1\n      swap2\n      sub\n      swap1\n      log3\n        /* \"contracts/DeFiFlow.sol\":7186:7650  {... */\n      pop\n        /* \"contracts/DeFiFlow.sol\":7142:8128  if (amountOutUniswap >= amountOutSushiSwap) {... */\n      jump(tag_289)\n    tag_263:\n        /* \"contracts/DeFiFlow.sol\":7718:7722  path */\n      dup6\n      dup6\n        /* \"contracts/DeFiFlow.sol\":7723:7724  0 */\n      0x00\n        /* \"contracts/DeFiFlow.sol\":7718:7725  path[0] */\n      dup2\n      dup2\n      lt\n      tag_290\n      jumpi\n      tag_291\n      tag_259\n      jump\t// in\n    tag_291:\n    tag_290:\n      swap1\n      pop\n      0x20\n      mul\n      add\n      0x20\n      dup2\n      add\n      swap1\n      tag_292\n      swap2\n      swap1\n      tag_128\n      jump\t// in\n    tag_292:\n        /* \"contracts/DeFiFlow.sol\":7711:7734  IERC20(path[0]).approve */\n      0xffffffffffffffffffffffffffffffffffffffff\n      and\n      0x095ea7b3\n        /* \"contracts/DeFiFlow.sol\":7743:7758  sushiSwapRouter */\n      0x06\n      0x00\n      swap1\n      sload\n      swap1\n      0x0100\n      exp\n      swap1\n      div\n      0xffffffffffffffffffffffffffffffffffffffff\n      and\n        /* \"contracts/DeFiFlow.sol\":7761:7769  amountIn */\n      dup10\n        /* \"contracts/DeFiFlow.sol\":7711:7770  IERC20(path[0]).approve(address(sushiSwapRouter), amountIn) */\n      mload(0x40)\n      dup4\n      0xffffffff\n      and\n      0xe0\n      shl\n      dup2\n      mstore\n      0x04\n      add\n      tag_293\n      swap3\n      swap2\n      swap1\n      tag_196\n      jump\t// in\n    tag_293:\n      0x20\n      mload(0x40)\n      dup1\n      dup4\n      sub\n      dup2\n      0x00\n      dup8\n      gas\n      call\n      iszero\n      dup1\n      iszero\n      tag_295\n      jumpi\n      returndatasize\n      0x00\n      dup1\n      returndatacopy\n      revert(0x00, returndatasize)\n    tag_295:\n      pop\n      pop\n      pop\n      pop\n      mload(0x40)\n      returndatasize\n      not(0x1f)\n      0x1f\n      dup3\n      add\n      and\n      dup3\n      add\n      dup1\n      0x40\n      mstore\n      pop\n      dup2\n      add\n      swap1\n      tag_296\n      swap2\n      swap1\n      tag_200\n      jump\t// in\n    tag_296:\n      pop\n        /* \"contracts/DeFiFlow.sol\":7784:7808  uint256[] memory amounts */\n      0x00\n        /* \"contracts/DeFiFlow.sol\":7811:7826  sushiSwapRouter */\n      0x06\n      0x00\n      swap1\n      sload\n      swap1\n      0x0100\n      exp\n      swap1\n      div\n      0xffffffffffffffffffffffffffffffffffffffff\n      and\n        /* \"contracts/DeFiFlow.sol\":7811:7851  sushiSwapRouter.swapExactTokensForTokens */\n      0xffffffffffffffffffffffffffffffffffffffff\n      and\n      0x38ed1739\n        /* \"contracts/DeFiFlow.sol\":7869:7877  amountIn */\n      dup10\n        /* \"contracts/DeFiFlow.sol\":7895:7913  amountOutSushiSwap */\n      dup5\n        /* \"contracts/DeFiFlow.sol\":7931:7935  path */\n      dup11\n      dup11\n        /* \"contracts/DeFiFlow.sol\":7961:7965  this */\n      address\n        /* \"contracts/DeFiFlow.sol\":7984:7999  block.timestamp */\n      timestamp\n        /* \"contracts/DeFiFlow.sol\":7811:8013  sushiSwapRouter.swapExactTokensForTokens(... */\n      mload(0x40)\n      dup8\n      0xffffffff\n      and\n      0xe0\n      shl\n      dup2\n      mstore\n      0x04\n      add\n      tag_297\n      swap7\n      swap6\n      swap5\n      swap4\n      swap3\n      swap2\n      swap1\n      tag_272\n      jump\t// in\n    tag_297:\n      0x00\n      mload(0x40)\n      dup1\n      dup4\n      sub\n      dup2\n      0x00\n      dup8\n      gas\n      call\n      iszero\n      dup1\n      iszero\n      tag_299\n      jumpi\n      returndatasize\n      0x00\n      dup1\n      returndatacopy\n      revert(0x00, returndatasize)\n    tag_299:\n      pop\n      pop\n      pop\n      pop\n      mload(0x40)\n      returndatasize\n      0x00\n      dup3\n      returndatacopy\n      returndatasize\n      not(0x1f)\n      0x1f\n      dup3\n      add\n      and\n      dup3\n      add\n      dup1\n      0x40\n      mstore\n      pop\n      dup2\n      add\n      swap1\n      tag_300\n      swap2\n      swap1\n      tag_250\n      jump\t// in\n    tag_300:\n        /* \"contracts/DeFiFlow.sol\":7784:8013  uint256[] memory amounts = sushiSwapRouter.swapExactTokensForTokens(... */\n      swap1\n      pop\n        /* \"contracts/DeFiFlow.sol\":8054:8058  path */\n      dup7\n      dup7\n        /* \"contracts/DeFiFlow.sol\":8073:8074  1 */\n      0x01\n        /* \"contracts/DeFiFlow.sol\":8059:8063  path */\n      dup10\n      dup10\n        /* \"contracts/DeFiFlow.sol\":8059:8070  path.length */\n      swap1\n      pop\n        /* \"contracts/DeFiFlow.sol\":8059:8074  path.length - 1 */\n      tag_301\n      swap2\n      swap1\n      tag_169\n      jump\t// in\n    tag_301:\n        /* \"contracts/DeFiFlow.sol\":8054:8075  path[path.length - 1] */\n      dup2\n      dup2\n      lt\n      tag_302\n      jumpi\n      tag_303\n      tag_259\n      jump\t// in\n    tag_303:\n    tag_302:\n      swap1\n      pop\n      0x20\n      mul\n      add\n      0x20\n      dup2\n      add\n      swap1\n      tag_304\n      swap2\n      swap1\n      tag_128\n      jump\t// in\n    tag_304:\n        /* \"contracts/DeFiFlow.sol\":8032:8117  SwapExecuted(path[0], path[path.length - 1], amounts[0], amounts[amounts.length - 1]) */\n      0xffffffffffffffffffffffffffffffffffffffff\n      and\n        /* \"contracts/DeFiFlow.sol\":8045:8049  path */\n      dup8\n      dup8\n        /* \"contracts/DeFiFlow.sol\":8050:8051  0 */\n      0x00\n        /* \"contracts/DeFiFlow.sol\":8045:8052  path[0] */\n      dup2\n      dup2\n      lt\n      tag_305\n      jumpi\n      tag_306\n      tag_259\n      jump\t// in\n    tag_306:\n    tag_305:\n      swap1\n      pop\n      0x20\n      mul\n      add\n      0x20\n      dup2\n      add\n      swap1\n      tag_307\n      swap2\n      swap1\n      tag_128\n      jump\t// in\n    tag_307:\n        /* \"contracts/DeFiFlow.sol\":8032:8117  SwapExecuted(path[0], path[path.length - 1], amounts[0], amounts[amounts.length - 1]) */\n      0xffffffffffffffffffffffffffffffffffffffff\n      and\n      0xdd36740e2a012d93061a0d99eaa9107860955de4e90027d3cf465a055026c407\n        /* \"contracts/DeFiFlow.sol\":8077:8084  amounts */\n      dup4\n        /* \"contracts/DeFiFlow.sol\":8085:8086  0 */\n      0x00\n        /* \"contracts/DeFiFlow.sol\":8077:8087  amounts[0] */\n      dup2\n      mload\n      dup2\n      lt\n      tag_308\n      jumpi\n      tag_309\n      tag_259\n      jump\t// in\n    tag_309:\n    tag_308:\n      0x20\n      mul\n      0x20\n      add\n      add\n      mload\n        /* \"contracts/DeFiFlow.sol\":8089:8096  amounts */\n      dup5\n        /* \"contracts/DeFiFlow.sol\":8114:8115  1 */\n      0x01\n        /* \"contracts/DeFiFlow.sol\":8097:8104  amounts */\n      dup7\n        /* \"contracts/DeFiFlow.sol\":8097:8111  amounts.length */\n      mload\n        /* \"contracts/DeFiFlow.sol\":8097:8115  amounts.length - 1 */\n      tag_310\n      swap2\n      swap1\n      tag_169\n      jump\t// in\n    tag_310:\n        /* \"contracts/DeFiFlow.sol\":8089:8116  amounts[amounts.length - 1] */\n      dup2\n      mload\n      dup2\n      lt\n      tag_311\n      jumpi\n      tag_312\n      tag_259\n      jump\t// in\n    tag_312:\n    tag_311:\n      0x20\n      mul\n      0x20\n      add\n      add\n      mload\n        /* \"contracts/DeFiFlow.sol\":8032:8117  SwapExecuted(path[0], path[path.length - 1], amounts[0], amounts[amounts.length - 1]) */\n      mload(0x40)\n      tag_313\n      swap3\n      swap2\n      swap1\n      tag_212\n      jump\t// in\n    tag_313:\n      mload(0x40)\n      dup1\n      swap2\n      sub\n      swap1\n      log3\n        /* \"contracts/DeFiFlow.sol\":7656:8128  {... */\n      pop\n        /* \"contracts/DeFiFlow.sol\":7142:8128  if (amountOutUniswap >= amountOutSushiSwap) {... */\n    tag_289:\n        /* \"contracts/DeFiFlow.sol\":6562:8134  {... */\n      pop\n      pop\n      pop\n      pop\n        /* \"@openzeppelin/contracts/security/ReentrancyGuard.sol\":2303:2323  _nonReentrantAfter() */\n      tag_314\n        /* \"@openzeppelin/contracts/security/ReentrancyGuard.sol\":2303:2321  _nonReentrantAfter */\n      tag_161\n        /* \"@openzeppelin/contracts/security/ReentrancyGuard.sol\":2303:2323  _nonReentrantAfter() */\n      jump\t// in\n    tag_314:\n        /* \"contracts/DeFiFlow.sol\":6466:8134  function executeSwap(uint256 amountIn, address[] calldata path) external onlyOwner nonReentrant {... */\n      pop\n      pop\n      pop\n      jump\t// out\n        /* \"contracts/DeFiFlow.sol\":11304:11650  function mitigateImpermanentLoss() external onlyOwner nonReentrant {... */\n    tag_122:\n        /* \"@openzeppelin/contracts/access/Ownable.sol\":1531:1544  _checkOwner() */\n      tag_316\n        /* \"@openzeppelin/contracts/access/Ownable.sol\":1531:1542  _checkOwner */\n      tag_139\n        /* \"@openzeppelin/contracts/access/Ownable.sol\":1531:1544  _checkOwner() */\n      jump\t// in\n    tag_316:\n        /* \"@openzeppelin/contracts/security/ReentrancyGuard.sol\":2261:2282  _nonReentrantBefore() */\n      tag_318\n        /* \"@openzeppelin/contracts/security/ReentrancyGuard.sol\":2261:2280  _nonReentrantBefore */\n      tag_157\n        /* \"@openzeppelin/contracts/security/ReentrancyGuard.sol\":2261:2282  _nonReentrantBefore() */\n      jump\t// in\n    tag_318:\n        /* \"contracts/DeFiFlow.sol\":11509:11535  uint256 liquidityWithdrawn */\n      0x00\n        /* \"contracts/DeFiFlow.sol\":11598:11643  ImpermanentLossMitigation(liquidityWithdrawn) */\n      0x22831a56ed096ec8b35c25fe680899bf95c255557389a8645f13997b42c5cc34\n        /* \"contracts/DeFiFlow.sol\":11624:11642  liquidityWithdrawn */\n      dup2\n        /* \"contracts/DeFiFlow.sol\":11598:11643  ImpermanentLossMitigation(liquidityWithdrawn) */\n      mload(0x40)\n      tag_320\n      swap2\n      swap1\n      tag_46\n      jump\t// in\n    tag_320:\n      mload(0x40)\n      dup1\n      swap2\n      sub\n      swap1\n      log1\n        /* \"contracts/DeFiFlow.sol\":11371:11650  {... */\n      pop\n        /* \"@openzeppelin/contracts/security/ReentrancyGuard.sol\":2303:2323  _nonReentrantAfter() */\n      tag_321\n        /* \"@openzeppelin/contracts/security/ReentrancyGuard.sol\":2303:2321  _nonReentrantAfter */\n      tag_161\n        /* \"@openzeppelin/contracts/security/ReentrancyGuard.sol\":2303:2323  _nonReentrantAfter() */\n      jump\t// in\n    tag_321:\n        /* \"contracts/DeFiFlow.sol\":11304:11650  function mitigateImpermanentLoss() external onlyOwner nonReentrant {... */\n      jump\t// out\n        /* \"contracts/DeFiFlow.sol\":1306:1333  uint256 public maxOrderSize */\n    tag_124:\n      sload(0x0b)\n      dup2\n      jump\t// out\n        /* \"@openzeppelin/contracts/access/Ownable.sol\":2543:2758  function transferOwnership(address newOwner) public virtual onlyOwner {... */\n    tag_129:\n        /* \"@openzeppelin/contracts/access/Ownable.sol\":1531:1544  _checkOwner() */\n      tag_323\n        /* \"@openzeppelin/contracts/access/Ownable.sol\":1531:1542  _checkOwner */\n      tag_139\n        /* \"@openzeppelin/contracts/access/Ownable.sol\":1531:1544  _checkOwner() */\n      jump\t// in\n    tag_323:\n        /* \"@openzeppelin/contracts/access/Ownable.sol\":2647:2648  0 */\n      0x00\n        /* \"@openzeppelin/contracts/access/Ownable.sol\":2627:2649  newOwner == address(0) */\n      0xffffffffffffffffffffffffffffffffffffffff\n      and\n        /* \"@openzeppelin/contracts/access/Ownable.sol\":2627:2635  newOwner */\n      dup2\n        /* \"@openzeppelin/contracts/access/Ownable.sol\":2627:2649  newOwner == address(0) */\n      0xffffffffffffffffffffffffffffffffffffffff\n      and\n      sub\n        /* \"@openzeppelin/contracts/access/Ownable.sol\":2623:2714  if (newOwner == address(0)) {... */\n      tag_325\n      jumpi\n        /* \"@openzeppelin/contracts/access/Ownable.sol\":2700:2701  0 */\n      0x00\n        /* \"@openzeppelin/contracts/access/Ownable.sol\":2672:2703  OwnableInvalidOwner(address(0)) */\n      mload(0x40)\n      0x1e4fbdf700000000000000000000000000000000000000000000000000000000\n      dup2\n      mstore\n      0x04\n      add\n      tag_326\n      swap2\n      swap1\n      tag_110\n      jump\t// in\n    tag_326:\n      mload(0x40)\n      dup1\n      swap2\n      sub\n      swap1\n      revert\n        /* \"@openzeppelin/contracts/access/Ownable.sol\":2623:2714  if (newOwner == address(0)) {... */\n    tag_325:\n        /* \"@openzeppelin/contracts/access/Ownable.sol\":2723:2751  _transferOwnership(newOwner) */\n      tag_327\n        /* \"@openzeppelin/contracts/access/Ownable.sol\":2742:2750  newOwner */\n      dup2\n        /* \"@openzeppelin/contracts/access/Ownable.sol\":2723:2741  _transferOwnership */\n      tag_180\n        /* \"@openzeppelin/contracts/access/Ownable.sol\":2723:2751  _transferOwnership(newOwner) */\n      jump\t// in\n    tag_327:\n        /* \"@openzeppelin/contracts/access/Ownable.sol\":2543:2758  function transferOwnership(address newOwner) public virtual onlyOwner {... */\n      pop\n      jump\t// out\n        /* \"contracts/DeFiFlow.sol\":1116:1151  IUniswapV2Pair public uniswapPairAC */\n    tag_131:\n      0x08\n      0x00\n      swap1\n      sload\n      swap1\n      0x0100\n      exp\n      swap1\n      div\n      0xffffffffffffffffffffffffffffffffffffffff\n      and\n      dup2\n      jump\t// out\n        /* \"contracts/DeFiFlow.sol\":1030:1069  ISushiSwapRouter public sushiSwapRouter */\n    tag_134:\n      0x06\n      0x00\n      swap1\n      sload\n      swap1\n      0x0100\n      exp\n      swap1\n      div\n      0xffffffffffffffffffffffffffffffffffffffff\n      and\n      dup2\n      jump\t// out\n        /* \"@openzeppelin/contracts/access/Ownable.sol\":1796:1958  function _checkOwner() internal view virtual {... */\n    tag_139:\n        /* \"@openzeppelin/contracts/access/Ownable.sol\":1866:1878  _msgSender() */\n      tag_329\n        /* \"@openzeppelin/contracts/access/Ownable.sol\":1866:1876  _msgSender */\n      tag_330\n        /* \"@openzeppelin/contracts/access/Ownable.sol\":1866:1878  _msgSender() */\n      jump\t// in\n    tag_329:\n        /* \"@openzeppelin/contracts/access/Ownable.sol\":1855:1878  owner() != _msgSender() */\n      0xffffffffffffffffffffffffffffffffffffffff\n      and\n        /* \"@openzeppelin/contracts/access/Ownable.sol\":1855:1862  owner() */\n      tag_331\n        /* \"@openzeppelin/contracts/access/Ownable.sol\":1855:1860  owner */\n      tag_108\n        /* \"@openzeppelin/contracts/access/Ownable.sol\":1855:1862  owner() */\n      jump\t// in\n    tag_331:\n        /* \"@openzeppelin/contracts/access/Ownable.sol\":1855:1878  owner() != _msgSender() */\n      0xffffffffffffffffffffffffffffffffffffffff\n      and\n      eq\n        /* \"@openzeppelin/contracts/access/Ownable.sol\":1851:1952  if (owner() != _msgSender()) {... */\n      tag_332\n      jumpi\n        /* \"@openzeppelin/contracts/access/Ownable.sol\":1928:1940  _msgSender() */\n      tag_333\n        /* \"@openzeppelin/contracts/access/Ownable.sol\":1928:1938  _msgSender */\n      tag_330\n        /* \"@openzeppelin/contracts/access/Ownable.sol\":1928:1940  _msgSender() */\n      jump\t// in\n    tag_333:\n        /* \"@openzeppelin/contracts/access/Ownable.sol\":1901:1941  OwnableUnauthorizedAccount(_msgSender()) */\n      mload(0x40)\n      0x118cdaa700000000000000000000000000000000000000000000000000000000\n      dup2\n      mstore\n      0x04\n      add\n      tag_334\n      swap2\n      swap1\n      tag_110\n      jump\t// in\n    tag_334:\n      mload(0x40)\n      dup1\n      swap2\n      sub\n      swap1\n      revert\n        /* \"@openzeppelin/contracts/access/Ownable.sol\":1851:1952  if (owner() != _msgSender()) {... */\n    tag_332:\n        /* \"@openzeppelin/contracts/access/Ownable.sol\":1796:1958  function _checkOwner() internal view virtual {... */\n      jump\t// out\n        /* \"contracts/DeFiFlow.sol\":10874:11087  function rebalanceLiquidity(uint256 currentPrice) internal {... */\n    tag_152:\n        /* \"contracts/DeFiFlow.sol\":11029:11041  currentPrice */\n      dup1\n        /* \"contracts/DeFiFlow.sol\":11013:11026  lastRebalance */\n      0x0f\n        /* \"contracts/DeFiFlow.sol\":11013:11041  lastRebalance = currentPrice */\n      dup2\n      swap1\n      sstore\n      pop\n        /* \"contracts/DeFiFlow.sol\":11056:11080  Rebalanced(currentPrice) */\n      0xc306af072396b02bf3a9782c10065cc7ff4aa842934a43f0b76f997b291237c8\n        /* \"contracts/DeFiFlow.sol\":11067:11079  currentPrice */\n      dup2\n        /* \"contracts/DeFiFlow.sol\":11056:11080  Rebalanced(currentPrice) */\n      mload(0x40)\n      tag_336\n      swap2\n      swap1\n      tag_46\n      jump\t// in\n    tag_336:\n      mload(0x40)\n      dup1\n      swap2\n      sub\n      swap1\n      log1\n        /* \"contracts/DeFiFlow.sol\":10874:11087  function rebalanceLiquidity(uint256 currentPrice) internal {... */\n      pop\n      jump\t// out\n        /* \"@openzeppelin/contracts/security/ReentrancyGuard.sol\":2336:2623  function _nonReentrantBefore() private {... */\n    tag_157:\n        /* \"@openzeppelin/contracts/security/ReentrancyGuard.sol\":1759:1760  2 */\n      0x02\n        /* \"@openzeppelin/contracts/security/ReentrancyGuard.sol\":2468:2475  _status */\n      sload(0x01)\n        /* \"@openzeppelin/contracts/security/ReentrancyGuard.sol\":2468:2487  _status != _ENTERED */\n      sub\n        /* \"@openzeppelin/contracts/security/ReentrancyGuard.sol\":2460:2523  require(_status != _ENTERED, \"ReentrancyGuard: reentrant call\") */\n      tag_338\n      jumpi\n      mload(0x40)\n      0x08c379a000000000000000000000000000000000000000000000000000000000\n      dup2\n      mstore\n      0x04\n      add\n      tag_339\n      swap1\n      tag_340\n      jump\t// in\n    tag_339:\n      mload(0x40)\n      dup1\n      swap2\n      sub\n      swap1\n      revert\n    tag_338:\n        /* \"@openzeppelin/contracts/security/ReentrancyGuard.sol\":1759:1760  2 */\n      0x02\n        /* \"@openzeppelin/contracts/security/ReentrancyGuard.sol\":2598:2605  _status */\n      0x01\n        /* \"@openzeppelin/contracts/security/ReentrancyGuard.sol\":2598:2616  _status = _ENTERED */\n      dup2\n      swap1\n      sstore\n      pop\n        /* \"@openzeppelin/contracts/security/ReentrancyGuard.sol\":2336:2623  function _nonReentrantBefore() private {... */\n      jump\t// out\n        /* \"@openzeppelin/contracts/security/ReentrancyGuard.sol\":2629:2838  function _nonReentrantAfter() private {... */\n    tag_161:\n        /* \"@openzeppelin/contracts/security/ReentrancyGuard.sol\":1716:1717  1 */\n      0x01\n        /* \"@openzeppelin/contracts/security/ReentrancyGuard.sol\":2809:2816  _status */\n      dup1\n        /* \"@openzeppelin/contracts/security/ReentrancyGuard.sol\":2809:2831  _status = _NOT_ENTERED */\n      dup2\n      swap1\n      sstore\n      pop\n        /* \"@openzeppelin/contracts/security/ReentrancyGuard.sol\":2629:2838  function _nonReentrantAfter() private {... */\n      jump\t// out\n        /* \"@openzeppelin/contracts/access/Ownable.sol\":2912:3099  function _transferOwnership(address newOwner) internal virtual {... */\n    tag_180:\n        /* \"@openzeppelin/contracts/access/Ownable.sol\":2985:3001  address oldOwner */\n      0x00\n        /* \"@openzeppelin/contracts/access/Ownable.sol\":3004:3010  _owner */\n      dup1\n      0x00\n      swap1\n      sload\n      swap1\n      0x0100\n      exp\n      swap1\n      div\n      0xffffffffffffffffffffffffffffffffffffffff\n      and\n        /* \"@openzeppelin/contracts/access/Ownable.sol\":2985:3010  address oldOwner = _owner */\n      swap1\n      pop\n        /* \"@openzeppelin/contracts/access/Ownable.sol\":3029:3037  newOwner */\n      dup2\n        /* \"@openzeppelin/contracts/access/Ownable.sol\":3020:3026  _owner */\n      0x00\n      dup1\n        /* \"@openzeppelin/contracts/access/Ownable.sol\":3020:3037  _owner = newOwner */\n      0x0100\n      exp\n      dup2\n      sload\n      dup2\n      0xffffffffffffffffffffffffffffffffffffffff\n      mul\n      not\n      and\n      swap1\n      dup4\n      0xffffffffffffffffffffffffffffffffffffffff\n      and\n      mul\n      or\n      swap1\n      sstore\n      pop\n        /* \"@openzeppelin/contracts/access/Ownable.sol\":3083:3091  newOwner */\n      dup2\n        /* \"@openzeppelin/contracts/access/Ownable.sol\":3052:3092  OwnershipTransferred(oldOwner, newOwner) */\n      0xffffffffffffffffffffffffffffffffffffffff\n      and\n        /* \"@openzeppelin/contracts/access/Ownable.sol\":3073:3081  oldOwner */\n      dup2\n        /* \"@openzeppelin/contracts/access/Ownable.sol\":3052:3092  OwnershipTransferred(oldOwner, newOwner) */\n      0xffffffffffffffffffffffffffffffffffffffff\n      and\n      0x8be0079c531659141344cd1fd0a4f28419497f9722a3daafe3b4186f6b6457e0\n      mload(0x40)\n      mload(0x40)\n      dup1\n      swap2\n      sub\n      swap1\n      log3\n        /* \"@openzeppelin/contracts/access/Ownable.sol\":2975:3099  {... */\n      pop\n        /* \"@openzeppelin/contracts/access/Ownable.sol\":2912:3099  function _transferOwnership(address newOwner) internal virtual {... */\n      pop\n      jump\t// out\n        /* \"@openzeppelin/contracts/utils/Context.sol\":656:752  function _msgSender() internal view virtual returns (address) {... */\n    tag_330:\n        /* \"@openzeppelin/contracts/utils/Context.sol\":709:716  address */\n      0x00\n        /* \"@openzeppelin/contracts/utils/Context.sol\":735:745  msg.sender */\n      caller\n        /* \"@openzeppelin/contracts/utils/Context.sol\":728:745  return msg.sender */\n      swap1\n      pop\n        /* \"@openzeppelin/contracts/utils/Context.sol\":656:752  function _msgSender() internal view virtual returns (address) {... */\n      swap1\n      jump\t// out\n        /* \"#utility.yul\":7:133   */\n    tag_344:\n        /* \"#utility.yul\":44:51   */\n      0x00\n        /* \"#utility.yul\":84:126   */\n      0xffffffffffffffffffffffffffffffffffffffff\n        /* \"#utility.yul\":77:82   */\n      dup3\n        /* \"#utility.yul\":73:127   */\n      and\n        /* \"#utility.yul\":62:127   */\n      swap1\n      pop\n        /* \"#utility.yul\":7:133   */\n      swap2\n      swap1\n      pop\n      jump\t// out\n        /* \"#utility.yul\":139:199   */\n    tag_345:\n        /* \"#utility.yul\":167:170   */\n      0x00\n        /* \"#utility.yul\":188:193   */\n      dup2\n        /* \"#utility.yul\":181:193   */\n      swap1\n      pop\n        /* \"#utility.yul\":139:199   */\n      swap2\n      swap1\n      pop\n      jump\t// out\n        /* \"#utility.yul\":205:347   */\n    tag_346:\n        /* \"#utility.yul\":255:264   */\n      0x00\n        /* \"#utility.yul\":288:341   */\n      tag_425\n        /* \"#utility.yul\":306:340   */\n      tag_426\n        /* \"#utility.yul\":315:339   */\n      tag_427\n        /* \"#utility.yul\":333:338   */\n      dup5\n        /* \"#utility.yul\":315:339   */\n      tag_344\n      jump\t// in\n    tag_427:\n        /* \"#utility.yul\":306:340   */\n      tag_345\n      jump\t// in\n    tag_426:\n        /* \"#utility.yul\":288:341   */\n      tag_344\n      jump\t// in\n    tag_425:\n        /* \"#utility.yul\":275:341   */\n      swap1\n      pop\n        /* \"#utility.yul\":205:347   */\n      swap2\n      swap1\n      pop\n      jump\t// out\n        /* \"#utility.yul\":353:479   */\n    tag_347:\n        /* \"#utility.yul\":403:412   */\n      0x00\n        /* \"#utility.yul\":436:473   */\n      tag_429\n        /* \"#utility.yul\":467:472   */\n      dup3\n        /* \"#utility.yul\":436:473   */\n      tag_346\n      jump\t// in\n    tag_429:\n        /* \"#utility.yul\":423:473   */\n      swap1\n      pop\n        /* \"#utility.yul\":353:479   */\n      swap2\n      swap1\n      pop\n      jump\t// out\n        /* \"#utility.yul\":485:625   */\n    tag_348:\n        /* \"#utility.yul\":549:558   */\n      0x00\n        /* \"#utility.yul\":582:619   */\n      tag_431\n        /* \"#utility.yul\":613:618   */\n      dup3\n        /* \"#utility.yul\":582:619   */\n      tag_347\n      jump\t// in\n    tag_431:\n        /* \"#utility.yul\":569:619   */\n      swap1\n      pop\n        /* \"#utility.yul\":485:625   */\n      swap2\n      swap1\n      pop\n      jump\t// out\n        /* \"#utility.yul\":631:790   */\n    tag_349:\n        /* \"#utility.yul\":732:783   */\n      tag_433\n        /* \"#utility.yul\":777:782   */\n      dup2\n        /* \"#utility.yul\":732:783   */\n      tag_348\n      jump\t// in\n    tag_433:\n        /* \"#utility.yul\":727:730   */\n      dup3\n        /* \"#utility.yul\":720:784   */\n      mstore\n        /* \"#utility.yul\":631:790   */\n      pop\n      pop\n      jump\t// out\n        /* \"#utility.yul\":796:1046   */\n    tag_42:\n        /* \"#utility.yul\":903:907   */\n      0x00\n        /* \"#utility.yul\":941:943   */\n      0x20\n        /* \"#utility.yul\":930:939   */\n      dup3\n        /* \"#utility.yul\":926:944   */\n      add\n        /* \"#utility.yul\":918:944   */\n      swap1\n      pop\n        /* \"#utility.yul\":954:1039   */\n      tag_435\n        /* \"#utility.yul\":1036:1037   */\n      0x00\n        /* \"#utility.yul\":1025:1034   */\n      dup4\n        /* \"#utility.yul\":1021:1038   */\n      add\n        /* \"#utility.yul\":1012:1018   */\n      dup5\n        /* \"#utility.yul\":954:1039   */\n      tag_349\n      jump\t// in\n    tag_435:\n        /* \"#utility.yul\":796:1046   */\n      swap3\n      swap2\n      pop\n      pop\n      jump\t// out\n        /* \"#utility.yul\":1052:1129   */\n    tag_350:\n        /* \"#utility.yul\":1089:1096   */\n      0x00\n        /* \"#utility.yul\":1118:1123   */\n      dup2\n        /* \"#utility.yul\":1107:1123   */\n      swap1\n      pop\n        /* \"#utility.yul\":1052:1129   */\n      swap2\n      swap1\n      pop\n      jump\t// out\n        /* \"#utility.yul\":1135:1253   */\n    tag_351:\n        /* \"#utility.yul\":1222:1246   */\n      tag_438\n        /* \"#utility.yul\":1240:1245   */\n      dup2\n        /* \"#utility.yul\":1222:1246   */\n      tag_350\n      jump\t// in\n    tag_438:\n        /* \"#utility.yul\":1217:1220   */\n      dup3\n        /* \"#utility.yul\":1210:1247   */\n      mstore\n        /* \"#utility.yul\":1135:1253   */\n      pop\n      pop\n      jump\t// out\n        /* \"#utility.yul\":1259:1481   */\n    tag_46:\n        /* \"#utility.yul\":1352:1356   */\n      0x00\n        /* \"#utility.yul\":1390:1392   */\n      0x20\n        /* \"#utility.yul\":1379:1388   */\n      dup3\n        /* \"#utility.yul\":1375:1393   */\n      add\n        /* \"#utility.yul\":1367:1393   */\n      swap1\n      pop\n        /* \"#utility.yul\":1403:1474   */\n      tag_440\n        /* \"#utility.yul\":1471:1472   */\n      0x00\n        /* \"#utility.yul\":1460:1469   */\n      dup4\n        /* \"#utility.yul\":1456:1473   */\n      add\n        /* \"#utility.yul\":1447:1453   */\n      dup5\n        /* \"#utility.yul\":1403:1474   */\n      tag_351\n      jump\t// in\n    tag_440:\n        /* \"#utility.yul\":1259:1481   */\n      swap3\n      swap2\n      pop\n      pop\n      jump\t// out\n        /* \"#utility.yul\":1487:1562   */\n    tag_352:\n        /* \"#utility.yul\":1520:1526   */\n      0x00\n        /* \"#utility.yul\":1553:1555   */\n      0x40\n        /* \"#utility.yul\":1547:1556   */\n      mload\n        /* \"#utility.yul\":1537:1556   */\n      swap1\n      pop\n        /* \"#utility.yul\":1487:1562   */\n      swap1\n      jump\t// out\n        /* \"#utility.yul\":1568:1685   */\n    tag_353:\n        /* \"#utility.yul\":1677:1678   */\n      0x00\n        /* \"#utility.yul\":1674:1675   */\n      dup1\n        /* \"#utility.yul\":1667:1679   */\n      revert\n        /* \"#utility.yul\":1691:1808   */\n    tag_354:\n        /* \"#utility.yul\":1800:1801   */\n      0x00\n        /* \"#utility.yul\":1797:1798   */\n      dup1\n        /* \"#utility.yul\":1790:1802   */\n      revert\n        /* \"#utility.yul\":1814:1936   */\n    tag_355:\n        /* \"#utility.yul\":1887:1911   */\n      tag_445\n        /* \"#utility.yul\":1905:1910   */\n      dup2\n        /* \"#utility.yul\":1887:1911   */\n      tag_350\n      jump\t// in\n    tag_445:\n        /* \"#utility.yul\":1880:1885   */\n      dup2\n        /* \"#utility.yul\":1877:1912   */\n      eq\n        /* \"#utility.yul\":1867:1930   */\n      tag_446\n      jumpi\n        /* \"#utility.yul\":1926:1927   */\n      0x00\n        /* \"#utility.yul\":1923:1924   */\n      dup1\n        /* \"#utility.yul\":1916:1928   */\n      revert\n        /* \"#utility.yul\":1867:1930   */\n    tag_446:\n        /* \"#utility.yul\":1814:1936   */\n      pop\n      jump\t// out\n        /* \"#utility.yul\":1942:2081   */\n    tag_356:\n        /* \"#utility.yul\":1988:1993   */\n      0x00\n        /* \"#utility.yul\":2026:2032   */\n      dup2\n        /* \"#utility.yul\":2013:2033   */\n      calldataload\n        /* \"#utility.yul\":2004:2033   */\n      swap1\n      pop\n        /* \"#utility.yul\":2042:2075   */\n      tag_448\n        /* \"#utility.yul\":2069:2074   */\n      dup2\n        /* \"#utility.yul\":2042:2075   */\n      tag_355\n      jump\t// in\n    tag_448:\n        /* \"#utility.yul\":1942:2081   */\n      swap3\n      swap2\n      pop\n      pop\n      jump\t// out\n        /* \"#utility.yul\":2087:2416   */\n    tag_49:\n        /* \"#utility.yul\":2146:2152   */\n      0x00\n        /* \"#utility.yul\":2195:2197   */\n      0x20\n        /* \"#utility.yul\":2183:2192   */\n      dup3\n        /* \"#utility.yul\":2174:2181   */\n      dup5\n        /* \"#utility.yul\":2170:2193   */\n      sub\n        /* \"#utility.yul\":2166:2198   */\n      slt\n        /* \"#utility.yul\":2163:2282   */\n      iszero\n      tag_450\n      jumpi\n        /* \"#utility.yul\":2201:2280   */\n      tag_451\n      tag_353\n      jump\t// in\n    tag_451:\n        /* \"#utility.yul\":2163:2282   */\n    tag_450:\n        /* \"#utility.yul\":2321:2322   */\n      0x00\n        /* \"#utility.yul\":2346:2399   */\n      tag_452\n        /* \"#utility.yul\":2391:2398   */\n      dup5\n        /* \"#utility.yul\":2382:2388   */\n      dup3\n        /* \"#utility.yul\":2371:2380   */\n      dup6\n        /* \"#utility.yul\":2367:2389   */\n      add\n        /* \"#utility.yul\":2346:2399   */\n      tag_356\n      jump\t// in\n    tag_452:\n        /* \"#utility.yul\":2336:2399   */\n      swap2\n      pop\n        /* \"#utility.yul\":2292:2409   */\n      pop\n        /* \"#utility.yul\":2087:2416   */\n      swap3\n      swap2\n      pop\n      pop\n      jump\t// out\n        /* \"#utility.yul\":2422:2570   */\n    tag_357:\n        /* \"#utility.yul\":2494:2503   */\n      0x00\n        /* \"#utility.yul\":2527:2564   */\n      tag_454\n        /* \"#utility.yul\":2558:2563   */\n      dup3\n        /* \"#utility.yul\":2527:2564   */\n      tag_347\n      jump\t// in\n    tag_454:\n        /* \"#utility.yul\":2514:2564   */\n      swap1\n      pop\n        /* \"#utility.yul\":2422:2570   */\n      swap2\n      swap1\n      pop\n      jump\t// out\n        /* \"#utility.yul\":2576:2751   */\n    tag_358:\n        /* \"#utility.yul\":2685:2744   */\n      tag_456\n        /* \"#utility.yul\":2738:2743   */\n      dup2\n        /* \"#utility.yul\":2685:2744   */\n      tag_357\n      jump\t// in\n    tag_456:\n        /* \"#utility.yul\":2680:2683   */\n      dup3\n        /* \"#utility.yul\":2673:2745   */\n      mstore\n        /* \"#utility.yul\":2576:2751   */\n      pop\n      pop\n      jump\t// out\n        /* \"#utility.yul\":2757:3023   */\n    tag_60:\n        /* \"#utility.yul\":2872:2876   */\n      0x00\n        /* \"#utility.yul\":2910:2912   */\n      0x20\n        /* \"#utility.yul\":2899:2908   */\n      dup3\n        /* \"#utility.yul\":2895:2913   */\n      add\n        /* \"#utility.yul\":2887:2913   */\n      swap1\n      pop\n        /* \"#utility.yul\":2923:3016   */\n      tag_458\n        /* \"#utility.yul\":3013:3014   */\n      0x00\n        /* \"#utility.yul\":3002:3011   */\n      dup4\n        /* \"#utility.yul\":2998:3015   */\n      add\n        /* \"#utility.yul\":2989:2995   */\n      dup5\n        /* \"#utility.yul\":2923:3016   */\n      tag_358\n      jump\t// in\n    tag_458:\n        /* \"#utility.yul\":2757:3023   */\n      swap3\n      swap2\n      pop\n      pop\n      jump\t// out\n        /* \"#utility.yul\":3029:3146   */\n    tag_359:\n        /* \"#utility.yul\":3138:3139   */\n      0x00\n        /* \"#utility.yul\":3135:3136   */\n      dup1\n        /* \"#utility.yul\":3128:3140   */\n      revert\n        /* \"#utility.yul\":3152:3269   */\n    tag_360:\n        /* \"#utility.yul\":3261:3262   */\n      0x00\n        /* \"#utility.yul\":3258:3259   */\n      dup1\n        /* \"#utility.yul\":3251:3263   */\n      revert\n        /* \"#utility.yul\":3275:3392   */\n    tag_361:\n        /* \"#utility.yul\":3384:3385   */\n      0x00\n        /* \"#utility.yul\":3381:3382   */\n      dup1\n        /* \"#utility.yul\":3374:3386   */\n      revert\n        /* \"#utility.yul\":3411:3963   */\n    tag_362:\n        /* \"#utility.yul\":3468:3476   */\n      0x00\n        /* \"#utility.yul\":3478:3484   */\n      dup1\n        /* \"#utility.yul\":3528:3531   */\n      dup4\n        /* \"#utility.yul\":3521:3525   */\n      0x1f\n        /* \"#utility.yul\":3513:3519   */\n      dup5\n        /* \"#utility.yul\":3509:3526   */\n      add\n        /* \"#utility.yul\":3505:3532   */\n      slt\n        /* \"#utility.yul\":3495:3617   */\n      tag_463\n      jumpi\n        /* \"#utility.yul\":3536:3615   */\n      tag_464\n      tag_359\n      jump\t// in\n    tag_464:\n        /* \"#utility.yul\":3495:3617   */\n    tag_463:\n        /* \"#utility.yul\":3649:3655   */\n      dup3\n        /* \"#utility.yul\":3636:3656   */\n      calldataload\n        /* \"#utility.yul\":3626:3656   */\n      swap1\n      pop\n        /* \"#utility.yul\":3679:3697   */\n      0xffffffffffffffff\n        /* \"#utility.yul\":3671:3677   */\n      dup2\n        /* \"#utility.yul\":3668:3698   */\n      gt\n        /* \"#utility.yul\":3665:3782   */\n      iszero\n      tag_465\n      jumpi\n        /* \"#utility.yul\":3701:3780   */\n      tag_466\n      tag_360\n      jump\t// in\n    tag_466:\n        /* \"#utility.yul\":3665:3782   */\n    tag_465:\n        /* \"#utility.yul\":3815:3819   */\n      0x20\n        /* \"#utility.yul\":3807:3813   */\n      dup4\n        /* \"#utility.yul\":3803:3820   */\n      add\n        /* \"#utility.yul\":3791:3820   */\n      swap2\n      pop\n        /* \"#utility.yul\":3869:3872   */\n      dup4\n        /* \"#utility.yul\":3861:3865   */\n      0x01\n        /* \"#utility.yul\":3853:3859   */\n      dup3\n        /* \"#utility.yul\":3849:3866   */\n      mul\n        /* \"#utility.yul\":3839:3847   */\n      dup4\n        /* \"#utility.yul\":3835:3867   */\n      add\n        /* \"#utility.yul\":3832:3873   */\n      gt\n        /* \"#utility.yul\":3829:3957   */\n      iszero\n      tag_467\n      jumpi\n        /* \"#utility.yul\":3876:3955   */\n      tag_468\n      tag_361\n      jump\t// in\n    tag_468:\n        /* \"#utility.yul\":3829:3957   */\n    tag_467:\n        /* \"#utility.yul\":3411:3963   */\n      swap3\n      pop\n      swap3\n      swap1\n      pop\n      jump\t// out\n        /* \"#utility.yul\":3969:4496   */\n    tag_69:\n        /* \"#utility.yul\":4039:4045   */\n      0x00\n        /* \"#utility.yul\":4047:4053   */\n      dup1\n        /* \"#utility.yul\":4096:4098   */\n      0x20\n        /* \"#utility.yul\":4084:4093   */\n      dup4\n        /* \"#utility.yul\":4075:4082   */\n      dup6\n        /* \"#utility.yul\":4071:4094   */\n      sub\n        /* \"#utility.yul\":4067:4099   */\n      slt\n        /* \"#utility.yul\":4064:4183   */\n      iszero\n      tag_470\n      jumpi\n        /* \"#utility.yul\":4102:4181   */\n      tag_471\n      tag_353\n      jump\t// in\n    tag_471:\n        /* \"#utility.yul\":4064:4183   */\n    tag_470:\n        /* \"#utility.yul\":4250:4251   */\n      0x00\n        /* \"#utility.yul\":4239:4248   */\n      dup4\n        /* \"#utility.yul\":4235:4252   */\n      add\n        /* \"#utility.yul\":4222:4253   */\n      calldataload\n        /* \"#utility.yul\":4280:4298   */\n      0xffffffffffffffff\n        /* \"#utility.yul\":4272:4278   */\n      dup2\n        /* \"#utility.yul\":4269:4299   */\n      gt\n        /* \"#utility.yul\":4266:4383   */\n      iszero\n      tag_472\n      jumpi\n        /* \"#utility.yul\":4302:4381   */\n      tag_473\n      tag_354\n      jump\t// in\n    tag_473:\n        /* \"#utility.yul\":4266:4383   */\n    tag_472:\n        /* \"#utility.yul\":4415:4479   */\n      tag_474\n        /* \"#utility.yul\":4471:4478   */\n      dup6\n        /* \"#utility.yul\":4462:4468   */\n      dup3\n        /* \"#utility.yul\":4451:4460   */\n      dup7\n        /* \"#utility.yul\":4447:4469   */\n      add\n        /* \"#utility.yul\":4415:4479   */\n      tag_362\n      jump\t// in\n    tag_474:\n        /* \"#utility.yul\":4397:4479   */\n      swap3\n      pop\n      swap3\n      pop\n        /* \"#utility.yul\":4193:4489   */\n      pop\n        /* \"#utility.yul\":3969:4496   */\n      swap3\n      pop\n      swap3\n      swap1\n      pop\n      jump\t// out\n        /* \"#utility.yul\":4502:4592   */\n    tag_363:\n        /* \"#utility.yul\":4536:4543   */\n      0x00\n        /* \"#utility.yul\":4579:4584   */\n      dup2\n        /* \"#utility.yul\":4572:4585   */\n      iszero\n        /* \"#utility.yul\":4565:4586   */\n      iszero\n        /* \"#utility.yul\":4554:4586   */\n      swap1\n      pop\n        /* \"#utility.yul\":4502:4592   */\n      swap2\n      swap1\n      pop\n      jump\t// out\n        /* \"#utility.yul\":4598:4707   */\n    tag_364:\n        /* \"#utility.yul\":4679:4700   */\n      tag_477\n        /* \"#utility.yul\":4694:4699   */\n      dup2\n        /* \"#utility.yul\":4679:4700   */\n      tag_363\n      jump\t// in\n    tag_477:\n        /* \"#utility.yul\":4674:4677   */\n      dup3\n        /* \"#utility.yul\":4667:4701   */\n      mstore\n        /* \"#utility.yul\":4598:4707   */\n      pop\n      pop\n      jump\t// out\n        /* \"#utility.yul\":4713:4811   */\n    tag_365:\n        /* \"#utility.yul\":4764:4770   */\n      0x00\n        /* \"#utility.yul\":4798:4803   */\n      dup2\n        /* \"#utility.yul\":4792:4804   */\n      mload\n        /* \"#utility.yul\":4782:4804   */\n      swap1\n      pop\n        /* \"#utility.yul\":4713:4811   */\n      swap2\n      swap1\n      pop\n      jump\t// out\n        /* \"#utility.yul\":4817:4985   */\n    tag_366:\n        /* \"#utility.yul\":4900:4911   */\n      0x00\n        /* \"#utility.yul\":4934:4940   */\n      dup3\n        /* \"#utility.yul\":4929:4932   */\n      dup3\n        /* \"#utility.yul\":4922:4941   */\n      mstore\n        /* \"#utility.yul\":4974:4978   */\n      0x20\n        /* \"#utility.yul\":4969:4972   */\n      dup3\n        /* \"#utility.yul\":4965:4979   */\n      add\n        /* \"#utility.yul\":4950:4979   */\n      swap1\n      pop\n        /* \"#utility.yul\":4817:4985   */\n      swap3\n      swap2\n      pop\n      pop\n      jump\t// out\n        /* \"#utility.yul\":4991:5130   */\n    tag_367:\n        /* \"#utility.yul\":5080:5086   */\n      dup3\n        /* \"#utility.yul\":5075:5078   */\n      dup2\n        /* \"#utility.yul\":5070:5073   */\n      dup4\n        /* \"#utility.yul\":5064:5087   */\n      mcopy\n        /* \"#utility.yul\":5121:5122   */\n      0x00\n        /* \"#utility.yul\":5112:5118   */\n      dup4\n        /* \"#utility.yul\":5107:5110   */\n      dup4\n        /* \"#utility.yul\":5103:5119   */\n      add\n        /* \"#utility.yul\":5096:5123   */\n      mstore\n        /* \"#utility.yul\":4991:5130   */\n      pop\n      pop\n      pop\n      jump\t// out\n        /* \"#utility.yul\":5136:5238   */\n    tag_368:\n        /* \"#utility.yul\":5177:5183   */\n      0x00\n        /* \"#utility.yul\":5228:5230   */\n      0x1f\n        /* \"#utility.yul\":5224:5231   */\n      not\n        /* \"#utility.yul\":5219:5221   */\n      0x1f\n        /* \"#utility.yul\":5212:5217   */\n      dup4\n        /* \"#utility.yul\":5208:5222   */\n      add\n        /* \"#utility.yul\":5204:5232   */\n      and\n        /* \"#utility.yul\":5194:5232   */\n      swap1\n      pop\n        /* \"#utility.yul\":5136:5238   */\n      swap2\n      swap1\n      pop\n      jump\t// out\n        /* \"#utility.yul\":5244:5617   */\n    tag_369:\n        /* \"#utility.yul\":5330:5333   */\n      0x00\n        /* \"#utility.yul\":5358:5396   */\n      tag_483\n        /* \"#utility.yul\":5390:5395   */\n      dup3\n        /* \"#utility.yul\":5358:5396   */\n      tag_365\n      jump\t// in\n    tag_483:\n        /* \"#utility.yul\":5412:5482   */\n      tag_484\n        /* \"#utility.yul\":5475:5481   */\n      dup2\n        /* \"#utility.yul\":5470:5473   */\n      dup6\n        /* \"#utility.yul\":5412:5482   */\n      tag_366\n      jump\t// in\n    tag_484:\n        /* \"#utility.yul\":5405:5482   */\n      swap4\n      pop\n        /* \"#utility.yul\":5491:5556   */\n      tag_485\n        /* \"#utility.yul\":5549:5555   */\n      dup2\n        /* \"#utility.yul\":5544:5547   */\n      dup6\n        /* \"#utility.yul\":5537:5541   */\n      0x20\n        /* \"#utility.yul\":5530:5535   */\n      dup7\n        /* \"#utility.yul\":5526:5542   */\n      add\n        /* \"#utility.yul\":5491:5556   */\n      tag_367\n      jump\t// in\n    tag_485:\n        /* \"#utility.yul\":5581:5610   */\n      tag_486\n        /* \"#utility.yul\":5603:5609   */\n      dup2\n        /* \"#utility.yul\":5581:5610   */\n      tag_368\n      jump\t// in\n    tag_486:\n        /* \"#utility.yul\":5576:5579   */\n      dup5\n        /* \"#utility.yul\":5572:5611   */\n      add\n        /* \"#utility.yul\":5565:5611   */\n      swap2\n      pop\n        /* \"#utility.yul\":5334:5617   */\n      pop\n        /* \"#utility.yul\":5244:5617   */\n      swap3\n      swap2\n      pop\n      pop\n      jump\t// out\n        /* \"#utility.yul\":5623:6030   */\n    tag_86:\n        /* \"#utility.yul\":5756:5760   */\n      0x00\n        /* \"#utility.yul\":5794:5796   */\n      0x40\n        /* \"#utility.yul\":5783:5792   */\n      dup3\n        /* \"#utility.yul\":5779:5797   */\n      add\n        /* \"#utility.yul\":5771:5797   */\n      swap1\n      pop\n        /* \"#utility.yul\":5807:5872   */\n      tag_488\n        /* \"#utility.yul\":5869:5870   */\n      0x00\n        /* \"#utility.yul\":5858:5867   */\n      dup4\n        /* \"#utility.yul\":5854:5871   */\n      add\n        /* \"#utility.yul\":5845:5851   */\n      dup6\n        /* \"#utility.yul\":5807:5872   */\n      tag_364\n      jump\t// in\n    tag_488:\n        /* \"#utility.yul\":5919:5928   */\n      dup2\n        /* \"#utility.yul\":5913:5917   */\n      dup2\n        /* \"#utility.yul\":5909:5929   */\n      sub\n        /* \"#utility.yul\":5904:5906   */\n      0x20\n        /* \"#utility.yul\":5893:5902   */\n      dup4\n        /* \"#utility.yul\":5889:5907   */\n      add\n        /* \"#utility.yul\":5882:5930   */\n      mstore\n        /* \"#utility.yul\":5947:6023   */\n      tag_489\n        /* \"#utility.yul\":6018:6022   */\n      dup2\n        /* \"#utility.yul\":6009:6015   */\n      dup5\n        /* \"#utility.yul\":5947:6023   */\n      tag_369\n      jump\t// in\n    tag_489:\n        /* \"#utility.yul\":5939:6023   */\n      swap1\n      pop\n        /* \"#utility.yul\":5623:6030   */\n      swap4\n      swap3\n      pop\n      pop\n      pop\n      jump\t// out\n        /* \"#utility.yul\":6036:6189   */\n    tag_370:\n        /* \"#utility.yul\":6113:6122   */\n      0x00\n        /* \"#utility.yul\":6146:6183   */\n      tag_491\n        /* \"#utility.yul\":6177:6182   */\n      dup3\n        /* \"#utility.yul\":6146:6183   */\n      tag_347\n      jump\t// in\n    tag_491:\n        /* \"#utility.yul\":6133:6183   */\n      swap1\n      pop\n        /* \"#utility.yul\":6036:6189   */\n      swap2\n      swap1\n      pop\n      jump\t// out\n        /* \"#utility.yul\":6195:6380   */\n    tag_371:\n        /* \"#utility.yul\":6309:6373   */\n      tag_493\n        /* \"#utility.yul\":6367:6372   */\n      dup2\n        /* \"#utility.yul\":6309:6373   */\n      tag_370\n      jump\t// in\n    tag_493:\n        /* \"#utility.yul\":6304:6307   */\n      dup3\n        /* \"#utility.yul\":6297:6374   */\n      mstore\n        /* \"#utility.yul\":6195:6380   */\n      pop\n      pop\n      jump\t// out\n        /* \"#utility.yul\":6386:6662   */\n    tag_98:\n        /* \"#utility.yul\":6506:6510   */\n      0x00\n        /* \"#utility.yul\":6544:6546   */\n      0x20\n        /* \"#utility.yul\":6533:6542   */\n      dup3\n        /* \"#utility.yul\":6529:6547   */\n      add\n        /* \"#utility.yul\":6521:6547   */\n      swap1\n      pop\n        /* \"#utility.yul\":6557:6655   */\n      tag_495\n        /* \"#utility.yul\":6652:6653   */\n      0x00\n        /* \"#utility.yul\":6641:6650   */\n      dup4\n        /* \"#utility.yul\":6637:6654   */\n      add\n        /* \"#utility.yul\":6628:6634   */\n      dup5\n        /* \"#utility.yul\":6557:6655   */\n      tag_371\n      jump\t// in\n    tag_495:\n        /* \"#utility.yul\":6386:6662   */\n      swap3\n      swap2\n      pop\n      pop\n      jump\t// out\n        /* \"#utility.yul\":6668:6822   */\n    tag_372:\n        /* \"#utility.yul\":6746:6755   */\n      0x00\n        /* \"#utility.yul\":6779:6816   */\n      tag_497\n        /* \"#utility.yul\":6810:6815   */\n      dup3\n        /* \"#utility.yul\":6779:6816   */\n      tag_347\n      jump\t// in\n    tag_497:\n        /* \"#utility.yul\":6766:6816   */\n      swap1\n      pop\n        /* \"#utility.yul\":6668:6822   */\n      swap2\n      swap1\n      pop\n      jump\t// out\n        /* \"#utility.yul\":6828:7015   */\n    tag_373:\n        /* \"#utility.yul\":6943:7008   */\n      tag_499\n        /* \"#utility.yul\":7002:7007   */\n      dup2\n        /* \"#utility.yul\":6943:7008   */\n      tag_372\n      jump\t// in\n    tag_499:\n        /* \"#utility.yul\":6938:6941   */\n      dup3\n        /* \"#utility.yul\":6931:7009   */\n      mstore\n        /* \"#utility.yul\":6828:7015   */\n      pop\n      pop\n      jump\t// out\n        /* \"#utility.yul\":7021:7299   */\n    tag_102:\n        /* \"#utility.yul\":7142:7146   */\n      0x00\n        /* \"#utility.yul\":7180:7182   */\n      0x20\n        /* \"#utility.yul\":7169:7178   */\n      dup3\n        /* \"#utility.yul\":7165:7183   */\n      add\n        /* \"#utility.yul\":7157:7183   */\n      swap1\n      pop\n        /* \"#utility.yul\":7193:7292   */\n      tag_501\n        /* \"#utility.yul\":7289:7290   */\n      0x00\n        /* \"#utility.yul\":7278:7287   */\n      dup4\n        /* \"#utility.yul\":7274:7291   */\n      add\n        /* \"#utility.yul\":7265:7271   */\n      dup5\n        /* \"#utility.yul\":7193:7292   */\n      tag_373\n      jump\t// in\n    tag_501:\n        /* \"#utility.yul\":7021:7299   */\n      swap3\n      swap2\n      pop\n      pop\n      jump\t// out\n        /* \"#utility.yul\":7305:7779   */\n    tag_105:\n        /* \"#utility.yul\":7373:7379   */\n      0x00\n        /* \"#utility.yul\":7381:7387   */\n      dup1\n        /* \"#utility.yul\":7430:7432   */\n      0x40\n        /* \"#utility.yul\":7418:7427   */\n      dup4\n        /* \"#utility.yul\":7409:7416   */\n      dup6\n        /* \"#utility.yul\":7405:7428   */\n      sub\n        /* \"#utility.yul\":7401:7433   */\n      slt\n        /* \"#utility.yul\":7398:7517   */\n      iszero\n      tag_503\n      jumpi\n        /* \"#utility.yul\":7436:7515   */\n      tag_504\n      tag_353\n      jump\t// in\n    tag_504:\n        /* \"#utility.yul\":7398:7517   */\n    tag_503:\n        /* \"#utility.yul\":7556:7557   */\n      0x00\n        /* \"#utility.yul\":7581:7634   */\n      tag_505\n        /* \"#utility.yul\":7626:7633   */\n      dup6\n        /* \"#utility.yul\":7617:7623   */\n      dup3\n        /* \"#utility.yul\":7606:7615   */\n      dup7\n        /* \"#utility.yul\":7602:7624   */\n      add\n        /* \"#utility.yul\":7581:7634   */\n      tag_356\n      jump\t// in\n    tag_505:\n        /* \"#utility.yul\":7571:7634   */\n      swap3\n      pop\n        /* \"#utility.yul\":7527:7644   */\n      pop\n        /* \"#utility.yul\":7683:7685   */\n      0x20\n        /* \"#utility.yul\":7709:7762   */\n      tag_506\n        /* \"#utility.yul\":7754:7761   */\n      dup6\n        /* \"#utility.yul\":7745:7751   */\n      dup3\n        /* \"#utility.yul\":7734:7743   */\n      dup7\n        /* \"#utility.yul\":7730:7752   */\n      add\n        /* \"#utility.yul\":7709:7762   */\n      tag_356\n      jump\t// in\n    tag_506:\n        /* \"#utility.yul\":7699:7762   */\n      swap2\n      pop\n        /* \"#utility.yul\":7654:7772   */\n      pop\n        /* \"#utility.yul\":7305:7779   */\n      swap3\n      pop\n      swap3\n      swap1\n      pop\n      jump\t// out\n        /* \"#utility.yul\":7785:7881   */\n    tag_374:\n        /* \"#utility.yul\":7822:7829   */\n      0x00\n        /* \"#utility.yul\":7851:7875   */\n      tag_508\n        /* \"#utility.yul\":7869:7874   */\n      dup3\n        /* \"#utility.yul\":7851:7875   */\n      tag_344\n      jump\t// in\n    tag_508:\n        /* \"#utility.yul\":7840:7875   */\n      swap1\n      pop\n        /* \"#utility.yul\":7785:7881   */\n      swap2\n      swap1\n      pop\n      jump\t// out\n        /* \"#utility.yul\":7887:8005   */\n    tag_375:\n        /* \"#utility.yul\":7974:7998   */\n      tag_510\n        /* \"#utility.yul\":7992:7997   */\n      dup2\n        /* \"#utility.yul\":7974:7998   */\n      tag_374\n      jump\t// in\n    tag_510:\n        /* \"#utility.yul\":7969:7972   */\n      dup3\n        /* \"#utility.yul\":7962:7999   */\n      mstore\n        /* \"#utility.yul\":7887:8005   */\n      pop\n      pop\n      jump\t// out\n        /* \"#utility.yul\":8011:8233   */\n    tag_110:\n        /* \"#utility.yul\":8104:8108   */\n      0x00\n        /* \"#utility.yul\":8142:8144   */\n      0x20\n        /* \"#utility.yul\":8131:8140   */\n      dup3\n        /* \"#utility.yul\":8127:8145   */\n      add\n        /* \"#utility.yul\":8119:8145   */\n      swap1\n      pop\n        /* \"#utility.yul\":8155:8226   */\n      tag_512\n        /* \"#utility.yul\":8223:8224   */\n      0x00\n        /* \"#utility.yul\":8212:8221   */\n      dup4\n        /* \"#utility.yul\":8208:8225   */\n      add\n        /* \"#utility.yul\":8199:8205   */\n      dup5\n        /* \"#utility.yul\":8155:8226   */\n      tag_375\n      jump\t// in\n    tag_512:\n        /* \"#utility.yul\":8011:8233   */\n      swap3\n      swap2\n      pop\n      pop\n      jump\t// out\n        /* \"#utility.yul\":8256:8824   */\n    tag_376:\n        /* \"#utility.yul\":8329:8337   */\n      0x00\n        /* \"#utility.yul\":8339:8345   */\n      dup1\n        /* \"#utility.yul\":8389:8392   */\n      dup4\n        /* \"#utility.yul\":8382:8386   */\n      0x1f\n        /* \"#utility.yul\":8374:8380   */\n      dup5\n        /* \"#utility.yul\":8370:8387   */\n      add\n        /* \"#utility.yul\":8366:8393   */\n      slt\n        /* \"#utility.yul\":8356:8478   */\n      tag_514\n      jumpi\n        /* \"#utility.yul\":8397:8476   */\n      tag_515\n      tag_359\n      jump\t// in\n    tag_515:\n        /* \"#utility.yul\":8356:8478   */\n    tag_514:\n        /* \"#utility.yul\":8510:8516   */\n      dup3\n        /* \"#utility.yul\":8497:8517   */\n      calldataload\n        /* \"#utility.yul\":8487:8517   */\n      swap1\n      pop\n        /* \"#utility.yul\":8540:8558   */\n      0xffffffffffffffff\n        /* \"#utility.yul\":8532:8538   */\n      dup2\n        /* \"#utility.yul\":8529:8559   */\n      gt\n        /* \"#utility.yul\":8526:8643   */\n      iszero\n      tag_516\n      jumpi\n        /* \"#utility.yul\":8562:8641   */\n      tag_517\n      tag_360\n      jump\t// in\n    tag_517:\n        /* \"#utility.yul\":8526:8643   */\n    tag_516:\n        /* \"#utility.yul\":8676:8680   */\n      0x20\n        /* \"#utility.yul\":8668:8674   */\n      dup4\n        /* \"#utility.yul\":8664:8681   */\n      add\n        /* \"#utility.yul\":8652:8681   */\n      swap2\n      pop\n        /* \"#utility.yul\":8730:8733   */\n      dup4\n        /* \"#utility.yul\":8722:8726   */\n      0x20\n        /* \"#utility.yul\":8714:8720   */\n      dup3\n        /* \"#utility.yul\":8710:8727   */\n      mul\n        /* \"#utility.yul\":8700:8708   */\n      dup4\n        /* \"#utility.yul\":8696:8728   */\n      add\n        /* \"#utility.yul\":8693:8734   */\n      gt\n        /* \"#utility.yul\":8690:8818   */\n      iszero\n      tag_518\n      jumpi\n        /* \"#utility.yul\":8737:8816   */\n      tag_519\n      tag_361\n      jump\t// in\n    tag_519:\n        /* \"#utility.yul\":8690:8818   */\n    tag_518:\n        /* \"#utility.yul\":8256:8824   */\n      swap3\n      pop\n      swap3\n      swap1\n      pop\n      jump\t// out\n        /* \"#utility.yul\":8830:9534   */\n    tag_119:\n        /* \"#utility.yul\":8925:8931   */\n      0x00\n        /* \"#utility.yul\":8933:8939   */\n      dup1\n        /* \"#utility.yul\":8941:8947   */\n      0x00\n        /* \"#utility.yul\":8990:8992   */\n      0x40\n        /* \"#utility.yul\":8978:8987   */\n      dup5\n        /* \"#utility.yul\":8969:8976   */\n      dup7\n        /* \"#utility.yul\":8965:8988   */\n      sub\n        /* \"#utility.yul\":8961:8993   */\n      slt\n        /* \"#utility.yul\":8958:9077   */\n      iszero\n      tag_521\n      jumpi\n        /* \"#utility.yul\":8996:9075   */\n      tag_522\n      tag_353\n      jump\t// in\n    tag_522:\n        /* \"#utility.yul\":8958:9077   */\n    tag_521:\n        /* \"#utility.yul\":9116:9117   */\n      0x00\n        /* \"#utility.yul\":9141:9194   */\n      tag_523\n        /* \"#utility.yul\":9186:9193   */\n      dup7\n        /* \"#utility.yul\":9177:9183   */\n      dup3\n        /* \"#utility.yul\":9166:9175   */\n      dup8\n        /* \"#utility.yul\":9162:9184   */\n      add\n        /* \"#utility.yul\":9141:9194   */\n      tag_356\n      jump\t// in\n    tag_523:\n        /* \"#utility.yul\":9131:9194   */\n      swap4\n      pop\n        /* \"#utility.yul\":9087:9204   */\n      pop\n        /* \"#utility.yul\":9271:9273   */\n      0x20\n        /* \"#utility.yul\":9260:9269   */\n      dup5\n        /* \"#utility.yul\":9256:9274   */\n      add\n        /* \"#utility.yul\":9243:9275   */\n      calldataload\n        /* \"#utility.yul\":9302:9320   */\n      0xffffffffffffffff\n        /* \"#utility.yul\":9294:9300   */\n      dup2\n        /* \"#utility.yul\":9291:9321   */\n      gt\n        /* \"#utility.yul\":9288:9405   */\n      iszero\n      tag_524\n      jumpi\n        /* \"#utility.yul\":9324:9403   */\n      tag_525\n      tag_354\n      jump\t// in\n    tag_525:\n        /* \"#utility.yul\":9288:9405   */\n    tag_524:\n        /* \"#utility.yul\":9437:9517   */\n      tag_526\n        /* \"#utility.yul\":9509:9516   */\n      dup7\n        /* \"#utility.yul\":9500:9506   */\n      dup3\n        /* \"#utility.yul\":9489:9498   */\n      dup8\n        /* \"#utility.yul\":9485:9507   */\n      add\n        /* \"#utility.yul\":9437:9517   */\n      tag_376\n      jump\t// in\n    tag_526:\n        /* \"#utility.yul\":9419:9517   */\n      swap3\n      pop\n      swap3\n      pop\n        /* \"#utility.yul\":9214:9527   */\n      pop\n        /* \"#utility.yul\":8830:9534   */\n      swap3\n      pop\n      swap3\n      pop\n      swap3\n      jump\t// out\n        /* \"#utility.yul\":9540:9662   */\n    tag_377:\n        /* \"#utility.yul\":9613:9637   */\n      tag_528\n        /* \"#utility.yul\":9631:9636   */\n      dup2\n        /* \"#utility.yul\":9613:9637   */\n      tag_374\n      jump\t// in\n    tag_528:\n        /* \"#utility.yul\":9606:9611   */\n      dup2\n        /* \"#utility.yul\":9603:9638   */\n      eq\n        /* \"#utility.yul\":9593:9656   */\n      tag_529\n      jumpi\n        /* \"#utility.yul\":9652:9653   */\n      0x00\n        /* \"#utility.yul\":9649:9650   */\n      dup1\n        /* \"#utility.yul\":9642:9654   */\n      revert\n        /* \"#utility.yul\":9593:9656   */\n    tag_529:\n        /* \"#utility.yul\":9540:9662   */\n      pop\n      jump\t// out\n        /* \"#utility.yul\":9668:9807   */\n    tag_378:\n        /* \"#utility.yul\":9714:9719   */\n      0x00\n        /* \"#utility.yul\":9752:9758   */\n      dup2\n        /* \"#utility.yul\":9739:9759   */\n      calldataload\n        /* \"#utility.yul\":9730:9759   */\n      swap1\n      pop\n        /* \"#utility.yul\":9768:9801   */\n      tag_531\n        /* \"#utility.yul\":9795:9800   */\n      dup2\n        /* \"#utility.yul\":9768:9801   */\n      tag_377\n      jump\t// in\n    tag_531:\n        /* \"#utility.yul\":9668:9807   */\n      swap3\n      swap2\n      pop\n      pop\n      jump\t// out\n        /* \"#utility.yul\":9813:10142   */\n    tag_128:\n        /* \"#utility.yul\":9872:9878   */\n      0x00\n        /* \"#utility.yul\":9921:9923   */\n      0x20\n        /* \"#utility.yul\":9909:9918   */\n      dup3\n        /* \"#utility.yul\":9900:9907   */\n      dup5\n        /* \"#utility.yul\":9896:9919   */\n      sub\n        /* \"#utility.yul\":9892:9924   */\n      slt\n        /* \"#utility.yul\":9889:10008   */\n      iszero\n      tag_533\n      jumpi\n        /* \"#utility.yul\":9927:10006   */\n      tag_534\n      tag_353\n      jump\t// in\n    tag_534:\n        /* \"#utility.yul\":9889:10008   */\n    tag_533:\n        /* \"#utility.yul\":10047:10048   */\n      0x00\n        /* \"#utility.yul\":10072:10125   */\n      tag_535\n        /* \"#utility.yul\":10117:10124   */\n      dup5\n        /* \"#utility.yul\":10108:10114   */\n      dup3\n        /* \"#utility.yul\":10097:10106   */\n      dup6\n        /* \"#utility.yul\":10093:10115   */\n      add\n        /* \"#utility.yul\":10072:10125   */\n      tag_378\n      jump\t// in\n    tag_535:\n        /* \"#utility.yul\":10062:10125   */\n      swap2\n      pop\n        /* \"#utility.yul\":10018:10135   */\n      pop\n        /* \"#utility.yul\":9813:10142   */\n      swap3\n      swap2\n      pop\n      pop\n      jump\t// out\n        /* \"#utility.yul\":10148:10299   */\n    tag_379:\n        /* \"#utility.yul\":10223:10232   */\n      0x00\n        /* \"#utility.yul\":10256:10293   */\n      tag_537\n        /* \"#utility.yul\":10287:10292   */\n      dup3\n        /* \"#utility.yul\":10256:10293   */\n      tag_347\n      jump\t// in\n    tag_537:\n        /* \"#utility.yul\":10243:10293   */\n      swap1\n      pop\n        /* \"#utility.yul\":10148:10299   */\n      swap2\n      swap1\n      pop\n      jump\t// out\n        /* \"#utility.yul\":10305:10486   */\n    tag_380:\n        /* \"#utility.yul\":10417:10479   */\n      tag_539\n        /* \"#utility.yul\":10473:10478   */\n      dup2\n        /* \"#utility.yul\":10417:10479   */\n      tag_379\n      jump\t// in\n    tag_539:\n        /* \"#utility.yul\":10412:10415   */\n      dup3\n        /* \"#utility.yul\":10405:10480   */\n      mstore\n        /* \"#utility.yul\":10305:10486   */\n      pop\n      pop\n      jump\t// out\n        /* \"#utility.yul\":10492:10764   */\n    tag_136:\n        /* \"#utility.yul\":10610:10614   */\n      0x00\n        /* \"#utility.yul\":10648:10650   */\n      0x20\n        /* \"#utility.yul\":10637:10646   */\n      dup3\n        /* \"#utility.yul\":10633:10651   */\n      add\n        /* \"#utility.yul\":10625:10651   */\n      swap1\n      pop\n        /* \"#utility.yul\":10661:10757   */\n      tag_541\n        /* \"#utility.yul\":10754:10755   */\n      0x00\n        /* \"#utility.yul\":10743:10752   */\n      dup4\n        /* \"#utility.yul\":10739:10756   */\n      add\n        /* \"#utility.yul\":10730:10736   */\n      dup5\n        /* \"#utility.yul\":10661:10757   */\n      tag_380\n      jump\t// in\n    tag_541:\n        /* \"#utility.yul\":10492:10764   */\n      swap3\n      swap2\n      pop\n      pop\n      jump\t// out\n        /* \"#utility.yul\":10770:10875   */\n    tag_381:\n        /* \"#utility.yul\":10806:10813   */\n      0x00\n        /* \"#utility.yul\":10846:10868   */\n      0xffffffffffffffffffff\n        /* \"#utility.yul\":10839:10844   */\n      dup3\n        /* \"#utility.yul\":10835:10869   */\n      and\n        /* \"#utility.yul\":10824:10869   */\n      swap1\n      pop\n        /* \"#utility.yul\":10770:10875   */\n      swap2\n      swap1\n      pop\n      jump\t// out\n        /* \"#utility.yul\":10881:11001   */\n    tag_382:\n        /* \"#utility.yul\":10953:10976   */\n      tag_544\n        /* \"#utility.yul\":10970:10975   */\n      dup2\n        /* \"#utility.yul\":10953:10976   */\n      tag_381\n      jump\t// in\n    tag_544:\n        /* \"#utility.yul\":10946:10951   */\n      dup2\n        /* \"#utility.yul\":10943:10977   */\n      eq\n        /* \"#utility.yul\":10933:10995   */\n      tag_545\n      jumpi\n        /* \"#utility.yul\":10991:10992   */\n      0x00\n        /* \"#utility.yul\":10988:10989   */\n      dup1\n        /* \"#utility.yul\":10981:10993   */\n      revert\n        /* \"#utility.yul\":10933:10995   */\n    tag_545:\n        /* \"#utility.yul\":10881:11001   */\n      pop\n      jump\t// out\n        /* \"#utility.yul\":11007:11148   */\n    tag_383:\n        /* \"#utility.yul\":11063:11068   */\n      0x00\n        /* \"#utility.yul\":11094:11100   */\n      dup2\n        /* \"#utility.yul\":11088:11101   */\n      mload\n        /* \"#utility.yul\":11079:11101   */\n      swap1\n      pop\n        /* \"#utility.yul\":11110:11142   */\n      tag_547\n        /* \"#utility.yul\":11136:11141   */\n      dup2\n        /* \"#utility.yul\":11110:11142   */\n      tag_382\n      jump\t// in\n    tag_547:\n        /* \"#utility.yul\":11007:11148   */\n      swap3\n      swap2\n      pop\n      pop\n      jump\t// out\n        /* \"#utility.yul\":11154:11230   */\n    tag_384:\n        /* \"#utility.yul\":11190:11197   */\n      0x00\n        /* \"#utility.yul\":11219:11224   */\n      dup2\n        /* \"#utility.yul\":11208:11224   */\n      swap1\n      pop\n        /* \"#utility.yul\":11154:11230   */\n      swap2\n      swap1\n      pop\n      jump\t// out\n        /* \"#utility.yul\":11236:11356   */\n    tag_385:\n        /* \"#utility.yul\":11308:11331   */\n      tag_550\n        /* \"#utility.yul\":11325:11330   */\n      dup2\n        /* \"#utility.yul\":11308:11331   */\n      tag_384\n      jump\t// in\n    tag_550:\n        /* \"#utility.yul\":11301:11306   */\n      dup2\n        /* \"#utility.yul\":11298:11332   */\n      eq\n        /* \"#utility.yul\":11288:11350   */\n      tag_551\n      jumpi\n        /* \"#utility.yul\":11346:11347   */\n      0x00\n        /* \"#utility.yul\":11343:11344   */\n      dup1\n        /* \"#utility.yul\":11336:11348   */\n      revert\n        /* \"#utility.yul\":11288:11350   */\n    tag_551:\n        /* \"#utility.yul\":11236:11356   */\n      pop\n      jump\t// out\n        /* \"#utility.yul\":11362:11503   */\n    tag_386:\n        /* \"#utility.yul\":11418:11423   */\n      0x00\n        /* \"#utility.yul\":11449:11455   */\n      dup2\n        /* \"#utility.yul\":11443:11456   */\n      mload\n        /* \"#utility.yul\":11434:11456   */\n      swap1\n      pop\n        /* \"#utility.yul\":11465:11497   */\n      tag_553\n        /* \"#utility.yul\":11491:11496   */\n      dup2\n        /* \"#utility.yul\":11465:11497   */\n      tag_385\n      jump\t// in\n    tag_553:\n        /* \"#utility.yul\":11362:11503   */\n      swap3\n      swap2\n      pop\n      pop\n      jump\t// out\n        /* \"#utility.yul\":11509:11652   */\n    tag_387:\n        /* \"#utility.yul\":11566:11571   */\n      0x00\n        /* \"#utility.yul\":11597:11603   */\n      dup2\n        /* \"#utility.yul\":11591:11604   */\n      mload\n        /* \"#utility.yul\":11582:11604   */\n      swap1\n      pop\n        /* \"#utility.yul\":11613:11646   */\n      tag_555\n        /* \"#utility.yul\":11640:11645   */\n      dup2\n        /* \"#utility.yul\":11613:11646   */\n      tag_355\n      jump\t// in\n    tag_555:\n        /* \"#utility.yul\":11509:11652   */\n      swap3\n      swap2\n      pop\n      pop\n      jump\t// out\n        /* \"#utility.yul\":11658:12629   */\n    tag_145:\n        /* \"#utility.yul\":11761:11767   */\n      0x00\n        /* \"#utility.yul\":11769:11775   */\n      dup1\n        /* \"#utility.yul\":11777:11783   */\n      0x00\n        /* \"#utility.yul\":11785:11791   */\n      dup1\n        /* \"#utility.yul\":11793:11799   */\n      0x00\n        /* \"#utility.yul\":11842:11845   */\n      0xa0\n        /* \"#utility.yul\":11830:11839   */\n      dup7\n        /* \"#utility.yul\":11821:11828   */\n      dup9\n        /* \"#utility.yul\":11817:11840   */\n      sub\n        /* \"#utility.yul\":11813:11846   */\n      slt\n        /* \"#utility.yul\":11810:11930   */\n      iszero\n      tag_557\n      jumpi\n        /* \"#utility.yul\":11849:11928   */\n      tag_558\n      tag_353\n      jump\t// in\n    tag_558:\n        /* \"#utility.yul\":11810:11930   */\n    tag_557:\n        /* \"#utility.yul\":11969:11970   */\n      0x00\n        /* \"#utility.yul\":11994:12057   */\n      tag_559\n        /* \"#utility.yul\":12049:12056   */\n      dup9\n        /* \"#utility.yul\":12040:12046   */\n      dup3\n        /* \"#utility.yul\":12029:12038   */\n      dup10\n        /* \"#utility.yul\":12025:12047   */\n      add\n        /* \"#utility.yul\":11994:12057   */\n      tag_383\n      jump\t// in\n    tag_559:\n        /* \"#utility.yul\":11984:12057   */\n      swap6\n      pop\n        /* \"#utility.yul\":11940:12067   */\n      pop\n        /* \"#utility.yul\":12106:12108   */\n      0x20\n        /* \"#utility.yul\":12132:12195   */\n      tag_560\n        /* \"#utility.yul\":12187:12194   */\n      dup9\n        /* \"#utility.yul\":12178:12184   */\n      dup3\n        /* \"#utility.yul\":12167:12176   */\n      dup10\n        /* \"#utility.yul\":12163:12185   */\n      add\n        /* \"#utility.yul\":12132:12195   */\n      tag_386\n      jump\t// in\n    tag_560:\n        /* \"#utility.yul\":12122:12195   */\n      swap5\n      pop\n        /* \"#utility.yul\":12077:12205   */\n      pop\n        /* \"#utility.yul\":12244:12246   */\n      0x40\n        /* \"#utility.yul\":12270:12334   */\n      tag_561\n        /* \"#utility.yul\":12326:12333   */\n      dup9\n        /* \"#utility.yul\":12317:12323   */\n      dup3\n        /* \"#utility.yul\":12306:12315   */\n      dup10\n        /* \"#utility.yul\":12302:12324   */\n      add\n        /* \"#utility.yul\":12270:12334   */\n      tag_387\n      jump\t// in\n    tag_561:\n        /* \"#utility.yul\":12260:12334   */\n      swap4\n      pop\n        /* \"#utility.yul\":12215:12344   */\n      pop\n        /* \"#utility.yul\":12383:12385   */\n      0x60\n        /* \"#utility.yul\":12409:12473   */\n      tag_562\n        /* \"#utility.yul\":12465:12472   */\n      dup9\n        /* \"#utility.yul\":12456:12462   */\n      dup3\n        /* \"#utility.yul\":12445:12454   */\n      dup10\n        /* \"#utility.yul\":12441:12463   */\n      add\n        /* \"#utility.yul\":12409:12473   */\n      tag_387\n      jump\t// in\n    tag_562:\n        /* \"#utility.yul\":12399:12473   */\n      swap3\n      pop\n        /* \"#utility.yul\":12354:12483   */\n      pop\n        /* \"#utility.yul\":12522:12525   */\n      0x80\n        /* \"#utility.yul\":12549:12612   */\n      tag_563\n        /* \"#utility.yul\":12604:12611   */\n      dup9\n        /* \"#utility.yul\":12595:12601   */\n      dup3\n        /* \"#utility.yul\":12584:12593   */\n      dup10\n        /* \"#utility.yul\":12580:12602   */\n      add\n        /* \"#utility.yul\":12549:12612   */\n      tag_383\n      jump\t// in\n    tag_563:\n        /* \"#utility.yul\":12539:12612   */\n      swap2\n      pop\n        /* \"#utility.yul\":12493:12622   */\n      pop\n        /* \"#utility.yul\":11658:12629   */\n      swap3\n      swap6\n      pop\n      swap3\n      swap6\n      swap1\n      swap4\n      pop\n      jump\t// out\n        /* \"#utility.yul\":12635:12815   */\n    tag_388:\n        /* \"#utility.yul\":12683:12760   */\n      0x4e487b7100000000000000000000000000000000000000000000000000000000\n        /* \"#utility.yul\":12680:12681   */\n      0x00\n        /* \"#utility.yul\":12673:12761   */\n      mstore\n        /* \"#utility.yul\":12780:12784   */\n      0x11\n        /* \"#utility.yul\":12777:12778   */\n      0x04\n        /* \"#utility.yul\":12770:12785   */\n      mstore\n        /* \"#utility.yul\":12804:12808   */\n      0x24\n        /* \"#utility.yul\":12801:12802   */\n      0x00\n        /* \"#utility.yul\":12794:12809   */\n      revert\n        /* \"#utility.yul\":12821:13015   */\n    tag_169:\n        /* \"#utility.yul\":12861:12865   */\n      0x00\n        /* \"#utility.yul\":12881:12901   */\n      tag_566\n        /* \"#utility.yul\":12899:12900   */\n      dup3\n        /* \"#utility.yul\":12881:12901   */\n      tag_350\n      jump\t// in\n    tag_566:\n        /* \"#utility.yul\":12876:12901   */\n      swap2\n      pop\n        /* \"#utility.yul\":12915:12935   */\n      tag_567\n        /* \"#utility.yul\":12933:12934   */\n      dup4\n        /* \"#utility.yul\":12915:12935   */\n      tag_350\n      jump\t// in\n    tag_567:\n        /* \"#utility.yul\":12910:12935   */\n      swap3\n      pop\n        /* \"#utility.yul\":12959:12960   */\n      dup3\n        /* \"#utility.yul\":12956:12957   */\n      dup3\n        /* \"#utility.yul\":12952:12961   */\n      sub\n        /* \"#utility.yul\":12944:12961   */\n      swap1\n      pop\n        /* \"#utility.yul\":12983:12984   */\n      dup2\n        /* \"#utility.yul\":12977:12981   */\n      dup2\n        /* \"#utility.yul\":12974:12985   */\n      gt\n        /* \"#utility.yul\":12971:13008   */\n      iszero\n      tag_568\n      jumpi\n        /* \"#utility.yul\":12988:13006   */\n      tag_569\n      tag_388\n      jump\t// in\n    tag_569:\n        /* \"#utility.yul\":12971:13008   */\n    tag_568:\n        /* \"#utility.yul\":12821:13015   */\n      swap3\n      swap2\n      pop\n      pop\n      jump\t// out\n        /* \"#utility.yul\":13021:13431   */\n    tag_173:\n        /* \"#utility.yul\":13061:13068   */\n      0x00\n        /* \"#utility.yul\":13084:13104   */\n      tag_571\n        /* \"#utility.yul\":13102:13103   */\n      dup3\n        /* \"#utility.yul\":13084:13104   */\n      tag_350\n      jump\t// in\n    tag_571:\n        /* \"#utility.yul\":13079:13104   */\n      swap2\n      pop\n        /* \"#utility.yul\":13118:13138   */\n      tag_572\n        /* \"#utility.yul\":13136:13137   */\n      dup4\n        /* \"#utility.yul\":13118:13138   */\n      tag_350\n      jump\t// in\n    tag_572:\n        /* \"#utility.yul\":13113:13138   */\n      swap3\n      pop\n        /* \"#utility.yul\":13173:13174   */\n      dup3\n        /* \"#utility.yul\":13170:13171   */\n      dup3\n        /* \"#utility.yul\":13166:13175   */\n      mul\n        /* \"#utility.yul\":13195:13225   */\n      tag_573\n        /* \"#utility.yul\":13213:13224   */\n      dup2\n        /* \"#utility.yul\":13195:13225   */\n      tag_350\n      jump\t// in\n    tag_573:\n        /* \"#utility.yul\":13184:13225   */\n      swap2\n      pop\n        /* \"#utility.yul\":13374:13375   */\n      dup3\n        /* \"#utility.yul\":13365:13372   */\n      dup3\n        /* \"#utility.yul\":13361:13376   */\n      div\n        /* \"#utility.yul\":13358:13359   */\n      dup5\n        /* \"#utility.yul\":13355:13377   */\n      eq\n        /* \"#utility.yul\":13335:13336   */\n      dup4\n        /* \"#utility.yul\":13328:13337   */\n      iszero\n        /* \"#utility.yul\":13308:13391   */\n      or\n        /* \"#utility.yul\":13285:13424   */\n      tag_574\n      jumpi\n        /* \"#utility.yul\":13404:13422   */\n      tag_575\n      tag_388\n      jump\t// in\n    tag_575:\n        /* \"#utility.yul\":13285:13424   */\n    tag_574:\n        /* \"#utility.yul\":13069:13431   */\n      pop\n        /* \"#utility.yul\":13021:13431   */\n      swap3\n      swap2\n      pop\n      pop\n      jump\t// out\n        /* \"#utility.yul\":13437:13617   */\n    tag_389:\n        /* \"#utility.yul\":13485:13562   */\n      0x4e487b7100000000000000000000000000000000000000000000000000000000\n        /* \"#utility.yul\":13482:13483   */\n      0x00\n        /* \"#utility.yul\":13475:13563   */\n      mstore\n        /* \"#utility.yul\":13582:13586   */\n      0x12\n        /* \"#utility.yul\":13579:13580   */\n      0x04\n        /* \"#utility.yul\":13572:13587   */\n      mstore\n        /* \"#utility.yul\":13606:13610   */\n      0x24\n        /* \"#utility.yul\":13603:13604   */\n      0x00\n        /* \"#utility.yul\":13596:13611   */\n      revert\n        /* \"#utility.yul\":13623:13808   */\n    tag_175:\n        /* \"#utility.yul\":13663:13664   */\n      0x00\n        /* \"#utility.yul\":13680:13700   */\n      tag_578\n        /* \"#utility.yul\":13698:13699   */\n      dup3\n        /* \"#utility.yul\":13680:13700   */\n      tag_350\n      jump\t// in\n    tag_578:\n        /* \"#utility.yul\":13675:13700   */\n      swap2\n      pop\n        /* \"#utility.yul\":13714:13734   */\n      tag_579\n        /* \"#utility.yul\":13732:13733   */\n      dup4\n        /* \"#utility.yul\":13714:13734   */\n      tag_350\n      jump\t// in\n    tag_579:\n        /* \"#utility.yul\":13709:13734   */\n      swap3\n      pop\n        /* \"#utility.yul\":13753:13754   */\n      dup3\n        /* \"#utility.yul\":13743:13778   */\n      tag_580\n      jumpi\n        /* \"#utility.yul\":13758:13776   */\n      tag_581\n      tag_389\n      jump\t// in\n    tag_581:\n        /* \"#utility.yul\":13743:13778   */\n    tag_580:\n        /* \"#utility.yul\":13800:13801   */\n      dup3\n        /* \"#utility.yul\":13797:13798   */\n      dup3\n        /* \"#utility.yul\":13793:13802   */\n      div\n        /* \"#utility.yul\":13788:13802   */\n      swap1\n      pop\n        /* \"#utility.yul\":13623:13808   */\n      swap3\n      swap2\n      pop\n      pop\n      jump\t// out\n        /* \"#utility.yul\":13814:13983   */\n    tag_390:\n        /* \"#utility.yul\":13898:13909   */\n      0x00\n        /* \"#utility.yul\":13932:13938   */\n      dup3\n        /* \"#utility.yul\":13927:13930   */\n      dup3\n        /* \"#utility.yul\":13920:13939   */\n      mstore\n        /* \"#utility.yul\":13972:13976   */\n      0x20\n        /* \"#utility.yul\":13967:13970   */\n      dup3\n        /* \"#utility.yul\":13963:13977   */\n      add\n        /* \"#utility.yul\":13948:13977   */\n      swap1\n      pop\n        /* \"#utility.yul\":13814:13983   */\n      swap3\n      swap2\n      pop\n      pop\n      jump\t// out\n        /* \"#utility.yul\":13989:14210   */\n    tag_391:\n        /* \"#utility.yul\":14129:14163   */\n      0x416d6f756e7473206d7573742062652067726561746572207468616e207a6572\n        /* \"#utility.yul\":14125:14126   */\n      0x00\n        /* \"#utility.yul\":14117:14123   */\n      dup3\n        /* \"#utility.yul\":14113:14127   */\n      add\n        /* \"#utility.yul\":14106:14164   */\n      mstore\n        /* \"#utility.yul\":14198:14202   */\n      0x6f2e000000000000000000000000000000000000000000000000000000000000\n        /* \"#utility.yul\":14193:14195   */\n      0x20\n        /* \"#utility.yul\":14185:14191   */\n      dup3\n        /* \"#utility.yul\":14181:14196   */\n      add\n        /* \"#utility.yul\":14174:14203   */\n      mstore\n        /* \"#utility.yul\":13989:14210   */\n      pop\n      jump\t// out\n        /* \"#utility.yul\":14216:14582   */\n    tag_392:\n        /* \"#utility.yul\":14358:14361   */\n      0x00\n        /* \"#utility.yul\":14379:14446   */\n      tag_585\n        /* \"#utility.yul\":14443:14445   */\n      0x22\n        /* \"#utility.yul\":14438:14441   */\n      dup4\n        /* \"#utility.yul\":14379:14446   */\n      tag_390\n      jump\t// in\n    tag_585:\n        /* \"#utility.yul\":14372:14446   */\n      swap2\n      pop\n        /* \"#utility.yul\":14455:14548   */\n      tag_586\n        /* \"#utility.yul\":14544:14547   */\n      dup3\n        /* \"#utility.yul\":14455:14548   */\n      tag_391\n      jump\t// in\n    tag_586:\n        /* \"#utility.yul\":14573:14575   */\n      0x40\n        /* \"#utility.yul\":14568:14571   */\n      dup3\n        /* \"#utility.yul\":14564:14576   */\n      add\n        /* \"#utility.yul\":14557:14576   */\n      swap1\n      pop\n        /* \"#utility.yul\":14216:14582   */\n      swap2\n      swap1\n      pop\n      jump\t// out\n        /* \"#utility.yul\":14588:15007   */\n    tag_190:\n        /* \"#utility.yul\":14754:14758   */\n      0x00\n        /* \"#utility.yul\":14792:14794   */\n      0x20\n        /* \"#utility.yul\":14781:14790   */\n      dup3\n        /* \"#utility.yul\":14777:14795   */\n      add\n        /* \"#utility.yul\":14769:14795   */\n      swap1\n      pop\n        /* \"#utility.yul\":14841:14850   */\n      dup2\n        /* \"#utility.yul\":14835:14839   */\n      dup2\n        /* \"#utility.yul\":14831:14851   */\n      sub\n        /* \"#utility.yul\":14827:14828   */\n      0x00\n        /* \"#utility.yul\":14816:14825   */\n      dup4\n        /* \"#utility.yul\":14812:14829   */\n      add\n        /* \"#utility.yul\":14805:14852   */\n      mstore\n        /* \"#utility.yul\":14869:15000   */\n      tag_588\n        /* \"#utility.yul\":14995:14999   */\n      dup2\n        /* \"#utility.yul\":14869:15000   */\n      tag_392\n      jump\t// in\n    tag_588:\n        /* \"#utility.yul\":14861:15000   */\n      swap1\n      pop\n        /* \"#utility.yul\":14588:15007   */\n      swap2\n      swap1\n      pop\n      jump\t// out\n        /* \"#utility.yul\":15013:15186   */\n    tag_393:\n        /* \"#utility.yul\":15153:15178   */\n      0x45786365656473206d6178206f726465722073697a652e000000000000000000\n        /* \"#utility.yul\":15149:15150   */\n      0x00\n        /* \"#utility.yul\":15141:15147   */\n      dup3\n        /* \"#utility.yul\":15137:15151   */\n      add\n        /* \"#utility.yul\":15130:15179   */\n      mstore\n        /* \"#utility.yul\":15013:15186   */\n      pop\n      jump\t// out\n        /* \"#utility.yul\":15192:15558   */\n    tag_394:\n        /* \"#utility.yul\":15334:15337   */\n      0x00\n        /* \"#utility.yul\":15355:15422   */\n      tag_591\n        /* \"#utility.yul\":15419:15421   */\n      0x17\n        /* \"#utility.yul\":15414:15417   */\n      dup4\n        /* \"#utility.yul\":15355:15422   */\n      tag_390\n      jump\t// in\n    tag_591:\n        /* \"#utility.yul\":15348:15422   */\n      swap2\n      pop\n        /* \"#utility.yul\":15431:15524   */\n      tag_592\n        /* \"#utility.yul\":15520:15523   */\n      dup3\n        /* \"#utility.yul\":15431:15524   */\n      tag_393\n      jump\t// in\n    tag_592:\n        /* \"#utility.yul\":15549:15551   */\n      0x20\n        /* \"#utility.yul\":15544:15547   */\n      dup3\n        /* \"#utility.yul\":15540:15552   */\n      add\n        /* \"#utility.yul\":15533:15552   */\n      swap1\n      pop\n        /* \"#utility.yul\":15192:15558   */\n      swap2\n      swap1\n      pop\n      jump\t// out\n        /* \"#utility.yul\":15564:15983   */\n    tag_194:\n        /* \"#utility.yul\":15730:15734   */\n      0x00\n        /* \"#utility.yul\":15768:15770   */\n      0x20\n        /* \"#utility.yul\":15757:15766   */\n      dup3\n        /* \"#utility.yul\":15753:15771   */\n      add\n        /* \"#utility.yul\":15745:15771   */\n      swap1\n      pop\n        /* \"#utility.yul\":15817:15826   */\n      dup2\n        /* \"#utility.yul\":15811:15815   */\n      dup2\n        /* \"#utility.yul\":15807:15827   */\n      sub\n        /* \"#utility.yul\":15803:15804   */\n      0x00\n        /* \"#utility.yul\":15792:15801   */\n      dup4\n        /* \"#utility.yul\":15788:15805   */\n      add\n        /* \"#utility.yul\":15781:15828   */\n      mstore\n        /* \"#utility.yul\":15845:15976   */\n      tag_594\n        /* \"#utility.yul\":15971:15975   */\n      dup2\n        /* \"#utility.yul\":15845:15976   */\n      tag_394\n      jump\t// in\n    tag_594:\n        /* \"#utility.yul\":15837:15976   */\n      swap1\n      pop\n        /* \"#utility.yul\":15564:15983   */\n      swap2\n      swap1\n      pop\n      jump\t// out\n        /* \"#utility.yul\":15989:16321   */\n    tag_196:\n        /* \"#utility.yul\":16110:16114   */\n      0x00\n        /* \"#utility.yul\":16148:16150   */\n      0x40\n        /* \"#utility.yul\":16137:16146   */\n      dup3\n        /* \"#utility.yul\":16133:16151   */\n      add\n        /* \"#utility.yul\":16125:16151   */\n      swap1\n      pop\n        /* \"#utility.yul\":16161:16232   */\n      tag_596\n        /* \"#utility.yul\":16229:16230   */\n      0x00\n        /* \"#utility.yul\":16218:16227   */\n      dup4\n        /* \"#utility.yul\":16214:16231   */\n      add\n        /* \"#utility.yul\":16205:16211   */\n      dup6\n        /* \"#utility.yul\":16161:16232   */\n      tag_375\n      jump\t// in\n    tag_596:\n        /* \"#utility.yul\":16242:16314   */\n      tag_597\n        /* \"#utility.yul\":16310:16312   */\n      0x20\n        /* \"#utility.yul\":16299:16308   */\n      dup4\n        /* \"#utility.yul\":16295:16313   */\n      add\n        /* \"#utility.yul\":16286:16292   */\n      dup5\n        /* \"#utility.yul\":16242:16314   */\n      tag_351\n      jump\t// in\n    tag_597:\n        /* \"#utility.yul\":15989:16321   */\n      swap4\n      swap3\n      pop\n      pop\n      pop\n      jump\t// out\n        /* \"#utility.yul\":16327:16443   */\n    tag_395:\n        /* \"#utility.yul\":16397:16418   */\n      tag_599\n        /* \"#utility.yul\":16412:16417   */\n      dup2\n        /* \"#utility.yul\":16397:16418   */\n      tag_363\n      jump\t// in\n    tag_599:\n        /* \"#utility.yul\":16390:16395   */\n      dup2\n        /* \"#utility.yul\":16387:16419   */\n      eq\n        /* \"#utility.yul\":16377:16437   */\n      tag_600\n      jumpi\n        /* \"#utility.yul\":16433:16434   */\n      0x00\n        /* \"#utility.yul\":16430:16431   */\n      dup1\n        /* \"#utility.yul\":16423:16435   */\n      revert\n        /* \"#utility.yul\":16377:16437   */\n    tag_600:\n        /* \"#utility.yul\":16327:16443   */\n      pop\n      jump\t// out\n        /* \"#utility.yul\":16449:16586   */\n    tag_396:\n        /* \"#utility.yul\":16503:16508   */\n      0x00\n        /* \"#utility.yul\":16534:16540   */\n      dup2\n        /* \"#utility.yul\":16528:16541   */\n      mload\n        /* \"#utility.yul\":16519:16541   */\n      swap1\n      pop\n        /* \"#utility.yul\":16550:16580   */\n      tag_602\n        /* \"#utility.yul\":16574:16579   */\n      dup2\n        /* \"#utility.yul\":16550:16580   */\n      tag_395\n      jump\t// in\n    tag_602:\n        /* \"#utility.yul\":16449:16586   */\n      swap3\n      swap2\n      pop\n      pop\n      jump\t// out\n        /* \"#utility.yul\":16592:16937   */\n    tag_200:\n        /* \"#utility.yul\":16659:16665   */\n      0x00\n        /* \"#utility.yul\":16708:16710   */\n      0x20\n        /* \"#utility.yul\":16696:16705   */\n      dup3\n        /* \"#utility.yul\":16687:16694   */\n      dup5\n        /* \"#utility.yul\":16683:16706   */\n      sub\n        /* \"#utility.yul\":16679:16711   */\n      slt\n        /* \"#utility.yul\":16676:16795   */\n      iszero\n      tag_604\n      jumpi\n        /* \"#utility.yul\":16714:16793   */\n      tag_605\n      tag_353\n      jump\t// in\n    tag_605:\n        /* \"#utility.yul\":16676:16795   */\n    tag_604:\n        /* \"#utility.yul\":16834:16835   */\n      0x00\n        /* \"#utility.yul\":16859:16920   */\n      tag_606\n        /* \"#utility.yul\":16912:16919   */\n      dup5\n        /* \"#utility.yul\":16903:16909   */\n      dup3\n        /* \"#utility.yul\":16892:16901   */\n      dup6\n        /* \"#utility.yul\":16888:16910   */\n      add\n        /* \"#utility.yul\":16859:16920   */\n      tag_396\n      jump\t// in\n    tag_606:\n        /* \"#utility.yul\":16849:16920   */\n      swap2\n      pop\n        /* \"#utility.yul\":16805:16930   */\n      pop\n        /* \"#utility.yul\":16592:16937   */\n      swap3\n      swap2\n      pop\n      pop\n      jump\t// out\n        /* \"#utility.yul\":16943:17028   */\n    tag_397:\n        /* \"#utility.yul\":16988:16995   */\n      0x00\n        /* \"#utility.yul\":17017:17022   */\n      dup2\n        /* \"#utility.yul\":17006:17022   */\n      swap1\n      pop\n        /* \"#utility.yul\":16943:17028   */\n      swap2\n      swap1\n      pop\n      jump\t// out\n        /* \"#utility.yul\":17034:17192   */\n    tag_398:\n        /* \"#utility.yul\":17092:17101   */\n      0x00\n        /* \"#utility.yul\":17125:17186   */\n      tag_609\n        /* \"#utility.yul\":17143:17185   */\n      tag_610\n        /* \"#utility.yul\":17152:17184   */\n      tag_611\n        /* \"#utility.yul\":17178:17183   */\n      dup5\n        /* \"#utility.yul\":17152:17184   */\n      tag_397\n      jump\t// in\n    tag_611:\n        /* \"#utility.yul\":17143:17185   */\n      tag_345\n      jump\t// in\n    tag_610:\n        /* \"#utility.yul\":17125:17186   */\n      tag_350\n      jump\t// in\n    tag_609:\n        /* \"#utility.yul\":17112:17186   */\n      swap1\n      pop\n        /* \"#utility.yul\":17034:17192   */\n      swap2\n      swap1\n      pop\n      jump\t// out\n        /* \"#utility.yul\":17198:17345   */\n    tag_399:\n        /* \"#utility.yul\":17293:17338   */\n      tag_613\n        /* \"#utility.yul\":17332:17337   */\n      dup2\n        /* \"#utility.yul\":17293:17338   */\n      tag_398\n      jump\t// in\n    tag_613:\n        /* \"#utility.yul\":17288:17291   */\n      dup3\n        /* \"#utility.yul\":17281:17339   */\n      mstore\n        /* \"#utility.yul\":17198:17345   */\n      pop\n      pop\n      jump\t// out\n        /* \"#utility.yul\":17351:18380   */\n    tag_206:\n        /* \"#utility.yul\":17656:17660   */\n      0x00\n        /* \"#utility.yul\":17694:17697   */\n      0x0100\n        /* \"#utility.yul\":17683:17692   */\n      dup3\n        /* \"#utility.yul\":17679:17698   */\n      add\n        /* \"#utility.yul\":17671:17698   */\n      swap1\n      pop\n        /* \"#utility.yul\":17708:17779   */\n      tag_615\n        /* \"#utility.yul\":17776:17777   */\n      0x00\n        /* \"#utility.yul\":17765:17774   */\n      dup4\n        /* \"#utility.yul\":17761:17778   */\n      add\n        /* \"#utility.yul\":17752:17758   */\n      dup12\n        /* \"#utility.yul\":17708:17779   */\n      tag_375\n      jump\t// in\n    tag_615:\n        /* \"#utility.yul\":17789:17861   */\n      tag_616\n        /* \"#utility.yul\":17857:17859   */\n      0x20\n        /* \"#utility.yul\":17846:17855   */\n      dup4\n        /* \"#utility.yul\":17842:17860   */\n      add\n        /* \"#utility.yul\":17833:17839   */\n      dup11\n        /* \"#utility.yul\":17789:17861   */\n      tag_375\n      jump\t// in\n    tag_616:\n        /* \"#utility.yul\":17871:17943   */\n      tag_617\n        /* \"#utility.yul\":17939:17941   */\n      0x40\n        /* \"#utility.yul\":17928:17937   */\n      dup4\n        /* \"#utility.yul\":17924:17942   */\n      add\n        /* \"#utility.yul\":17915:17921   */\n      dup10\n        /* \"#utility.yul\":17871:17943   */\n      tag_351\n      jump\t// in\n    tag_617:\n        /* \"#utility.yul\":17953:18025   */\n      tag_618\n        /* \"#utility.yul\":18021:18023   */\n      0x60\n        /* \"#utility.yul\":18010:18019   */\n      dup4\n        /* \"#utility.yul\":18006:18024   */\n      add\n        /* \"#utility.yul\":17997:18003   */\n      dup9\n        /* \"#utility.yul\":17953:18025   */\n      tag_351\n      jump\t// in\n    tag_618:\n        /* \"#utility.yul\":18035:18116   */\n      tag_619\n        /* \"#utility.yul\":18111:18114   */\n      0x80\n        /* \"#utility.yul\":18100:18109   */\n      dup4\n        /* \"#utility.yul\":18096:18115   */\n      add\n        /* \"#utility.yul\":18087:18093   */\n      dup8\n        /* \"#utility.yul\":18035:18116   */\n      tag_399\n      jump\t// in\n    tag_619:\n        /* \"#utility.yul\":18126:18207   */\n      tag_620\n        /* \"#utility.yul\":18202:18205   */\n      0xa0\n        /* \"#utility.yul\":18191:18200   */\n      dup4\n        /* \"#utility.yul\":18187:18206   */\n      add\n        /* \"#utility.yul\":18178:18184   */\n      dup7\n        /* \"#utility.yul\":18126:18207   */\n      tag_399\n      jump\t// in\n    tag_620:\n        /* \"#utility.yul\":18217:18290   */\n      tag_621\n        /* \"#utility.yul\":18285:18288   */\n      0xc0\n        /* \"#utility.yul\":18274:18283   */\n      dup4\n        /* \"#utility.yul\":18270:18289   */\n      add\n        /* \"#utility.yul\":18261:18267   */\n      dup6\n        /* \"#utility.yul\":18217:18290   */\n      tag_375\n      jump\t// in\n    tag_621:\n        /* \"#utility.yul\":18300:18373   */\n      tag_622\n        /* \"#utility.yul\":18368:18371   */\n      0xe0\n        /* \"#utility.yul\":18357:18366   */\n      dup4\n        /* \"#utility.yul\":18353:18372   */\n      add\n        /* \"#utility.yul\":18344:18350   */\n      dup5\n        /* \"#utility.yul\":18300:18373   */\n      tag_351\n      jump\t// in\n    tag_622:\n        /* \"#utility.yul\":17351:18380   */\n      swap10\n      swap9\n      pop\n      pop\n      pop\n      pop\n      pop\n      pop\n      pop\n      pop\n      pop\n      jump\t// out\n        /* \"#utility.yul\":18386:19049   */\n    tag_210:\n        /* \"#utility.yul\":18474:18480   */\n      0x00\n        /* \"#utility.yul\":18482:18488   */\n      dup1\n        /* \"#utility.yul\":18490:18496   */\n      0x00\n        /* \"#utility.yul\":18539:18541   */\n      0x60\n        /* \"#utility.yul\":18527:18536   */\n      dup5\n        /* \"#utility.yul\":18518:18525   */\n      dup7\n        /* \"#utility.yul\":18514:18537   */\n      sub\n        /* \"#utility.yul\":18510:18542   */\n      slt\n        /* \"#utility.yul\":18507:18626   */\n      iszero\n      tag_624\n      jumpi\n        /* \"#utility.yul\":18545:18624   */\n      tag_625\n      tag_353\n      jump\t// in\n    tag_625:\n        /* \"#utility.yul\":18507:18626   */\n    tag_624:\n        /* \"#utility.yul\":18665:18666   */\n      0x00\n        /* \"#utility.yul\":18690:18754   */\n      tag_626\n        /* \"#utility.yul\":18746:18753   */\n      dup7\n        /* \"#utility.yul\":18737:18743   */\n      dup3\n        /* \"#utility.yul\":18726:18735   */\n      dup8\n        /* \"#utility.yul\":18722:18744   */\n      add\n        /* \"#utility.yul\":18690:18754   */\n      tag_387\n      jump\t// in\n    tag_626:\n        /* \"#utility.yul\":18680:18754   */\n      swap4\n      pop\n        /* \"#utility.yul\":18636:18764   */\n      pop\n        /* \"#utility.yul\":18803:18805   */\n      0x20\n        /* \"#utility.yul\":18829:18893   */\n      tag_627\n        /* \"#utility.yul\":18885:18892   */\n      dup7\n        /* \"#utility.yul\":18876:18882   */\n      dup3\n        /* \"#utility.yul\":18865:18874   */\n      dup8\n        /* \"#utility.yul\":18861:18883   */\n      add\n        /* \"#utility.yul\":18829:18893   */\n      tag_387\n      jump\t// in\n    tag_627:\n        /* \"#utility.yul\":18819:18893   */\n      swap3\n      pop\n        /* \"#utility.yul\":18774:18903   */\n      pop\n        /* \"#utility.yul\":18942:18944   */\n      0x40\n        /* \"#utility.yul\":18968:19032   */\n      tag_628\n        /* \"#utility.yul\":19024:19031   */\n      dup7\n        /* \"#utility.yul\":19015:19021   */\n      dup3\n        /* \"#utility.yul\":19004:19013   */\n      dup8\n        /* \"#utility.yul\":19000:19022   */\n      add\n        /* \"#utility.yul\":18968:19032   */\n      tag_387\n      jump\t// in\n    tag_628:\n        /* \"#utility.yul\":18958:19032   */\n      swap2\n      pop\n        /* \"#utility.yul\":18913:19042   */\n      pop\n        /* \"#utility.yul\":18386:19049   */\n      swap3\n      pop\n      swap3\n      pop\n      swap3\n      jump\t// out\n        /* \"#utility.yul\":19055:19387   */\n    tag_212:\n        /* \"#utility.yul\":19176:19180   */\n      0x00\n        /* \"#utility.yul\":19214:19216   */\n      0x40\n        /* \"#utility.yul\":19203:19212   */\n      dup3\n        /* \"#utility.yul\":19199:19217   */\n      add\n        /* \"#utility.yul\":19191:19217   */\n      swap1\n      pop\n        /* \"#utility.yul\":19227:19298   */\n      tag_630\n        /* \"#utility.yul\":19295:19296   */\n      0x00\n        /* \"#utility.yul\":19284:19293   */\n      dup4\n        /* \"#utility.yul\":19280:19297   */\n      add\n        /* \"#utility.yul\":19271:19277   */\n      dup6\n        /* \"#utility.yul\":19227:19298   */\n      tag_351\n      jump\t// in\n    tag_630:\n        /* \"#utility.yul\":19308:19380   */\n      tag_631\n        /* \"#utility.yul\":19376:19378   */\n      0x20\n        /* \"#utility.yul\":19365:19374   */\n      dup4\n        /* \"#utility.yul\":19361:19379   */\n      add\n        /* \"#utility.yul\":19352:19358   */\n      dup5\n        /* \"#utility.yul\":19308:19380   */\n      tag_351\n      jump\t// in\n    tag_631:\n        /* \"#utility.yul\":19055:19387   */\n      swap4\n      swap3\n      pop\n      pop\n      pop\n      jump\t// out\n        /* \"#utility.yul\":19393:19616   */\n    tag_400:\n        /* \"#utility.yul\":19533:19567   */\n      0x4c6971756964697479206d7573742062652067726561746572207468616e207a\n        /* \"#utility.yul\":19529:19530   */\n      0x00\n        /* \"#utility.yul\":19521:19527   */\n      dup3\n        /* \"#utility.yul\":19517:19531   */\n      add\n        /* \"#utility.yul\":19510:19568   */\n      mstore\n        /* \"#utility.yul\":19602:19608   */\n      0x65726f2e00000000000000000000000000000000000000000000000000000000\n        /* \"#utility.yul\":19597:19599   */\n      0x20\n        /* \"#utility.yul\":19589:19595   */\n      dup3\n        /* \"#utility.yul\":19585:19600   */\n      add\n        /* \"#utility.yul\":19578:19609   */\n      mstore\n        /* \"#utility.yul\":19393:19616   */\n      pop\n      jump\t// out\n        /* \"#utility.yul\":19622:19988   */\n    tag_401:\n        /* \"#utility.yul\":19764:19767   */\n      0x00\n        /* \"#utility.yul\":19785:19852   */\n      tag_634\n        /* \"#utility.yul\":19849:19851   */\n      0x24\n        /* \"#utility.yul\":19844:19847   */\n      dup4\n        /* \"#utility.yul\":19785:19852   */\n      tag_390\n      jump\t// in\n    tag_634:\n        /* \"#utility.yul\":19778:19852   */\n      swap2\n      pop\n        /* \"#utility.yul\":19861:19954   */\n      tag_635\n        /* \"#utility.yul\":19950:19953   */\n      dup3\n        /* \"#utility.yul\":19861:19954   */\n      tag_400\n      jump\t// in\n    tag_635:\n        /* \"#utility.yul\":19979:19981   */\n      0x40\n        /* \"#utility.yul\":19974:19977   */\n      dup3\n        /* \"#utility.yul\":19970:19982   */\n      add\n        /* \"#utility.yul\":19963:19982   */\n      swap1\n      pop\n        /* \"#utility.yul\":19622:19988   */\n      swap2\n      swap1\n      pop\n      jump\t// out\n        /* \"#utility.yul\":19994:20413   */\n    tag_221:\n        /* \"#utility.yul\":20160:20164   */\n      0x00\n        /* \"#utility.yul\":20198:20200   */\n      0x20\n        /* \"#utility.yul\":20187:20196   */\n      dup3\n        /* \"#utility.yul\":20183:20201   */\n      add\n        /* \"#utility.yul\":20175:20201   */\n      swap1\n      pop\n        /* \"#utility.yul\":20247:20256   */\n      dup2\n        /* \"#utility.yul\":20241:20245   */\n      dup2\n        /* \"#utility.yul\":20237:20257   */\n      sub\n        /* \"#utility.yul\":20233:20234   */\n      0x00\n        /* \"#utility.yul\":20222:20231   */\n      dup4\n        /* \"#utility.yul\":20218:20235   */\n      add\n        /* \"#utility.yul\":20211:20258   */\n      mstore\n        /* \"#utility.yul\":20275:20406   */\n      tag_637\n        /* \"#utility.yul\":20401:20405   */\n      dup2\n        /* \"#utility.yul\":20275:20406   */\n      tag_401\n      jump\t// in\n    tag_637:\n        /* \"#utility.yul\":20267:20406   */\n      swap1\n      pop\n        /* \"#utility.yul\":19994:20413   */\n      swap2\n      swap1\n      pop\n      jump\t// out\n        /* \"#utility.yul\":20419:21337   */\n    tag_227:\n        /* \"#utility.yul\":20696:20700   */\n      0x00\n        /* \"#utility.yul\":20734:20737   */\n      0xe0\n        /* \"#utility.yul\":20723:20732   */\n      dup3\n        /* \"#utility.yul\":20719:20738   */\n      add\n        /* \"#utility.yul\":20711:20738   */\n      swap1\n      pop\n        /* \"#utility.yul\":20748:20819   */\n      tag_639\n        /* \"#utility.yul\":20816:20817   */\n      0x00\n        /* \"#utility.yul\":20805:20814   */\n      dup4\n        /* \"#utility.yul\":20801:20818   */\n      add\n        /* \"#utility.yul\":20792:20798   */\n      dup11\n        /* \"#utility.yul\":20748:20819   */\n      tag_375\n      jump\t// in\n    tag_639:\n        /* \"#utility.yul\":20829:20901   */\n      tag_640\n        /* \"#utility.yul\":20897:20899   */\n      0x20\n        /* \"#utility.yul\":20886:20895   */\n      dup4\n        /* \"#utility.yul\":20882:20900   */\n      add\n        /* \"#utility.yul\":20873:20879   */\n      dup10\n        /* \"#utility.yul\":20829:20901   */\n      tag_375\n      jump\t// in\n    tag_640:\n        /* \"#utility.yul\":20911:20983   */\n      tag_641\n        /* \"#utility.yul\":20979:20981   */\n      0x40\n        /* \"#utility.yul\":20968:20977   */\n      dup4\n        /* \"#utility.yul\":20964:20982   */\n      add\n        /* \"#utility.yul\":20955:20961   */\n      dup9\n        /* \"#utility.yul\":20911:20983   */\n      tag_351\n      jump\t// in\n    tag_641:\n        /* \"#utility.yul\":20993:21073   */\n      tag_642\n        /* \"#utility.yul\":21069:21071   */\n      0x60\n        /* \"#utility.yul\":21058:21067   */\n      dup4\n        /* \"#utility.yul\":21054:21072   */\n      add\n        /* \"#utility.yul\":21045:21051   */\n      dup8\n        /* \"#utility.yul\":20993:21073   */\n      tag_399\n      jump\t// in\n    tag_642:\n        /* \"#utility.yul\":21083:21164   */\n      tag_643\n        /* \"#utility.yul\":21159:21162   */\n      0x80\n        /* \"#utility.yul\":21148:21157   */\n      dup4\n        /* \"#utility.yul\":21144:21163   */\n      add\n        /* \"#utility.yul\":21135:21141   */\n      dup7\n        /* \"#utility.yul\":21083:21164   */\n      tag_399\n      jump\t// in\n    tag_643:\n        /* \"#utility.yul\":21174:21247   */\n      tag_644\n        /* \"#utility.yul\":21242:21245   */\n      0xa0\n        /* \"#utility.yul\":21231:21240   */\n      dup4\n        /* \"#utility.yul\":21227:21246   */\n      add\n        /* \"#utility.yul\":21218:21224   */\n      dup6\n        /* \"#utility.yul\":21174:21247   */\n      tag_375\n      jump\t// in\n    tag_644:\n        /* \"#utility.yul\":21257:21330   */\n      tag_645\n        /* \"#utility.yul\":21325:21328   */\n      0xc0\n        /* \"#utility.yul\":21314:21323   */\n      dup4\n        /* \"#utility.yul\":21310:21329   */\n      add\n        /* \"#utility.yul\":21301:21307   */\n      dup5\n        /* \"#utility.yul\":21257:21330   */\n      tag_351\n      jump\t// in\n    tag_645:\n        /* \"#utility.yul\":20419:21337   */\n      swap9\n      swap8\n      pop\n      pop\n      pop\n      pop\n      pop\n      pop\n      pop\n      pop\n      jump\t// out\n        /* \"#utility.yul\":21343:21850   */\n    tag_231:\n        /* \"#utility.yul\":21422:21428   */\n      0x00\n        /* \"#utility.yul\":21430:21436   */\n      dup1\n        /* \"#utility.yul\":21479:21481   */\n      0x40\n        /* \"#utility.yul\":21467:21476   */\n      dup4\n        /* \"#utility.yul\":21458:21465   */\n      dup6\n        /* \"#utility.yul\":21454:21477   */\n      sub\n        /* \"#utility.yul\":21450:21482   */\n      slt\n        /* \"#utility.yul\":21447:21566   */\n      iszero\n      tag_647\n      jumpi\n        /* \"#utility.yul\":21485:21564   */\n      tag_648\n      tag_353\n      jump\t// in\n    tag_648:\n        /* \"#utility.yul\":21447:21566   */\n    tag_647:\n        /* \"#utility.yul\":21605:21606   */\n      0x00\n        /* \"#utility.yul\":21630:21694   */\n      tag_649\n        /* \"#utility.yul\":21686:21693   */\n      dup6\n        /* \"#utility.yul\":21677:21683   */\n      dup3\n        /* \"#utility.yul\":21666:21675   */\n      dup7\n        /* \"#utility.yul\":21662:21684   */\n      add\n        /* \"#utility.yul\":21630:21694   */\n      tag_387\n      jump\t// in\n    tag_649:\n        /* \"#utility.yul\":21620:21694   */\n      swap3\n      pop\n        /* \"#utility.yul\":21576:21704   */\n      pop\n        /* \"#utility.yul\":21743:21745   */\n      0x20\n        /* \"#utility.yul\":21769:21833   */\n      tag_650\n        /* \"#utility.yul\":21825:21832   */\n      dup6\n        /* \"#utility.yul\":21816:21822   */\n      dup3\n        /* \"#utility.yul\":21805:21814   */\n      dup7\n        /* \"#utility.yul\":21801:21823   */\n      add\n        /* \"#utility.yul\":21769:21833   */\n      tag_387\n      jump\t// in\n    tag_650:\n        /* \"#utility.yul\":21759:21833   */\n      swap2\n      pop\n        /* \"#utility.yul\":21714:21843   */\n      pop\n        /* \"#utility.yul\":21343:21850   */\n      swap3\n      pop\n      swap3\n      swap1\n      pop\n      jump\t// out\n        /* \"#utility.yul\":21856:22076   */\n    tag_402:\n        /* \"#utility.yul\":21996:22030   */\n      0x416d6f756e74206d7573742062652067726561746572207468616e207a65726f\n        /* \"#utility.yul\":21992:21993   */\n      0x00\n        /* \"#utility.yul\":21984:21990   */\n      dup3\n        /* \"#utility.yul\":21980:21994   */\n      add\n        /* \"#utility.yul\":21973:22031   */\n      mstore\n        /* \"#utility.yul\":22065:22068   */\n      0x2e00000000000000000000000000000000000000000000000000000000000000\n        /* \"#utility.yul\":22060:22062   */\n      0x20\n        /* \"#utility.yul\":22052:22058   */\n      dup3\n        /* \"#utility.yul\":22048:22063   */\n      add\n        /* \"#utility.yul\":22041:22069   */\n      mstore\n        /* \"#utility.yul\":21856:22076   */\n      pop\n      jump\t// out\n        /* \"#utility.yul\":22082:22448   */\n    tag_403:\n        /* \"#utility.yul\":22224:22227   */\n      0x00\n        /* \"#utility.yul\":22245:22312   */\n      tag_653\n        /* \"#utility.yul\":22309:22311   */\n      0x21\n        /* \"#utility.yul\":22304:22307   */\n      dup4\n        /* \"#utility.yul\":22245:22312   */\n      tag_390\n      jump\t// in\n    tag_653:\n        /* \"#utility.yul\":22238:22312   */\n      swap2\n      pop\n        /* \"#utility.yul\":22321:22414   */\n      tag_654\n        /* \"#utility.yul\":22410:22413   */\n      dup3\n        /* \"#utility.yul\":22321:22414   */\n      tag_402\n      jump\t// in\n    tag_654:\n        /* \"#utility.yul\":22439:22441   */\n      0x40\n        /* \"#utility.yul\":22434:22437   */\n      dup3\n        /* \"#utility.yul\":22430:22442   */\n      add\n        /* \"#utility.yul\":22423:22442   */\n      swap1\n      pop\n        /* \"#utility.yul\":22082:22448   */\n      swap2\n      swap1\n      pop\n      jump\t// out\n        /* \"#utility.yul\":22454:22873   */\n    tag_241:\n        /* \"#utility.yul\":22620:22624   */\n      0x00\n        /* \"#utility.yul\":22658:22660   */\n      0x20\n        /* \"#utility.yul\":22647:22656   */\n      dup3\n        /* \"#utility.yul\":22643:22661   */\n      add\n        /* \"#utility.yul\":22635:22661   */\n      swap1\n      pop\n        /* \"#utility.yul\":22707:22716   */\n      dup2\n        /* \"#utility.yul\":22701:22705   */\n      dup2\n        /* \"#utility.yul\":22697:22717   */\n      sub\n        /* \"#utility.yul\":22693:22694   */\n      0x00\n        /* \"#utility.yul\":22682:22691   */\n      dup4\n        /* \"#utility.yul\":22678:22695   */\n      add\n        /* \"#utility.yul\":22671:22718   */\n      mstore\n        /* \"#utility.yul\":22735:22866   */\n      tag_656\n        /* \"#utility.yul\":22861:22865   */\n      dup2\n        /* \"#utility.yul\":22735:22866   */\n      tag_403\n      jump\t// in\n    tag_656:\n        /* \"#utility.yul\":22727:22866   */\n      swap1\n      pop\n        /* \"#utility.yul\":22454:22873   */\n      swap2\n      swap1\n      pop\n      jump\t// out\n        /* \"#utility.yul\":22879:23047   */\n    tag_404:\n        /* \"#utility.yul\":23019:23039   */\n      0x496e76616c6964207377617020706174682e0000000000000000000000000000\n        /* \"#utility.yul\":23015:23016   */\n      0x00\n        /* \"#utility.yul\":23007:23013   */\n      dup3\n        /* \"#utility.yul\":23003:23017   */\n      add\n        /* \"#utility.yul\":22996:23040   */\n      mstore\n        /* \"#utility.yul\":22879:23047   */\n      pop\n      jump\t// out\n        /* \"#utility.yul\":23053:23419   */\n    tag_405:\n        /* \"#utility.yul\":23195:23198   */\n      0x00\n        /* \"#utility.yul\":23216:23283   */\n      tag_659\n        /* \"#utility.yul\":23280:23282   */\n      0x12\n        /* \"#utility.yul\":23275:23278   */\n      dup4\n        /* \"#utility.yul\":23216:23283   */\n      tag_390\n      jump\t// in\n    tag_659:\n        /* \"#utility.yul\":23209:23283   */\n      swap2\n      pop\n        /* \"#utility.yul\":23292:23385   */\n      tag_660\n        /* \"#utility.yul\":23381:23384   */\n      dup3\n        /* \"#utility.yul\":23292:23385   */\n      tag_404\n      jump\t// in\n    tag_660:\n        /* \"#utility.yul\":23410:23412   */\n      0x20\n        /* \"#utility.yul\":23405:23408   */\n      dup3\n        /* \"#utility.yul\":23401:23413   */\n      add\n        /* \"#utility.yul\":23394:23413   */\n      swap1\n      pop\n        /* \"#utility.yul\":23053:23419   */\n      swap2\n      swap1\n      pop\n      jump\t// out\n        /* \"#utility.yul\":23425:23844   */\n    tag_244:\n        /* \"#utility.yul\":23591:23595   */\n      0x00\n        /* \"#utility.yul\":23629:23631   */\n      0x20\n        /* \"#utility.yul\":23618:23627   */\n      dup3\n        /* \"#utility.yul\":23614:23632   */\n      add\n        /* \"#utility.yul\":23606:23632   */\n      swap1\n      pop\n        /* \"#utility.yul\":23678:23687   */\n      dup2\n        /* \"#utility.yul\":23672:23676   */\n      dup2\n        /* \"#utility.yul\":23668:23688   */\n      sub\n        /* \"#utility.yul\":23664:23665   */\n      0x00\n        /* \"#utility.yul\":23653:23662   */\n      dup4\n        /* \"#utility.yul\":23649:23666   */\n      add\n        /* \"#utility.yul\":23642:23689   */\n      mstore\n        /* \"#utility.yul\":23706:23837   */\n      tag_662\n        /* \"#utility.yul\":23832:23836   */\n      dup2\n        /* \"#utility.yul\":23706:23837   */\n      tag_405\n      jump\t// in\n    tag_662:\n        /* \"#utility.yul\":23698:23837   */\n      swap1\n      pop\n        /* \"#utility.yul\":23425:23844   */\n      swap2\n      swap1\n      pop\n      jump\t// out\n        /* \"#utility.yul\":23850:24034   */\n    tag_406:\n        /* \"#utility.yul\":23949:23960   */\n      0x00\n        /* \"#utility.yul\":23983:23989   */\n      dup3\n        /* \"#utility.yul\":23978:23981   */\n      dup3\n        /* \"#utility.yul\":23971:23990   */\n      mstore\n        /* \"#utility.yul\":24023:24027   */\n      0x20\n        /* \"#utility.yul\":24018:24021   */\n      dup3\n        /* \"#utility.yul\":24014:24028   */\n      add\n        /* \"#utility.yul\":23999:24028   */\n      swap1\n      pop\n        /* \"#utility.yul\":23850:24034   */\n      swap3\n      swap2\n      pop\n      pop\n      jump\t// out\n        /* \"#utility.yul\":24040:24142   */\n    tag_407:\n        /* \"#utility.yul\":24109:24113   */\n      0x00\n        /* \"#utility.yul\":24132:24135   */\n      dup2\n        /* \"#utility.yul\":24124:24135   */\n      swap1\n      pop\n        /* \"#utility.yul\":24040:24142   */\n      swap2\n      swap1\n      pop\n      jump\t// out\n        /* \"#utility.yul\":24148:24256   */\n    tag_408:\n        /* \"#utility.yul\":24225:24249   */\n      tag_666\n        /* \"#utility.yul\":24243:24248   */\n      dup2\n        /* \"#utility.yul\":24225:24249   */\n      tag_374\n      jump\t// in\n    tag_666:\n        /* \"#utility.yul\":24220:24223   */\n      dup3\n        /* \"#utility.yul\":24213:24250   */\n      mstore\n        /* \"#utility.yul\":24148:24256   */\n      pop\n      pop\n      jump\t// out\n        /* \"#utility.yul\":24262:24441   */\n    tag_409:\n        /* \"#utility.yul\":24331:24341   */\n      0x00\n        /* \"#utility.yul\":24352:24398   */\n      tag_668\n        /* \"#utility.yul\":24394:24397   */\n      dup4\n        /* \"#utility.yul\":24386:24392   */\n      dup4\n        /* \"#utility.yul\":24352:24398   */\n      tag_408\n      jump\t// in\n    tag_668:\n        /* \"#utility.yul\":24430:24434   */\n      0x20\n        /* \"#utility.yul\":24425:24428   */\n      dup4\n        /* \"#utility.yul\":24421:24435   */\n      add\n        /* \"#utility.yul\":24407:24435   */\n      swap1\n      pop\n        /* \"#utility.yul\":24262:24441   */\n      swap3\n      swap2\n      pop\n      pop\n      jump\t// out\n        /* \"#utility.yul\":24447:24569   */\n    tag_410:\n        /* \"#utility.yul\":24499:24504   */\n      0x00\n        /* \"#utility.yul\":24524:24563   */\n      tag_670\n        /* \"#utility.yul\":24559:24561   */\n      0x20\n        /* \"#utility.yul\":24554:24557   */\n      dup5\n        /* \"#utility.yul\":24550:24562   */\n      add\n        /* \"#utility.yul\":24545:24548   */\n      dup5\n        /* \"#utility.yul\":24524:24563   */\n      tag_378\n      jump\t// in\n    tag_670:\n        /* \"#utility.yul\":24515:24563   */\n      swap1\n      pop\n        /* \"#utility.yul\":24447:24569   */\n      swap3\n      swap2\n      pop\n      pop\n      jump\t// out\n        /* \"#utility.yul\":24575:24690   */\n    tag_411:\n        /* \"#utility.yul\":24647:24651   */\n      0x00\n        /* \"#utility.yul\":24679:24683   */\n      0x20\n        /* \"#utility.yul\":24674:24677   */\n      dup3\n        /* \"#utility.yul\":24670:24684   */\n      add\n        /* \"#utility.yul\":24662:24684   */\n      swap1\n      pop\n        /* \"#utility.yul\":24575:24690   */\n      swap2\n      swap1\n      pop\n      jump\t// out\n        /* \"#utility.yul\":24726:25425   */\n    tag_412:\n        /* \"#utility.yul\":24855:24858   */\n      0x00\n        /* \"#utility.yul\":24878:24964   */\n      tag_673\n        /* \"#utility.yul\":24957:24963   */\n      dup4\n        /* \"#utility.yul\":24952:24955   */\n      dup6\n        /* \"#utility.yul\":24878:24964   */\n      tag_406\n      jump\t// in\n    tag_673:\n        /* \"#utility.yul\":24871:24964   */\n      swap4\n      pop\n        /* \"#utility.yul\":24988:25046   */\n      tag_674\n        /* \"#utility.yul\":25040:25045   */\n      dup3\n        /* \"#utility.yul\":24988:25046   */\n      tag_407\n      jump\t// in\n    tag_674:\n        /* \"#utility.yul\":25069:25076   */\n      dup1\n        /* \"#utility.yul\":25100:25101   */\n      0x00\n        /* \"#utility.yul\":25085:25400   */\n    tag_675:\n        /* \"#utility.yul\":25110:25116   */\n      dup6\n        /* \"#utility.yul\":25107:25108   */\n      dup2\n        /* \"#utility.yul\":25104:25117   */\n      lt\n        /* \"#utility.yul\":25085:25400   */\n      iszero\n      tag_677\n      jumpi\n        /* \"#utility.yul\":25180:25222   */\n      tag_678\n        /* \"#utility.yul\":25215:25221   */\n      dup3\n        /* \"#utility.yul\":25206:25213   */\n      dup5\n        /* \"#utility.yul\":25180:25222   */\n      tag_410\n      jump\t// in\n    tag_678:\n        /* \"#utility.yul\":25242:25305   */\n      tag_679\n        /* \"#utility.yul\":25301:25304   */\n      dup9\n        /* \"#utility.yul\":25286:25299   */\n      dup3\n        /* \"#utility.yul\":25242:25305   */\n      tag_409\n      jump\t// in\n    tag_679:\n        /* \"#utility.yul\":25235:25305   */\n      swap8\n      pop\n        /* \"#utility.yul\":25328:25390   */\n      tag_680\n        /* \"#utility.yul\":25383:25389   */\n      dup4\n        /* \"#utility.yul\":25328:25390   */\n      tag_411\n      jump\t// in\n    tag_680:\n        /* \"#utility.yul\":25318:25390   */\n      swap3\n      pop\n        /* \"#utility.yul\":25145:25400   */\n      pop\n        /* \"#utility.yul\":25132:25133   */\n      0x01\n        /* \"#utility.yul\":25129:25130   */\n      dup2\n        /* \"#utility.yul\":25125:25134   */\n      add\n        /* \"#utility.yul\":25120:25134   */\n      swap1\n      pop\n        /* \"#utility.yul\":25085:25400   */\n      jump(tag_675)\n    tag_677:\n        /* \"#utility.yul\":25089:25103   */\n      pop\n        /* \"#utility.yul\":25416:25419   */\n      dup6\n        /* \"#utility.yul\":25409:25419   */\n      swap3\n      pop\n        /* \"#utility.yul\":24860:25425   */\n      pop\n      pop\n        /* \"#utility.yul\":24726:25425   */\n      swap4\n      swap3\n      pop\n      pop\n      pop\n      jump\t// out\n        /* \"#utility.yul\":25431:25934   */\n    tag_246:\n        /* \"#utility.yul\":25612:25616   */\n      0x00\n        /* \"#utility.yul\":25650:25652   */\n      0x40\n        /* \"#utility.yul\":25639:25648   */\n      dup3\n        /* \"#utility.yul\":25635:25653   */\n      add\n        /* \"#utility.yul\":25627:25653   */\n      swap1\n      pop\n        /* \"#utility.yul\":25663:25734   */\n      tag_682\n        /* \"#utility.yul\":25731:25732   */\n      0x00\n        /* \"#utility.yul\":25720:25729   */\n      dup4\n        /* \"#utility.yul\":25716:25733   */\n      add\n        /* \"#utility.yul\":25707:25713   */\n      dup7\n        /* \"#utility.yul\":25663:25734   */\n      tag_351\n      jump\t// in\n    tag_682:\n        /* \"#utility.yul\":25781:25790   */\n      dup2\n        /* \"#utility.yul\":25775:25779   */\n      dup2\n        /* \"#utility.yul\":25771:25791   */\n      sub\n        /* \"#utility.yul\":25766:25768   */\n      0x20\n        /* \"#utility.yul\":25755:25764   */\n      dup4\n        /* \"#utility.yul\":25751:25769   */\n      add\n        /* \"#utility.yul\":25744:25792   */\n      mstore\n        /* \"#utility.yul\":25809:25927   */\n      tag_683\n        /* \"#utility.yul\":25922:25926   */\n      dup2\n        /* \"#utility.yul\":25913:25919   */\n      dup5\n        /* \"#utility.yul\":25905:25911   */\n      dup7\n        /* \"#utility.yul\":25809:25927   */\n      tag_412\n      jump\t// in\n    tag_683:\n        /* \"#utility.yul\":25801:25927   */\n      swap1\n      pop\n        /* \"#utility.yul\":25431:25934   */\n      swap5\n      swap4\n      pop\n      pop\n      pop\n      pop\n      jump\t// out\n        /* \"#utility.yul\":25940:26120   */\n    tag_413:\n        /* \"#utility.yul\":25988:26065   */\n      0x4e487b7100000000000000000000000000000000000000000000000000000000\n        /* \"#utility.yul\":25985:25986   */\n      0x00\n        /* \"#utility.yul\":25978:26066   */\n      mstore\n        /* \"#utility.yul\":26085:26089   */\n      0x41\n        /* \"#utility.yul\":26082:26083   */\n      0x04\n        /* \"#utility.yul\":26075:26090   */\n      mstore\n        /* \"#utility.yul\":26109:26113   */\n      0x24\n        /* \"#utility.yul\":26106:26107   */\n      0x00\n        /* \"#utility.yul\":26099:26114   */\n      revert\n        /* \"#utility.yul\":26126:26407   */\n    tag_414:\n        /* \"#utility.yul\":26209:26236   */\n      tag_686\n        /* \"#utility.yul\":26231:26235   */\n      dup3\n        /* \"#utility.yul\":26209:26236   */\n      tag_368\n      jump\t// in\n    tag_686:\n        /* \"#utility.yul\":26201:26207   */\n      dup2\n        /* \"#utility.yul\":26197:26237   */\n      add\n        /* \"#utility.yul\":26339:26345   */\n      dup2\n        /* \"#utility.yul\":26327:26337   */\n      dup2\n        /* \"#utility.yul\":26324:26346   */\n      lt\n        /* \"#utility.yul\":26303:26321   */\n      0xffffffffffffffff\n        /* \"#utility.yul\":26291:26301   */\n      dup3\n        /* \"#utility.yul\":26288:26322   */\n      gt\n        /* \"#utility.yul\":26285:26347   */\n      or\n        /* \"#utility.yul\":26282:26370   */\n      iszero\n      tag_687\n      jumpi\n        /* \"#utility.yul\":26350:26368   */\n      tag_688\n      tag_413\n      jump\t// in\n    tag_688:\n        /* \"#utility.yul\":26282:26370   */\n    tag_687:\n        /* \"#utility.yul\":26390:26400   */\n      dup1\n        /* \"#utility.yul\":26386:26388   */\n      0x40\n        /* \"#utility.yul\":26379:26401   */\n      mstore\n        /* \"#utility.yul\":26169:26407   */\n      pop\n        /* \"#utility.yul\":26126:26407   */\n      pop\n      pop\n      jump\t// out\n        /* \"#utility.yul\":26413:26542   */\n    tag_415:\n        /* \"#utility.yul\":26447:26453   */\n      0x00\n        /* \"#utility.yul\":26474:26494   */\n      tag_690\n      tag_352\n      jump\t// in\n    tag_690:\n        /* \"#utility.yul\":26464:26494   */\n      swap1\n      pop\n        /* \"#utility.yul\":26503:26536   */\n      tag_691\n        /* \"#utility.yul\":26531:26535   */\n      dup3\n        /* \"#utility.yul\":26523:26529   */\n      dup3\n        /* \"#utility.yul\":26503:26536   */\n      tag_414\n      jump\t// in\n    tag_691:\n        /* \"#utility.yul\":26413:26542   */\n      swap2\n      swap1\n      pop\n      jump\t// out\n        /* \"#utility.yul\":26548:26859   */\n    tag_416:\n        /* \"#utility.yul\":26625:26629   */\n      0x00\n        /* \"#utility.yul\":26715:26733   */\n      0xffffffffffffffff\n        /* \"#utility.yul\":26707:26713   */\n      dup3\n        /* \"#utility.yul\":26704:26734   */\n      gt\n        /* \"#utility.yul\":26701:26757   */\n      iszero\n      tag_693\n      jumpi\n        /* \"#utility.yul\":26737:26755   */\n      tag_694\n      tag_413\n      jump\t// in\n    tag_694:\n        /* \"#utility.yul\":26701:26757   */\n    tag_693:\n        /* \"#utility.yul\":26787:26791   */\n      0x20\n        /* \"#utility.yul\":26779:26785   */\n      dup3\n        /* \"#utility.yul\":26775:26792   */\n      mul\n        /* \"#utility.yul\":26767:26792   */\n      swap1\n      pop\n        /* \"#utility.yul\":26847:26851   */\n      0x20\n        /* \"#utility.yul\":26841:26845   */\n      dup2\n        /* \"#utility.yul\":26837:26852   */\n      add\n        /* \"#utility.yul\":26829:26852   */\n      swap1\n      pop\n        /* \"#utility.yul\":26548:26859   */\n      swap2\n      swap1\n      pop\n      jump\t// out\n        /* \"#utility.yul\":26882:27614   */\n    tag_417:\n        /* \"#utility.yul\":26989:26994   */\n      0x00\n        /* \"#utility.yul\":27014:27095   */\n      tag_696\n        /* \"#utility.yul\":27030:27094   */\n      tag_697\n        /* \"#utility.yul\":27087:27093   */\n      dup5\n        /* \"#utility.yul\":27030:27094   */\n      tag_416\n      jump\t// in\n    tag_697:\n        /* \"#utility.yul\":27014:27095   */\n      tag_415\n      jump\t// in\n    tag_696:\n        /* \"#utility.yul\":27005:27095   */\n      swap1\n      pop\n        /* \"#utility.yul\":27115:27120   */\n      dup1\n        /* \"#utility.yul\":27144:27150   */\n      dup4\n        /* \"#utility.yul\":27137:27142   */\n      dup3\n        /* \"#utility.yul\":27130:27151   */\n      mstore\n        /* \"#utility.yul\":27178:27182   */\n      0x20\n        /* \"#utility.yul\":27171:27176   */\n      dup3\n        /* \"#utility.yul\":27167:27183   */\n      add\n        /* \"#utility.yul\":27160:27183   */\n      swap1\n      pop\n        /* \"#utility.yul\":27231:27235   */\n      0x20\n        /* \"#utility.yul\":27223:27229   */\n      dup5\n        /* \"#utility.yul\":27219:27236   */\n      mul\n        /* \"#utility.yul\":27211:27217   */\n      dup4\n        /* \"#utility.yul\":27207:27237   */\n      add\n        /* \"#utility.yul\":27260:27263   */\n      dup6\n        /* \"#utility.yul\":27252:27258   */\n      dup2\n        /* \"#utility.yul\":27249:27264   */\n      gt\n        /* \"#utility.yul\":27246:27368   */\n      iszero\n      tag_698\n      jumpi\n        /* \"#utility.yul\":27279:27358   */\n      tag_699\n      tag_361\n      jump\t// in\n    tag_699:\n        /* \"#utility.yul\":27246:27368   */\n    tag_698:\n        /* \"#utility.yul\":27394:27400   */\n      dup4\n        /* \"#utility.yul\":27377:27608   */\n    tag_700:\n        /* \"#utility.yul\":27411:27417   */\n      dup2\n        /* \"#utility.yul\":27406:27409   */\n      dup2\n        /* \"#utility.yul\":27403:27418   */\n      lt\n        /* \"#utility.yul\":27377:27608   */\n      iszero\n      tag_702\n      jumpi\n        /* \"#utility.yul\":27486:27489   */\n      dup1\n        /* \"#utility.yul\":27515:27563   */\n      tag_703\n        /* \"#utility.yul\":27559:27562   */\n      dup9\n        /* \"#utility.yul\":27547:27557   */\n      dup3\n        /* \"#utility.yul\":27515:27563   */\n      tag_387\n      jump\t// in\n    tag_703:\n        /* \"#utility.yul\":27510:27513   */\n      dup5\n        /* \"#utility.yul\":27503:27564   */\n      mstore\n        /* \"#utility.yul\":27593:27597   */\n      0x20\n        /* \"#utility.yul\":27588:27591   */\n      dup5\n        /* \"#utility.yul\":27584:27598   */\n      add\n        /* \"#utility.yul\":27577:27598   */\n      swap4\n      pop\n        /* \"#utility.yul\":27453:27608   */\n      pop\n        /* \"#utility.yul\":27437:27441   */\n      0x20\n        /* \"#utility.yul\":27432:27435   */\n      dup2\n        /* \"#utility.yul\":27428:27442   */\n      add\n        /* \"#utility.yul\":27421:27442   */\n      swap1\n      pop\n        /* \"#utility.yul\":27377:27608   */\n      jump(tag_700)\n    tag_702:\n        /* \"#utility.yul\":27381:27402   */\n      pop\n        /* \"#utility.yul\":26995:27614   */\n      pop\n      pop\n        /* \"#utility.yul\":26882:27614   */\n      swap4\n      swap3\n      pop\n      pop\n      pop\n      jump\t// out\n        /* \"#utility.yul\":27637:28022   */\n    tag_418:\n        /* \"#utility.yul\":27719:27724   */\n      0x00\n        /* \"#utility.yul\":27768:27771   */\n      dup3\n        /* \"#utility.yul\":27761:27765   */\n      0x1f\n        /* \"#utility.yul\":27753:27759   */\n      dup4\n        /* \"#utility.yul\":27749:27766   */\n      add\n        /* \"#utility.yul\":27745:27772   */\n      slt\n        /* \"#utility.yul\":27735:27857   */\n      tag_705\n      jumpi\n        /* \"#utility.yul\":27776:27855   */\n      tag_706\n      tag_359\n      jump\t// in\n    tag_706:\n        /* \"#utility.yul\":27735:27857   */\n    tag_705:\n        /* \"#utility.yul\":27886:27892   */\n      dup2\n        /* \"#utility.yul\":27880:27893   */\n      mload\n        /* \"#utility.yul\":27911:28016   */\n      tag_707\n        /* \"#utility.yul\":28012:28015   */\n      dup5\n        /* \"#utility.yul\":28004:28010   */\n      dup3\n        /* \"#utility.yul\":27997:28001   */\n      0x20\n        /* \"#utility.yul\":27989:27995   */\n      dup7\n        /* \"#utility.yul\":27985:28002   */\n      add\n        /* \"#utility.yul\":27911:28016   */\n      tag_417\n      jump\t// in\n    tag_707:\n        /* \"#utility.yul\":27902:28016   */\n      swap2\n      pop\n        /* \"#utility.yul\":27725:28022   */\n      pop\n        /* \"#utility.yul\":27637:28022   */\n      swap3\n      swap2\n      pop\n      pop\n      jump\t// out\n        /* \"#utility.yul\":28028:28582   */\n    tag_250:\n        /* \"#utility.yul\":28123:28129   */\n      0x00\n        /* \"#utility.yul\":28172:28174   */\n      0x20\n        /* \"#utility.yul\":28160:28169   */\n      dup3\n        /* \"#utility.yul\":28151:28158   */\n      dup5\n        /* \"#utility.yul\":28147:28170   */\n      sub\n        /* \"#utility.yul\":28143:28175   */\n      slt\n        /* \"#utility.yul\":28140:28259   */\n      iszero\n      tag_709\n      jumpi\n        /* \"#utility.yul\":28178:28257   */\n      tag_710\n      tag_353\n      jump\t// in\n    tag_710:\n        /* \"#utility.yul\":28140:28259   */\n    tag_709:\n        /* \"#utility.yul\":28319:28320   */\n      0x00\n        /* \"#utility.yul\":28308:28317   */\n      dup3\n        /* \"#utility.yul\":28304:28321   */\n      add\n        /* \"#utility.yul\":28298:28322   */\n      mload\n        /* \"#utility.yul\":28349:28367   */\n      0xffffffffffffffff\n        /* \"#utility.yul\":28341:28347   */\n      dup2\n        /* \"#utility.yul\":28338:28368   */\n      gt\n        /* \"#utility.yul\":28335:28452   */\n      iszero\n      tag_711\n      jumpi\n        /* \"#utility.yul\":28371:28450   */\n      tag_712\n      tag_354\n      jump\t// in\n    tag_712:\n        /* \"#utility.yul\":28335:28452   */\n    tag_711:\n        /* \"#utility.yul\":28476:28565   */\n      tag_713\n        /* \"#utility.yul\":28557:28564   */\n      dup5\n        /* \"#utility.yul\":28548:28554   */\n      dup3\n        /* \"#utility.yul\":28537:28546   */\n      dup6\n        /* \"#utility.yul\":28533:28555   */\n      add\n        /* \"#utility.yul\":28476:28565   */\n      tag_418\n      jump\t// in\n    tag_713:\n        /* \"#utility.yul\":28466:28565   */\n      swap2\n      pop\n        /* \"#utility.yul\":28269:28575   */\n      pop\n        /* \"#utility.yul\":28028:28582   */\n      swap3\n      swap2\n      pop\n      pop\n      jump\t// out\n        /* \"#utility.yul\":28588:29439   */\n    tag_252:\n        /* \"#utility.yul\":28861:28865   */\n      0x00\n        /* \"#utility.yul\":28899:28902   */\n      0xa0\n        /* \"#utility.yul\":28888:28897   */\n      dup3\n        /* \"#utility.yul\":28884:28903   */\n      add\n        /* \"#utility.yul\":28876:28903   */\n      swap1\n      pop\n        /* \"#utility.yul\":28913:28984   */\n      tag_715\n        /* \"#utility.yul\":28981:28982   */\n      0x00\n        /* \"#utility.yul\":28970:28979   */\n      dup4\n        /* \"#utility.yul\":28966:28983   */\n      add\n        /* \"#utility.yul\":28957:28963   */\n      dup10\n        /* \"#utility.yul\":28913:28984   */\n      tag_351\n      jump\t// in\n    tag_715:\n        /* \"#utility.yul\":28994:29074   */\n      tag_716\n        /* \"#utility.yul\":29070:29072   */\n      0x20\n        /* \"#utility.yul\":29059:29068   */\n      dup4\n        /* \"#utility.yul\":29055:29073   */\n      add\n        /* \"#utility.yul\":29046:29052   */\n      dup9\n        /* \"#utility.yul\":28994:29074   */\n      tag_399\n      jump\t// in\n    tag_716:\n        /* \"#utility.yul\":29121:29130   */\n      dup2\n        /* \"#utility.yul\":29115:29119   */\n      dup2\n        /* \"#utility.yul\":29111:29131   */\n      sub\n        /* \"#utility.yul\":29106:29108   */\n      0x40\n        /* \"#utility.yul\":29095:29104   */\n      dup4\n        /* \"#utility.yul\":29091:29109   */\n      add\n        /* \"#utility.yul\":29084:29132   */\n      mstore\n        /* \"#utility.yul\":29149:29267   */\n      tag_717\n        /* \"#utility.yul\":29262:29266   */\n      dup2\n        /* \"#utility.yul\":29253:29259   */\n      dup7\n        /* \"#utility.yul\":29245:29251   */\n      dup9\n        /* \"#utility.yul\":29149:29267   */\n      tag_412\n      jump\t// in\n    tag_717:\n        /* \"#utility.yul\":29141:29267   */\n      swap1\n      pop\n        /* \"#utility.yul\":29277:29349   */\n      tag_718\n        /* \"#utility.yul\":29345:29347   */\n      0x60\n        /* \"#utility.yul\":29334:29343   */\n      dup4\n        /* \"#utility.yul\":29330:29348   */\n      add\n        /* \"#utility.yul\":29321:29327   */\n      dup6\n        /* \"#utility.yul\":29277:29349   */\n      tag_375\n      jump\t// in\n    tag_718:\n        /* \"#utility.yul\":29359:29432   */\n      tag_719\n        /* \"#utility.yul\":29427:29430   */\n      0x80\n        /* \"#utility.yul\":29416:29425   */\n      dup4\n        /* \"#utility.yul\":29412:29431   */\n      add\n        /* \"#utility.yul\":29403:29409   */\n      dup5\n        /* \"#utility.yul\":29359:29432   */\n      tag_351\n      jump\t// in\n    tag_719:\n        /* \"#utility.yul\":28588:29439   */\n      swap8\n      swap7\n      pop\n      pop\n      pop\n      pop\n      pop\n      pop\n      pop\n      jump\t// out\n        /* \"#utility.yul\":29445:29625   */\n    tag_259:\n        /* \"#utility.yul\":29493:29570   */\n      0x4e487b7100000000000000000000000000000000000000000000000000000000\n        /* \"#utility.yul\":29490:29491   */\n      0x00\n        /* \"#utility.yul\":29483:29571   */\n      mstore\n        /* \"#utility.yul\":29590:29594   */\n      0x32\n        /* \"#utility.yul\":29587:29588   */\n      0x04\n        /* \"#utility.yul\":29580:29595   */\n      mstore\n        /* \"#utility.yul\":29614:29618   */\n      0x24\n        /* \"#utility.yul\":29611:29612   */\n      0x00\n        /* \"#utility.yul\":29604:29619   */\n      revert\n        /* \"#utility.yul\":29631:30466   */\n    tag_272:\n        /* \"#utility.yul\":29896:29900   */\n      0x00\n        /* \"#utility.yul\":29934:29937   */\n      0xa0\n        /* \"#utility.yul\":29923:29932   */\n      dup3\n        /* \"#utility.yul\":29919:29938   */\n      add\n        /* \"#utility.yul\":29911:29938   */\n      swap1\n      pop\n        /* \"#utility.yul\":29948:30019   */\n      tag_722\n        /* \"#utility.yul\":30016:30017   */\n      0x00\n        /* \"#utility.yul\":30005:30014   */\n      dup4\n        /* \"#utility.yul\":30001:30018   */\n      add\n        /* \"#utility.yul\":29992:29998   */\n      dup10\n        /* \"#utility.yul\":29948:30019   */\n      tag_351\n      jump\t// in\n    tag_722:\n        /* \"#utility.yul\":30029:30101   */\n      tag_723\n        /* \"#utility.yul\":30097:30099   */\n      0x20\n        /* \"#utility.yul\":30086:30095   */\n      dup4\n        /* \"#utility.yul\":30082:30100   */\n      add\n        /* \"#utility.yul\":30073:30079   */\n      dup9\n        /* \"#utility.yul\":30029:30101   */\n      tag_351\n      jump\t// in\n    tag_723:\n        /* \"#utility.yul\":30148:30157   */\n      dup2\n        /* \"#utility.yul\":30142:30146   */\n      dup2\n        /* \"#utility.yul\":30138:30158   */\n      sub\n        /* \"#utility.yul\":30133:30135   */\n      0x40\n        /* \"#utility.yul\":30122:30131   */\n      dup4\n        /* \"#utility.yul\":30118:30136   */\n      add\n        /* \"#utility.yul\":30111:30159   */\n      mstore\n        /* \"#utility.yul\":30176:30294   */\n      tag_724\n        /* \"#utility.yul\":30289:30293   */\n      dup2\n        /* \"#utility.yul\":30280:30286   */\n      dup7\n        /* \"#utility.yul\":30272:30278   */\n      dup9\n        /* \"#utility.yul\":30176:30294   */\n      tag_412\n      jump\t// in\n    tag_724:\n        /* \"#utility.yul\":30168:30294   */\n      swap1\n      pop\n        /* \"#utility.yul\":30304:30376   */\n      tag_725\n        /* \"#utility.yul\":30372:30374   */\n      0x60\n        /* \"#utility.yul\":30361:30370   */\n      dup4\n        /* \"#utility.yul\":30357:30375   */\n      add\n        /* \"#utility.yul\":30348:30354   */\n      dup6\n        /* \"#utility.yul\":30304:30376   */\n      tag_375\n      jump\t// in\n    tag_725:\n        /* \"#utility.yul\":30386:30459   */\n      tag_726\n        /* \"#utility.yul\":30454:30457   */\n      0x80\n        /* \"#utility.yul\":30443:30452   */\n      dup4\n        /* \"#utility.yul\":30439:30458   */\n      add\n        /* \"#utility.yul\":30430:30436   */\n      dup5\n        /* \"#utility.yul\":30386:30459   */\n      tag_351\n      jump\t// in\n    tag_726:\n        /* \"#utility.yul\":29631:30466   */\n      swap8\n      swap7\n      pop\n      pop\n      pop\n      pop\n      pop\n      pop\n      pop\n      jump\t// out\n        /* \"#utility.yul\":30472:30653   */\n    tag_419:\n        /* \"#utility.yul\":30612:30645   */\n      0x5265656e7472616e637947756172643a207265656e7472616e742063616c6c00\n        /* \"#utility.yul\":30608:30609   */\n      0x00\n        /* \"#utility.yul\":30600:30606   */\n      dup3\n        /* \"#utility.yul\":30596:30610   */\n      add\n        /* \"#utility.yul\":30589:30646   */\n      mstore\n        /* \"#utility.yul\":30472:30653   */\n      pop\n      jump\t// out\n        /* \"#utility.yul\":30659:31025   */\n    tag_420:\n        /* \"#utility.yul\":30801:30804   */\n      0x00\n        /* \"#utility.yul\":30822:30889   */\n      tag_729\n        /* \"#utility.yul\":30886:30888   */\n      0x1f\n        /* \"#utility.yul\":30881:30884   */\n      dup4\n        /* \"#utility.yul\":30822:30889   */\n      tag_390\n      jump\t// in\n    tag_729:\n        /* \"#utility.yul\":30815:30889   */\n      swap2\n      pop\n        /* \"#utility.yul\":30898:30991   */\n      tag_730\n        /* \"#utility.yul\":30987:30990   */\n      dup3\n        /* \"#utility.yul\":30898:30991   */\n      tag_419\n      jump\t// in\n    tag_730:\n        /* \"#utility.yul\":31016:31018   */\n      0x20\n        /* \"#utility.yul\":31011:31014   */\n      dup3\n        /* \"#utility.yul\":31007:31019   */\n      add\n        /* \"#utility.yul\":31000:31019   */\n      swap1\n      pop\n        /* \"#utility.yul\":30659:31025   */\n      swap2\n      swap1\n      pop\n      jump\t// out\n        /* \"#utility.yul\":31031:31450   */\n    tag_340:\n        /* \"#utility.yul\":31197:31201   */\n      0x00\n        /* \"#utility.yul\":31235:31237   */\n      0x20\n        /* \"#utility.yul\":31224:31233   */\n      dup3\n        /* \"#utility.yul\":31220:31238   */\n      add\n        /* \"#utility.yul\":31212:31238   */\n      swap1\n      pop\n        /* \"#utility.yul\":31284:31293   */\n      dup2\n        /* \"#utility.yul\":31278:31282   */\n      dup2\n        /* \"#utility.yul\":31274:31294   */\n      sub\n        /* \"#utility.yul\":31270:31271   */\n      0x00\n        /* \"#utility.yul\":31259:31268   */\n      dup4\n        /* \"#utility.yul\":31255:31272   */\n      add\n        /* \"#utility.yul\":31248:31295   */\n      mstore\n        /* \"#utility.yul\":31312:31443   */\n      tag_732\n        /* \"#utility.yul\":31438:31442   */\n      dup2\n        /* \"#utility.yul\":31312:31443   */\n      tag_420\n      jump\t// in\n    tag_732:\n        /* \"#utility.yul\":31304:31443   */\n      swap1\n      pop\n        /* \"#utility.yul\":31031:31450   */\n      swap2\n      swap1\n      pop\n      jump\t// out\n\n    auxdata: 0xa2646970667358221220743317d7edc4e6073b8008587bb84e0d0ea898208377d4ea24857dabf4a09bb864736f6c634300081a0033\n}\n",
				"bytecode": {
					"linkReferences": {},
					"object": "608060405234801561000f575f80fd5b506040516130f13803806130f183398181016040528101906100319190610758565b335f73ffffffffffffffffffffffffffffffffffffffff168173ffffffffffffffffffffffffffffffffffffffff16036100a2575f6040517f1e4fbdf70000000000000000000000000000000000000000000000000000000081526004016100999190610840565b60405180910390fd5b6100b18161060660201b60201c565b50600180819055508960025f6101000a81548173ffffffffffffffffffffffffffffffffffffffff021916908373ffffffffffffffffffffffffffffffffffffffff1602179055508860035f6101000a81548173ffffffffffffffffffffffffffffffffffffffff021916908373ffffffffffffffffffffffffffffffffffffffff1602179055508760045f6101000a81548173ffffffffffffffffffffffffffffffffffffffff021916908373ffffffffffffffffffffffffffffffffffffffff1602179055508660055f6101000a81548173ffffffffffffffffffffffffffffffffffffffff021916908373ffffffffffffffffffffffffffffffffffffffff1602179055508560065f6101000a81548173ffffffffffffffffffffffffffffffffffffffff021916908373ffffffffffffffffffffffffffffffffffffffff16021790555084600a5f6101000a81548173ffffffffffffffffffffffffffffffffffffffff021916908373ffffffffffffffffffffffffffffffffffffffff16021790555083600b8190555082600c8190555081600d8190555080600e819055505f60055f9054906101000a900473ffffffffffffffffffffffffffffffffffffffff1673ffffffffffffffffffffffffffffffffffffffff1663c45a01556040518163ffffffff1660e01b8152600401602060405180830381865afa1580156102c0573d5f803e3d5ffd5b505050506040513d601f19601f820116820180604052508101906102e49190610859565b90505f8173ffffffffffffffffffffffffffffffffffffffff1663e6a439058d8d6040518363ffffffff1660e01b8152600401610322929190610884565b602060405180830381865afa15801561033d573d5f803e3d5ffd5b505050506040513d601f19601f820116820180604052508101906103619190610859565b90505f73ffffffffffffffffffffffffffffffffffffffff168173ffffffffffffffffffffffffffffffffffffffff16036103d1576040517f08c379a00000000000000000000000000000000000000000000000000000000081526004016103c890610905565b60405180910390fd5b8060075f6101000a81548173ffffffffffffffffffffffffffffffffffffffff021916908373ffffffffffffffffffffffffffffffffffffffff1602179055505f8273ffffffffffffffffffffffffffffffffffffffff1663e6a439058e8d6040518363ffffffff1660e01b815260040161044d929190610884565b602060405180830381865afa158015610468573d5f803e3d5ffd5b505050506040513d601f19601f8201168201806040525081019061048c9190610859565b90505f73ffffffffffffffffffffffffffffffffffffffff168173ffffffffffffffffffffffffffffffffffffffff1614610502578060085f6101000a81548173ffffffffffffffffffffffffffffffffffffffff021916908373ffffffffffffffffffffffffffffffffffffffff1602179055505b5f8373ffffffffffffffffffffffffffffffffffffffff1663e6a439058e8e6040518363ffffffff1660e01b815260040161053e929190610884565b602060405180830381865afa158015610559573d5f803e3d5ffd5b505050506040513d601f19601f8201168201806040525081019061057d9190610859565b90505f73ffffffffffffffffffffffffffffffffffffffff168173ffffffffffffffffffffffffffffffffffffffff16146105f3578060095f6101000a81548173ffffffffffffffffffffffffffffffffffffffff021916908373ffffffffffffffffffffffffffffffffffffffff1602179055505b5050505050505050505050505050610923565b5f805f9054906101000a900473ffffffffffffffffffffffffffffffffffffffff169050815f806101000a81548173ffffffffffffffffffffffffffffffffffffffff021916908373ffffffffffffffffffffffffffffffffffffffff1602179055508173ffffffffffffffffffffffffffffffffffffffff168173ffffffffffffffffffffffffffffffffffffffff167f8be0079c531659141344cd1fd0a4f28419497f9722a3daafe3b4186f6b6457e060405160405180910390a35050565b5f80fd5b5f73ffffffffffffffffffffffffffffffffffffffff82169050919050565b5f6106f4826106cb565b9050919050565b610704816106ea565b811461070e575f80fd5b50565b5f8151905061071f816106fb565b92915050565b5f819050919050565b61073781610725565b8114610741575f80fd5b50565b5f815190506107528161072e565b92915050565b5f805f805f805f805f806101408b8d031215610777576107766106c7565b5b5f6107848d828e01610711565b9a505060206107958d828e01610711565b99505060406107a68d828e01610711565b98505060606107b78d828e01610711565b97505060806107c88d828e01610711565b96505060a06107d98d828e01610711565b95505060c06107ea8d828e01610744565b94505060e06107fb8d828e01610744565b93505061010061080d8d828e01610744565b92505061012061081f8d828e01610744565b9150509295989b9194979a5092959850565b61083a816106ea565b82525050565b5f6020820190506108535f830184610831565b92915050565b5f6020828403121561086e5761086d6106c7565b5b5f61087b84828501610711565b91505092915050565b5f6040820190506108975f830185610831565b6108a46020830184610831565b9392505050565b5f82825260208201905092915050565b7f556e6973776170207061697220412f4220646f65736e27742065786973742e005f82015250565b5f6108ef601f836108ab565b91506108fa826108bb565b602082019050919050565b5f6020820190508181035f83015261091c816108e3565b9050919050565b6127c1806109305f395ff3fe608060405234801561000f575f80fd5b50600436106101cd575f3560e01c8063715018a6116101025780639c8f9f23116100a0578063f1a82c7e1161006f578063f1a82c7e14610486578063f2fde38b146104a4578063fbf6db14146104c0578063fd829a23146104de576101cd565b80639c8f9f2314610426578063c483a30814610442578063d3ec3eec14610460578063d8fc08161461047c576101cd565b8063735de9f7116100dc578063735de9f7146103b0578063741bef1a146103ce5780637a16af7f146103ec5780638da5cb5b14610408576101cd565b8063715018a61461036c578063730ab60f146103765780637341ab8c14610392576101cd565b80633ebc480f1161016f57806358d0ee581161014957806358d0ee58146102e35780635a11cd58146102ff5780635f64b55b1461031d5780636e04ff0d1461033b576101cd565b80633ebc480f146102a15780634585e33b146102bd57806347c8e13c146102d9576101cd565b80631ae74cce116101ab5780631ae74cce146102295780632197634f1461024757806328a5e10c146102655780633dfe9f6a14610283576101cd565b80630fc63d10146101d1578063106b9ca1146101ef57806312ddbc4f1461020d575b5f80fd5b6101d96104fc565b6040516101e69190611889565b60405180910390f35b6101f7610521565b60405161020491906118ba565b60405180910390f35b6102276004803603810190610222919061190e565b610527565b005b610231610539565b60405161023e91906118ba565b60405180910390f35b61024f6105d6565b60405161025c91906118ba565b60405180910390f35b61026d6105dc565b60405161027a9190611959565b60405180910390f35b61028b610601565b60405161029891906118ba565b60405180910390f35b6102bb60048036038101906102b6919061190e565b610607565b005b6102d760048036038101906102d291906119d3565b610619565b005b6102e1610632565b005b6102fd60048036038101906102f8919061190e565b610685565b005b610307610697565b6040516103149190611959565b60405180910390f35b6103256106bc565b6040516103329190611889565b60405180910390f35b610355600480360381019061035091906119d3565b6106e1565b604051610363929190611aa8565b60405180910390f35b61037461075e565b005b610390600480360381019061038b919061190e565b610771565b005b61039a610783565b6040516103a791906118ba565b60405180910390f35b6103b8610789565b6040516103c59190611af6565b60405180910390f35b6103d66107ae565b6040516103e39190611b2f565b60405180910390f35b61040660048036038101906104019190611b48565b6107d3565b005b610410610b28565b60405161041d9190611ba6565b60405180910390f35b610440600480360381019061043b919061190e565b610b4f565b005b61044a610d98565b6040516104579190611889565b60405180910390f35b61047a60048036038101906104759190611c14565b610dbd565b005b610484611500565b005b61048e611553565b60405161049b91906118ba565b60405180910390f35b6104be60048036038101906104b99190611c9b565b611559565b005b6104c86115dd565b6040516104d59190611959565b60405180910390f35b6104e6611602565b6040516104f39190611ce6565b60405180910390f35b60025f9054906101000a900473ffffffffffffffffffffffffffffffffffffffff1681565b600f5481565b61052f611627565b80600d8190555050565b5f80600a5f9054906101000a900473ffffffffffffffffffffffffffffffffffffffff1673ffffffffffffffffffffffffffffffffffffffff1663feaf968c6040518163ffffffff1660e01b815260040160a060405180830381865afa1580156105a5573d5f803e3d5ffd5b505050506040513d601f19601f820116820180604052508101906105c99190611d85565b5050509150508091505090565b600e5481565b60075f9054906101000a900473ffffffffffffffffffffffffffffffffffffffff1681565b600d5481565b61060f611627565b80600e8190555050565b5f610622610539565b905061062d816116ae565b505050565b61063a611627565b6106426116ef565b5f7fac17dae82b629ef673f1b5fe90cb139d0174345aa580c06b230674ef96c8adc88160405161067291906118ba565b60405180910390a15061068361173e565b565b61068d611627565b80600c8190555050565b60095f9054906101000a900473ffffffffffffffffffffffffffffffffffffffff1681565b60035f9054906101000a900473ffffffffffffffffffffffffffffffffffffffff1681565b5f60605f6106ed610539565b90505f600f54821161070c5781600f546107079190611e29565b61071b565b600f548261071a9190611e29565b5b90505f600f546127108361072f9190611e5c565b6107399190611eca565b9050600d54811015945060405180602001604052805f81525093505050509250929050565b610766611627565b61076f5f611747565b565b610779611627565b80600b8190555050565b600c5481565b60055f9054906101000a900473ffffffffffffffffffffffffffffffffffffffff1681565b600a5f9054906101000a900473ffffffffffffffffffffffffffffffffffffffff1681565b6107db611627565b5f821180156107e957505f81115b610828576040517f08c379a000000000000000000000000000000000000000000000000000000000815260040161081f90611f7a565b60405180910390fd5b600b54821115801561083c5750600b548111155b61087b576040517f08c379a000000000000000000000000000000000000000000000000000000000815260040161087290611fe2565b60405180910390fd5b60025f9054906101000a900473ffffffffffffffffffffffffffffffffffffffff1673ffffffffffffffffffffffffffffffffffffffff1663095ea7b360055f9054906101000a900473ffffffffffffffffffffffffffffffffffffffff16846040518363ffffffff1660e01b81526004016108f8929190612000565b6020604051808303815f875af1158015610914573d5f803e3d5ffd5b505050506040513d601f19601f820116820180604052508101906109389190612051565b5060035f9054906101000a900473ffffffffffffffffffffffffffffffffffffffff1673ffffffffffffffffffffffffffffffffffffffff1663095ea7b360055f9054906101000a900473ffffffffffffffffffffffffffffffffffffffff16836040518363ffffffff1660e01b81526004016109b6929190612000565b6020604051808303815f875af11580156109d2573d5f803e3d5ffd5b505050506040513d601f19601f820116820180604052508101906109f69190612051565b505f8060055f9054906101000a900473ffffffffffffffffffffffffffffffffffffffff1673ffffffffffffffffffffffffffffffffffffffff1663e8e3370060025f9054906101000a900473ffffffffffffffffffffffffffffffffffffffff1660035f9054906101000a900473ffffffffffffffffffffffffffffffffffffffff16878760018030426040518963ffffffff1660e01b8152600401610aa49897969594939291906120b5565b6060604051808303815f875af1158015610ac0573d5f803e3d5ffd5b505050506040513d601f19601f82011682018060405250810190610ae49190612131565b50915091507f38f8a0c92f4c5b0b6877f878cb4c0c8d348a47b76d716c8e78f425043df9515b8282604051610b1a929190612181565b60405180910390a150505050565b5f805f9054906101000a900473ffffffffffffffffffffffffffffffffffffffff16905090565b610b57611627565b610b5f6116ef565b5f8111610ba1576040517f08c379a0000000000000000000000000000000000000000000000000000000008152600401610b9890612218565b60405180910390fd5b5f60075f9054906101000a900473ffffffffffffffffffffffffffffffffffffffff1690508073ffffffffffffffffffffffffffffffffffffffff1663095ea7b360055f9054906101000a900473ffffffffffffffffffffffffffffffffffffffff16846040518363ffffffff1660e01b8152600401610c22929190612000565b6020604051808303815f875af1158015610c3e573d5f803e3d5ffd5b505050506040513d601f19601f82011682018060405250810190610c629190612051565b505f8060055f9054906101000a900473ffffffffffffffffffffffffffffffffffffffff1673ffffffffffffffffffffffffffffffffffffffff1663baa2abde60025f9054906101000a900473ffffffffffffffffffffffffffffffffffffffff1660035f9054906101000a900473ffffffffffffffffffffffffffffffffffffffff168760018030426040518863ffffffff1660e01b8152600401610d0e9796959493929190612236565b60408051808303815f875af1158015610d29573d5f803e3d5ffd5b505050506040513d601f19601f82011682018060405250810190610d4d91906122a3565b915091507f6f0f96292ae0038c04f9b6bab30f185d9ca02c471d0983f563f2a4f674aef1378282604051610d82929190612181565b60405180910390a1505050610d9561173e565b50565b60045f9054906101000a900473ffffffffffffffffffffffffffffffffffffffff1681565b610dc5611627565b610dcd6116ef565b5f8311610e0f576040517f08c379a0000000000000000000000000000000000000000000000000000000008152600401610e0690612351565b60405180910390fd5b6002828290501015610e56576040517f08c379a0000000000000000000000000000000000000000000000000000000008152600401610e4d906123b9565b60405180910390fd5b5f60055f9054906101000a900473ffffffffffffffffffffffffffffffffffffffff1673ffffffffffffffffffffffffffffffffffffffff1663d06ca61f8585856040518463ffffffff1660e01b8152600401610eb593929190612493565b5f60405180830381865afa158015610ecf573d5f803e3d5ffd5b505050506040513d5f823e3d601f19601f82011682018060405250810190610ef791906125fb565b90505f60065f9054906101000a900473ffffffffffffffffffffffffffffffffffffffff1673ffffffffffffffffffffffffffffffffffffffff166338ed1739866001878730426040518763ffffffff1660e01b8152600401610f5f96959493929190612642565b5f604051808303815f875af1158015610f7a573d5f803e3d5ffd5b505050506040513d5f823e3d601f19601f82011682018060405250810190610fa291906125fb565b90505f8260018451610fb49190611e29565b81518110610fc557610fc461269c565b5b602002602001015190505f8260018451610fdf9190611e29565b81518110610ff057610fef61269c565b5b6020026020010151905080821061127a5785855f8181106110145761101361269c565b5b90506020020160208101906110299190611c9b565b73ffffffffffffffffffffffffffffffffffffffff1663095ea7b360055f9054906101000a900473ffffffffffffffffffffffffffffffffffffffff16896040518363ffffffff1660e01b8152600401611084929190612000565b6020604051808303815f875af11580156110a0573d5f803e3d5ffd5b505050506040513d601f19601f820116820180604052508101906110c49190612051565b505f60055f9054906101000a900473ffffffffffffffffffffffffffffffffffffffff1673ffffffffffffffffffffffffffffffffffffffff166338ed173989858a8a30426040518763ffffffff1660e01b815260040161112a969594939291906126c9565b5f604051808303815f875af1158015611145573d5f803e3d5ffd5b505050506040513d5f823e3d601f19601f8201168201806040525081019061116d91906125fb565b905086866001898990506111819190611e29565b8181106111915761119061269c565b5b90506020020160208101906111a69190611c9b565b73ffffffffffffffffffffffffffffffffffffffff1687875f8181106111cf576111ce61269c565b5b90506020020160208101906111e49190611c9b565b73ffffffffffffffffffffffffffffffffffffffff167fdd36740e2a012d93061a0d99eaa9107860955de4e90027d3cf465a055026c407835f8151811061122e5761122d61269c565b5b602002602001015184600186516112459190611e29565b815181106112565761125561269c565b5b602002602001015160405161126c929190612181565b60405180910390a3506114ef565b85855f81811061128d5761128c61269c565b5b90506020020160208101906112a29190611c9b565b73ffffffffffffffffffffffffffffffffffffffff1663095ea7b360065f9054906101000a900473ffffffffffffffffffffffffffffffffffffffff16896040518363ffffffff1660e01b81526004016112fd929190612000565b6020604051808303815f875af1158015611319573d5f803e3d5ffd5b505050506040513d601f19601f8201168201806040525081019061133d9190612051565b505f60065f9054906101000a900473ffffffffffffffffffffffffffffffffffffffff1673ffffffffffffffffffffffffffffffffffffffff166338ed173989848a8a30426040518763ffffffff1660e01b81526004016113a3969594939291906126c9565b5f604051808303815f875af11580156113be573d5f803e3d5ffd5b505050506040513d5f823e3d601f19601f820116820180604052508101906113e691906125fb565b905086866001898990506113fa9190611e29565b81811061140a5761140961269c565b5b905060200201602081019061141f9190611c9b565b73ffffffffffffffffffffffffffffffffffffffff1687875f8181106114485761144761269c565b5b905060200201602081019061145d9190611c9b565b73ffffffffffffffffffffffffffffffffffffffff167fdd36740e2a012d93061a0d99eaa9107860955de4e90027d3cf465a055026c407835f815181106114a7576114a661269c565b5b602002602001015184600186516114be9190611e29565b815181106114cf576114ce61269c565b5b60200260200101516040516114e5929190612181565b60405180910390a3505b505050506114fb61173e565b505050565b611508611627565b6115106116ef565b5f7f22831a56ed096ec8b35c25fe680899bf95c255557389a8645f13997b42c5cc348160405161154091906118ba565b60405180910390a15061155161173e565b565b600b5481565b611561611627565b5f73ffffffffffffffffffffffffffffffffffffffff168173ffffffffffffffffffffffffffffffffffffffff16036115d1575f6040517f1e4fbdf70000000000000000000000000000000000000000000000000000000081526004016115c89190611ba6565b60405180910390fd5b6115da81611747565b50565b60085f9054906101000a900473ffffffffffffffffffffffffffffffffffffffff1681565b60065f9054906101000a900473ffffffffffffffffffffffffffffffffffffffff1681565b61162f611808565b73ffffffffffffffffffffffffffffffffffffffff1661164d610b28565b73ffffffffffffffffffffffffffffffffffffffff16146116ac57611670611808565b6040517f118cdaa70000000000000000000000000000000000000000000000000000000081526004016116a39190611ba6565b60405180910390fd5b565b80600f819055507fc306af072396b02bf3a9782c10065cc7ff4aa842934a43f0b76f997b291237c8816040516116e491906118ba565b60405180910390a150565b600260015403611734576040517f08c379a000000000000000000000000000000000000000000000000000000000815260040161172b9061276d565b60405180910390fd5b6002600181905550565b60018081905550565b5f805f9054906101000a900473ffffffffffffffffffffffffffffffffffffffff169050815f806101000a81548173ffffffffffffffffffffffffffffffffffffffff021916908373ffffffffffffffffffffffffffffffffffffffff1602179055508173ffffffffffffffffffffffffffffffffffffffff168173ffffffffffffffffffffffffffffffffffffffff167f8be0079c531659141344cd1fd0a4f28419497f9722a3daafe3b4186f6b6457e060405160405180910390a35050565b5f33905090565b5f73ffffffffffffffffffffffffffffffffffffffff82169050919050565b5f819050919050565b5f61185161184c6118478461180f565b61182e565b61180f565b9050919050565b5f61186282611837565b9050919050565b5f61187382611858565b9050919050565b61188381611869565b82525050565b5f60208201905061189c5f83018461187a565b92915050565b5f819050919050565b6118b4816118a2565b82525050565b5f6020820190506118cd5f8301846118ab565b92915050565b5f604051905090565b5f80fd5b5f80fd5b6118ed816118a2565b81146118f7575f80fd5b50565b5f81359050611908816118e4565b92915050565b5f60208284031215611923576119226118dc565b5b5f611930848285016118fa565b91505092915050565b5f61194382611858565b9050919050565b61195381611939565b82525050565b5f60208201905061196c5f83018461194a565b92915050565b5f80fd5b5f80fd5b5f80fd5b5f8083601f84011261199357611992611972565b5b8235905067ffffffffffffffff8111156119b0576119af611976565b5b6020830191508360018202830111156119cc576119cb61197a565b5b9250929050565b5f80602083850312156119e9576119e86118dc565b5b5f83013567ffffffffffffffff811115611a0657611a056118e0565b5b611a128582860161197e565b92509250509250929050565b5f8115159050919050565b611a3281611a1e565b82525050565b5f81519050919050565b5f82825260208201905092915050565b8281835e5f83830152505050565b5f601f19601f8301169050919050565b5f611a7a82611a38565b611a848185611a42565b9350611a94818560208601611a52565b611a9d81611a60565b840191505092915050565b5f604082019050611abb5f830185611a29565b8181036020830152611acd8184611a70565b90509392505050565b5f611ae082611858565b9050919050565b611af081611ad6565b82525050565b5f602082019050611b095f830184611ae7565b92915050565b5f611b1982611858565b9050919050565b611b2981611b0f565b82525050565b5f602082019050611b425f830184611b20565b92915050565b5f8060408385031215611b5e57611b5d6118dc565b5b5f611b6b858286016118fa565b9250506020611b7c858286016118fa565b9150509250929050565b5f611b908261180f565b9050919050565b611ba081611b86565b82525050565b5f602082019050611bb95f830184611b97565b92915050565b5f8083601f840112611bd457611bd3611972565b5b8235905067ffffffffffffffff811115611bf157611bf0611976565b5b602083019150836020820283011115611c0d57611c0c61197a565b5b9250929050565b5f805f60408486031215611c2b57611c2a6118dc565b5b5f611c38868287016118fa565b935050602084013567ffffffffffffffff811115611c5957611c586118e0565b5b611c6586828701611bbf565b92509250509250925092565b611c7a81611b86565b8114611c84575f80fd5b50565b5f81359050611c9581611c71565b92915050565b5f60208284031215611cb057611caf6118dc565b5b5f611cbd84828501611c87565b91505092915050565b5f611cd082611858565b9050919050565b611ce081611cc6565b82525050565b5f602082019050611cf95f830184611cd7565b92915050565b5f69ffffffffffffffffffff82169050919050565b611d1d81611cff565b8114611d27575f80fd5b50565b5f81519050611d3881611d14565b92915050565b5f819050919050565b611d5081611d3e565b8114611d5a575f80fd5b50565b5f81519050611d6b81611d47565b92915050565b5f81519050611d7f816118e4565b92915050565b5f805f805f60a08688031215611d9e57611d9d6118dc565b5b5f611dab88828901611d2a565b9550506020611dbc88828901611d5d565b9450506040611dcd88828901611d71565b9350506060611dde88828901611d71565b9250506080611def88828901611d2a565b9150509295509295909350565b7f4e487b71000000000000000000000000000000000000000000000000000000005f52601160045260245ffd5b5f611e33826118a2565b9150611e3e836118a2565b9250828203905081811115611e5657611e55611dfc565b5b92915050565b5f611e66826118a2565b9150611e71836118a2565b9250828202611e7f816118a2565b91508282048414831517611e9657611e95611dfc565b5b5092915050565b7f4e487b71000000000000000000000000000000000000000000000000000000005f52601260045260245ffd5b5f611ed4826118a2565b9150611edf836118a2565b925082611eef57611eee611e9d565b5b828204905092915050565b5f82825260208201905092915050565b7f416d6f756e7473206d7573742062652067726561746572207468616e207a65725f8201527f6f2e000000000000000000000000000000000000000000000000000000000000602082015250565b5f611f64602283611efa565b9150611f6f82611f0a565b604082019050919050565b5f6020820190508181035f830152611f9181611f58565b9050919050565b7f45786365656473206d6178206f726465722073697a652e0000000000000000005f82015250565b5f611fcc601783611efa565b9150611fd782611f98565b602082019050919050565b5f6020820190508181035f830152611ff981611fc0565b9050919050565b5f6040820190506120135f830185611b97565b61202060208301846118ab565b9392505050565b61203081611a1e565b811461203a575f80fd5b50565b5f8151905061204b81612027565b92915050565b5f60208284031215612066576120656118dc565b5b5f6120738482850161203d565b91505092915050565b5f819050919050565b5f61209f61209a6120958461207c565b61182e565b6118a2565b9050919050565b6120af81612085565b82525050565b5f610100820190506120c95f83018b611b97565b6120d6602083018a611b97565b6120e360408301896118ab565b6120f060608301886118ab565b6120fd60808301876120a6565b61210a60a08301866120a6565b61211760c0830185611b97565b61212460e08301846118ab565b9998505050505050505050565b5f805f60608486031215612148576121476118dc565b5b5f61215586828701611d71565b935050602061216686828701611d71565b925050604061217786828701611d71565b9150509250925092565b5f6040820190506121945f8301856118ab565b6121a160208301846118ab565b9392505050565b7f4c6971756964697479206d7573742062652067726561746572207468616e207a5f8201527f65726f2e00000000000000000000000000000000000000000000000000000000602082015250565b5f612202602483611efa565b915061220d826121a8565b604082019050919050565b5f6020820190508181035f83015261222f816121f6565b9050919050565b5f60e0820190506122495f83018a611b97565b6122566020830189611b97565b61226360408301886118ab565b61227060608301876120a6565b61227d60808301866120a6565b61228a60a0830185611b97565b61229760c08301846118ab565b98975050505050505050565b5f80604083850312156122b9576122b86118dc565b5b5f6122c685828601611d71565b92505060206122d785828601611d71565b9150509250929050565b7f416d6f756e74206d7573742062652067726561746572207468616e207a65726f5f8201527f2e00000000000000000000000000000000000000000000000000000000000000602082015250565b5f61233b602183611efa565b9150612346826122e1565b604082019050919050565b5f6020820190508181035f8301526123688161232f565b9050919050565b7f496e76616c6964207377617020706174682e00000000000000000000000000005f82015250565b5f6123a3601283611efa565b91506123ae8261236f565b602082019050919050565b5f6020820190508181035f8301526123d081612397565b9050919050565b5f82825260208201905092915050565b5f819050919050565b6123f981611b86565b82525050565b5f61240a83836123f0565b60208301905092915050565b5f6124246020840184611c87565b905092915050565b5f602082019050919050565b5f61244383856123d7565b935061244e826123e7565b805f5b85811015612486576124638284612416565b61246d88826123ff565b97506124788361242c565b925050600181019050612451565b5085925050509392505050565b5f6040820190506124a65f8301866118ab565b81810360208301526124b9818486612438565b9050949350505050565b7f4e487b71000000000000000000000000000000000000000000000000000000005f52604160045260245ffd5b6124f982611a60565b810181811067ffffffffffffffff82111715612518576125176124c3565b5b80604052505050565b5f61252a6118d3565b905061253682826124f0565b919050565b5f67ffffffffffffffff821115612555576125546124c3565b5b602082029050602081019050919050565b5f6125786125738461253b565b612521565b9050808382526020820190506020840283018581111561259b5761259a61197a565b5b835b818110156125c457806125b08882611d71565b84526020840193505060208101905061259d565b5050509392505050565b5f82601f8301126125e2576125e1611972565b5b81516125f2848260208601612566565b91505092915050565b5f602082840312156126105761260f6118dc565b5b5f82015167ffffffffffffffff81111561262d5761262c6118e0565b5b612639848285016125ce565b91505092915050565b5f60a0820190506126555f8301896118ab565b61266260208301886120a6565b8181036040830152612675818688612438565b90506126846060830185611b97565b61269160808301846118ab565b979650505050505050565b7f4e487b71000000000000000000000000000000000000000000000000000000005f52603260045260245ffd5b5f60a0820190506126dc5f8301896118ab565b6126e960208301886118ab565b81810360408301526126fc818688612438565b905061270b6060830185611b97565b61271860808301846118ab565b979650505050505050565b7f5265656e7472616e637947756172643a207265656e7472616e742063616c6c005f82015250565b5f612757601f83611efa565b915061276282612723565b602082019050919050565b5f6020820190508181035f8301526127848161274b565b905091905056fea2646970667358221220743317d7edc4e6073b8008587bb84e0d0ea898208377d4ea24857dabf4a09bb864736f6c634300081a0033",
					"opcodes": "PUSH1 0x80 PUSH1 0x40 MSTORE CALLVALUE DUP1 ISZERO PUSH2 0xF JUMPI PUSH0 DUP1 REVERT JUMPDEST POP PUSH1 0x40 MLOAD PUSH2 0x30F1 CODESIZE SUB DUP1 PUSH2 0x30F1 DUP4 CODECOPY DUP2 DUP2 ADD PUSH1 0x40 MSTORE DUP2 ADD SWAP1 PUSH2 0x31 SWAP2 SWAP1 PUSH2 0x758 JUMP JUMPDEST CALLER PUSH0 PUSH20 0xFFFFFFFFFFFFFFFFFFFFFFFFFFFFFFFFFFFFFFFF AND DUP2 PUSH20 0xFFFFFFFFFFFFFFFFFFFFFFFFFFFFFFFFFFFFFFFF AND SUB PUSH2 0xA2 JUMPI PUSH0 PUSH1 0x40 MLOAD PUSH32 0x1E4FBDF700000000000000000000000000000000000000000000000000000000 DUP2 MSTORE PUSH1 0x4 ADD PUSH2 0x99 SWAP2 SWAP1 PUSH2 0x840 JUMP JUMPDEST PUSH1 0x40 MLOAD DUP1 SWAP2 SUB SWAP1 REVERT JUMPDEST PUSH2 0xB1 DUP2 PUSH2 0x606 PUSH1 0x20 SHL PUSH1 0x20 SHR JUMP JUMPDEST POP PUSH1 0x1 DUP1 DUP2 SWAP1 SSTORE POP DUP10 PUSH1 0x2 PUSH0 PUSH2 0x100 EXP DUP2 SLOAD DUP2 PUSH20 0xFFFFFFFFFFFFFFFFFFFFFFFFFFFFFFFFFFFFFFFF MUL NOT AND SWAP1 DUP4 PUSH20 0xFFFFFFFFFFFFFFFFFFFFFFFFFFFFFFFFFFFFFFFF AND MUL OR SWAP1 SSTORE POP DUP9 PUSH1 0x3 PUSH0 PUSH2 0x100 EXP DUP2 SLOAD DUP2 PUSH20 0xFFFFFFFFFFFFFFFFFFFFFFFFFFFFFFFFFFFFFFFF MUL NOT AND SWAP1 DUP4 PUSH20 0xFFFFFFFFFFFFFFFFFFFFFFFFFFFFFFFFFFFFFFFF AND MUL OR SWAP1 SSTORE POP DUP8 PUSH1 0x4 PUSH0 PUSH2 0x100 EXP DUP2 SLOAD DUP2 PUSH20 0xFFFFFFFFFFFFFFFFFFFFFFFFFFFFFFFFFFFFFFFF MUL NOT AND SWAP1 DUP4 PUSH20 0xFFFFFFFFFFFFFFFFFFFFFFFFFFFFFFFFFFFFFFFF AND MUL OR SWAP1 SSTORE POP DUP7 PUSH1 0x5 PUSH0 PUSH2 0x100 EXP DUP2 SLOAD DUP2 PUSH20 0xFFFFFFFFFFFFFFFFFFFFFFFFFFFFFFFFFFFFFFFF MUL NOT AND SWAP1 DUP4 PUSH20 0xFFFFFFFFFFFFFFFFFFFFFFFFFFFFFFFFFFFFFFFF AND MUL OR SWAP1 SSTORE POP DUP6 PUSH1 0x6 PUSH0 PUSH2 0x100 EXP DUP2 SLOAD DUP2 PUSH20 0xFFFFFFFFFFFFFFFFFFFFFFFFFFFFFFFFFFFFFFFF MUL NOT AND SWAP1 DUP4 PUSH20 0xFFFFFFFFFFFFFFFFFFFFFFFFFFFFFFFFFFFFFFFF AND MUL OR SWAP1 SSTORE POP DUP5 PUSH1 0xA PUSH0 PUSH2 0x100 EXP DUP2 SLOAD DUP2 PUSH20 0xFFFFFFFFFFFFFFFFFFFFFFFFFFFFFFFFFFFFFFFF MUL NOT AND SWAP1 DUP4 PUSH20 0xFFFFFFFFFFFFFFFFFFFFFFFFFFFFFFFFFFFFFFFF AND MUL OR SWAP1 SSTORE POP DUP4 PUSH1 0xB DUP2 SWAP1 SSTORE POP DUP3 PUSH1 0xC DUP2 SWAP1 SSTORE POP DUP2 PUSH1 0xD DUP2 SWAP1 SSTORE POP DUP1 PUSH1 0xE DUP2 SWAP1 SSTORE POP PUSH0 PUSH1 0x5 PUSH0 SWAP1 SLOAD SWAP1 PUSH2 0x100 EXP SWAP1 DIV PUSH20 0xFFFFFFFFFFFFFFFFFFFFFFFFFFFFFFFFFFFFFFFF AND PUSH20 0xFFFFFFFFFFFFFFFFFFFFFFFFFFFFFFFFFFFFFFFF AND PUSH4 0xC45A0155 PUSH1 0x40 MLOAD DUP2 PUSH4 0xFFFFFFFF AND PUSH1 0xE0 SHL DUP2 MSTORE PUSH1 0x4 ADD PUSH1 0x20 PUSH1 0x40 MLOAD DUP1 DUP4 SUB DUP2 DUP7 GAS STATICCALL ISZERO DUP1 ISZERO PUSH2 0x2C0 JUMPI RETURNDATASIZE PUSH0 DUP1 RETURNDATACOPY RETURNDATASIZE PUSH0 REVERT JUMPDEST POP POP POP POP PUSH1 0x40 MLOAD RETURNDATASIZE PUSH1 0x1F NOT PUSH1 0x1F DUP3 ADD AND DUP3 ADD DUP1 PUSH1 0x40 MSTORE POP DUP2 ADD SWAP1 PUSH2 0x2E4 SWAP2 SWAP1 PUSH2 0x859 JUMP JUMPDEST SWAP1 POP PUSH0 DUP2 PUSH20 0xFFFFFFFFFFFFFFFFFFFFFFFFFFFFFFFFFFFFFFFF AND PUSH4 0xE6A43905 DUP14 DUP14 PUSH1 0x40 MLOAD DUP4 PUSH4 0xFFFFFFFF AND PUSH1 0xE0 SHL DUP2 MSTORE PUSH1 0x4 ADD PUSH2 0x322 SWAP3 SWAP2 SWAP1 PUSH2 0x884 JUMP JUMPDEST PUSH1 0x20 PUSH1 0x40 MLOAD DUP1 DUP4 SUB DUP2 DUP7 GAS STATICCALL ISZERO DUP1 ISZERO PUSH2 0x33D JUMPI RETURNDATASIZE PUSH0 DUP1 RETURNDATACOPY RETURNDATASIZE PUSH0 REVERT JUMPDEST POP POP POP POP PUSH1 0x40 MLOAD RETURNDATASIZE PUSH1 0x1F NOT PUSH1 0x1F DUP3 ADD AND DUP3 ADD DUP1 PUSH1 0x40 MSTORE POP DUP2 ADD SWAP1 PUSH2 0x361 SWAP2 SWAP1 PUSH2 0x859 JUMP JUMPDEST SWAP1 POP PUSH0 PUSH20 0xFFFFFFFFFFFFFFFFFFFFFFFFFFFFFFFFFFFFFFFF AND DUP2 PUSH20 0xFFFFFFFFFFFFFFFFFFFFFFFFFFFFFFFFFFFFFFFF AND SUB PUSH2 0x3D1 JUMPI PUSH1 0x40 MLOAD PUSH32 0x8C379A000000000000000000000000000000000000000000000000000000000 DUP2 MSTORE PUSH1 0x4 ADD PUSH2 0x3C8 SWAP1 PUSH2 0x905 JUMP JUMPDEST PUSH1 0x40 MLOAD DUP1 SWAP2 SUB SWAP1 REVERT JUMPDEST DUP1 PUSH1 0x7 PUSH0 PUSH2 0x100 EXP DUP2 SLOAD DUP2 PUSH20 0xFFFFFFFFFFFFFFFFFFFFFFFFFFFFFFFFFFFFFFFF MUL NOT AND SWAP1 DUP4 PUSH20 0xFFFFFFFFFFFFFFFFFFFFFFFFFFFFFFFFFFFFFFFF AND MUL OR SWAP1 SSTORE POP PUSH0 DUP3 PUSH20 0xFFFFFFFFFFFFFFFFFFFFFFFFFFFFFFFFFFFFFFFF AND PUSH4 0xE6A43905 DUP15 DUP14 PUSH1 0x40 MLOAD DUP4 PUSH4 0xFFFFFFFF AND PUSH1 0xE0 SHL DUP2 MSTORE PUSH1 0x4 ADD PUSH2 0x44D SWAP3 SWAP2 SWAP1 PUSH2 0x884 JUMP JUMPDEST PUSH1 0x20 PUSH1 0x40 MLOAD DUP1 DUP4 SUB DUP2 DUP7 GAS STATICCALL ISZERO DUP1 ISZERO PUSH2 0x468 JUMPI RETURNDATASIZE PUSH0 DUP1 RETURNDATACOPY RETURNDATASIZE PUSH0 REVERT JUMPDEST POP POP POP POP PUSH1 0x40 MLOAD RETURNDATASIZE PUSH1 0x1F NOT PUSH1 0x1F DUP3 ADD AND DUP3 ADD DUP1 PUSH1 0x40 MSTORE POP DUP2 ADD SWAP1 PUSH2 0x48C SWAP2 SWAP1 PUSH2 0x859 JUMP JUMPDEST SWAP1 POP PUSH0 PUSH20 0xFFFFFFFFFFFFFFFFFFFFFFFFFFFFFFFFFFFFFFFF AND DUP2 PUSH20 0xFFFFFFFFFFFFFFFFFFFFFFFFFFFFFFFFFFFFFFFF AND EQ PUSH2 0x502 JUMPI DUP1 PUSH1 0x8 PUSH0 PUSH2 0x100 EXP DUP2 SLOAD DUP2 PUSH20 0xFFFFFFFFFFFFFFFFFFFFFFFFFFFFFFFFFFFFFFFF MUL NOT AND SWAP1 DUP4 PUSH20 0xFFFFFFFFFFFFFFFFFFFFFFFFFFFFFFFFFFFFFFFF AND MUL OR SWAP1 SSTORE POP JUMPDEST PUSH0 DUP4 PUSH20 0xFFFFFFFFFFFFFFFFFFFFFFFFFFFFFFFFFFFFFFFF AND PUSH4 0xE6A43905 DUP15 DUP15 PUSH1 0x40 MLOAD DUP4 PUSH4 0xFFFFFFFF AND PUSH1 0xE0 SHL DUP2 MSTORE PUSH1 0x4 ADD PUSH2 0x53E SWAP3 SWAP2 SWAP1 PUSH2 0x884 JUMP JUMPDEST PUSH1 0x20 PUSH1 0x40 MLOAD DUP1 DUP4 SUB DUP2 DUP7 GAS STATICCALL ISZERO DUP1 ISZERO PUSH2 0x559 JUMPI RETURNDATASIZE PUSH0 DUP1 RETURNDATACOPY RETURNDATASIZE PUSH0 REVERT JUMPDEST POP POP POP POP PUSH1 0x40 MLOAD RETURNDATASIZE PUSH1 0x1F NOT PUSH1 0x1F DUP3 ADD AND DUP3 ADD DUP1 PUSH1 0x40 MSTORE POP DUP2 ADD SWAP1 PUSH2 0x57D SWAP2 SWAP1 PUSH2 0x859 JUMP JUMPDEST SWAP1 POP PUSH0 PUSH20 0xFFFFFFFFFFFFFFFFFFFFFFFFFFFFFFFFFFFFFFFF AND DUP2 PUSH20 0xFFFFFFFFFFFFFFFFFFFFFFFFFFFFFFFFFFFFFFFF AND EQ PUSH2 0x5F3 JUMPI DUP1 PUSH1 0x9 PUSH0 PUSH2 0x100 EXP DUP2 SLOAD DUP2 PUSH20 0xFFFFFFFFFFFFFFFFFFFFFFFFFFFFFFFFFFFFFFFF MUL NOT AND SWAP1 DUP4 PUSH20 0xFFFFFFFFFFFFFFFFFFFFFFFFFFFFFFFFFFFFFFFF AND MUL OR SWAP1 SSTORE POP JUMPDEST POP POP POP POP POP POP POP POP POP POP POP POP POP POP PUSH2 0x923 JUMP JUMPDEST PUSH0 DUP1 PUSH0 SWAP1 SLOAD SWAP1 PUSH2 0x100 EXP SWAP1 DIV PUSH20 0xFFFFFFFFFFFFFFFFFFFFFFFFFFFFFFFFFFFFFFFF AND SWAP1 POP DUP2 PUSH0 DUP1 PUSH2 0x100 EXP DUP2 SLOAD DUP2 PUSH20 0xFFFFFFFFFFFFFFFFFFFFFFFFFFFFFFFFFFFFFFFF MUL NOT AND SWAP1 DUP4 PUSH20 0xFFFFFFFFFFFFFFFFFFFFFFFFFFFFFFFFFFFFFFFF AND MUL OR SWAP1 SSTORE POP DUP2 PUSH20 0xFFFFFFFFFFFFFFFFFFFFFFFFFFFFFFFFFFFFFFFF AND DUP2 PUSH20 0xFFFFFFFFFFFFFFFFFFFFFFFFFFFFFFFFFFFFFFFF AND PUSH32 0x8BE0079C531659141344CD1FD0A4F28419497F9722A3DAAFE3B4186F6B6457E0 PUSH1 0x40 MLOAD PUSH1 0x40 MLOAD DUP1 SWAP2 SUB SWAP1 LOG3 POP POP JUMP JUMPDEST PUSH0 DUP1 REVERT JUMPDEST PUSH0 PUSH20 0xFFFFFFFFFFFFFFFFFFFFFFFFFFFFFFFFFFFFFFFF DUP3 AND SWAP1 POP SWAP2 SWAP1 POP JUMP JUMPDEST PUSH0 PUSH2 0x6F4 DUP3 PUSH2 0x6CB JUMP JUMPDEST SWAP1 POP SWAP2 SWAP1 POP JUMP JUMPDEST PUSH2 0x704 DUP2 PUSH2 0x6EA JUMP JUMPDEST DUP2 EQ PUSH2 0x70E JUMPI PUSH0 DUP1 REVERT JUMPDEST POP JUMP JUMPDEST PUSH0 DUP2 MLOAD SWAP1 POP PUSH2 0x71F DUP2 PUSH2 0x6FB JUMP JUMPDEST SWAP3 SWAP2 POP POP JUMP JUMPDEST PUSH0 DUP2 SWAP1 POP SWAP2 SWAP1 POP JUMP JUMPDEST PUSH2 0x737 DUP2 PUSH2 0x725 JUMP JUMPDEST DUP2 EQ PUSH2 0x741 JUMPI PUSH0 DUP1 REVERT JUMPDEST POP JUMP JUMPDEST PUSH0 DUP2 MLOAD SWAP1 POP PUSH2 0x752 DUP2 PUSH2 0x72E JUMP JUMPDEST SWAP3 SWAP2 POP POP JUMP JUMPDEST PUSH0 DUP1 PUSH0 DUP1 PUSH0 DUP1 PUSH0 DUP1 PUSH0 DUP1 PUSH2 0x140 DUP12 DUP14 SUB SLT ISZERO PUSH2 0x777 JUMPI PUSH2 0x776 PUSH2 0x6C7 JUMP JUMPDEST JUMPDEST PUSH0 PUSH2 0x784 DUP14 DUP3 DUP15 ADD PUSH2 0x711 JUMP JUMPDEST SWAP11 POP POP PUSH1 0x20 PUSH2 0x795 DUP14 DUP3 DUP15 ADD PUSH2 0x711 JUMP JUMPDEST SWAP10 POP POP PUSH1 0x40 PUSH2 0x7A6 DUP14 DUP3 DUP15 ADD PUSH2 0x711 JUMP JUMPDEST SWAP9 POP POP PUSH1 0x60 PUSH2 0x7B7 DUP14 DUP3 DUP15 ADD PUSH2 0x711 JUMP JUMPDEST SWAP8 POP POP PUSH1 0x80 PUSH2 0x7C8 DUP14 DUP3 DUP15 ADD PUSH2 0x711 JUMP JUMPDEST SWAP7 POP POP PUSH1 0xA0 PUSH2 0x7D9 DUP14 DUP3 DUP15 ADD PUSH2 0x711 JUMP JUMPDEST SWAP6 POP POP PUSH1 0xC0 PUSH2 0x7EA DUP14 DUP3 DUP15 ADD PUSH2 0x744 JUMP JUMPDEST SWAP5 POP POP PUSH1 0xE0 PUSH2 0x7FB DUP14 DUP3 DUP15 ADD PUSH2 0x744 JUMP JUMPDEST SWAP4 POP POP PUSH2 0x100 PUSH2 0x80D DUP14 DUP3 DUP15 ADD PUSH2 0x744 JUMP JUMPDEST SWAP3 POP POP PUSH2 0x120 PUSH2 0x81F DUP14 DUP3 DUP15 ADD PUSH2 0x744 JUMP JUMPDEST SWAP2 POP POP SWAP3 SWAP6 SWAP9 SWAP12 SWAP2 SWAP5 SWAP8 SWAP11 POP SWAP3 SWAP6 SWAP9 POP JUMP JUMPDEST PUSH2 0x83A DUP2 PUSH2 0x6EA JUMP JUMPDEST DUP3 MSTORE POP POP JUMP JUMPDEST PUSH0 PUSH1 0x20 DUP3 ADD SWAP1 POP PUSH2 0x853 PUSH0 DUP4 ADD DUP5 PUSH2 0x831 JUMP JUMPDEST SWAP3 SWAP2 POP POP JUMP JUMPDEST PUSH0 PUSH1 0x20 DUP3 DUP5 SUB SLT ISZERO PUSH2 0x86E JUMPI PUSH2 0x86D PUSH2 0x6C7 JUMP JUMPDEST JUMPDEST PUSH0 PUSH2 0x87B DUP5 DUP3 DUP6 ADD PUSH2 0x711 JUMP JUMPDEST SWAP2 POP POP SWAP3 SWAP2 POP POP JUMP JUMPDEST PUSH0 PUSH1 0x40 DUP3 ADD SWAP1 POP PUSH2 0x897 PUSH0 DUP4 ADD DUP6 PUSH2 0x831 JUMP JUMPDEST PUSH2 0x8A4 PUSH1 0x20 DUP4 ADD DUP5 PUSH2 0x831 JUMP JUMPDEST SWAP4 SWAP3 POP POP POP JUMP JUMPDEST PUSH0 DUP3 DUP3 MSTORE PUSH1 0x20 DUP3 ADD SWAP1 POP SWAP3 SWAP2 POP POP JUMP JUMPDEST PUSH32 0x556E6973776170207061697220412F4220646F65736E27742065786973742E00 PUSH0 DUP3 ADD MSTORE POP JUMP JUMPDEST PUSH0 PUSH2 0x8EF PUSH1 0x1F DUP4 PUSH2 0x8AB JUMP JUMPDEST SWAP2 POP PUSH2 0x8FA DUP3 PUSH2 0x8BB JUMP JUMPDEST PUSH1 0x20 DUP3 ADD SWAP1 POP SWAP2 SWAP1 POP JUMP JUMPDEST PUSH0 PUSH1 0x20 DUP3 ADD SWAP1 POP DUP2 DUP2 SUB PUSH0 DUP4 ADD MSTORE PUSH2 0x91C DUP2 PUSH2 0x8E3 JUMP JUMPDEST SWAP1 POP SWAP2 SWAP1 POP JUMP JUMPDEST PUSH2 0x27C1 DUP1 PUSH2 0x930 PUSH0 CODECOPY PUSH0 RETURN INVALID PUSH1 0x80 PUSH1 0x40 MSTORE CALLVALUE DUP1 ISZERO PUSH2 0xF JUMPI PUSH0 DUP1 REVERT JUMPDEST POP PUSH1 0x4 CALLDATASIZE LT PUSH2 0x1CD JUMPI PUSH0 CALLDATALOAD PUSH1 0xE0 SHR DUP1 PUSH4 0x715018A6 GT PUSH2 0x102 JUMPI DUP1 PUSH4 0x9C8F9F23 GT PUSH2 0xA0 JUMPI DUP1 PUSH4 0xF1A82C7E GT PUSH2 0x6F JUMPI DUP1 PUSH4 0xF1A82C7E EQ PUSH2 0x486 JUMPI DUP1 PUSH4 0xF2FDE38B EQ PUSH2 0x4A4 JUMPI DUP1 PUSH4 0xFBF6DB14 EQ PUSH2 0x4C0 JUMPI DUP1 PUSH4 0xFD829A23 EQ PUSH2 0x4DE JUMPI PUSH2 0x1CD JUMP JUMPDEST DUP1 PUSH4 0x9C8F9F23 EQ PUSH2 0x426 JUMPI DUP1 PUSH4 0xC483A308 EQ PUSH2 0x442 JUMPI DUP1 PUSH4 0xD3EC3EEC EQ PUSH2 0x460 JUMPI DUP1 PUSH4 0xD8FC0816 EQ PUSH2 0x47C JUMPI PUSH2 0x1CD JUMP JUMPDEST DUP1 PUSH4 0x735DE9F7 GT PUSH2 0xDC JUMPI DUP1 PUSH4 0x735DE9F7 EQ PUSH2 0x3B0 JUMPI DUP1 PUSH4 0x741BEF1A EQ PUSH2 0x3CE JUMPI DUP1 PUSH4 0x7A16AF7F EQ PUSH2 0x3EC JUMPI DUP1 PUSH4 0x8DA5CB5B EQ PUSH2 0x408 JUMPI PUSH2 0x1CD JUMP JUMPDEST DUP1 PUSH4 0x715018A6 EQ PUSH2 0x36C JUMPI DUP1 PUSH4 0x730AB60F EQ PUSH2 0x376 JUMPI DUP1 PUSH4 0x7341AB8C EQ PUSH2 0x392 JUMPI PUSH2 0x1CD JUMP JUMPDEST DUP1 PUSH4 0x3EBC480F GT PUSH2 0x16F JUMPI DUP1 PUSH4 0x58D0EE58 GT PUSH2 0x149 JUMPI DUP1 PUSH4 0x58D0EE58 EQ PUSH2 0x2E3 JUMPI DUP1 PUSH4 0x5A11CD58 EQ PUSH2 0x2FF JUMPI DUP1 PUSH4 0x5F64B55B EQ PUSH2 0x31D JUMPI DUP1 PUSH4 0x6E04FF0D EQ PUSH2 0x33B JUMPI PUSH2 0x1CD JUMP JUMPDEST DUP1 PUSH4 0x3EBC480F EQ PUSH2 0x2A1 JUMPI DUP1 PUSH4 0x4585E33B EQ PUSH2 0x2BD JUMPI DUP1 PUSH4 0x47C8E13C EQ PUSH2 0x2D9 JUMPI PUSH2 0x1CD JUMP JUMPDEST DUP1 PUSH4 0x1AE74CCE GT PUSH2 0x1AB JUMPI DUP1 PUSH4 0x1AE74CCE EQ PUSH2 0x229 JUMPI DUP1 PUSH4 0x2197634F EQ PUSH2 0x247 JUMPI DUP1 PUSH4 0x28A5E10C EQ PUSH2 0x265 JUMPI DUP1 PUSH4 0x3DFE9F6A EQ PUSH2 0x283 JUMPI PUSH2 0x1CD JUMP JUMPDEST DUP1 PUSH4 0xFC63D10 EQ PUSH2 0x1D1 JUMPI DUP1 PUSH4 0x106B9CA1 EQ PUSH2 0x1EF JUMPI DUP1 PUSH4 0x12DDBC4F EQ PUSH2 0x20D JUMPI JUMPDEST PUSH0 DUP1 REVERT JUMPDEST PUSH2 0x1D9 PUSH2 0x4FC JUMP JUMPDEST PUSH1 0x40 MLOAD PUSH2 0x1E6 SWAP2 SWAP1 PUSH2 0x1889 JUMP JUMPDEST PUSH1 0x40 MLOAD DUP1 SWAP2 SUB SWAP1 RETURN JUMPDEST PUSH2 0x1F7 PUSH2 0x521 JUMP JUMPDEST PUSH1 0x40 MLOAD PUSH2 0x204 SWAP2 SWAP1 PUSH2 0x18BA JUMP JUMPDEST PUSH1 0x40 MLOAD DUP1 SWAP2 SUB SWAP1 RETURN JUMPDEST PUSH2 0x227 PUSH1 0x4 DUP1 CALLDATASIZE SUB DUP2 ADD SWAP1 PUSH2 0x222 SWAP2 SWAP1 PUSH2 0x190E JUMP JUMPDEST PUSH2 0x527 JUMP JUMPDEST STOP JUMPDEST PUSH2 0x231 PUSH2 0x539 JUMP JUMPDEST PUSH1 0x40 MLOAD PUSH2 0x23E SWAP2 SWAP1 PUSH2 0x18BA JUMP JUMPDEST PUSH1 0x40 MLOAD DUP1 SWAP2 SUB SWAP1 RETURN JUMPDEST PUSH2 0x24F PUSH2 0x5D6 JUMP JUMPDEST PUSH1 0x40 MLOAD PUSH2 0x25C SWAP2 SWAP1 PUSH2 0x18BA JUMP JUMPDEST PUSH1 0x40 MLOAD DUP1 SWAP2 SUB SWAP1 RETURN JUMPDEST PUSH2 0x26D PUSH2 0x5DC JUMP JUMPDEST PUSH1 0x40 MLOAD PUSH2 0x27A SWAP2 SWAP1 PUSH2 0x1959 JUMP JUMPDEST PUSH1 0x40 MLOAD DUP1 SWAP2 SUB SWAP1 RETURN JUMPDEST PUSH2 0x28B PUSH2 0x601 JUMP JUMPDEST PUSH1 0x40 MLOAD PUSH2 0x298 SWAP2 SWAP1 PUSH2 0x18BA JUMP JUMPDEST PUSH1 0x40 MLOAD DUP1 SWAP2 SUB SWAP1 RETURN JUMPDEST PUSH2 0x2BB PUSH1 0x4 DUP1 CALLDATASIZE SUB DUP2 ADD SWAP1 PUSH2 0x2B6 SWAP2 SWAP1 PUSH2 0x190E JUMP JUMPDEST PUSH2 0x607 JUMP JUMPDEST STOP JUMPDEST PUSH2 0x2D7 PUSH1 0x4 DUP1 CALLDATASIZE SUB DUP2 ADD SWAP1 PUSH2 0x2D2 SWAP2 SWAP1 PUSH2 0x19D3 JUMP JUMPDEST PUSH2 0x619 JUMP JUMPDEST STOP JUMPDEST PUSH2 0x2E1 PUSH2 0x632 JUMP JUMPDEST STOP JUMPDEST PUSH2 0x2FD PUSH1 0x4 DUP1 CALLDATASIZE SUB DUP2 ADD SWAP1 PUSH2 0x2F8 SWAP2 SWAP1 PUSH2 0x190E JUMP JUMPDEST PUSH2 0x685 JUMP JUMPDEST STOP JUMPDEST PUSH2 0x307 PUSH2 0x697 JUMP JUMPDEST PUSH1 0x40 MLOAD PUSH2 0x314 SWAP2 SWAP1 PUSH2 0x1959 JUMP JUMPDEST PUSH1 0x40 MLOAD DUP1 SWAP2 SUB SWAP1 RETURN JUMPDEST PUSH2 0x325 PUSH2 0x6BC JUMP JUMPDEST PUSH1 0x40 MLOAD PUSH2 0x332 SWAP2 SWAP1 PUSH2 0x1889 JUMP JUMPDEST PUSH1 0x40 MLOAD DUP1 SWAP2 SUB SWAP1 RETURN JUMPDEST PUSH2 0x355 PUSH1 0x4 DUP1 CALLDATASIZE SUB DUP2 ADD SWAP1 PUSH2 0x350 SWAP2 SWAP1 PUSH2 0x19D3 JUMP JUMPDEST PUSH2 0x6E1 JUMP JUMPDEST PUSH1 0x40 MLOAD PUSH2 0x363 SWAP3 SWAP2 SWAP1 PUSH2 0x1AA8 JUMP JUMPDEST PUSH1 0x40 MLOAD DUP1 SWAP2 SUB SWAP1 RETURN JUMPDEST PUSH2 0x374 PUSH2 0x75E JUMP JUMPDEST STOP JUMPDEST PUSH2 0x390 PUSH1 0x4 DUP1 CALLDATASIZE SUB DUP2 ADD SWAP1 PUSH2 0x38B SWAP2 SWAP1 PUSH2 0x190E JUMP JUMPDEST PUSH2 0x771 JUMP JUMPDEST STOP JUMPDEST PUSH2 0x39A PUSH2 0x783 JUMP JUMPDEST PUSH1 0x40 MLOAD PUSH2 0x3A7 SWAP2 SWAP1 PUSH2 0x18BA JUMP JUMPDEST PUSH1 0x40 MLOAD DUP1 SWAP2 SUB SWAP1 RETURN JUMPDEST PUSH2 0x3B8 PUSH2 0x789 JUMP JUMPDEST PUSH1 0x40 MLOAD PUSH2 0x3C5 SWAP2 SWAP1 PUSH2 0x1AF6 JUMP JUMPDEST PUSH1 0x40 MLOAD DUP1 SWAP2 SUB SWAP1 RETURN JUMPDEST PUSH2 0x3D6 PUSH2 0x7AE JUMP JUMPDEST PUSH1 0x40 MLOAD PUSH2 0x3E3 SWAP2 SWAP1 PUSH2 0x1B2F JUMP JUMPDEST PUSH1 0x40 MLOAD DUP1 SWAP2 SUB SWAP1 RETURN JUMPDEST PUSH2 0x406 PUSH1 0x4 DUP1 CALLDATASIZE SUB DUP2 ADD SWAP1 PUSH2 0x401 SWAP2 SWAP1 PUSH2 0x1B48 JUMP JUMPDEST PUSH2 0x7D3 JUMP JUMPDEST STOP JUMPDEST PUSH2 0x410 PUSH2 0xB28 JUMP JUMPDEST PUSH1 0x40 MLOAD PUSH2 0x41D SWAP2 SWAP1 PUSH2 0x1BA6 JUMP JUMPDEST PUSH1 0x40 MLOAD DUP1 SWAP2 SUB SWAP1 RETURN JUMPDEST PUSH2 0x440 PUSH1 0x4 DUP1 CALLDATASIZE SUB DUP2 ADD SWAP1 PUSH2 0x43B SWAP2 SWAP1 PUSH2 0x190E JUMP JUMPDEST PUSH2 0xB4F JUMP JUMPDEST STOP JUMPDEST PUSH2 0x44A PUSH2 0xD98 JUMP JUMPDEST PUSH1 0x40 MLOAD PUSH2 0x457 SWAP2 SWAP1 PUSH2 0x1889 JUMP JUMPDEST PUSH1 0x40 MLOAD DUP1 SWAP2 SUB SWAP1 RETURN JUMPDEST PUSH2 0x47A PUSH1 0x4 DUP1 CALLDATASIZE SUB DUP2 ADD SWAP1 PUSH2 0x475 SWAP2 SWAP1 PUSH2 0x1C14 JUMP JUMPDEST PUSH2 0xDBD JUMP JUMPDEST STOP JUMPDEST PUSH2 0x484 PUSH2 0x1500 JUMP JUMPDEST STOP JUMPDEST PUSH2 0x48E PUSH2 0x1553 JUMP JUMPDEST PUSH1 0x40 MLOAD PUSH2 0x49B SWAP2 SWAP1 PUSH2 0x18BA JUMP JUMPDEST PUSH1 0x40 MLOAD DUP1 SWAP2 SUB SWAP1 RETURN JUMPDEST PUSH2 0x4BE PUSH1 0x4 DUP1 CALLDATASIZE SUB DUP2 ADD SWAP1 PUSH2 0x4B9 SWAP2 SWAP1 PUSH2 0x1C9B JUMP JUMPDEST PUSH2 0x1559 JUMP JUMPDEST STOP JUMPDEST PUSH2 0x4C8 PUSH2 0x15DD JUMP JUMPDEST PUSH1 0x40 MLOAD PUSH2 0x4D5 SWAP2 SWAP1 PUSH2 0x1959 JUMP JUMPDEST PUSH1 0x40 MLOAD DUP1 SWAP2 SUB SWAP1 RETURN JUMPDEST PUSH2 0x4E6 PUSH2 0x1602 JUMP JUMPDEST PUSH1 0x40 MLOAD PUSH2 0x4F3 SWAP2 SWAP1 PUSH2 0x1CE6 JUMP JUMPDEST PUSH1 0x40 MLOAD DUP1 SWAP2 SUB SWAP1 RETURN JUMPDEST PUSH1 0x2 PUSH0 SWAP1 SLOAD SWAP1 PUSH2 0x100 EXP SWAP1 DIV PUSH20 0xFFFFFFFFFFFFFFFFFFFFFFFFFFFFFFFFFFFFFFFF AND DUP2 JUMP JUMPDEST PUSH1 0xF SLOAD DUP2 JUMP JUMPDEST PUSH2 0x52F PUSH2 0x1627 JUMP JUMPDEST DUP1 PUSH1 0xD DUP2 SWAP1 SSTORE POP POP JUMP JUMPDEST PUSH0 DUP1 PUSH1 0xA PUSH0 SWAP1 SLOAD SWAP1 PUSH2 0x100 EXP SWAP1 DIV PUSH20 0xFFFFFFFFFFFFFFFFFFFFFFFFFFFFFFFFFFFFFFFF AND PUSH20 0xFFFFFFFFFFFFFFFFFFFFFFFFFFFFFFFFFFFFFFFF AND PUSH4 0xFEAF968C PUSH1 0x40 MLOAD DUP2 PUSH4 0xFFFFFFFF AND PUSH1 0xE0 SHL DUP2 MSTORE PUSH1 0x4 ADD PUSH1 0xA0 PUSH1 0x40 MLOAD DUP1 DUP4 SUB DUP2 DUP7 GAS STATICCALL ISZERO DUP1 ISZERO PUSH2 0x5A5 JUMPI RETURNDATASIZE PUSH0 DUP1 RETURNDATACOPY RETURNDATASIZE PUSH0 REVERT JUMPDEST POP POP POP POP PUSH1 0x40 MLOAD RETURNDATASIZE PUSH1 0x1F NOT PUSH1 0x1F DUP3 ADD AND DUP3 ADD DUP1 PUSH1 0x40 MSTORE POP DUP2 ADD SWAP1 PUSH2 0x5C9 SWAP2 SWAP1 PUSH2 0x1D85 JUMP JUMPDEST POP POP POP SWAP2 POP POP DUP1 SWAP2 POP POP SWAP1 JUMP JUMPDEST PUSH1 0xE SLOAD DUP2 JUMP JUMPDEST PUSH1 0x7 PUSH0 SWAP1 SLOAD SWAP1 PUSH2 0x100 EXP SWAP1 DIV PUSH20 0xFFFFFFFFFFFFFFFFFFFFFFFFFFFFFFFFFFFFFFFF AND DUP2 JUMP JUMPDEST PUSH1 0xD SLOAD DUP2 JUMP JUMPDEST PUSH2 0x60F PUSH2 0x1627 JUMP JUMPDEST DUP1 PUSH1 0xE DUP2 SWAP1 SSTORE POP POP JUMP JUMPDEST PUSH0 PUSH2 0x622 PUSH2 0x539 JUMP JUMPDEST SWAP1 POP PUSH2 0x62D DUP2 PUSH2 0x16AE JUMP JUMPDEST POP POP POP JUMP JUMPDEST PUSH2 0x63A PUSH2 0x1627 JUMP JUMPDEST PUSH2 0x642 PUSH2 0x16EF JUMP JUMPDEST PUSH0 PUSH32 0xAC17DAE82B629EF673F1B5FE90CB139D0174345AA580C06B230674EF96C8ADC8 DUP2 PUSH1 0x40 MLOAD PUSH2 0x672 SWAP2 SWAP1 PUSH2 0x18BA JUMP JUMPDEST PUSH1 0x40 MLOAD DUP1 SWAP2 SUB SWAP1 LOG1 POP PUSH2 0x683 PUSH2 0x173E JUMP JUMPDEST JUMP JUMPDEST PUSH2 0x68D PUSH2 0x1627 JUMP JUMPDEST DUP1 PUSH1 0xC DUP2 SWAP1 SSTORE POP POP JUMP JUMPDEST PUSH1 0x9 PUSH0 SWAP1 SLOAD SWAP1 PUSH2 0x100 EXP SWAP1 DIV PUSH20 0xFFFFFFFFFFFFFFFFFFFFFFFFFFFFFFFFFFFFFFFF AND DUP2 JUMP JUMPDEST PUSH1 0x3 PUSH0 SWAP1 SLOAD SWAP1 PUSH2 0x100 EXP SWAP1 DIV PUSH20 0xFFFFFFFFFFFFFFFFFFFFFFFFFFFFFFFFFFFFFFFF AND DUP2 JUMP JUMPDEST PUSH0 PUSH1 0x60 PUSH0 PUSH2 0x6ED PUSH2 0x539 JUMP JUMPDEST SWAP1 POP PUSH0 PUSH1 0xF SLOAD DUP3 GT PUSH2 0x70C JUMPI DUP2 PUSH1 0xF SLOAD PUSH2 0x707 SWAP2 SWAP1 PUSH2 0x1E29 JUMP JUMPDEST PUSH2 0x71B JUMP JUMPDEST PUSH1 0xF SLOAD DUP3 PUSH2 0x71A SWAP2 SWAP1 PUSH2 0x1E29 JUMP JUMPDEST JUMPDEST SWAP1 POP PUSH0 PUSH1 0xF SLOAD PUSH2 0x2710 DUP4 PUSH2 0x72F SWAP2 SWAP1 PUSH2 0x1E5C JUMP JUMPDEST PUSH2 0x739 SWAP2 SWAP1 PUSH2 0x1ECA JUMP JUMPDEST SWAP1 POP PUSH1 0xD SLOAD DUP2 LT ISZERO SWAP5 POP PUSH1 0x40 MLOAD DUP1 PUSH1 0x20 ADD PUSH1 0x40 MSTORE DUP1 PUSH0 DUP2 MSTORE POP SWAP4 POP POP POP POP SWAP3 POP SWAP3 SWAP1 POP JUMP JUMPDEST PUSH2 0x766 PUSH2 0x1627 JUMP JUMPDEST PUSH2 0x76F PUSH0 PUSH2 0x1747 JUMP JUMPDEST JUMP JUMPDEST PUSH2 0x779 PUSH2 0x1627 JUMP JUMPDEST DUP1 PUSH1 0xB DUP2 SWAP1 SSTORE POP POP JUMP JUMPDEST PUSH1 0xC SLOAD DUP2 JUMP JUMPDEST PUSH1 0x5 PUSH0 SWAP1 SLOAD SWAP1 PUSH2 0x100 EXP SWAP1 DIV PUSH20 0xFFFFFFFFFFFFFFFFFFFFFFFFFFFFFFFFFFFFFFFF AND DUP2 JUMP JUMPDEST PUSH1 0xA PUSH0 SWAP1 SLOAD SWAP1 PUSH2 0x100 EXP SWAP1 DIV PUSH20 0xFFFFFFFFFFFFFFFFFFFFFFFFFFFFFFFFFFFFFFFF AND DUP2 JUMP JUMPDEST PUSH2 0x7DB PUSH2 0x1627 JUMP JUMPDEST PUSH0 DUP3 GT DUP1 ISZERO PUSH2 0x7E9 JUMPI POP PUSH0 DUP2 GT JUMPDEST PUSH2 0x828 JUMPI PUSH1 0x40 MLOAD PUSH32 0x8C379A000000000000000000000000000000000000000000000000000000000 DUP2 MSTORE PUSH1 0x4 ADD PUSH2 0x81F SWAP1 PUSH2 0x1F7A JUMP JUMPDEST PUSH1 0x40 MLOAD DUP1 SWAP2 SUB SWAP1 REVERT JUMPDEST PUSH1 0xB SLOAD DUP3 GT ISZERO DUP1 ISZERO PUSH2 0x83C JUMPI POP PUSH1 0xB SLOAD DUP2 GT ISZERO JUMPDEST PUSH2 0x87B JUMPI PUSH1 0x40 MLOAD PUSH32 0x8C379A000000000000000000000000000000000000000000000000000000000 DUP2 MSTORE PUSH1 0x4 ADD PUSH2 0x872 SWAP1 PUSH2 0x1FE2 JUMP JUMPDEST PUSH1 0x40 MLOAD DUP1 SWAP2 SUB SWAP1 REVERT JUMPDEST PUSH1 0x2 PUSH0 SWAP1 SLOAD SWAP1 PUSH2 0x100 EXP SWAP1 DIV PUSH20 0xFFFFFFFFFFFFFFFFFFFFFFFFFFFFFFFFFFFFFFFF AND PUSH20 0xFFFFFFFFFFFFFFFFFFFFFFFFFFFFFFFFFFFFFFFF AND PUSH4 0x95EA7B3 PUSH1 0x5 PUSH0 SWAP1 SLOAD SWAP1 PUSH2 0x100 EXP SWAP1 DIV PUSH20 0xFFFFFFFFFFFFFFFFFFFFFFFFFFFFFFFFFFFFFFFF AND DUP5 PUSH1 0x40 MLOAD DUP4 PUSH4 0xFFFFFFFF AND PUSH1 0xE0 SHL DUP2 MSTORE PUSH1 0x4 ADD PUSH2 0x8F8 SWAP3 SWAP2 SWAP1 PUSH2 0x2000 JUMP JUMPDEST PUSH1 0x20 PUSH1 0x40 MLOAD DUP1 DUP4 SUB DUP2 PUSH0 DUP8 GAS CALL ISZERO DUP1 ISZERO PUSH2 0x914 JUMPI RETURNDATASIZE PUSH0 DUP1 RETURNDATACOPY RETURNDATASIZE PUSH0 REVERT JUMPDEST POP POP POP POP PUSH1 0x40 MLOAD RETURNDATASIZE PUSH1 0x1F NOT PUSH1 0x1F DUP3 ADD AND DUP3 ADD DUP1 PUSH1 0x40 MSTORE POP DUP2 ADD SWAP1 PUSH2 0x938 SWAP2 SWAP1 PUSH2 0x2051 JUMP JUMPDEST POP PUSH1 0x3 PUSH0 SWAP1 SLOAD SWAP1 PUSH2 0x100 EXP SWAP1 DIV PUSH20 0xFFFFFFFFFFFFFFFFFFFFFFFFFFFFFFFFFFFFFFFF AND PUSH20 0xFFFFFFFFFFFFFFFFFFFFFFFFFFFFFFFFFFFFFFFF AND PUSH4 0x95EA7B3 PUSH1 0x5 PUSH0 SWAP1 SLOAD SWAP1 PUSH2 0x100 EXP SWAP1 DIV PUSH20 0xFFFFFFFFFFFFFFFFFFFFFFFFFFFFFFFFFFFFFFFF AND DUP4 PUSH1 0x40 MLOAD DUP4 PUSH4 0xFFFFFFFF AND PUSH1 0xE0 SHL DUP2 MSTORE PUSH1 0x4 ADD PUSH2 0x9B6 SWAP3 SWAP2 SWAP1 PUSH2 0x2000 JUMP JUMPDEST PUSH1 0x20 PUSH1 0x40 MLOAD DUP1 DUP4 SUB DUP2 PUSH0 DUP8 GAS CALL ISZERO DUP1 ISZERO PUSH2 0x9D2 JUMPI RETURNDATASIZE PUSH0 DUP1 RETURNDATACOPY RETURNDATASIZE PUSH0 REVERT JUMPDEST POP POP POP POP PUSH1 0x40 MLOAD RETURNDATASIZE PUSH1 0x1F NOT PUSH1 0x1F DUP3 ADD AND DUP3 ADD DUP1 PUSH1 0x40 MSTORE POP DUP2 ADD SWAP1 PUSH2 0x9F6 SWAP2 SWAP1 PUSH2 0x2051 JUMP JUMPDEST POP PUSH0 DUP1 PUSH1 0x5 PUSH0 SWAP1 SLOAD SWAP1 PUSH2 0x100 EXP SWAP1 DIV PUSH20 0xFFFFFFFFFFFFFFFFFFFFFFFFFFFFFFFFFFFFFFFF AND PUSH20 0xFFFFFFFFFFFFFFFFFFFFFFFFFFFFFFFFFFFFFFFF AND PUSH4 0xE8E33700 PUSH1 0x2 PUSH0 SWAP1 SLOAD SWAP1 PUSH2 0x100 EXP SWAP1 DIV PUSH20 0xFFFFFFFFFFFFFFFFFFFFFFFFFFFFFFFFFFFFFFFF AND PUSH1 0x3 PUSH0 SWAP1 SLOAD SWAP1 PUSH2 0x100 EXP SWAP1 DIV PUSH20 0xFFFFFFFFFFFFFFFFFFFFFFFFFFFFFFFFFFFFFFFF AND DUP8 DUP8 PUSH1 0x1 DUP1 ADDRESS TIMESTAMP PUSH1 0x40 MLOAD DUP10 PUSH4 0xFFFFFFFF AND PUSH1 0xE0 SHL DUP2 MSTORE PUSH1 0x4 ADD PUSH2 0xAA4 SWAP9 SWAP8 SWAP7 SWAP6 SWAP5 SWAP4 SWAP3 SWAP2 SWAP1 PUSH2 0x20B5 JUMP JUMPDEST PUSH1 0x60 PUSH1 0x40 MLOAD DUP1 DUP4 SUB DUP2 PUSH0 DUP8 GAS CALL ISZERO DUP1 ISZERO PUSH2 0xAC0 JUMPI RETURNDATASIZE PUSH0 DUP1 RETURNDATACOPY RETURNDATASIZE PUSH0 REVERT JUMPDEST POP POP POP POP PUSH1 0x40 MLOAD RETURNDATASIZE PUSH1 0x1F NOT PUSH1 0x1F DUP3 ADD AND DUP3 ADD DUP1 PUSH1 0x40 MSTORE POP DUP2 ADD SWAP1 PUSH2 0xAE4 SWAP2 SWAP1 PUSH2 0x2131 JUMP JUMPDEST POP SWAP2 POP SWAP2 POP PUSH32 0x38F8A0C92F4C5B0B6877F878CB4C0C8D348A47B76D716C8E78F425043DF9515B DUP3 DUP3 PUSH1 0x40 MLOAD PUSH2 0xB1A SWAP3 SWAP2 SWAP1 PUSH2 0x2181 JUMP JUMPDEST PUSH1 0x40 MLOAD DUP1 SWAP2 SUB SWAP1 LOG1 POP POP POP POP JUMP JUMPDEST PUSH0 DUP1 PUSH0 SWAP1 SLOAD SWAP1 PUSH2 0x100 EXP SWAP1 DIV PUSH20 0xFFFFFFFFFFFFFFFFFFFFFFFFFFFFFFFFFFFFFFFF AND SWAP1 POP SWAP1 JUMP JUMPDEST PUSH2 0xB57 PUSH2 0x1627 JUMP JUMPDEST PUSH2 0xB5F PUSH2 0x16EF JUMP JUMPDEST PUSH0 DUP2 GT PUSH2 0xBA1 JUMPI PUSH1 0x40 MLOAD PUSH32 0x8C379A000000000000000000000000000000000000000000000000000000000 DUP2 MSTORE PUSH1 0x4 ADD PUSH2 0xB98 SWAP1 PUSH2 0x2218 JUMP JUMPDEST PUSH1 0x40 MLOAD DUP1 SWAP2 SUB SWAP1 REVERT JUMPDEST PUSH0 PUSH1 0x7 PUSH0 SWAP1 SLOAD SWAP1 PUSH2 0x100 EXP SWAP1 DIV PUSH20 0xFFFFFFFFFFFFFFFFFFFFFFFFFFFFFFFFFFFFFFFF AND SWAP1 POP DUP1 PUSH20 0xFFFFFFFFFFFFFFFFFFFFFFFFFFFFFFFFFFFFFFFF AND PUSH4 0x95EA7B3 PUSH1 0x5 PUSH0 SWAP1 SLOAD SWAP1 PUSH2 0x100 EXP SWAP1 DIV PUSH20 0xFFFFFFFFFFFFFFFFFFFFFFFFFFFFFFFFFFFFFFFF AND DUP5 PUSH1 0x40 MLOAD DUP4 PUSH4 0xFFFFFFFF AND PUSH1 0xE0 SHL DUP2 MSTORE PUSH1 0x4 ADD PUSH2 0xC22 SWAP3 SWAP2 SWAP1 PUSH2 0x2000 JUMP JUMPDEST PUSH1 0x20 PUSH1 0x40 MLOAD DUP1 DUP4 SUB DUP2 PUSH0 DUP8 GAS CALL ISZERO DUP1 ISZERO PUSH2 0xC3E JUMPI RETURNDATASIZE PUSH0 DUP1 RETURNDATACOPY RETURNDATASIZE PUSH0 REVERT JUMPDEST POP POP POP POP PUSH1 0x40 MLOAD RETURNDATASIZE PUSH1 0x1F NOT PUSH1 0x1F DUP3 ADD AND DUP3 ADD DUP1 PUSH1 0x40 MSTORE POP DUP2 ADD SWAP1 PUSH2 0xC62 SWAP2 SWAP1 PUSH2 0x2051 JUMP JUMPDEST POP PUSH0 DUP1 PUSH1 0x5 PUSH0 SWAP1 SLOAD SWAP1 PUSH2 0x100 EXP SWAP1 DIV PUSH20 0xFFFFFFFFFFFFFFFFFFFFFFFFFFFFFFFFFFFFFFFF AND PUSH20 0xFFFFFFFFFFFFFFFFFFFFFFFFFFFFFFFFFFFFFFFF AND PUSH4 0xBAA2ABDE PUSH1 0x2 PUSH0 SWAP1 SLOAD SWAP1 PUSH2 0x100 EXP SWAP1 DIV PUSH20 0xFFFFFFFFFFFFFFFFFFFFFFFFFFFFFFFFFFFFFFFF AND PUSH1 0x3 PUSH0 SWAP1 SLOAD SWAP1 PUSH2 0x100 EXP SWAP1 DIV PUSH20 0xFFFFFFFFFFFFFFFFFFFFFFFFFFFFFFFFFFFFFFFF AND DUP8 PUSH1 0x1 DUP1 ADDRESS TIMESTAMP PUSH1 0x40 MLOAD DUP9 PUSH4 0xFFFFFFFF AND PUSH1 0xE0 SHL DUP2 MSTORE PUSH1 0x4 ADD PUSH2 0xD0E SWAP8 SWAP7 SWAP6 SWAP5 SWAP4 SWAP3 SWAP2 SWAP1 PUSH2 0x2236 JUMP JUMPDEST PUSH1 0x40 DUP1 MLOAD DUP1 DUP4 SUB DUP2 PUSH0 DUP8 GAS CALL ISZERO DUP1 ISZERO PUSH2 0xD29 JUMPI RETURNDATASIZE PUSH0 DUP1 RETURNDATACOPY RETURNDATASIZE PUSH0 REVERT JUMPDEST POP POP POP POP PUSH1 0x40 MLOAD RETURNDATASIZE PUSH1 0x1F NOT PUSH1 0x1F DUP3 ADD AND DUP3 ADD DUP1 PUSH1 0x40 MSTORE POP DUP2 ADD SWAP1 PUSH2 0xD4D SWAP2 SWAP1 PUSH2 0x22A3 JUMP JUMPDEST SWAP2 POP SWAP2 POP PUSH32 0x6F0F96292AE0038C04F9B6BAB30F185D9CA02C471D0983F563F2A4F674AEF137 DUP3 DUP3 PUSH1 0x40 MLOAD PUSH2 0xD82 SWAP3 SWAP2 SWAP1 PUSH2 0x2181 JUMP JUMPDEST PUSH1 0x40 MLOAD DUP1 SWAP2 SUB SWAP1 LOG1 POP POP POP PUSH2 0xD95 PUSH2 0x173E JUMP JUMPDEST POP JUMP JUMPDEST PUSH1 0x4 PUSH0 SWAP1 SLOAD SWAP1 PUSH2 0x100 EXP SWAP1 DIV PUSH20 0xFFFFFFFFFFFFFFFFFFFFFFFFFFFFFFFFFFFFFFFF AND DUP2 JUMP JUMPDEST PUSH2 0xDC5 PUSH2 0x1627 JUMP JUMPDEST PUSH2 0xDCD PUSH2 0x16EF JUMP JUMPDEST PUSH0 DUP4 GT PUSH2 0xE0F JUMPI PUSH1 0x40 MLOAD PUSH32 0x8C379A000000000000000000000000000000000000000000000000000000000 DUP2 MSTORE PUSH1 0x4 ADD PUSH2 0xE06 SWAP1 PUSH2 0x2351 JUMP JUMPDEST PUSH1 0x40 MLOAD DUP1 SWAP2 SUB SWAP1 REVERT JUMPDEST PUSH1 0x2 DUP3 DUP3 SWAP1 POP LT ISZERO PUSH2 0xE56 JUMPI PUSH1 0x40 MLOAD PUSH32 0x8C379A000000000000000000000000000000000000000000000000000000000 DUP2 MSTORE PUSH1 0x4 ADD PUSH2 0xE4D SWAP1 PUSH2 0x23B9 JUMP JUMPDEST PUSH1 0x40 MLOAD DUP1 SWAP2 SUB SWAP1 REVERT JUMPDEST PUSH0 PUSH1 0x5 PUSH0 SWAP1 SLOAD SWAP1 PUSH2 0x100 EXP SWAP1 DIV PUSH20 0xFFFFFFFFFFFFFFFFFFFFFFFFFFFFFFFFFFFFFFFF AND PUSH20 0xFFFFFFFFFFFFFFFFFFFFFFFFFFFFFFFFFFFFFFFF AND PUSH4 0xD06CA61F DUP6 DUP6 DUP6 PUSH1 0x40 MLOAD DUP5 PUSH4 0xFFFFFFFF AND PUSH1 0xE0 SHL DUP2 MSTORE PUSH1 0x4 ADD PUSH2 0xEB5 SWAP4 SWAP3 SWAP2 SWAP1 PUSH2 0x2493 JUMP JUMPDEST PUSH0 PUSH1 0x40 MLOAD DUP1 DUP4 SUB DUP2 DUP7 GAS STATICCALL ISZERO DUP1 ISZERO PUSH2 0xECF JUMPI RETURNDATASIZE PUSH0 DUP1 RETURNDATACOPY RETURNDATASIZE PUSH0 REVERT JUMPDEST POP POP POP POP PUSH1 0x40 MLOAD RETURNDATASIZE PUSH0 DUP3 RETURNDATACOPY RETURNDATASIZE PUSH1 0x1F NOT PUSH1 0x1F DUP3 ADD AND DUP3 ADD DUP1 PUSH1 0x40 MSTORE POP DUP2 ADD SWAP1 PUSH2 0xEF7 SWAP2 SWAP1 PUSH2 0x25FB JUMP JUMPDEST SWAP1 POP PUSH0 PUSH1 0x6 PUSH0 SWAP1 SLOAD SWAP1 PUSH2 0x100 EXP SWAP1 DIV PUSH20 0xFFFFFFFFFFFFFFFFFFFFFFFFFFFFFFFFFFFFFFFF AND PUSH20 0xFFFFFFFFFFFFFFFFFFFFFFFFFFFFFFFFFFFFFFFF AND PUSH4 0x38ED1739 DUP7 PUSH1 0x1 DUP8 DUP8 ADDRESS TIMESTAMP PUSH1 0x40 MLOAD DUP8 PUSH4 0xFFFFFFFF AND PUSH1 0xE0 SHL DUP2 MSTORE PUSH1 0x4 ADD PUSH2 0xF5F SWAP7 SWAP6 SWAP5 SWAP4 SWAP3 SWAP2 SWAP1 PUSH2 0x2642 JUMP JUMPDEST PUSH0 PUSH1 0x40 MLOAD DUP1 DUP4 SUB DUP2 PUSH0 DUP8 GAS CALL ISZERO DUP1 ISZERO PUSH2 0xF7A JUMPI RETURNDATASIZE PUSH0 DUP1 RETURNDATACOPY RETURNDATASIZE PUSH0 REVERT JUMPDEST POP POP POP POP PUSH1 0x40 MLOAD RETURNDATASIZE PUSH0 DUP3 RETURNDATACOPY RETURNDATASIZE PUSH1 0x1F NOT PUSH1 0x1F DUP3 ADD AND DUP3 ADD DUP1 PUSH1 0x40 MSTORE POP DUP2 ADD SWAP1 PUSH2 0xFA2 SWAP2 SWAP1 PUSH2 0x25FB JUMP JUMPDEST SWAP1 POP PUSH0 DUP3 PUSH1 0x1 DUP5 MLOAD PUSH2 0xFB4 SWAP2 SWAP1 PUSH2 0x1E29 JUMP JUMPDEST DUP2 MLOAD DUP2 LT PUSH2 0xFC5 JUMPI PUSH2 0xFC4 PUSH2 0x269C JUMP JUMPDEST JUMPDEST PUSH1 0x20 MUL PUSH1 0x20 ADD ADD MLOAD SWAP1 POP PUSH0 DUP3 PUSH1 0x1 DUP5 MLOAD PUSH2 0xFDF SWAP2 SWAP1 PUSH2 0x1E29 JUMP JUMPDEST DUP2 MLOAD DUP2 LT PUSH2 0xFF0 JUMPI PUSH2 0xFEF PUSH2 0x269C JUMP JUMPDEST JUMPDEST PUSH1 0x20 MUL PUSH1 0x20 ADD ADD MLOAD SWAP1 POP DUP1 DUP3 LT PUSH2 0x127A JUMPI DUP6 DUP6 PUSH0 DUP2 DUP2 LT PUSH2 0x1014 JUMPI PUSH2 0x1013 PUSH2 0x269C JUMP JUMPDEST JUMPDEST SWAP1 POP PUSH1 0x20 MUL ADD PUSH1 0x20 DUP2 ADD SWAP1 PUSH2 0x1029 SWAP2 SWAP1 PUSH2 0x1C9B JUMP JUMPDEST PUSH20 0xFFFFFFFFFFFFFFFFFFFFFFFFFFFFFFFFFFFFFFFF AND PUSH4 0x95EA7B3 PUSH1 0x5 PUSH0 SWAP1 SLOAD SWAP1 PUSH2 0x100 EXP SWAP1 DIV PUSH20 0xFFFFFFFFFFFFFFFFFFFFFFFFFFFFFFFFFFFFFFFF AND DUP10 PUSH1 0x40 MLOAD DUP4 PUSH4 0xFFFFFFFF AND PUSH1 0xE0 SHL DUP2 MSTORE PUSH1 0x4 ADD PUSH2 0x1084 SWAP3 SWAP2 SWAP1 PUSH2 0x2000 JUMP JUMPDEST PUSH1 0x20 PUSH1 0x40 MLOAD DUP1 DUP4 SUB DUP2 PUSH0 DUP8 GAS CALL ISZERO DUP1 ISZERO PUSH2 0x10A0 JUMPI RETURNDATASIZE PUSH0 DUP1 RETURNDATACOPY RETURNDATASIZE PUSH0 REVERT JUMPDEST POP POP POP POP PUSH1 0x40 MLOAD RETURNDATASIZE PUSH1 0x1F NOT PUSH1 0x1F DUP3 ADD AND DUP3 ADD DUP1 PUSH1 0x40 MSTORE POP DUP2 ADD SWAP1 PUSH2 0x10C4 SWAP2 SWAP1 PUSH2 0x2051 JUMP JUMPDEST POP PUSH0 PUSH1 0x5 PUSH0 SWAP1 SLOAD SWAP1 PUSH2 0x100 EXP SWAP1 DIV PUSH20 0xFFFFFFFFFFFFFFFFFFFFFFFFFFFFFFFFFFFFFFFF AND PUSH20 0xFFFFFFFFFFFFFFFFFFFFFFFFFFFFFFFFFFFFFFFF AND PUSH4 0x38ED1739 DUP10 DUP6 DUP11 DUP11 ADDRESS TIMESTAMP PUSH1 0x40 MLOAD DUP8 PUSH4 0xFFFFFFFF AND PUSH1 0xE0 SHL DUP2 MSTORE PUSH1 0x4 ADD PUSH2 0x112A SWAP7 SWAP6 SWAP5 SWAP4 SWAP3 SWAP2 SWAP1 PUSH2 0x26C9 JUMP JUMPDEST PUSH0 PUSH1 0x40 MLOAD DUP1 DUP4 SUB DUP2 PUSH0 DUP8 GAS CALL ISZERO DUP1 ISZERO PUSH2 0x1145 JUMPI RETURNDATASIZE PUSH0 DUP1 RETURNDATACOPY RETURNDATASIZE PUSH0 REVERT JUMPDEST POP POP POP POP PUSH1 0x40 MLOAD RETURNDATASIZE PUSH0 DUP3 RETURNDATACOPY RETURNDATASIZE PUSH1 0x1F NOT PUSH1 0x1F DUP3 ADD AND DUP3 ADD DUP1 PUSH1 0x40 MSTORE POP DUP2 ADD SWAP1 PUSH2 0x116D SWAP2 SWAP1 PUSH2 0x25FB JUMP JUMPDEST SWAP1 POP DUP7 DUP7 PUSH1 0x1 DUP10 DUP10 SWAP1 POP PUSH2 0x1181 SWAP2 SWAP1 PUSH2 0x1E29 JUMP JUMPDEST DUP2 DUP2 LT PUSH2 0x1191 JUMPI PUSH2 0x1190 PUSH2 0x269C JUMP JUMPDEST JUMPDEST SWAP1 POP PUSH1 0x20 MUL ADD PUSH1 0x20 DUP2 ADD SWAP1 PUSH2 0x11A6 SWAP2 SWAP1 PUSH2 0x1C9B JUMP JUMPDEST PUSH20 0xFFFFFFFFFFFFFFFFFFFFFFFFFFFFFFFFFFFFFFFF AND DUP8 DUP8 PUSH0 DUP2 DUP2 LT PUSH2 0x11CF JUMPI PUSH2 0x11CE PUSH2 0x269C JUMP JUMPDEST JUMPDEST SWAP1 POP PUSH1 0x20 MUL ADD PUSH1 0x20 DUP2 ADD SWAP1 PUSH2 0x11E4 SWAP2 SWAP1 PUSH2 0x1C9B JUMP JUMPDEST PUSH20 0xFFFFFFFFFFFFFFFFFFFFFFFFFFFFFFFFFFFFFFFF AND PUSH32 0xDD36740E2A012D93061A0D99EAA9107860955DE4E90027D3CF465A055026C407 DUP4 PUSH0 DUP2 MLOAD DUP2 LT PUSH2 0x122E JUMPI PUSH2 0x122D PUSH2 0x269C JUMP JUMPDEST JUMPDEST PUSH1 0x20 MUL PUSH1 0x20 ADD ADD MLOAD DUP5 PUSH1 0x1 DUP7 MLOAD PUSH2 0x1245 SWAP2 SWAP1 PUSH2 0x1E29 JUMP JUMPDEST DUP2 MLOAD DUP2 LT PUSH2 0x1256 JUMPI PUSH2 0x1255 PUSH2 0x269C JUMP JUMPDEST JUMPDEST PUSH1 0x20 MUL PUSH1 0x20 ADD ADD MLOAD PUSH1 0x40 MLOAD PUSH2 0x126C SWAP3 SWAP2 SWAP1 PUSH2 0x2181 JUMP JUMPDEST PUSH1 0x40 MLOAD DUP1 SWAP2 SUB SWAP1 LOG3 POP PUSH2 0x14EF JUMP JUMPDEST DUP6 DUP6 PUSH0 DUP2 DUP2 LT PUSH2 0x128D JUMPI PUSH2 0x128C PUSH2 0x269C JUMP JUMPDEST JUMPDEST SWAP1 POP PUSH1 0x20 MUL ADD PUSH1 0x20 DUP2 ADD SWAP1 PUSH2 0x12A2 SWAP2 SWAP1 PUSH2 0x1C9B JUMP JUMPDEST PUSH20 0xFFFFFFFFFFFFFFFFFFFFFFFFFFFFFFFFFFFFFFFF AND PUSH4 0x95EA7B3 PUSH1 0x6 PUSH0 SWAP1 SLOAD SWAP1 PUSH2 0x100 EXP SWAP1 DIV PUSH20 0xFFFFFFFFFFFFFFFFFFFFFFFFFFFFFFFFFFFFFFFF AND DUP10 PUSH1 0x40 MLOAD DUP4 PUSH4 0xFFFFFFFF AND PUSH1 0xE0 SHL DUP2 MSTORE PUSH1 0x4 ADD PUSH2 0x12FD SWAP3 SWAP2 SWAP1 PUSH2 0x2000 JUMP JUMPDEST PUSH1 0x20 PUSH1 0x40 MLOAD DUP1 DUP4 SUB DUP2 PUSH0 DUP8 GAS CALL ISZERO DUP1 ISZERO PUSH2 0x1319 JUMPI RETURNDATASIZE PUSH0 DUP1 RETURNDATACOPY RETURNDATASIZE PUSH0 REVERT JUMPDEST POP POP POP POP PUSH1 0x40 MLOAD RETURNDATASIZE PUSH1 0x1F NOT PUSH1 0x1F DUP3 ADD AND DUP3 ADD DUP1 PUSH1 0x40 MSTORE POP DUP2 ADD SWAP1 PUSH2 0x133D SWAP2 SWAP1 PUSH2 0x2051 JUMP JUMPDEST POP PUSH0 PUSH1 0x6 PUSH0 SWAP1 SLOAD SWAP1 PUSH2 0x100 EXP SWAP1 DIV PUSH20 0xFFFFFFFFFFFFFFFFFFFFFFFFFFFFFFFFFFFFFFFF AND PUSH20 0xFFFFFFFFFFFFFFFFFFFFFFFFFFFFFFFFFFFFFFFF AND PUSH4 0x38ED1739 DUP10 DUP5 DUP11 DUP11 ADDRESS TIMESTAMP PUSH1 0x40 MLOAD DUP8 PUSH4 0xFFFFFFFF AND PUSH1 0xE0 SHL DUP2 MSTORE PUSH1 0x4 ADD PUSH2 0x13A3 SWAP7 SWAP6 SWAP5 SWAP4 SWAP3 SWAP2 SWAP1 PUSH2 0x26C9 JUMP JUMPDEST PUSH0 PUSH1 0x40 MLOAD DUP1 DUP4 SUB DUP2 PUSH0 DUP8 GAS CALL ISZERO DUP1 ISZERO PUSH2 0x13BE JUMPI RETURNDATASIZE PUSH0 DUP1 RETURNDATACOPY RETURNDATASIZE PUSH0 REVERT JUMPDEST POP POP POP POP PUSH1 0x40 MLOAD RETURNDATASIZE PUSH0 DUP3 RETURNDATACOPY RETURNDATASIZE PUSH1 0x1F NOT PUSH1 0x1F DUP3 ADD AND DUP3 ADD DUP1 PUSH1 0x40 MSTORE POP DUP2 ADD SWAP1 PUSH2 0x13E6 SWAP2 SWAP1 PUSH2 0x25FB JUMP JUMPDEST SWAP1 POP DUP7 DUP7 PUSH1 0x1 DUP10 DUP10 SWAP1 POP PUSH2 0x13FA SWAP2 SWAP1 PUSH2 0x1E29 JUMP JUMPDEST DUP2 DUP2 LT PUSH2 0x140A JUMPI PUSH2 0x1409 PUSH2 0x269C JUMP JUMPDEST JUMPDEST SWAP1 POP PUSH1 0x20 MUL ADD PUSH1 0x20 DUP2 ADD SWAP1 PUSH2 0x141F SWAP2 SWAP1 PUSH2 0x1C9B JUMP JUMPDEST PUSH20 0xFFFFFFFFFFFFFFFFFFFFFFFFFFFFFFFFFFFFFFFF AND DUP8 DUP8 PUSH0 DUP2 DUP2 LT PUSH2 0x1448 JUMPI PUSH2 0x1447 PUSH2 0x269C JUMP JUMPDEST JUMPDEST SWAP1 POP PUSH1 0x20 MUL ADD PUSH1 0x20 DUP2 ADD SWAP1 PUSH2 0x145D SWAP2 SWAP1 PUSH2 0x1C9B JUMP JUMPDEST PUSH20 0xFFFFFFFFFFFFFFFFFFFFFFFFFFFFFFFFFFFFFFFF AND PUSH32 0xDD36740E2A012D93061A0D99EAA9107860955DE4E90027D3CF465A055026C407 DUP4 PUSH0 DUP2 MLOAD DUP2 LT PUSH2 0x14A7 JUMPI PUSH2 0x14A6 PUSH2 0x269C JUMP JUMPDEST JUMPDEST PUSH1 0x20 MUL PUSH1 0x20 ADD ADD MLOAD DUP5 PUSH1 0x1 DUP7 MLOAD PUSH2 0x14BE SWAP2 SWAP1 PUSH2 0x1E29 JUMP JUMPDEST DUP2 MLOAD DUP2 LT PUSH2 0x14CF JUMPI PUSH2 0x14CE PUSH2 0x269C JUMP JUMPDEST JUMPDEST PUSH1 0x20 MUL PUSH1 0x20 ADD ADD MLOAD PUSH1 0x40 MLOAD PUSH2 0x14E5 SWAP3 SWAP2 SWAP1 PUSH2 0x2181 JUMP JUMPDEST PUSH1 0x40 MLOAD DUP1 SWAP2 SUB SWAP1 LOG3 POP JUMPDEST POP POP POP POP PUSH2 0x14FB PUSH2 0x173E JUMP JUMPDEST POP POP POP JUMP JUMPDEST PUSH2 0x1508 PUSH2 0x1627 JUMP JUMPDEST PUSH2 0x1510 PUSH2 0x16EF JUMP JUMPDEST PUSH0 PUSH32 0x22831A56ED096EC8B35C25FE680899BF95C255557389A8645F13997B42C5CC34 DUP2 PUSH1 0x40 MLOAD PUSH2 0x1540 SWAP2 SWAP1 PUSH2 0x18BA JUMP JUMPDEST PUSH1 0x40 MLOAD DUP1 SWAP2 SUB SWAP1 LOG1 POP PUSH2 0x1551 PUSH2 0x173E JUMP JUMPDEST JUMP JUMPDEST PUSH1 0xB SLOAD DUP2 JUMP JUMPDEST PUSH2 0x1561 PUSH2 0x1627 JUMP JUMPDEST PUSH0 PUSH20 0xFFFFFFFFFFFFFFFFFFFFFFFFFFFFFFFFFFFFFFFF AND DUP2 PUSH20 0xFFFFFFFFFFFFFFFFFFFFFFFFFFFFFFFFFFFFFFFF AND SUB PUSH2 0x15D1 JUMPI PUSH0 PUSH1 0x40 MLOAD PUSH32 0x1E4FBDF700000000000000000000000000000000000000000000000000000000 DUP2 MSTORE PUSH1 0x4 ADD PUSH2 0x15C8 SWAP2 SWAP1 PUSH2 0x1BA6 JUMP JUMPDEST PUSH1 0x40 MLOAD DUP1 SWAP2 SUB SWAP1 REVERT JUMPDEST PUSH2 0x15DA DUP2 PUSH2 0x1747 JUMP JUMPDEST POP JUMP JUMPDEST PUSH1 0x8 PUSH0 SWAP1 SLOAD SWAP1 PUSH2 0x100 EXP SWAP1 DIV PUSH20 0xFFFFFFFFFFFFFFFFFFFFFFFFFFFFFFFFFFFFFFFF AND DUP2 JUMP JUMPDEST PUSH1 0x6 PUSH0 SWAP1 SLOAD SWAP1 PUSH2 0x100 EXP SWAP1 DIV PUSH20 0xFFFFFFFFFFFFFFFFFFFFFFFFFFFFFFFFFFFFFFFF AND DUP2 JUMP JUMPDEST PUSH2 0x162F PUSH2 0x1808 JUMP JUMPDEST PUSH20 0xFFFFFFFFFFFFFFFFFFFFFFFFFFFFFFFFFFFFFFFF AND PUSH2 0x164D PUSH2 0xB28 JUMP JUMPDEST PUSH20 0xFFFFFFFFFFFFFFFFFFFFFFFFFFFFFFFFFFFFFFFF AND EQ PUSH2 0x16AC JUMPI PUSH2 0x1670 PUSH2 0x1808 JUMP JUMPDEST PUSH1 0x40 MLOAD PUSH32 0x118CDAA700000000000000000000000000000000000000000000000000000000 DUP2 MSTORE PUSH1 0x4 ADD PUSH2 0x16A3 SWAP2 SWAP1 PUSH2 0x1BA6 JUMP JUMPDEST PUSH1 0x40 MLOAD DUP1 SWAP2 SUB SWAP1 REVERT JUMPDEST JUMP JUMPDEST DUP1 PUSH1 0xF DUP2 SWAP1 SSTORE POP PUSH32 0xC306AF072396B02BF3A9782C10065CC7FF4AA842934A43F0B76F997B291237C8 DUP2 PUSH1 0x40 MLOAD PUSH2 0x16E4 SWAP2 SWAP1 PUSH2 0x18BA JUMP JUMPDEST PUSH1 0x40 MLOAD DUP1 SWAP2 SUB SWAP1 LOG1 POP JUMP JUMPDEST PUSH1 0x2 PUSH1 0x1 SLOAD SUB PUSH2 0x1734 JUMPI PUSH1 0x40 MLOAD PUSH32 0x8C379A000000000000000000000000000000000000000000000000000000000 DUP2 MSTORE PUSH1 0x4 ADD PUSH2 0x172B SWAP1 PUSH2 0x276D JUMP JUMPDEST PUSH1 0x40 MLOAD DUP1 SWAP2 SUB SWAP1 REVERT JUMPDEST PUSH1 0x2 PUSH1 0x1 DUP2 SWAP1 SSTORE POP JUMP JUMPDEST PUSH1 0x1 DUP1 DUP2 SWAP1 SSTORE POP JUMP JUMPDEST PUSH0 DUP1 PUSH0 SWAP1 SLOAD SWAP1 PUSH2 0x100 EXP SWAP1 DIV PUSH20 0xFFFFFFFFFFFFFFFFFFFFFFFFFFFFFFFFFFFFFFFF AND SWAP1 POP DUP2 PUSH0 DUP1 PUSH2 0x100 EXP DUP2 SLOAD DUP2 PUSH20 0xFFFFFFFFFFFFFFFFFFFFFFFFFFFFFFFFFFFFFFFF MUL NOT AND SWAP1 DUP4 PUSH20 0xFFFFFFFFFFFFFFFFFFFFFFFFFFFFFFFFFFFFFFFF AND MUL OR SWAP1 SSTORE POP DUP2 PUSH20 0xFFFFFFFFFFFFFFFFFFFFFFFFFFFFFFFFFFFFFFFF AND DUP2 PUSH20 0xFFFFFFFFFFFFFFFFFFFFFFFFFFFFFFFFFFFFFFFF AND PUSH32 0x8BE0079C531659141344CD1FD0A4F28419497F9722A3DAAFE3B4186F6B6457E0 PUSH1 0x40 MLOAD PUSH1 0x40 MLOAD DUP1 SWAP2 SUB SWAP1 LOG3 POP POP JUMP JUMPDEST PUSH0 CALLER SWAP1 POP SWAP1 JUMP JUMPDEST PUSH0 PUSH20 0xFFFFFFFFFFFFFFFFFFFFFFFFFFFFFFFFFFFFFFFF DUP3 AND SWAP1 POP SWAP2 SWAP1 POP JUMP JUMPDEST PUSH0 DUP2 SWAP1 POP SWAP2 SWAP1 POP JUMP JUMPDEST PUSH0 PUSH2 0x1851 PUSH2 0x184C PUSH2 0x1847 DUP5 PUSH2 0x180F JUMP JUMPDEST PUSH2 0x182E JUMP JUMPDEST PUSH2 0x180F JUMP JUMPDEST SWAP1 POP SWAP2 SWAP1 POP JUMP JUMPDEST PUSH0 PUSH2 0x1862 DUP3 PUSH2 0x1837 JUMP JUMPDEST SWAP1 POP SWAP2 SWAP1 POP JUMP JUMPDEST PUSH0 PUSH2 0x1873 DUP3 PUSH2 0x1858 JUMP JUMPDEST SWAP1 POP SWAP2 SWAP1 POP JUMP JUMPDEST PUSH2 0x1883 DUP2 PUSH2 0x1869 JUMP JUMPDEST DUP3 MSTORE POP POP JUMP JUMPDEST PUSH0 PUSH1 0x20 DUP3 ADD SWAP1 POP PUSH2 0x189C PUSH0 DUP4 ADD DUP5 PUSH2 0x187A JUMP JUMPDEST SWAP3 SWAP2 POP POP JUMP JUMPDEST PUSH0 DUP2 SWAP1 POP SWAP2 SWAP1 POP JUMP JUMPDEST PUSH2 0x18B4 DUP2 PUSH2 0x18A2 JUMP JUMPDEST DUP3 MSTORE POP POP JUMP JUMPDEST PUSH0 PUSH1 0x20 DUP3 ADD SWAP1 POP PUSH2 0x18CD PUSH0 DUP4 ADD DUP5 PUSH2 0x18AB JUMP JUMPDEST SWAP3 SWAP2 POP POP JUMP JUMPDEST PUSH0 PUSH1 0x40 MLOAD SWAP1 POP SWAP1 JUMP JUMPDEST PUSH0 DUP1 REVERT JUMPDEST PUSH0 DUP1 REVERT JUMPDEST PUSH2 0x18ED DUP2 PUSH2 0x18A2 JUMP JUMPDEST DUP2 EQ PUSH2 0x18F7 JUMPI PUSH0 DUP1 REVERT JUMPDEST POP JUMP JUMPDEST PUSH0 DUP2 CALLDATALOAD SWAP1 POP PUSH2 0x1908 DUP2 PUSH2 0x18E4 JUMP JUMPDEST SWAP3 SWAP2 POP POP JUMP JUMPDEST PUSH0 PUSH1 0x20 DUP3 DUP5 SUB SLT ISZERO PUSH2 0x1923 JUMPI PUSH2 0x1922 PUSH2 0x18DC JUMP JUMPDEST JUMPDEST PUSH0 PUSH2 0x1930 DUP5 DUP3 DUP6 ADD PUSH2 0x18FA JUMP JUMPDEST SWAP2 POP POP SWAP3 SWAP2 POP POP JUMP JUMPDEST PUSH0 PUSH2 0x1943 DUP3 PUSH2 0x1858 JUMP JUMPDEST SWAP1 POP SWAP2 SWAP1 POP JUMP JUMPDEST PUSH2 0x1953 DUP2 PUSH2 0x1939 JUMP JUMPDEST DUP3 MSTORE POP POP JUMP JUMPDEST PUSH0 PUSH1 0x20 DUP3 ADD SWAP1 POP PUSH2 0x196C PUSH0 DUP4 ADD DUP5 PUSH2 0x194A JUMP JUMPDEST SWAP3 SWAP2 POP POP JUMP JUMPDEST PUSH0 DUP1 REVERT JUMPDEST PUSH0 DUP1 REVERT JUMPDEST PUSH0 DUP1 REVERT JUMPDEST PUSH0 DUP1 DUP4 PUSH1 0x1F DUP5 ADD SLT PUSH2 0x1993 JUMPI PUSH2 0x1992 PUSH2 0x1972 JUMP JUMPDEST JUMPDEST DUP3 CALLDATALOAD SWAP1 POP PUSH8 0xFFFFFFFFFFFFFFFF DUP2 GT ISZERO PUSH2 0x19B0 JUMPI PUSH2 0x19AF PUSH2 0x1976 JUMP JUMPDEST JUMPDEST PUSH1 0x20 DUP4 ADD SWAP2 POP DUP4 PUSH1 0x1 DUP3 MUL DUP4 ADD GT ISZERO PUSH2 0x19CC JUMPI PUSH2 0x19CB PUSH2 0x197A JUMP JUMPDEST JUMPDEST SWAP3 POP SWAP3 SWAP1 POP JUMP JUMPDEST PUSH0 DUP1 PUSH1 0x20 DUP4 DUP6 SUB SLT ISZERO PUSH2 0x19E9 JUMPI PUSH2 0x19E8 PUSH2 0x18DC JUMP JUMPDEST JUMPDEST PUSH0 DUP4 ADD CALLDATALOAD PUSH8 0xFFFFFFFFFFFFFFFF DUP2 GT ISZERO PUSH2 0x1A06 JUMPI PUSH2 0x1A05 PUSH2 0x18E0 JUMP JUMPDEST JUMPDEST PUSH2 0x1A12 DUP6 DUP3 DUP7 ADD PUSH2 0x197E JUMP JUMPDEST SWAP3 POP SWAP3 POP POP SWAP3 POP SWAP3 SWAP1 POP JUMP JUMPDEST PUSH0 DUP2 ISZERO ISZERO SWAP1 POP SWAP2 SWAP1 POP JUMP JUMPDEST PUSH2 0x1A32 DUP2 PUSH2 0x1A1E JUMP JUMPDEST DUP3 MSTORE POP POP JUMP JUMPDEST PUSH0 DUP2 MLOAD SWAP1 POP SWAP2 SWAP1 POP JUMP JUMPDEST PUSH0 DUP3 DUP3 MSTORE PUSH1 0x20 DUP3 ADD SWAP1 POP SWAP3 SWAP2 POP POP JUMP JUMPDEST DUP3 DUP2 DUP4 MCOPY PUSH0 DUP4 DUP4 ADD MSTORE POP POP POP JUMP JUMPDEST PUSH0 PUSH1 0x1F NOT PUSH1 0x1F DUP4 ADD AND SWAP1 POP SWAP2 SWAP1 POP JUMP JUMPDEST PUSH0 PUSH2 0x1A7A DUP3 PUSH2 0x1A38 JUMP JUMPDEST PUSH2 0x1A84 DUP2 DUP6 PUSH2 0x1A42 JUMP JUMPDEST SWAP4 POP PUSH2 0x1A94 DUP2 DUP6 PUSH1 0x20 DUP7 ADD PUSH2 0x1A52 JUMP JUMPDEST PUSH2 0x1A9D DUP2 PUSH2 0x1A60 JUMP JUMPDEST DUP5 ADD SWAP2 POP POP SWAP3 SWAP2 POP POP JUMP JUMPDEST PUSH0 PUSH1 0x40 DUP3 ADD SWAP1 POP PUSH2 0x1ABB PUSH0 DUP4 ADD DUP6 PUSH2 0x1A29 JUMP JUMPDEST DUP2 DUP2 SUB PUSH1 0x20 DUP4 ADD MSTORE PUSH2 0x1ACD DUP2 DUP5 PUSH2 0x1A70 JUMP JUMPDEST SWAP1 POP SWAP4 SWAP3 POP POP POP JUMP JUMPDEST PUSH0 PUSH2 0x1AE0 DUP3 PUSH2 0x1858 JUMP JUMPDEST SWAP1 POP SWAP2 SWAP1 POP JUMP JUMPDEST PUSH2 0x1AF0 DUP2 PUSH2 0x1AD6 JUMP JUMPDEST DUP3 MSTORE POP POP JUMP JUMPDEST PUSH0 PUSH1 0x20 DUP3 ADD SWAP1 POP PUSH2 0x1B09 PUSH0 DUP4 ADD DUP5 PUSH2 0x1AE7 JUMP JUMPDEST SWAP3 SWAP2 POP POP JUMP JUMPDEST PUSH0 PUSH2 0x1B19 DUP3 PUSH2 0x1858 JUMP JUMPDEST SWAP1 POP SWAP2 SWAP1 POP JUMP JUMPDEST PUSH2 0x1B29 DUP2 PUSH2 0x1B0F JUMP JUMPDEST DUP3 MSTORE POP POP JUMP JUMPDEST PUSH0 PUSH1 0x20 DUP3 ADD SWAP1 POP PUSH2 0x1B42 PUSH0 DUP4 ADD DUP5 PUSH2 0x1B20 JUMP JUMPDEST SWAP3 SWAP2 POP POP JUMP JUMPDEST PUSH0 DUP1 PUSH1 0x40 DUP4 DUP6 SUB SLT ISZERO PUSH2 0x1B5E JUMPI PUSH2 0x1B5D PUSH2 0x18DC JUMP JUMPDEST JUMPDEST PUSH0 PUSH2 0x1B6B DUP6 DUP3 DUP7 ADD PUSH2 0x18FA JUMP JUMPDEST SWAP3 POP POP PUSH1 0x20 PUSH2 0x1B7C DUP6 DUP3 DUP7 ADD PUSH2 0x18FA JUMP JUMPDEST SWAP2 POP POP SWAP3 POP SWAP3 SWAP1 POP JUMP JUMPDEST PUSH0 PUSH2 0x1B90 DUP3 PUSH2 0x180F JUMP JUMPDEST SWAP1 POP SWAP2 SWAP1 POP JUMP JUMPDEST PUSH2 0x1BA0 DUP2 PUSH2 0x1B86 JUMP JUMPDEST DUP3 MSTORE POP POP JUMP JUMPDEST PUSH0 PUSH1 0x20 DUP3 ADD SWAP1 POP PUSH2 0x1BB9 PUSH0 DUP4 ADD DUP5 PUSH2 0x1B97 JUMP JUMPDEST SWAP3 SWAP2 POP POP JUMP JUMPDEST PUSH0 DUP1 DUP4 PUSH1 0x1F DUP5 ADD SLT PUSH2 0x1BD4 JUMPI PUSH2 0x1BD3 PUSH2 0x1972 JUMP JUMPDEST JUMPDEST DUP3 CALLDATALOAD SWAP1 POP PUSH8 0xFFFFFFFFFFFFFFFF DUP2 GT ISZERO PUSH2 0x1BF1 JUMPI PUSH2 0x1BF0 PUSH2 0x1976 JUMP JUMPDEST JUMPDEST PUSH1 0x20 DUP4 ADD SWAP2 POP DUP4 PUSH1 0x20 DUP3 MUL DUP4 ADD GT ISZERO PUSH2 0x1C0D JUMPI PUSH2 0x1C0C PUSH2 0x197A JUMP JUMPDEST JUMPDEST SWAP3 POP SWAP3 SWAP1 POP JUMP JUMPDEST PUSH0 DUP1 PUSH0 PUSH1 0x40 DUP5 DUP7 SUB SLT ISZERO PUSH2 0x1C2B JUMPI PUSH2 0x1C2A PUSH2 0x18DC JUMP JUMPDEST JUMPDEST PUSH0 PUSH2 0x1C38 DUP7 DUP3 DUP8 ADD PUSH2 0x18FA JUMP JUMPDEST SWAP4 POP POP PUSH1 0x20 DUP5 ADD CALLDATALOAD PUSH8 0xFFFFFFFFFFFFFFFF DUP2 GT ISZERO PUSH2 0x1C59 JUMPI PUSH2 0x1C58 PUSH2 0x18E0 JUMP JUMPDEST JUMPDEST PUSH2 0x1C65 DUP7 DUP3 DUP8 ADD PUSH2 0x1BBF JUMP JUMPDEST SWAP3 POP SWAP3 POP POP SWAP3 POP SWAP3 POP SWAP3 JUMP JUMPDEST PUSH2 0x1C7A DUP2 PUSH2 0x1B86 JUMP JUMPDEST DUP2 EQ PUSH2 0x1C84 JUMPI PUSH0 DUP1 REVERT JUMPDEST POP JUMP JUMPDEST PUSH0 DUP2 CALLDATALOAD SWAP1 POP PUSH2 0x1C95 DUP2 PUSH2 0x1C71 JUMP JUMPDEST SWAP3 SWAP2 POP POP JUMP JUMPDEST PUSH0 PUSH1 0x20 DUP3 DUP5 SUB SLT ISZERO PUSH2 0x1CB0 JUMPI PUSH2 0x1CAF PUSH2 0x18DC JUMP JUMPDEST JUMPDEST PUSH0 PUSH2 0x1CBD DUP5 DUP3 DUP6 ADD PUSH2 0x1C87 JUMP JUMPDEST SWAP2 POP POP SWAP3 SWAP2 POP POP JUMP JUMPDEST PUSH0 PUSH2 0x1CD0 DUP3 PUSH2 0x1858 JUMP JUMPDEST SWAP1 POP SWAP2 SWAP1 POP JUMP JUMPDEST PUSH2 0x1CE0 DUP2 PUSH2 0x1CC6 JUMP JUMPDEST DUP3 MSTORE POP POP JUMP JUMPDEST PUSH0 PUSH1 0x20 DUP3 ADD SWAP1 POP PUSH2 0x1CF9 PUSH0 DUP4 ADD DUP5 PUSH2 0x1CD7 JUMP JUMPDEST SWAP3 SWAP2 POP POP JUMP JUMPDEST PUSH0 PUSH10 0xFFFFFFFFFFFFFFFFFFFF DUP3 AND SWAP1 POP SWAP2 SWAP1 POP JUMP JUMPDEST PUSH2 0x1D1D DUP2 PUSH2 0x1CFF JUMP JUMPDEST DUP2 EQ PUSH2 0x1D27 JUMPI PUSH0 DUP1 REVERT JUMPDEST POP JUMP JUMPDEST PUSH0 DUP2 MLOAD SWAP1 POP PUSH2 0x1D38 DUP2 PUSH2 0x1D14 JUMP JUMPDEST SWAP3 SWAP2 POP POP JUMP JUMPDEST PUSH0 DUP2 SWAP1 POP SWAP2 SWAP1 POP JUMP JUMPDEST PUSH2 0x1D50 DUP2 PUSH2 0x1D3E JUMP JUMPDEST DUP2 EQ PUSH2 0x1D5A JUMPI PUSH0 DUP1 REVERT JUMPDEST POP JUMP JUMPDEST PUSH0 DUP2 MLOAD SWAP1 POP PUSH2 0x1D6B DUP2 PUSH2 0x1D47 JUMP JUMPDEST SWAP3 SWAP2 POP POP JUMP JUMPDEST PUSH0 DUP2 MLOAD SWAP1 POP PUSH2 0x1D7F DUP2 PUSH2 0x18E4 JUMP JUMPDEST SWAP3 SWAP2 POP POP JUMP JUMPDEST PUSH0 DUP1 PUSH0 DUP1 PUSH0 PUSH1 0xA0 DUP7 DUP9 SUB SLT ISZERO PUSH2 0x1D9E JUMPI PUSH2 0x1D9D PUSH2 0x18DC JUMP JUMPDEST JUMPDEST PUSH0 PUSH2 0x1DAB DUP9 DUP3 DUP10 ADD PUSH2 0x1D2A JUMP JUMPDEST SWAP6 POP POP PUSH1 0x20 PUSH2 0x1DBC DUP9 DUP3 DUP10 ADD PUSH2 0x1D5D JUMP JUMPDEST SWAP5 POP POP PUSH1 0x40 PUSH2 0x1DCD DUP9 DUP3 DUP10 ADD PUSH2 0x1D71 JUMP JUMPDEST SWAP4 POP POP PUSH1 0x60 PUSH2 0x1DDE DUP9 DUP3 DUP10 ADD PUSH2 0x1D71 JUMP JUMPDEST SWAP3 POP POP PUSH1 0x80 PUSH2 0x1DEF DUP9 DUP3 DUP10 ADD PUSH2 0x1D2A JUMP JUMPDEST SWAP2 POP POP SWAP3 SWAP6 POP SWAP3 SWAP6 SWAP1 SWAP4 POP JUMP JUMPDEST PUSH32 0x4E487B7100000000000000000000000000000000000000000000000000000000 PUSH0 MSTORE PUSH1 0x11 PUSH1 0x4 MSTORE PUSH1 0x24 PUSH0 REVERT JUMPDEST PUSH0 PUSH2 0x1E33 DUP3 PUSH2 0x18A2 JUMP JUMPDEST SWAP2 POP PUSH2 0x1E3E DUP4 PUSH2 0x18A2 JUMP JUMPDEST SWAP3 POP DUP3 DUP3 SUB SWAP1 POP DUP2 DUP2 GT ISZERO PUSH2 0x1E56 JUMPI PUSH2 0x1E55 PUSH2 0x1DFC JUMP JUMPDEST JUMPDEST SWAP3 SWAP2 POP POP JUMP JUMPDEST PUSH0 PUSH2 0x1E66 DUP3 PUSH2 0x18A2 JUMP JUMPDEST SWAP2 POP PUSH2 0x1E71 DUP4 PUSH2 0x18A2 JUMP JUMPDEST SWAP3 POP DUP3 DUP3 MUL PUSH2 0x1E7F DUP2 PUSH2 0x18A2 JUMP JUMPDEST SWAP2 POP DUP3 DUP3 DIV DUP5 EQ DUP4 ISZERO OR PUSH2 0x1E96 JUMPI PUSH2 0x1E95 PUSH2 0x1DFC JUMP JUMPDEST JUMPDEST POP SWAP3 SWAP2 POP POP JUMP JUMPDEST PUSH32 0x4E487B7100000000000000000000000000000000000000000000000000000000 PUSH0 MSTORE PUSH1 0x12 PUSH1 0x4 MSTORE PUSH1 0x24 PUSH0 REVERT JUMPDEST PUSH0 PUSH2 0x1ED4 DUP3 PUSH2 0x18A2 JUMP JUMPDEST SWAP2 POP PUSH2 0x1EDF DUP4 PUSH2 0x18A2 JUMP JUMPDEST SWAP3 POP DUP3 PUSH2 0x1EEF JUMPI PUSH2 0x1EEE PUSH2 0x1E9D JUMP JUMPDEST JUMPDEST DUP3 DUP3 DIV SWAP1 POP SWAP3 SWAP2 POP POP JUMP JUMPDEST PUSH0 DUP3 DUP3 MSTORE PUSH1 0x20 DUP3 ADD SWAP1 POP SWAP3 SWAP2 POP POP JUMP JUMPDEST PUSH32 0x416D6F756E7473206D7573742062652067726561746572207468616E207A6572 PUSH0 DUP3 ADD MSTORE PUSH32 0x6F2E000000000000000000000000000000000000000000000000000000000000 PUSH1 0x20 DUP3 ADD MSTORE POP JUMP JUMPDEST PUSH0 PUSH2 0x1F64 PUSH1 0x22 DUP4 PUSH2 0x1EFA JUMP JUMPDEST SWAP2 POP PUSH2 0x1F6F DUP3 PUSH2 0x1F0A JUMP JUMPDEST PUSH1 0x40 DUP3 ADD SWAP1 POP SWAP2 SWAP1 POP JUMP JUMPDEST PUSH0 PUSH1 0x20 DUP3 ADD SWAP1 POP DUP2 DUP2 SUB PUSH0 DUP4 ADD MSTORE PUSH2 0x1F91 DUP2 PUSH2 0x1F58 JUMP JUMPDEST SWAP1 POP SWAP2 SWAP1 POP JUMP JUMPDEST PUSH32 0x45786365656473206D6178206F726465722073697A652E000000000000000000 PUSH0 DUP3 ADD MSTORE POP JUMP JUMPDEST PUSH0 PUSH2 0x1FCC PUSH1 0x17 DUP4 PUSH2 0x1EFA JUMP JUMPDEST SWAP2 POP PUSH2 0x1FD7 DUP3 PUSH2 0x1F98 JUMP JUMPDEST PUSH1 0x20 DUP3 ADD SWAP1 POP SWAP2 SWAP1 POP JUMP JUMPDEST PUSH0 PUSH1 0x20 DUP3 ADD SWAP1 POP DUP2 DUP2 SUB PUSH0 DUP4 ADD MSTORE PUSH2 0x1FF9 DUP2 PUSH2 0x1FC0 JUMP JUMPDEST SWAP1 POP SWAP2 SWAP1 POP JUMP JUMPDEST PUSH0 PUSH1 0x40 DUP3 ADD SWAP1 POP PUSH2 0x2013 PUSH0 DUP4 ADD DUP6 PUSH2 0x1B97 JUMP JUMPDEST PUSH2 0x2020 PUSH1 0x20 DUP4 ADD DUP5 PUSH2 0x18AB JUMP JUMPDEST SWAP4 SWAP3 POP POP POP JUMP JUMPDEST PUSH2 0x2030 DUP2 PUSH2 0x1A1E JUMP JUMPDEST DUP2 EQ PUSH2 0x203A JUMPI PUSH0 DUP1 REVERT JUMPDEST POP JUMP JUMPDEST PUSH0 DUP2 MLOAD SWAP1 POP PUSH2 0x204B DUP2 PUSH2 0x2027 JUMP JUMPDEST SWAP3 SWAP2 POP POP JUMP JUMPDEST PUSH0 PUSH1 0x20 DUP3 DUP5 SUB SLT ISZERO PUSH2 0x2066 JUMPI PUSH2 0x2065 PUSH2 0x18DC JUMP JUMPDEST JUMPDEST PUSH0 PUSH2 0x2073 DUP5 DUP3 DUP6 ADD PUSH2 0x203D JUMP JUMPDEST SWAP2 POP POP SWAP3 SWAP2 POP POP JUMP JUMPDEST PUSH0 DUP2 SWAP1 POP SWAP2 SWAP1 POP JUMP JUMPDEST PUSH0 PUSH2 0x209F PUSH2 0x209A PUSH2 0x2095 DUP5 PUSH2 0x207C JUMP JUMPDEST PUSH2 0x182E JUMP JUMPDEST PUSH2 0x18A2 JUMP JUMPDEST SWAP1 POP SWAP2 SWAP1 POP JUMP JUMPDEST PUSH2 0x20AF DUP2 PUSH2 0x2085 JUMP JUMPDEST DUP3 MSTORE POP POP JUMP JUMPDEST PUSH0 PUSH2 0x100 DUP3 ADD SWAP1 POP PUSH2 0x20C9 PUSH0 DUP4 ADD DUP12 PUSH2 0x1B97 JUMP JUMPDEST PUSH2 0x20D6 PUSH1 0x20 DUP4 ADD DUP11 PUSH2 0x1B97 JUMP JUMPDEST PUSH2 0x20E3 PUSH1 0x40 DUP4 ADD DUP10 PUSH2 0x18AB JUMP JUMPDEST PUSH2 0x20F0 PUSH1 0x60 DUP4 ADD DUP9 PUSH2 0x18AB JUMP JUMPDEST PUSH2 0x20FD PUSH1 0x80 DUP4 ADD DUP8 PUSH2 0x20A6 JUMP JUMPDEST PUSH2 0x210A PUSH1 0xA0 DUP4 ADD DUP7 PUSH2 0x20A6 JUMP JUMPDEST PUSH2 0x2117 PUSH1 0xC0 DUP4 ADD DUP6 PUSH2 0x1B97 JUMP JUMPDEST PUSH2 0x2124 PUSH1 0xE0 DUP4 ADD DUP5 PUSH2 0x18AB JUMP JUMPDEST SWAP10 SWAP9 POP POP POP POP POP POP POP POP POP JUMP JUMPDEST PUSH0 DUP1 PUSH0 PUSH1 0x60 DUP5 DUP7 SUB SLT ISZERO PUSH2 0x2148 JUMPI PUSH2 0x2147 PUSH2 0x18DC JUMP JUMPDEST JUMPDEST PUSH0 PUSH2 0x2155 DUP7 DUP3 DUP8 ADD PUSH2 0x1D71 JUMP JUMPDEST SWAP4 POP POP PUSH1 0x20 PUSH2 0x2166 DUP7 DUP3 DUP8 ADD PUSH2 0x1D71 JUMP JUMPDEST SWAP3 POP POP PUSH1 0x40 PUSH2 0x2177 DUP7 DUP3 DUP8 ADD PUSH2 0x1D71 JUMP JUMPDEST SWAP2 POP POP SWAP3 POP SWAP3 POP SWAP3 JUMP JUMPDEST PUSH0 PUSH1 0x40 DUP3 ADD SWAP1 POP PUSH2 0x2194 PUSH0 DUP4 ADD DUP6 PUSH2 0x18AB JUMP JUMPDEST PUSH2 0x21A1 PUSH1 0x20 DUP4 ADD DUP5 PUSH2 0x18AB JUMP JUMPDEST SWAP4 SWAP3 POP POP POP JUMP JUMPDEST PUSH32 0x4C6971756964697479206D7573742062652067726561746572207468616E207A PUSH0 DUP3 ADD MSTORE PUSH32 0x65726F2E00000000000000000000000000000000000000000000000000000000 PUSH1 0x20 DUP3 ADD MSTORE POP JUMP JUMPDEST PUSH0 PUSH2 0x2202 PUSH1 0x24 DUP4 PUSH2 0x1EFA JUMP JUMPDEST SWAP2 POP PUSH2 0x220D DUP3 PUSH2 0x21A8 JUMP JUMPDEST PUSH1 0x40 DUP3 ADD SWAP1 POP SWAP2 SWAP1 POP JUMP JUMPDEST PUSH0 PUSH1 0x20 DUP3 ADD SWAP1 POP DUP2 DUP2 SUB PUSH0 DUP4 ADD MSTORE PUSH2 0x222F DUP2 PUSH2 0x21F6 JUMP JUMPDEST SWAP1 POP SWAP2 SWAP1 POP JUMP JUMPDEST PUSH0 PUSH1 0xE0 DUP3 ADD SWAP1 POP PUSH2 0x2249 PUSH0 DUP4 ADD DUP11 PUSH2 0x1B97 JUMP JUMPDEST PUSH2 0x2256 PUSH1 0x20 DUP4 ADD DUP10 PUSH2 0x1B97 JUMP JUMPDEST PUSH2 0x2263 PUSH1 0x40 DUP4 ADD DUP9 PUSH2 0x18AB JUMP JUMPDEST PUSH2 0x2270 PUSH1 0x60 DUP4 ADD DUP8 PUSH2 0x20A6 JUMP JUMPDEST PUSH2 0x227D PUSH1 0x80 DUP4 ADD DUP7 PUSH2 0x20A6 JUMP JUMPDEST PUSH2 0x228A PUSH1 0xA0 DUP4 ADD DUP6 PUSH2 0x1B97 JUMP JUMPDEST PUSH2 0x2297 PUSH1 0xC0 DUP4 ADD DUP5 PUSH2 0x18AB JUMP JUMPDEST SWAP9 SWAP8 POP POP POP POP POP POP POP POP JUMP JUMPDEST PUSH0 DUP1 PUSH1 0x40 DUP4 DUP6 SUB SLT ISZERO PUSH2 0x22B9 JUMPI PUSH2 0x22B8 PUSH2 0x18DC JUMP JUMPDEST JUMPDEST PUSH0 PUSH2 0x22C6 DUP6 DUP3 DUP7 ADD PUSH2 0x1D71 JUMP JUMPDEST SWAP3 POP POP PUSH1 0x20 PUSH2 0x22D7 DUP6 DUP3 DUP7 ADD PUSH2 0x1D71 JUMP JUMPDEST SWAP2 POP POP SWAP3 POP SWAP3 SWAP1 POP JUMP JUMPDEST PUSH32 0x416D6F756E74206D7573742062652067726561746572207468616E207A65726F PUSH0 DUP3 ADD MSTORE PUSH32 0x2E00000000000000000000000000000000000000000000000000000000000000 PUSH1 0x20 DUP3 ADD MSTORE POP JUMP JUMPDEST PUSH0 PUSH2 0x233B PUSH1 0x21 DUP4 PUSH2 0x1EFA JUMP JUMPDEST SWAP2 POP PUSH2 0x2346 DUP3 PUSH2 0x22E1 JUMP JUMPDEST PUSH1 0x40 DUP3 ADD SWAP1 POP SWAP2 SWAP1 POP JUMP JUMPDEST PUSH0 PUSH1 0x20 DUP3 ADD SWAP1 POP DUP2 DUP2 SUB PUSH0 DUP4 ADD MSTORE PUSH2 0x2368 DUP2 PUSH2 0x232F JUMP JUMPDEST SWAP1 POP SWAP2 SWAP1 POP JUMP JUMPDEST PUSH32 0x496E76616C6964207377617020706174682E0000000000000000000000000000 PUSH0 DUP3 ADD MSTORE POP JUMP JUMPDEST PUSH0 PUSH2 0x23A3 PUSH1 0x12 DUP4 PUSH2 0x1EFA JUMP JUMPDEST SWAP2 POP PUSH2 0x23AE DUP3 PUSH2 0x236F JUMP JUMPDEST PUSH1 0x20 DUP3 ADD SWAP1 POP SWAP2 SWAP1 POP JUMP JUMPDEST PUSH0 PUSH1 0x20 DUP3 ADD SWAP1 POP DUP2 DUP2 SUB PUSH0 DUP4 ADD MSTORE PUSH2 0x23D0 DUP2 PUSH2 0x2397 JUMP JUMPDEST SWAP1 POP SWAP2 SWAP1 POP JUMP JUMPDEST PUSH0 DUP3 DUP3 MSTORE PUSH1 0x20 DUP3 ADD SWAP1 POP SWAP3 SWAP2 POP POP JUMP JUMPDEST PUSH0 DUP2 SWAP1 POP SWAP2 SWAP1 POP JUMP JUMPDEST PUSH2 0x23F9 DUP2 PUSH2 0x1B86 JUMP JUMPDEST DUP3 MSTORE POP POP JUMP JUMPDEST PUSH0 PUSH2 0x240A DUP4 DUP4 PUSH2 0x23F0 JUMP JUMPDEST PUSH1 0x20 DUP4 ADD SWAP1 POP SWAP3 SWAP2 POP POP JUMP JUMPDEST PUSH0 PUSH2 0x2424 PUSH1 0x20 DUP5 ADD DUP5 PUSH2 0x1C87 JUMP JUMPDEST SWAP1 POP SWAP3 SWAP2 POP POP JUMP JUMPDEST PUSH0 PUSH1 0x20 DUP3 ADD SWAP1 POP SWAP2 SWAP1 POP JUMP JUMPDEST PUSH0 PUSH2 0x2443 DUP4 DUP6 PUSH2 0x23D7 JUMP JUMPDEST SWAP4 POP PUSH2 0x244E DUP3 PUSH2 0x23E7 JUMP JUMPDEST DUP1 PUSH0 JUMPDEST DUP6 DUP2 LT ISZERO PUSH2 0x2486 JUMPI PUSH2 0x2463 DUP3 DUP5 PUSH2 0x2416 JUMP JUMPDEST PUSH2 0x246D DUP9 DUP3 PUSH2 0x23FF JUMP JUMPDEST SWAP8 POP PUSH2 0x2478 DUP4 PUSH2 0x242C JUMP JUMPDEST SWAP3 POP POP PUSH1 0x1 DUP2 ADD SWAP1 POP PUSH2 0x2451 JUMP JUMPDEST POP DUP6 SWAP3 POP POP POP SWAP4 SWAP3 POP POP POP JUMP JUMPDEST PUSH0 PUSH1 0x40 DUP3 ADD SWAP1 POP PUSH2 0x24A6 PUSH0 DUP4 ADD DUP7 PUSH2 0x18AB JUMP JUMPDEST DUP2 DUP2 SUB PUSH1 0x20 DUP4 ADD MSTORE PUSH2 0x24B9 DUP2 DUP5 DUP7 PUSH2 0x2438 JUMP JUMPDEST SWAP1 POP SWAP5 SWAP4 POP POP POP POP JUMP JUMPDEST PUSH32 0x4E487B7100000000000000000000000000000000000000000000000000000000 PUSH0 MSTORE PUSH1 0x41 PUSH1 0x4 MSTORE PUSH1 0x24 PUSH0 REVERT JUMPDEST PUSH2 0x24F9 DUP3 PUSH2 0x1A60 JUMP JUMPDEST DUP2 ADD DUP2 DUP2 LT PUSH8 0xFFFFFFFFFFFFFFFF DUP3 GT OR ISZERO PUSH2 0x2518 JUMPI PUSH2 0x2517 PUSH2 0x24C3 JUMP JUMPDEST JUMPDEST DUP1 PUSH1 0x40 MSTORE POP POP POP JUMP JUMPDEST PUSH0 PUSH2 0x252A PUSH2 0x18D3 JUMP JUMPDEST SWAP1 POP PUSH2 0x2536 DUP3 DUP3 PUSH2 0x24F0 JUMP JUMPDEST SWAP2 SWAP1 POP JUMP JUMPDEST PUSH0 PUSH8 0xFFFFFFFFFFFFFFFF DUP3 GT ISZERO PUSH2 0x2555 JUMPI PUSH2 0x2554 PUSH2 0x24C3 JUMP JUMPDEST JUMPDEST PUSH1 0x20 DUP3 MUL SWAP1 POP PUSH1 0x20 DUP2 ADD SWAP1 POP SWAP2 SWAP1 POP JUMP JUMPDEST PUSH0 PUSH2 0x2578 PUSH2 0x2573 DUP5 PUSH2 0x253B JUMP JUMPDEST PUSH2 0x2521 JUMP JUMPDEST SWAP1 POP DUP1 DUP4 DUP3 MSTORE PUSH1 0x20 DUP3 ADD SWAP1 POP PUSH1 0x20 DUP5 MUL DUP4 ADD DUP6 DUP2 GT ISZERO PUSH2 0x259B JUMPI PUSH2 0x259A PUSH2 0x197A JUMP JUMPDEST JUMPDEST DUP4 JUMPDEST DUP2 DUP2 LT ISZERO PUSH2 0x25C4 JUMPI DUP1 PUSH2 0x25B0 DUP9 DUP3 PUSH2 0x1D71 JUMP JUMPDEST DUP5 MSTORE PUSH1 0x20 DUP5 ADD SWAP4 POP POP PUSH1 0x20 DUP2 ADD SWAP1 POP PUSH2 0x259D JUMP JUMPDEST POP POP POP SWAP4 SWAP3 POP POP POP JUMP JUMPDEST PUSH0 DUP3 PUSH1 0x1F DUP4 ADD SLT PUSH2 0x25E2 JUMPI PUSH2 0x25E1 PUSH2 0x1972 JUMP JUMPDEST JUMPDEST DUP2 MLOAD PUSH2 0x25F2 DUP5 DUP3 PUSH1 0x20 DUP7 ADD PUSH2 0x2566 JUMP JUMPDEST SWAP2 POP POP SWAP3 SWAP2 POP POP JUMP JUMPDEST PUSH0 PUSH1 0x20 DUP3 DUP5 SUB SLT ISZERO PUSH2 0x2610 JUMPI PUSH2 0x260F PUSH2 0x18DC JUMP JUMPDEST JUMPDEST PUSH0 DUP3 ADD MLOAD PUSH8 0xFFFFFFFFFFFFFFFF DUP2 GT ISZERO PUSH2 0x262D JUMPI PUSH2 0x262C PUSH2 0x18E0 JUMP JUMPDEST JUMPDEST PUSH2 0x2639 DUP5 DUP3 DUP6 ADD PUSH2 0x25CE JUMP JUMPDEST SWAP2 POP POP SWAP3 SWAP2 POP POP JUMP JUMPDEST PUSH0 PUSH1 0xA0 DUP3 ADD SWAP1 POP PUSH2 0x2655 PUSH0 DUP4 ADD DUP10 PUSH2 0x18AB JUMP JUMPDEST PUSH2 0x2662 PUSH1 0x20 DUP4 ADD DUP9 PUSH2 0x20A6 JUMP JUMPDEST DUP2 DUP2 SUB PUSH1 0x40 DUP4 ADD MSTORE PUSH2 0x2675 DUP2 DUP7 DUP9 PUSH2 0x2438 JUMP JUMPDEST SWAP1 POP PUSH2 0x2684 PUSH1 0x60 DUP4 ADD DUP6 PUSH2 0x1B97 JUMP JUMPDEST PUSH2 0x2691 PUSH1 0x80 DUP4 ADD DUP5 PUSH2 0x18AB JUMP JUMPDEST SWAP8 SWAP7 POP POP POP POP POP POP POP JUMP JUMPDEST PUSH32 0x4E487B7100000000000000000000000000000000000000000000000000000000 PUSH0 MSTORE PUSH1 0x32 PUSH1 0x4 MSTORE PUSH1 0x24 PUSH0 REVERT JUMPDEST PUSH0 PUSH1 0xA0 DUP3 ADD SWAP1 POP PUSH2 0x26DC PUSH0 DUP4 ADD DUP10 PUSH2 0x18AB JUMP JUMPDEST PUSH2 0x26E9 PUSH1 0x20 DUP4 ADD DUP9 PUSH2 0x18AB JUMP JUMPDEST DUP2 DUP2 SUB PUSH1 0x40 DUP4 ADD MSTORE PUSH2 0x26FC DUP2 DUP7 DUP9 PUSH2 0x2438 JUMP JUMPDEST SWAP1 POP PUSH2 0x270B PUSH1 0x60 DUP4 ADD DUP6 PUSH2 0x1B97 JUMP JUMPDEST PUSH2 0x2718 PUSH1 0x80 DUP4 ADD DUP5 PUSH2 0x18AB JUMP JUMPDEST SWAP8 SWAP7 POP POP POP POP POP POP POP JUMP JUMPDEST PUSH32 0x5265656E7472616E637947756172643A207265656E7472616E742063616C6C00 PUSH0 DUP3 ADD MSTORE POP JUMP JUMPDEST PUSH0 PUSH2 0x2757 PUSH1 0x1F DUP4 PUSH2 0x1EFA JUMP JUMPDEST SWAP2 POP PUSH2 0x2762 DUP3 PUSH2 0x2723 JUMP JUMPDEST PUSH1 0x20 DUP3 ADD SWAP1 POP SWAP2 SWAP1 POP JUMP JUMPDEST PUSH0 PUSH1 0x20 DUP3 ADD SWAP1 POP DUP2 DUP2 SUB PUSH0 DUP4 ADD MSTORE PUSH2 0x2784 DUP2 PUSH2 0x274B JUMP JUMPDEST SWAP1 POP SWAP2 SWAP1 POP JUMP INVALID LOG2 PUSH5 0x6970667358 0x22 SLT KECCAK256 PUSH21 0x3317D7EDC4E6073B8008587BB84E0D0EA898208377 0xD4 0xEA 0x24 DUP6 PUSH30 0xABF4A09BB864736F6C634300081A00330000000000000000000000000000 "
				},
				"gasEstimates": {
					"creation": {
						"codeDepositCost": "2035400",
						"executionCost": "infinite",
						"totalCost": "infinite"
					},
					"external": {
						"checkUpkeep(bytes)": "infinite",
						"executeSwap(uint256,address[])": "infinite",
						"getCurrentMarketPrice()": "infinite",
						"lastRebalance()": "2494",
						"maxOrderSize()": "2469",
						"minProfitThreshold()": "2515",
						"mitigateImpermanentLoss()": "infinite",
						"owner()": "2626",
						"performUpkeep(bytes)": "infinite",
						"priceFeed()": "infinite",
						"provideLiquidity(uint256,uint256)": "infinite",
						"rebalanceThreshold()": "2537",
						"removeLiquidity(uint256)": "infinite",
						"renounceOwnership()": "infinite",
						"stopLossThreshold()": "2493",
						"sushiSwapRouter()": "infinite",
						"tokenA()": "infinite",
						"tokenB()": "infinite",
						"tokenC()": "infinite",
						"transferOwnership(address)": "infinite",
						"triggerStopLoss()": "infinite",
						"uniswapPairAB()": "infinite",
						"uniswapPairAC()": "infinite",
						"uniswapPairBC()": "infinite",
						"uniswapRouter()": "infinite",
						"updateMaxOrderSize(uint256)": "infinite",
						"updateMinProfitThreshold(uint256)": "infinite",
						"updateRebalanceThreshold(uint256)": "infinite",
						"updateStopLossThreshold(uint256)": "infinite"
					},
					"internal": {
						"rebalanceLiquidity(uint256)": "infinite"
					}
				},
				"methodIdentifiers": {
					"checkUpkeep(bytes)": "6e04ff0d",
					"executeSwap(uint256,address[])": "d3ec3eec",
					"getCurrentMarketPrice()": "1ae74cce",
					"lastRebalance()": "106b9ca1",
					"maxOrderSize()": "f1a82c7e",
					"minProfitThreshold()": "7341ab8c",
					"mitigateImpermanentLoss()": "d8fc0816",
					"owner()": "8da5cb5b",
					"performUpkeep(bytes)": "4585e33b",
					"priceFeed()": "741bef1a",
					"provideLiquidity(uint256,uint256)": "7a16af7f",
					"rebalanceThreshold()": "3dfe9f6a",
					"removeLiquidity(uint256)": "9c8f9f23",
					"renounceOwnership()": "715018a6",
					"stopLossThreshold()": "2197634f",
					"sushiSwapRouter()": "fd829a23",
					"tokenA()": "0fc63d10",
					"tokenB()": "5f64b55b",
					"tokenC()": "c483a308",
					"transferOwnership(address)": "f2fde38b",
					"triggerStopLoss()": "47c8e13c",
					"uniswapPairAB()": "28a5e10c",
					"uniswapPairAC()": "fbf6db14",
					"uniswapPairBC()": "5a11cd58",
					"uniswapRouter()": "735de9f7",
					"updateMaxOrderSize(uint256)": "730ab60f",
					"updateMinProfitThreshold(uint256)": "58d0ee58",
					"updateRebalanceThreshold(uint256)": "12ddbc4f",
					"updateStopLossThreshold(uint256)": "3ebc480f"
				}
			},
			"storageLayout": {
				"storage": [
					{
						"astId": 120,
						"contract": "contracts/DeFiFlow.sol:DeFiFlow",
						"label": "_owner",
						"offset": 0,
						"slot": "0",
						"type": "t_address"
					},
					{
						"astId": 270,
						"contract": "contracts/DeFiFlow.sol:DeFiFlow",
						"label": "_status",
						"offset": 0,
						"slot": "1",
						"type": "t_uint256"
					},
					{
						"astId": 1170,
						"contract": "contracts/DeFiFlow.sol:DeFiFlow",
						"label": "tokenA",
						"offset": 0,
						"slot": "2",
						"type": "t_contract(IERC20)402"
					},
					{
						"astId": 1173,
						"contract": "contracts/DeFiFlow.sol:DeFiFlow",
						"label": "tokenB",
						"offset": 0,
						"slot": "3",
						"type": "t_contract(IERC20)402"
					},
					{
						"astId": 1176,
						"contract": "contracts/DeFiFlow.sol:DeFiFlow",
						"label": "tokenC",
						"offset": 0,
						"slot": "4",
						"type": "t_contract(IERC20)402"
					},
					{
						"astId": 1179,
						"contract": "contracts/DeFiFlow.sol:DeFiFlow",
						"label": "uniswapRouter",
						"offset": 0,
						"slot": "5",
						"type": "t_contract(IUniswapV2Router02)1133"
					},
					{
						"astId": 1182,
						"contract": "contracts/DeFiFlow.sol:DeFiFlow",
						"label": "sushiSwapRouter",
						"offset": 0,
						"slot": "6",
						"type": "t_contract(ISushiSwapRouter)1161"
					},
					{
						"astId": 1185,
						"contract": "contracts/DeFiFlow.sol:DeFiFlow",
						"label": "uniswapPairAB",
						"offset": 0,
						"slot": "7",
						"type": "t_contract(IUniswapV2Pair)737"
					},
					{
						"astId": 1188,
						"contract": "contracts/DeFiFlow.sol:DeFiFlow",
						"label": "uniswapPairAC",
						"offset": 0,
						"slot": "8",
						"type": "t_contract(IUniswapV2Pair)737"
					},
					{
						"astId": 1191,
						"contract": "contracts/DeFiFlow.sol:DeFiFlow",
						"label": "uniswapPairBC",
						"offset": 0,
						"slot": "9",
						"type": "t_contract(IUniswapV2Pair)737"
					},
					{
						"astId": 1194,
						"contract": "contracts/DeFiFlow.sol:DeFiFlow",
						"label": "priceFeed",
						"offset": 0,
						"slot": "10",
						"type": "t_contract(AggregatorV3Interface)92"
					},
					{
						"astId": 1196,
						"contract": "contracts/DeFiFlow.sol:DeFiFlow",
						"label": "maxOrderSize",
						"offset": 0,
						"slot": "11",
						"type": "t_uint256"
					},
					{
						"astId": 1198,
						"contract": "contracts/DeFiFlow.sol:DeFiFlow",
						"label": "minProfitThreshold",
						"offset": 0,
						"slot": "12",
						"type": "t_uint256"
					},
					{
						"astId": 1200,
						"contract": "contracts/DeFiFlow.sol:DeFiFlow",
						"label": "rebalanceThreshold",
						"offset": 0,
						"slot": "13",
						"type": "t_uint256"
					},
					{
						"astId": 1202,
						"contract": "contracts/DeFiFlow.sol:DeFiFlow",
						"label": "stopLossThreshold",
						"offset": 0,
						"slot": "14",
						"type": "t_uint256"
					},
					{
						"astId": 1204,
						"contract": "contracts/DeFiFlow.sol:DeFiFlow",
						"label": "lastRebalance",
						"offset": 0,
						"slot": "15",
						"type": "t_uint256"
					}
				],
				"types": {
					"t_address": {
						"encoding": "inplace",
						"label": "address",
						"numberOfBytes": "20"
					},
					"t_contract(AggregatorV3Interface)92": {
						"encoding": "inplace",
						"label": "contract AggregatorV3Interface",
						"numberOfBytes": "20"
					},
					"t_contract(IERC20)402": {
						"encoding": "inplace",
						"label": "contract IERC20",
						"numberOfBytes": "20"
					},
					"t_contract(ISushiSwapRouter)1161": {
						"encoding": "inplace",
						"label": "contract ISushiSwapRouter",
						"numberOfBytes": "20"
					},
					"t_contract(IUniswapV2Pair)737": {
						"encoding": "inplace",
						"label": "contract IUniswapV2Pair",
						"numberOfBytes": "20"
					},
					"t_contract(IUniswapV2Router02)1133": {
						"encoding": "inplace",
						"label": "contract IUniswapV2Router02",
						"numberOfBytes": "20"
					},
					"t_uint256": {
						"encoding": "inplace",
						"label": "uint256",
						"numberOfBytes": "32"
					}
				}
			},
			"userdoc": {
				"kind": "user",
				"methods": {
					"checkUpkeep(bytes)": {
						"notice": "Implements Chainlink Keepers to automate rebalancing."
					},
					"executeSwap(uint256,address[])": {
						"notice": "Executes a swap on the best DEX."
					},
					"getCurrentMarketPrice()": {
						"notice": "Retrieves the current market price from the Chainlink price feed."
					},
					"mitigateImpermanentLoss()": {
						"notice": "Mitigates impermanent loss by adjusting or removing liquidity during high volatility."
					},
					"performUpkeep(bytes)": {
						"notice": "Performs the automated rebalancing of liquidity."
					},
					"provideLiquidity(uint256,uint256)": {
						"notice": "Provides liquidity to the Uniswap pool for tokenA and tokenB."
					},
					"removeLiquidity(uint256)": {
						"notice": "Removes liquidity from the Uniswap pool for tokenA and tokenB."
					},
					"triggerStopLoss()": {
						"notice": "Triggers stop-loss mechanism to prevent further losses."
					},
					"updateMaxOrderSize(uint256)": {
						"notice": "Updates the maximum order size."
					},
					"updateMinProfitThreshold(uint256)": {
						"notice": "Updates the minimum profit threshold."
					},
					"updateRebalanceThreshold(uint256)": {
						"notice": "Updates the rebalance threshold."
					},
					"updateStopLossThreshold(uint256)": {
						"notice": "Updates the stop-loss threshold."
					}
				},
				"version": 1
			}
		}
	}
}