{
	"data": {
		"bytecode": {
			"linkReferences": {},
			"object": "608060405234801561000f575f80fd5b506040516130f13803806130f183398181016040528101906100319190610758565b335f73ffffffffffffffffffffffffffffffffffffffff168173ffffffffffffffffffffffffffffffffffffffff16036100a2575f6040517f1e4fbdf70000000000000000000000000000000000000000000000000000000081526004016100999190610840565b60405180910390fd5b6100b18161060660201b60201c565b50600180819055508960025f6101000a81548173ffffffffffffffffffffffffffffffffffffffff021916908373ffffffffffffffffffffffffffffffffffffffff1602179055508860035f6101000a81548173ffffffffffffffffffffffffffffffffffffffff021916908373ffffffffffffffffffffffffffffffffffffffff1602179055508760045f6101000a81548173ffffffffffffffffffffffffffffffffffffffff021916908373ffffffffffffffffffffffffffffffffffffffff1602179055508660055f6101000a81548173ffffffffffffffffffffffffffffffffffffffff021916908373ffffffffffffffffffffffffffffffffffffffff1602179055508560065f6101000a81548173ffffffffffffffffffffffffffffffffffffffff021916908373ffffffffffffffffffffffffffffffffffffffff16021790555084600a5f6101000a81548173ffffffffffffffffffffffffffffffffffffffff021916908373ffffffffffffffffffffffffffffffffffffffff16021790555083600b8190555082600c8190555081600d8190555080600e819055505f60055f9054906101000a900473ffffffffffffffffffffffffffffffffffffffff1673ffffffffffffffffffffffffffffffffffffffff1663c45a01556040518163ffffffff1660e01b8152600401602060405180830381865afa1580156102c0573d5f803e3d5ffd5b505050506040513d601f19601f820116820180604052508101906102e49190610859565b90505f8173ffffffffffffffffffffffffffffffffffffffff1663e6a439058d8d6040518363ffffffff1660e01b8152600401610322929190610884565b602060405180830381865afa15801561033d573d5f803e3d5ffd5b505050506040513d601f19601f820116820180604052508101906103619190610859565b90505f73ffffffffffffffffffffffffffffffffffffffff168173ffffffffffffffffffffffffffffffffffffffff16036103d1576040517f08c379a00000000000000000000000000000000000000000000000000000000081526004016103c890610905565b60405180910390fd5b8060075f6101000a81548173ffffffffffffffffffffffffffffffffffffffff021916908373ffffffffffffffffffffffffffffffffffffffff1602179055505f8273ffffffffffffffffffffffffffffffffffffffff1663e6a439058e8d6040518363ffffffff1660e01b815260040161044d929190610884565b602060405180830381865afa158015610468573d5f803e3d5ffd5b505050506040513d601f19601f8201168201806040525081019061048c9190610859565b90505f73ffffffffffffffffffffffffffffffffffffffff168173ffffffffffffffffffffffffffffffffffffffff1614610502578060085f6101000a81548173ffffffffffffffffffffffffffffffffffffffff021916908373ffffffffffffffffffffffffffffffffffffffff1602179055505b5f8373ffffffffffffffffffffffffffffffffffffffff1663e6a439058e8e6040518363ffffffff1660e01b815260040161053e929190610884565b602060405180830381865afa158015610559573d5f803e3d5ffd5b505050506040513d601f19601f8201168201806040525081019061057d9190610859565b90505f73ffffffffffffffffffffffffffffffffffffffff168173ffffffffffffffffffffffffffffffffffffffff16146105f3578060095f6101000a81548173ffffffffffffffffffffffffffffffffffffffff021916908373ffffffffffffffffffffffffffffffffffffffff1602179055505b5050505050505050505050505050610923565b5f805f9054906101000a900473ffffffffffffffffffffffffffffffffffffffff169050815f806101000a81548173ffffffffffffffffffffffffffffffffffffffff021916908373ffffffffffffffffffffffffffffffffffffffff1602179055508173ffffffffffffffffffffffffffffffffffffffff168173ffffffffffffffffffffffffffffffffffffffff167f8be0079c531659141344cd1fd0a4f28419497f9722a3daafe3b4186f6b6457e060405160405180910390a35050565b5f80fd5b5f73ffffffffffffffffffffffffffffffffffffffff82169050919050565b5f6106f4826106cb565b9050919050565b610704816106ea565b811461070e575f80fd5b50565b5f8151905061071f816106fb565b92915050565b5f819050919050565b61073781610725565b8114610741575f80fd5b50565b5f815190506107528161072e565b92915050565b5f805f805f805f805f806101408b8d031215610777576107766106c7565b5b5f6107848d828e01610711565b9a505060206107958d828e01610711565b99505060406107a68d828e01610711565b98505060606107b78d828e01610711565b97505060806107c88d828e01610711565b96505060a06107d98d828e01610711565b95505060c06107ea8d828e01610744565b94505060e06107fb8d828e01610744565b93505061010061080d8d828e01610744565b92505061012061081f8d828e01610744565b9150509295989b9194979a5092959850565b61083a816106ea565b82525050565b5f6020820190506108535f830184610831565b92915050565b5f6020828403121561086e5761086d6106c7565b5b5f61087b84828501610711565b91505092915050565b5f6040820190506108975f830185610831565b6108a46020830184610831565b9392505050565b5f82825260208201905092915050565b7f556e6973776170207061697220412f4220646f65736e27742065786973742e005f82015250565b5f6108ef601f836108ab565b91506108fa826108bb565b602082019050919050565b5f6020820190508181035f83015261091c816108e3565b9050919050565b6127c1806109305f395ff3fe608060405234801561000f575f80fd5b50600436106101cd575f3560e01c8063715018a6116101025780639c8f9f23116100a0578063f1a82c7e1161006f578063f1a82c7e14610486578063f2fde38b146104a4578063fbf6db14146104c0578063fd829a23146104de576101cd565b80639c8f9f2314610426578063c483a30814610442578063d3ec3eec14610460578063d8fc08161461047c576101cd565b8063735de9f7116100dc578063735de9f7146103b0578063741bef1a146103ce5780637a16af7f146103ec5780638da5cb5b14610408576101cd565b8063715018a61461036c578063730ab60f146103765780637341ab8c14610392576101cd565b80633ebc480f1161016f57806358d0ee581161014957806358d0ee58146102e35780635a11cd58146102ff5780635f64b55b1461031d5780636e04ff0d1461033b576101cd565b80633ebc480f146102a15780634585e33b146102bd57806347c8e13c146102d9576101cd565b80631ae74cce116101ab5780631ae74cce146102295780632197634f1461024757806328a5e10c146102655780633dfe9f6a14610283576101cd565b80630fc63d10146101d1578063106b9ca1146101ef57806312ddbc4f1461020d575b5f80fd5b6101d96104fc565b6040516101e69190611889565b60405180910390f35b6101f7610521565b60405161020491906118ba565b60405180910390f35b6102276004803603810190610222919061190e565b610527565b005b610231610539565b60405161023e91906118ba565b60405180910390f35b61024f6105d6565b60405161025c91906118ba565b60405180910390f35b61026d6105dc565b60405161027a9190611959565b60405180910390f35b61028b610601565b60405161029891906118ba565b60405180910390f35b6102bb60048036038101906102b6919061190e565b610607565b005b6102d760048036038101906102d291906119d3565b610619565b005b6102e1610632565b005b6102fd60048036038101906102f8919061190e565b610685565b005b610307610697565b6040516103149190611959565b60405180910390f35b6103256106bc565b6040516103329190611889565b60405180910390f35b610355600480360381019061035091906119d3565b6106e1565b604051610363929190611aa8565b60405180910390f35b61037461075e565b005b610390600480360381019061038b919061190e565b610771565b005b61039a610783565b6040516103a791906118ba565b60405180910390f35b6103b8610789565b6040516103c59190611af6565b60405180910390f35b6103d66107ae565b6040516103e39190611b2f565b60405180910390f35b61040660048036038101906104019190611b48565b6107d3565b005b610410610b28565b60405161041d9190611ba6565b60405180910390f35b610440600480360381019061043b919061190e565b610b4f565b005b61044a610d98565b6040516104579190611889565b60405180910390f35b61047a60048036038101906104759190611c14565b610dbd565b005b610484611500565b005b61048e611553565b60405161049b91906118ba565b60405180910390f35b6104be60048036038101906104b99190611c9b565b611559565b005b6104c86115dd565b6040516104d59190611959565b60405180910390f35b6104e6611602565b6040516104f39190611ce6565b60405180910390f35b60025f9054906101000a900473ffffffffffffffffffffffffffffffffffffffff1681565b600f5481565b61052f611627565b80600d8190555050565b5f80600a5f9054906101000a900473ffffffffffffffffffffffffffffffffffffffff1673ffffffffffffffffffffffffffffffffffffffff1663feaf968c6040518163ffffffff1660e01b815260040160a060405180830381865afa1580156105a5573d5f803e3d5ffd5b505050506040513d601f19601f820116820180604052508101906105c99190611d85565b5050509150508091505090565b600e5481565b60075f9054906101000a900473ffffffffffffffffffffffffffffffffffffffff1681565b600d5481565b61060f611627565b80600e8190555050565b5f610622610539565b905061062d816116ae565b505050565b61063a611627565b6106426116ef565b5f7fac17dae82b629ef673f1b5fe90cb139d0174345aa580c06b230674ef96c8adc88160405161067291906118ba565b60405180910390a15061068361173e565b565b61068d611627565b80600c8190555050565b60095f9054906101000a900473ffffffffffffffffffffffffffffffffffffffff1681565b60035f9054906101000a900473ffffffffffffffffffffffffffffffffffffffff1681565b5f60605f6106ed610539565b90505f600f54821161070c5781600f546107079190611e29565b61071b565b600f548261071a9190611e29565b5b90505f600f546127108361072f9190611e5c565b6107399190611eca565b9050600d54811015945060405180602001604052805f81525093505050509250929050565b610766611627565b61076f5f611747565b565b610779611627565b80600b8190555050565b600c5481565b60055f9054906101000a900473ffffffffffffffffffffffffffffffffffffffff1681565b600a5f9054906101000a900473ffffffffffffffffffffffffffffffffffffffff1681565b6107db611627565b5f821180156107e957505f81115b610828576040517f08c379a000000000000000000000000000000000000000000000000000000000815260040161081f90611f7a565b60405180910390fd5b600b54821115801561083c5750600b548111155b61087b576040517f08c379a000000000000000000000000000000000000000000000000000000000815260040161087290611fe2565b60405180910390fd5b60025f9054906101000a900473ffffffffffffffffffffffffffffffffffffffff1673ffffffffffffffffffffffffffffffffffffffff1663095ea7b360055f9054906101000a900473ffffffffffffffffffffffffffffffffffffffff16846040518363ffffffff1660e01b81526004016108f8929190612000565b6020604051808303815f875af1158015610914573d5f803e3d5ffd5b505050506040513d601f19601f820116820180604052508101906109389190612051565b5060035f9054906101000a900473ffffffffffffffffffffffffffffffffffffffff1673ffffffffffffffffffffffffffffffffffffffff1663095ea7b360055f9054906101000a900473ffffffffffffffffffffffffffffffffffffffff16836040518363ffffffff1660e01b81526004016109b6929190612000565b6020604051808303815f875af11580156109d2573d5f803e3d5ffd5b505050506040513d601f19601f820116820180604052508101906109f69190612051565b505f8060055f9054906101000a900473ffffffffffffffffffffffffffffffffffffffff1673ffffffffffffffffffffffffffffffffffffffff1663e8e3370060025f9054906101000a900473ffffffffffffffffffffffffffffffffffffffff1660035f9054906101000a900473ffffffffffffffffffffffffffffffffffffffff16878760018030426040518963ffffffff1660e01b8152600401610aa49897969594939291906120b5565b6060604051808303815f875af1158015610ac0573d5f803e3d5ffd5b505050506040513d601f19601f82011682018060405250810190610ae49190612131565b50915091507f38f8a0c92f4c5b0b6877f878cb4c0c8d348a47b76d716c8e78f425043df9515b8282604051610b1a929190612181565b60405180910390a150505050565b5f805f9054906101000a900473ffffffffffffffffffffffffffffffffffffffff16905090565b610b57611627565b610b5f6116ef565b5f8111610ba1576040517f08c379a0000000000000000000000000000000000000000000000000000000008152600401610b9890612218565b60405180910390fd5b5f60075f9054906101000a900473ffffffffffffffffffffffffffffffffffffffff1690508073ffffffffffffffffffffffffffffffffffffffff1663095ea7b360055f9054906101000a900473ffffffffffffffffffffffffffffffffffffffff16846040518363ffffffff1660e01b8152600401610c22929190612000565b6020604051808303815f875af1158015610c3e573d5f803e3d5ffd5b505050506040513d601f19601f82011682018060405250810190610c629190612051565b505f8060055f9054906101000a900473ffffffffffffffffffffffffffffffffffffffff1673ffffffffffffffffffffffffffffffffffffffff1663baa2abde60025f9054906101000a900473ffffffffffffffffffffffffffffffffffffffff1660035f9054906101000a900473ffffffffffffffffffffffffffffffffffffffff168760018030426040518863ffffffff1660e01b8152600401610d0e9796959493929190612236565b60408051808303815f875af1158015610d29573d5f803e3d5ffd5b505050506040513d601f19601f82011682018060405250810190610d4d91906122a3565b915091507f6f0f96292ae0038c04f9b6bab30f185d9ca02c471d0983f563f2a4f674aef1378282604051610d82929190612181565b60405180910390a1505050610d9561173e565b50565b60045f9054906101000a900473ffffffffffffffffffffffffffffffffffffffff1681565b610dc5611627565b610dcd6116ef565b5f8311610e0f576040517f08c379a0000000000000000000000000000000000000000000000000000000008152600401610e0690612351565b60405180910390fd5b6002828290501015610e56576040517f08c379a0000000000000000000000000000000000000000000000000000000008152600401610e4d906123b9565b60405180910390fd5b5f60055f9054906101000a900473ffffffffffffffffffffffffffffffffffffffff1673ffffffffffffffffffffffffffffffffffffffff1663d06ca61f8585856040518463ffffffff1660e01b8152600401610eb593929190612493565b5f60405180830381865afa158015610ecf573d5f803e3d5ffd5b505050506040513d5f823e3d601f19601f82011682018060405250810190610ef791906125fb565b90505f60065f9054906101000a900473ffffffffffffffffffffffffffffffffffffffff1673ffffffffffffffffffffffffffffffffffffffff166338ed1739866001878730426040518763ffffffff1660e01b8152600401610f5f96959493929190612642565b5f604051808303815f875af1158015610f7a573d5f803e3d5ffd5b505050506040513d5f823e3d601f19601f82011682018060405250810190610fa291906125fb565b90505f8260018451610fb49190611e29565b81518110610fc557610fc461269c565b5b602002602001015190505f8260018451610fdf9190611e29565b81518110610ff057610fef61269c565b5b6020026020010151905080821061127a5785855f8181106110145761101361269c565b5b90506020020160208101906110299190611c9b565b73ffffffffffffffffffffffffffffffffffffffff1663095ea7b360055f9054906101000a900473ffffffffffffffffffffffffffffffffffffffff16896040518363ffffffff1660e01b8152600401611084929190612000565b6020604051808303815f875af11580156110a0573d5f803e3d5ffd5b505050506040513d601f19601f820116820180604052508101906110c49190612051565b505f60055f9054906101000a900473ffffffffffffffffffffffffffffffffffffffff1673ffffffffffffffffffffffffffffffffffffffff166338ed173989858a8a30426040518763ffffffff1660e01b815260040161112a969594939291906126c9565b5f604051808303815f875af1158015611145573d5f803e3d5ffd5b505050506040513d5f823e3d601f19601f8201168201806040525081019061116d91906125fb565b905086866001898990506111819190611e29565b8181106111915761119061269c565b5b90506020020160208101906111a69190611c9b565b73ffffffffffffffffffffffffffffffffffffffff1687875f8181106111cf576111ce61269c565b5b90506020020160208101906111e49190611c9b565b73ffffffffffffffffffffffffffffffffffffffff167fdd36740e2a012d93061a0d99eaa9107860955de4e90027d3cf465a055026c407835f8151811061122e5761122d61269c565b5b602002602001015184600186516112459190611e29565b815181106112565761125561269c565b5b602002602001015160405161126c929190612181565b60405180910390a3506114ef565b85855f81811061128d5761128c61269c565b5b90506020020160208101906112a29190611c9b565b73ffffffffffffffffffffffffffffffffffffffff1663095ea7b360065f9054906101000a900473ffffffffffffffffffffffffffffffffffffffff16896040518363ffffffff1660e01b81526004016112fd929190612000565b6020604051808303815f875af1158015611319573d5f803e3d5ffd5b505050506040513d601f19601f8201168201806040525081019061133d9190612051565b505f60065f9054906101000a900473ffffffffffffffffffffffffffffffffffffffff1673ffffffffffffffffffffffffffffffffffffffff166338ed173989848a8a30426040518763ffffffff1660e01b81526004016113a3969594939291906126c9565b5f604051808303815f875af11580156113be573d5f803e3d5ffd5b505050506040513d5f823e3d601f19601f820116820180604052508101906113e691906125fb565b905086866001898990506113fa9190611e29565b81811061140a5761140961269c565b5b905060200201602081019061141f9190611c9b565b73ffffffffffffffffffffffffffffffffffffffff1687875f8181106114485761144761269c565b5b905060200201602081019061145d9190611c9b565b73ffffffffffffffffffffffffffffffffffffffff167fdd36740e2a012d93061a0d99eaa9107860955de4e90027d3cf465a055026c407835f815181106114a7576114a661269c565b5b602002602001015184600186516114be9190611e29565b815181106114cf576114ce61269c565b5b60200260200101516040516114e5929190612181565b60405180910390a3505b505050506114fb61173e565b505050565b611508611627565b6115106116ef565b5f7f22831a56ed096ec8b35c25fe680899bf95c255557389a8645f13997b42c5cc348160405161154091906118ba565b60405180910390a15061155161173e565b565b600b5481565b611561611627565b5f73ffffffffffffffffffffffffffffffffffffffff168173ffffffffffffffffffffffffffffffffffffffff16036115d1575f6040517f1e4fbdf70000000000000000000000000000000000000000000000000000000081526004016115c89190611ba6565b60405180910390fd5b6115da81611747565b50565b60085f9054906101000a900473ffffffffffffffffffffffffffffffffffffffff1681565b60065f9054906101000a900473ffffffffffffffffffffffffffffffffffffffff1681565b61162f611808565b73ffffffffffffffffffffffffffffffffffffffff1661164d610b28565b73ffffffffffffffffffffffffffffffffffffffff16146116ac57611670611808565b6040517f118cdaa70000000000000000000000000000000000000000000000000000000081526004016116a39190611ba6565b60405180910390fd5b565b80600f819055507fc306af072396b02bf3a9782c10065cc7ff4aa842934a43f0b76f997b291237c8816040516116e491906118ba565b60405180910390a150565b600260015403611734576040517f08c379a000000000000000000000000000000000000000000000000000000000815260040161172b9061276d565b60405180910390fd5b6002600181905550565b60018081905550565b5f805f9054906101000a900473ffffffffffffffffffffffffffffffffffffffff169050815f806101000a81548173ffffffffffffffffffffffffffffffffffffffff021916908373ffffffffffffffffffffffffffffffffffffffff1602179055508173ffffffffffffffffffffffffffffffffffffffff168173ffffffffffffffffffffffffffffffffffffffff167f8be0079c531659141344cd1fd0a4f28419497f9722a3daafe3b4186f6b6457e060405160405180910390a35050565b5f33905090565b5f73ffffffffffffffffffffffffffffffffffffffff82169050919050565b5f819050919050565b5f61185161184c6118478461180f565b61182e565b61180f565b9050919050565b5f61186282611837565b9050919050565b5f61187382611858565b9050919050565b61188381611869565b82525050565b5f60208201905061189c5f83018461187a565b92915050565b5f819050919050565b6118b4816118a2565b82525050565b5f6020820190506118cd5f8301846118ab565b92915050565b5f604051905090565b5f80fd5b5f80fd5b6118ed816118a2565b81146118f7575f80fd5b50565b5f81359050611908816118e4565b92915050565b5f60208284031215611923576119226118dc565b5b5f611930848285016118fa565b91505092915050565b5f61194382611858565b9050919050565b61195381611939565b82525050565b5f60208201905061196c5f83018461194a565b92915050565b5f80fd5b5f80fd5b5f80fd5b5f8083601f84011261199357611992611972565b5b8235905067ffffffffffffffff8111156119b0576119af611976565b5b6020830191508360018202830111156119cc576119cb61197a565b5b9250929050565b5f80602083850312156119e9576119e86118dc565b5b5f83013567ffffffffffffffff811115611a0657611a056118e0565b5b611a128582860161197e565b92509250509250929050565b5f8115159050919050565b611a3281611a1e565b82525050565b5f81519050919050565b5f82825260208201905092915050565b8281835e5f83830152505050565b5f601f19601f8301169050919050565b5f611a7a82611a38565b611a848185611a42565b9350611a94818560208601611a52565b611a9d81611a60565b840191505092915050565b5f604082019050611abb5f830185611a29565b8181036020830152611acd8184611a70565b90509392505050565b5f611ae082611858565b9050919050565b611af081611ad6565b82525050565b5f602082019050611b095f830184611ae7565b92915050565b5f611b1982611858565b9050919050565b611b2981611b0f565b82525050565b5f602082019050611b425f830184611b20565b92915050565b5f8060408385031215611b5e57611b5d6118dc565b5b5f611b6b858286016118fa565b9250506020611b7c858286016118fa565b9150509250929050565b5f611b908261180f565b9050919050565b611ba081611b86565b82525050565b5f602082019050611bb95f830184611b97565b92915050565b5f8083601f840112611bd457611bd3611972565b5b8235905067ffffffffffffffff811115611bf157611bf0611976565b5b602083019150836020820283011115611c0d57611c0c61197a565b5b9250929050565b5f805f60408486031215611c2b57611c2a6118dc565b5b5f611c38868287016118fa565b935050602084013567ffffffffffffffff811115611c5957611c586118e0565b5b611c6586828701611bbf565b92509250509250925092565b611c7a81611b86565b8114611c84575f80fd5b50565b5f81359050611c9581611c71565b92915050565b5f60208284031215611cb057611caf6118dc565b5b5f611cbd84828501611c87565b91505092915050565b5f611cd082611858565b9050919050565b611ce081611cc6565b82525050565b5f602082019050611cf95f830184611cd7565b92915050565b5f69ffffffffffffffffffff82169050919050565b611d1d81611cff565b8114611d27575f80fd5b50565b5f81519050611d3881611d14565b92915050565b5f819050919050565b611d5081611d3e565b8114611d5a575f80fd5b50565b5f81519050611d6b81611d47565b92915050565b5f81519050611d7f816118e4565b92915050565b5f805f805f60a08688031215611d9e57611d9d6118dc565b5b5f611dab88828901611d2a565b9550506020611dbc88828901611d5d565b9450506040611dcd88828901611d71565b9350506060611dde88828901611d71565b9250506080611def88828901611d2a565b9150509295509295909350565b7f4e487b71000000000000000000000000000000000000000000000000000000005f52601160045260245ffd5b5f611e33826118a2565b9150611e3e836118a2565b9250828203905081811115611e5657611e55611dfc565b5b92915050565b5f611e66826118a2565b9150611e71836118a2565b9250828202611e7f816118a2565b91508282048414831517611e9657611e95611dfc565b5b5092915050565b7f4e487b71000000000000000000000000000000000000000000000000000000005f52601260045260245ffd5b5f611ed4826118a2565b9150611edf836118a2565b925082611eef57611eee611e9d565b5b828204905092915050565b5f82825260208201905092915050565b7f416d6f756e7473206d7573742062652067726561746572207468616e207a65725f8201527f6f2e000000000000000000000000000000000000000000000000000000000000602082015250565b5f611f64602283611efa565b9150611f6f82611f0a565b604082019050919050565b5f6020820190508181035f830152611f9181611f58565b9050919050565b7f45786365656473206d6178206f726465722073697a652e0000000000000000005f82015250565b5f611fcc601783611efa565b9150611fd782611f98565b602082019050919050565b5f6020820190508181035f830152611ff981611fc0565b9050919050565b5f6040820190506120135f830185611b97565b61202060208301846118ab565b9392505050565b61203081611a1e565b811461203a575f80fd5b50565b5f8151905061204b81612027565b92915050565b5f60208284031215612066576120656118dc565b5b5f6120738482850161203d565b91505092915050565b5f819050919050565b5f61209f61209a6120958461207c565b61182e565b6118a2565b9050919050565b6120af81612085565b82525050565b5f610100820190506120c95f83018b611b97565b6120d6602083018a611b97565b6120e360408301896118ab565b6120f060608301886118ab565b6120fd60808301876120a6565b61210a60a08301866120a6565b61211760c0830185611b97565b61212460e08301846118ab565b9998505050505050505050565b5f805f60608486031215612148576121476118dc565b5b5f61215586828701611d71565b935050602061216686828701611d71565b925050604061217786828701611d71565b9150509250925092565b5f6040820190506121945f8301856118ab565b6121a160208301846118ab565b9392505050565b7f4c6971756964697479206d7573742062652067726561746572207468616e207a5f8201527f65726f2e00000000000000000000000000000000000000000000000000000000602082015250565b5f612202602483611efa565b915061220d826121a8565b604082019050919050565b5f6020820190508181035f83015261222f816121f6565b9050919050565b5f60e0820190506122495f83018a611b97565b6122566020830189611b97565b61226360408301886118ab565b61227060608301876120a6565b61227d60808301866120a6565b61228a60a0830185611b97565b61229760c08301846118ab565b98975050505050505050565b5f80604083850312156122b9576122b86118dc565b5b5f6122c685828601611d71565b92505060206122d785828601611d71565b9150509250929050565b7f416d6f756e74206d7573742062652067726561746572207468616e207a65726f5f8201527f2e00000000000000000000000000000000000000000000000000000000000000602082015250565b5f61233b602183611efa565b9150612346826122e1565b604082019050919050565b5f6020820190508181035f8301526123688161232f565b9050919050565b7f496e76616c6964207377617020706174682e00000000000000000000000000005f82015250565b5f6123a3601283611efa565b91506123ae8261236f565b602082019050919050565b5f6020820190508181035f8301526123d081612397565b9050919050565b5f82825260208201905092915050565b5f819050919050565b6123f981611b86565b82525050565b5f61240a83836123f0565b60208301905092915050565b5f6124246020840184611c87565b905092915050565b5f602082019050919050565b5f61244383856123d7565b935061244e826123e7565b805f5b85811015612486576124638284612416565b61246d88826123ff565b97506124788361242c565b925050600181019050612451565b5085925050509392505050565b5f6040820190506124a65f8301866118ab565b81810360208301526124b9818486612438565b9050949350505050565b7f4e487b71000000000000000000000000000000000000000000000000000000005f52604160045260245ffd5b6124f982611a60565b810181811067ffffffffffffffff82111715612518576125176124c3565b5b80604052505050565b5f61252a6118d3565b905061253682826124f0565b919050565b5f67ffffffffffffffff821115612555576125546124c3565b5b602082029050602081019050919050565b5f6125786125738461253b565b612521565b9050808382526020820190506020840283018581111561259b5761259a61197a565b5b835b818110156125c457806125b08882611d71565b84526020840193505060208101905061259d565b5050509392505050565b5f82601f8301126125e2576125e1611972565b5b81516125f2848260208601612566565b91505092915050565b5f602082840312156126105761260f6118dc565b5b5f82015167ffffffffffffffff81111561262d5761262c6118e0565b5b612639848285016125ce565b91505092915050565b5f60a0820190506126555f8301896118ab565b61266260208301886120a6565b8181036040830152612675818688612438565b90506126846060830185611b97565b61269160808301846118ab565b979650505050505050565b7f4e487b71000000000000000000000000000000000000000000000000000000005f52603260045260245ffd5b5f60a0820190506126dc5f8301896118ab565b6126e960208301886118ab565b81810360408301526126fc818688612438565b905061270b6060830185611b97565b61271860808301846118ab565b979650505050505050565b7f5265656e7472616e637947756172643a207265656e7472616e742063616c6c005f82015250565b5f612757601f83611efa565b915061276282612723565b602082019050919050565b5f6020820190508181035f8301526127848161274b565b905091905056fea2646970667358221220743317d7edc4e6073b8008587bb84e0d0ea898208377d4ea24857dabf4a09bb864736f6c634300081a0033",
			"opcodes": "PUSH1 0x80 PUSH1 0x40 MSTORE CALLVALUE DUP1 ISZERO PUSH2 0xF JUMPI PUSH0 DUP1 REVERT JUMPDEST POP PUSH1 0x40 MLOAD PUSH2 0x30F1 CODESIZE SUB DUP1 PUSH2 0x30F1 DUP4 CODECOPY DUP2 DUP2 ADD PUSH1 0x40 MSTORE DUP2 ADD SWAP1 PUSH2 0x31 SWAP2 SWAP1 PUSH2 0x758 JUMP JUMPDEST CALLER PUSH0 PUSH20 0xFFFFFFFFFFFFFFFFFFFFFFFFFFFFFFFFFFFFFFFF AND DUP2 PUSH20 0xFFFFFFFFFFFFFFFFFFFFFFFFFFFFFFFFFFFFFFFF AND SUB PUSH2 0xA2 JUMPI PUSH0 PUSH1 0x40 MLOAD PUSH32 0x1E4FBDF700000000000000000000000000000000000000000000000000000000 DUP2 MSTORE PUSH1 0x4 ADD PUSH2 0x99 SWAP2 SWAP1 PUSH2 0x840 JUMP JUMPDEST PUSH1 0x40 MLOAD DUP1 SWAP2 SUB SWAP1 REVERT JUMPDEST PUSH2 0xB1 DUP2 PUSH2 0x606 PUSH1 0x20 SHL PUSH1 0x20 SHR JUMP JUMPDEST POP PUSH1 0x1 DUP1 DUP2 SWAP1 SSTORE POP DUP10 PUSH1 0x2 PUSH0 PUSH2 0x100 EXP DUP2 SLOAD DUP2 PUSH20 0xFFFFFFFFFFFFFFFFFFFFFFFFFFFFFFFFFFFFFFFF MUL NOT AND SWAP1 DUP4 PUSH20 0xFFFFFFFFFFFFFFFFFFFFFFFFFFFFFFFFFFFFFFFF AND MUL OR SWAP1 SSTORE POP DUP9 PUSH1 0x3 PUSH0 PUSH2 0x100 EXP DUP2 SLOAD DUP2 PUSH20 0xFFFFFFFFFFFFFFFFFFFFFFFFFFFFFFFFFFFFFFFF MUL NOT AND SWAP1 DUP4 PUSH20 0xFFFFFFFFFFFFFFFFFFFFFFFFFFFFFFFFFFFFFFFF AND MUL OR SWAP1 SSTORE POP DUP8 PUSH1 0x4 PUSH0 PUSH2 0x100 EXP DUP2 SLOAD DUP2 PUSH20 0xFFFFFFFFFFFFFFFFFFFFFFFFFFFFFFFFFFFFFFFF MUL NOT AND SWAP1 DUP4 PUSH20 0xFFFFFFFFFFFFFFFFFFFFFFFFFFFFFFFFFFFFFFFF AND MUL OR SWAP1 SSTORE POP DUP7 PUSH1 0x5 PUSH0 PUSH2 0x100 EXP DUP2 SLOAD DUP2 PUSH20 0xFFFFFFFFFFFFFFFFFFFFFFFFFFFFFFFFFFFFFFFF MUL NOT AND SWAP1 DUP4 PUSH20 0xFFFFFFFFFFFFFFFFFFFFFFFFFFFFFFFFFFFFFFFF AND MUL OR SWAP1 SSTORE POP DUP6 PUSH1 0x6 PUSH0 PUSH2 0x100 EXP DUP2 SLOAD DUP2 PUSH20 0xFFFFFFFFFFFFFFFFFFFFFFFFFFFFFFFFFFFFFFFF MUL NOT AND SWAP1 DUP4 PUSH20 0xFFFFFFFFFFFFFFFFFFFFFFFFFFFFFFFFFFFFFFFF AND MUL OR SWAP1 SSTORE POP DUP5 PUSH1 0xA PUSH0 PUSH2 0x100 EXP DUP2 SLOAD DUP2 PUSH20 0xFFFFFFFFFFFFFFFFFFFFFFFFFFFFFFFFFFFFFFFF MUL NOT AND SWAP1 DUP4 PUSH20 0xFFFFFFFFFFFFFFFFFFFFFFFFFFFFFFFFFFFFFFFF AND MUL OR SWAP1 SSTORE POP DUP4 PUSH1 0xB DUP2 SWAP1 SSTORE POP DUP3 PUSH1 0xC DUP2 SWAP1 SSTORE POP DUP2 PUSH1 0xD DUP2 SWAP1 SSTORE POP DUP1 PUSH1 0xE DUP2 SWAP1 SSTORE POP PUSH0 PUSH1 0x5 PUSH0 SWAP1 SLOAD SWAP1 PUSH2 0x100 EXP SWAP1 DIV PUSH20 0xFFFFFFFFFFFFFFFFFFFFFFFFFFFFFFFFFFFFFFFF AND PUSH20 0xFFFFFFFFFFFFFFFFFFFFFFFFFFFFFFFFFFFFFFFF AND PUSH4 0xC45A0155 PUSH1 0x40 MLOAD DUP2 PUSH4 0xFFFFFFFF AND PUSH1 0xE0 SHL DUP2 MSTORE PUSH1 0x4 ADD PUSH1 0x20 PUSH1 0x40 MLOAD DUP1 DUP4 SUB DUP2 DUP7 GAS STATICCALL ISZERO DUP1 ISZERO PUSH2 0x2C0 JUMPI RETURNDATASIZE PUSH0 DUP1 RETURNDATACOPY RETURNDATASIZE PUSH0 REVERT JUMPDEST POP POP POP POP PUSH1 0x40 MLOAD RETURNDATASIZE PUSH1 0x1F NOT PUSH1 0x1F DUP3 ADD AND DUP3 ADD DUP1 PUSH1 0x40 MSTORE POP DUP2 ADD SWAP1 PUSH2 0x2E4 SWAP2 SWAP1 PUSH2 0x859 JUMP JUMPDEST SWAP1 POP PUSH0 DUP2 PUSH20 0xFFFFFFFFFFFFFFFFFFFFFFFFFFFFFFFFFFFFFFFF AND PUSH4 0xE6A43905 DUP14 DUP14 PUSH1 0x40 MLOAD DUP4 PUSH4 0xFFFFFFFF AND PUSH1 0xE0 SHL DUP2 MSTORE PUSH1 0x4 ADD PUSH2 0x322 SWAP3 SWAP2 SWAP1 PUSH2 0x884 JUMP JUMPDEST PUSH1 0x20 PUSH1 0x40 MLOAD DUP1 DUP4 SUB DUP2 DUP7 GAS STATICCALL ISZERO DUP1 ISZERO PUSH2 0x33D JUMPI RETURNDATASIZE PUSH0 DUP1 RETURNDATACOPY RETURNDATASIZE PUSH0 REVERT JUMPDEST POP POP POP POP PUSH1 0x40 MLOAD RETURNDATASIZE PUSH1 0x1F NOT PUSH1 0x1F DUP3 ADD AND DUP3 ADD DUP1 PUSH1 0x40 MSTORE POP DUP2 ADD SWAP1 PUSH2 0x361 SWAP2 SWAP1 PUSH2 0x859 JUMP JUMPDEST SWAP1 POP PUSH0 PUSH20 0xFFFFFFFFFFFFFFFFFFFFFFFFFFFFFFFFFFFFFFFF AND DUP2 PUSH20 0xFFFFFFFFFFFFFFFFFFFFFFFFFFFFFFFFFFFFFFFF AND SUB PUSH2 0x3D1 JUMPI PUSH1 0x40 MLOAD PUSH32 0x8C379A000000000000000000000000000000000000000000000000000000000 DUP2 MSTORE PUSH1 0x4 ADD PUSH2 0x3C8 SWAP1 PUSH2 0x905 JUMP JUMPDEST PUSH1 0x40 MLOAD DUP1 SWAP2 SUB SWAP1 REVERT JUMPDEST DUP1 PUSH1 0x7 PUSH0 PUSH2 0x100 EXP DUP2 SLOAD DUP2 PUSH20 0xFFFFFFFFFFFFFFFFFFFFFFFFFFFFFFFFFFFFFFFF MUL NOT AND SWAP1 DUP4 PUSH20 0xFFFFFFFFFFFFFFFFFFFFFFFFFFFFFFFFFFFFFFFF AND MUL OR SWAP1 SSTORE POP PUSH0 DUP3 PUSH20 0xFFFFFFFFFFFFFFFFFFFFFFFFFFFFFFFFFFFFFFFF AND PUSH4 0xE6A43905 DUP15 DUP14 PUSH1 0x40 MLOAD DUP4 PUSH4 0xFFFFFFFF AND PUSH1 0xE0 SHL DUP2 MSTORE PUSH1 0x4 ADD PUSH2 0x44D SWAP3 SWAP2 SWAP1 PUSH2 0x884 JUMP JUMPDEST PUSH1 0x20 PUSH1 0x40 MLOAD DUP1 DUP4 SUB DUP2 DUP7 GAS STATICCALL ISZERO DUP1 ISZERO PUSH2 0x468 JUMPI RETURNDATASIZE PUSH0 DUP1 RETURNDATACOPY RETURNDATASIZE PUSH0 REVERT JUMPDEST POP POP POP POP PUSH1 0x40 MLOAD RETURNDATASIZE PUSH1 0x1F NOT PUSH1 0x1F DUP3 ADD AND DUP3 ADD DUP1 PUSH1 0x40 MSTORE POP DUP2 ADD SWAP1 PUSH2 0x48C SWAP2 SWAP1 PUSH2 0x859 JUMP JUMPDEST SWAP1 POP PUSH0 PUSH20 0xFFFFFFFFFFFFFFFFFFFFFFFFFFFFFFFFFFFFFFFF AND DUP2 PUSH20 0xFFFFFFFFFFFFFFFFFFFFFFFFFFFFFFFFFFFFFFFF AND EQ PUSH2 0x502 JUMPI DUP1 PUSH1 0x8 PUSH0 PUSH2 0x100 EXP DUP2 SLOAD DUP2 PUSH20 0xFFFFFFFFFFFFFFFFFFFFFFFFFFFFFFFFFFFFFFFF MUL NOT AND SWAP1 DUP4 PUSH20 0xFFFFFFFFFFFFFFFFFFFFFFFFFFFFFFFFFFFFFFFF AND MUL OR SWAP1 SSTORE POP JUMPDEST PUSH0 DUP4 PUSH20 0xFFFFFFFFFFFFFFFFFFFFFFFFFFFFFFFFFFFFFFFF AND PUSH4 0xE6A43905 DUP15 DUP15 PUSH1 0x40 MLOAD DUP4 PUSH4 0xFFFFFFFF AND PUSH1 0xE0 SHL DUP2 MSTORE PUSH1 0x4 ADD PUSH2 0x53E SWAP3 SWAP2 SWAP1 PUSH2 0x884 JUMP JUMPDEST PUSH1 0x20 PUSH1 0x40 MLOAD DUP1 DUP4 SUB DUP2 DUP7 GAS STATICCALL ISZERO DUP1 ISZERO PUSH2 0x559 JUMPI RETURNDATASIZE PUSH0 DUP1 RETURNDATACOPY RETURNDATASIZE PUSH0 REVERT JUMPDEST POP POP POP POP PUSH1 0x40 MLOAD RETURNDATASIZE PUSH1 0x1F NOT PUSH1 0x1F DUP3 ADD AND DUP3 ADD DUP1 PUSH1 0x40 MSTORE POP DUP2 ADD SWAP1 PUSH2 0x57D SWAP2 SWAP1 PUSH2 0x859 JUMP JUMPDEST SWAP1 POP PUSH0 PUSH20 0xFFFFFFFFFFFFFFFFFFFFFFFFFFFFFFFFFFFFFFFF AND DUP2 PUSH20 0xFFFFFFFFFFFFFFFFFFFFFFFFFFFFFFFFFFFFFFFF AND EQ PUSH2 0x5F3 JUMPI DUP1 PUSH1 0x9 PUSH0 PUSH2 0x100 EXP DUP2 SLOAD DUP2 PUSH20 0xFFFFFFFFFFFFFFFFFFFFFFFFFFFFFFFFFFFFFFFF MUL NOT AND SWAP1 DUP4 PUSH20 0xFFFFFFFFFFFFFFFFFFFFFFFFFFFFFFFFFFFFFFFF AND MUL OR SWAP1 SSTORE POP JUMPDEST POP POP POP POP POP POP POP POP POP POP POP POP POP POP PUSH2 0x923 JUMP JUMPDEST PUSH0 DUP1 PUSH0 SWAP1 SLOAD SWAP1 PUSH2 0x100 EXP SWAP1 DIV PUSH20 0xFFFFFFFFFFFFFFFFFFFFFFFFFFFFFFFFFFFFFFFF AND SWAP1 POP DUP2 PUSH0 DUP1 PUSH2 0x100 EXP DUP2 SLOAD DUP2 PUSH20 0xFFFFFFFFFFFFFFFFFFFFFFFFFFFFFFFFFFFFFFFF MUL NOT AND SWAP1 DUP4 PUSH20 0xFFFFFFFFFFFFFFFFFFFFFFFFFFFFFFFFFFFFFFFF AND MUL OR SWAP1 SSTORE POP DUP2 PUSH20 0xFFFFFFFFFFFFFFFFFFFFFFFFFFFFFFFFFFFFFFFF AND DUP2 PUSH20 0xFFFFFFFFFFFFFFFFFFFFFFFFFFFFFFFFFFFFFFFF AND PUSH32 0x8BE0079C531659141344CD1FD0A4F28419497F9722A3DAAFE3B4186F6B6457E0 PUSH1 0x40 MLOAD PUSH1 0x40 MLOAD DUP1 SWAP2 SUB SWAP1 LOG3 POP POP JUMP JUMPDEST PUSH0 DUP1 REVERT JUMPDEST PUSH0 PUSH20 0xFFFFFFFFFFFFFFFFFFFFFFFFFFFFFFFFFFFFFFFF DUP3 AND SWAP1 POP SWAP2 SWAP1 POP JUMP JUMPDEST PUSH0 PUSH2 0x6F4 DUP3 PUSH2 0x6CB JUMP JUMPDEST SWAP1 POP SWAP2 SWAP1 POP JUMP JUMPDEST PUSH2 0x704 DUP2 PUSH2 0x6EA JUMP JUMPDEST DUP2 EQ PUSH2 0x70E JUMPI PUSH0 DUP1 REVERT JUMPDEST POP JUMP JUMPDEST PUSH0 DUP2 MLOAD SWAP1 POP PUSH2 0x71F DUP2 PUSH2 0x6FB JUMP JUMPDEST SWAP3 SWAP2 POP POP JUMP JUMPDEST PUSH0 DUP2 SWAP1 POP SWAP2 SWAP1 POP JUMP JUMPDEST PUSH2 0x737 DUP2 PUSH2 0x725 JUMP JUMPDEST DUP2 EQ PUSH2 0x741 JUMPI PUSH0 DUP1 REVERT JUMPDEST POP JUMP JUMPDEST PUSH0 DUP2 MLOAD SWAP1 POP PUSH2 0x752 DUP2 PUSH2 0x72E JUMP JUMPDEST SWAP3 SWAP2 POP POP JUMP JUMPDEST PUSH0 DUP1 PUSH0 DUP1 PUSH0 DUP1 PUSH0 DUP1 PUSH0 DUP1 PUSH2 0x140 DUP12 DUP14 SUB SLT ISZERO PUSH2 0x777 JUMPI PUSH2 0x776 PUSH2 0x6C7 JUMP JUMPDEST JUMPDEST PUSH0 PUSH2 0x784 DUP14 DUP3 DUP15 ADD PUSH2 0x711 JUMP JUMPDEST SWAP11 POP POP PUSH1 0x20 PUSH2 0x795 DUP14 DUP3 DUP15 ADD PUSH2 0x711 JUMP JUMPDEST SWAP10 POP POP PUSH1 0x40 PUSH2 0x7A6 DUP14 DUP3 DUP15 ADD PUSH2 0x711 JUMP JUMPDEST SWAP9 POP POP PUSH1 0x60 PUSH2 0x7B7 DUP14 DUP3 DUP15 ADD PUSH2 0x711 JUMP JUMPDEST SWAP8 POP POP PUSH1 0x80 PUSH2 0x7C8 DUP14 DUP3 DUP15 ADD PUSH2 0x711 JUMP JUMPDEST SWAP7 POP POP PUSH1 0xA0 PUSH2 0x7D9 DUP14 DUP3 DUP15 ADD PUSH2 0x711 JUMP JUMPDEST SWAP6 POP POP PUSH1 0xC0 PUSH2 0x7EA DUP14 DUP3 DUP15 ADD PUSH2 0x744 JUMP JUMPDEST SWAP5 POP POP PUSH1 0xE0 PUSH2 0x7FB DUP14 DUP3 DUP15 ADD PUSH2 0x744 JUMP JUMPDEST SWAP4 POP POP PUSH2 0x100 PUSH2 0x80D DUP14 DUP3 DUP15 ADD PUSH2 0x744 JUMP JUMPDEST SWAP3 POP POP PUSH2 0x120 PUSH2 0x81F DUP14 DUP3 DUP15 ADD PUSH2 0x744 JUMP JUMPDEST SWAP2 POP POP SWAP3 SWAP6 SWAP9 SWAP12 SWAP2 SWAP5 SWAP8 SWAP11 POP SWAP3 SWAP6 SWAP9 POP JUMP JUMPDEST PUSH2 0x83A DUP2 PUSH2 0x6EA JUMP JUMPDEST DUP3 MSTORE POP POP JUMP JUMPDEST PUSH0 PUSH1 0x20 DUP3 ADD SWAP1 POP PUSH2 0x853 PUSH0 DUP4 ADD DUP5 PUSH2 0x831 JUMP JUMPDEST SWAP3 SWAP2 POP POP JUMP JUMPDEST PUSH0 PUSH1 0x20 DUP3 DUP5 SUB SLT ISZERO PUSH2 0x86E JUMPI PUSH2 0x86D PUSH2 0x6C7 JUMP JUMPDEST JUMPDEST PUSH0 PUSH2 0x87B DUP5 DUP3 DUP6 ADD PUSH2 0x711 JUMP JUMPDEST SWAP2 POP POP SWAP3 SWAP2 POP POP JUMP JUMPDEST PUSH0 PUSH1 0x40 DUP3 ADD SWAP1 POP PUSH2 0x897 PUSH0 DUP4 ADD DUP6 PUSH2 0x831 JUMP JUMPDEST PUSH2 0x8A4 PUSH1 0x20 DUP4 ADD DUP5 PUSH2 0x831 JUMP JUMPDEST SWAP4 SWAP3 POP POP POP JUMP JUMPDEST PUSH0 DUP3 DUP3 MSTORE PUSH1 0x20 DUP3 ADD SWAP1 POP SWAP3 SWAP2 POP POP JUMP JUMPDEST PUSH32 0x556E6973776170207061697220412F4220646F65736E27742065786973742E00 PUSH0 DUP3 ADD MSTORE POP JUMP JUMPDEST PUSH0 PUSH2 0x8EF PUSH1 0x1F DUP4 PUSH2 0x8AB JUMP JUMPDEST SWAP2 POP PUSH2 0x8FA DUP3 PUSH2 0x8BB JUMP JUMPDEST PUSH1 0x20 DUP3 ADD SWAP1 POP SWAP2 SWAP1 POP JUMP JUMPDEST PUSH0 PUSH1 0x20 DUP3 ADD SWAP1 POP DUP2 DUP2 SUB PUSH0 DUP4 ADD MSTORE PUSH2 0x91C DUP2 PUSH2 0x8E3 JUMP JUMPDEST SWAP1 POP SWAP2 SWAP1 POP JUMP JUMPDEST PUSH2 0x27C1 DUP1 PUSH2 0x930 PUSH0 CODECOPY PUSH0 RETURN INVALID PUSH1 0x80 PUSH1 0x40 MSTORE CALLVALUE DUP1 ISZERO PUSH2 0xF JUMPI PUSH0 DUP1 REVERT JUMPDEST POP PUSH1 0x4 CALLDATASIZE LT PUSH2 0x1CD JUMPI PUSH0 CALLDATALOAD PUSH1 0xE0 SHR DUP1 PUSH4 0x715018A6 GT PUSH2 0x102 JUMPI DUP1 PUSH4 0x9C8F9F23 GT PUSH2 0xA0 JUMPI DUP1 PUSH4 0xF1A82C7E GT PUSH2 0x6F JUMPI DUP1 PUSH4 0xF1A82C7E EQ PUSH2 0x486 JUMPI DUP1 PUSH4 0xF2FDE38B EQ PUSH2 0x4A4 JUMPI DUP1 PUSH4 0xFBF6DB14 EQ PUSH2 0x4C0 JUMPI DUP1 PUSH4 0xFD829A23 EQ PUSH2 0x4DE JUMPI PUSH2 0x1CD JUMP JUMPDEST DUP1 PUSH4 0x9C8F9F23 EQ PUSH2 0x426 JUMPI DUP1 PUSH4 0xC483A308 EQ PUSH2 0x442 JUMPI DUP1 PUSH4 0xD3EC3EEC EQ PUSH2 0x460 JUMPI DUP1 PUSH4 0xD8FC0816 EQ PUSH2 0x47C JUMPI PUSH2 0x1CD JUMP JUMPDEST DUP1 PUSH4 0x735DE9F7 GT PUSH2 0xDC JUMPI DUP1 PUSH4 0x735DE9F7 EQ PUSH2 0x3B0 JUMPI DUP1 PUSH4 0x741BEF1A EQ PUSH2 0x3CE JUMPI DUP1 PUSH4 0x7A16AF7F EQ PUSH2 0x3EC JUMPI DUP1 PUSH4 0x8DA5CB5B EQ PUSH2 0x408 JUMPI PUSH2 0x1CD JUMP JUMPDEST DUP1 PUSH4 0x715018A6 EQ PUSH2 0x36C JUMPI DUP1 PUSH4 0x730AB60F EQ PUSH2 0x376 JUMPI DUP1 PUSH4 0x7341AB8C EQ PUSH2 0x392 JUMPI PUSH2 0x1CD JUMP JUMPDEST DUP1 PUSH4 0x3EBC480F GT PUSH2 0x16F JUMPI DUP1 PUSH4 0x58D0EE58 GT PUSH2 0x149 JUMPI DUP1 PUSH4 0x58D0EE58 EQ PUSH2 0x2E3 JUMPI DUP1 PUSH4 0x5A11CD58 EQ PUSH2 0x2FF JUMPI DUP1 PUSH4 0x5F64B55B EQ PUSH2 0x31D JUMPI DUP1 PUSH4 0x6E04FF0D EQ PUSH2 0x33B JUMPI PUSH2 0x1CD JUMP JUMPDEST DUP1 PUSH4 0x3EBC480F EQ PUSH2 0x2A1 JUMPI DUP1 PUSH4 0x4585E33B EQ PUSH2 0x2BD JUMPI DUP1 PUSH4 0x47C8E13C EQ PUSH2 0x2D9 JUMPI PUSH2 0x1CD JUMP JUMPDEST DUP1 PUSH4 0x1AE74CCE GT PUSH2 0x1AB JUMPI DUP1 PUSH4 0x1AE74CCE EQ PUSH2 0x229 JUMPI DUP1 PUSH4 0x2197634F EQ PUSH2 0x247 JUMPI DUP1 PUSH4 0x28A5E10C EQ PUSH2 0x265 JUMPI DUP1 PUSH4 0x3DFE9F6A EQ PUSH2 0x283 JUMPI PUSH2 0x1CD JUMP JUMPDEST DUP1 PUSH4 0xFC63D10 EQ PUSH2 0x1D1 JUMPI DUP1 PUSH4 0x106B9CA1 EQ PUSH2 0x1EF JUMPI DUP1 PUSH4 0x12DDBC4F EQ PUSH2 0x20D JUMPI JUMPDEST PUSH0 DUP1 REVERT JUMPDEST PUSH2 0x1D9 PUSH2 0x4FC JUMP JUMPDEST PUSH1 0x40 MLOAD PUSH2 0x1E6 SWAP2 SWAP1 PUSH2 0x1889 JUMP JUMPDEST PUSH1 0x40 MLOAD DUP1 SWAP2 SUB SWAP1 RETURN JUMPDEST PUSH2 0x1F7 PUSH2 0x521 JUMP JUMPDEST PUSH1 0x40 MLOAD PUSH2 0x204 SWAP2 SWAP1 PUSH2 0x18BA JUMP JUMPDEST PUSH1 0x40 MLOAD DUP1 SWAP2 SUB SWAP1 RETURN JUMPDEST PUSH2 0x227 PUSH1 0x4 DUP1 CALLDATASIZE SUB DUP2 ADD SWAP1 PUSH2 0x222 SWAP2 SWAP1 PUSH2 0x190E JUMP JUMPDEST PUSH2 0x527 JUMP JUMPDEST STOP JUMPDEST PUSH2 0x231 PUSH2 0x539 JUMP JUMPDEST PUSH1 0x40 MLOAD PUSH2 0x23E SWAP2 SWAP1 PUSH2 0x18BA JUMP JUMPDEST PUSH1 0x40 MLOAD DUP1 SWAP2 SUB SWAP1 RETURN JUMPDEST PUSH2 0x24F PUSH2 0x5D6 JUMP JUMPDEST PUSH1 0x40 MLOAD PUSH2 0x25C SWAP2 SWAP1 PUSH2 0x18BA JUMP JUMPDEST PUSH1 0x40 MLOAD DUP1 SWAP2 SUB SWAP1 RETURN JUMPDEST PUSH2 0x26D PUSH2 0x5DC JUMP JUMPDEST PUSH1 0x40 MLOAD PUSH2 0x27A SWAP2 SWAP1 PUSH2 0x1959 JUMP JUMPDEST PUSH1 0x40 MLOAD DUP1 SWAP2 SUB SWAP1 RETURN JUMPDEST PUSH2 0x28B PUSH2 0x601 JUMP JUMPDEST PUSH1 0x40 MLOAD PUSH2 0x298 SWAP2 SWAP1 PUSH2 0x18BA JUMP JUMPDEST PUSH1 0x40 MLOAD DUP1 SWAP2 SUB SWAP1 RETURN JUMPDEST PUSH2 0x2BB PUSH1 0x4 DUP1 CALLDATASIZE SUB DUP2 ADD SWAP1 PUSH2 0x2B6 SWAP2 SWAP1 PUSH2 0x190E JUMP JUMPDEST PUSH2 0x607 JUMP JUMPDEST STOP JUMPDEST PUSH2 0x2D7 PUSH1 0x4 DUP1 CALLDATASIZE SUB DUP2 ADD SWAP1 PUSH2 0x2D2 SWAP2 SWAP1 PUSH2 0x19D3 JUMP JUMPDEST PUSH2 0x619 JUMP JUMPDEST STOP JUMPDEST PUSH2 0x2E1 PUSH2 0x632 JUMP JUMPDEST STOP JUMPDEST PUSH2 0x2FD PUSH1 0x4 DUP1 CALLDATASIZE SUB DUP2 ADD SWAP1 PUSH2 0x2F8 SWAP2 SWAP1 PUSH2 0x190E JUMP JUMPDEST PUSH2 0x685 JUMP JUMPDEST STOP JUMPDEST PUSH2 0x307 PUSH2 0x697 JUMP JUMPDEST PUSH1 0x40 MLOAD PUSH2 0x314 SWAP2 SWAP1 PUSH2 0x1959 JUMP JUMPDEST PUSH1 0x40 MLOAD DUP1 SWAP2 SUB SWAP1 RETURN JUMPDEST PUSH2 0x325 PUSH2 0x6BC JUMP JUMPDEST PUSH1 0x40 MLOAD PUSH2 0x332 SWAP2 SWAP1 PUSH2 0x1889 JUMP JUMPDEST PUSH1 0x40 MLOAD DUP1 SWAP2 SUB SWAP1 RETURN JUMPDEST PUSH2 0x355 PUSH1 0x4 DUP1 CALLDATASIZE SUB DUP2 ADD SWAP1 PUSH2 0x350 SWAP2 SWAP1 PUSH2 0x19D3 JUMP JUMPDEST PUSH2 0x6E1 JUMP JUMPDEST PUSH1 0x40 MLOAD PUSH2 0x363 SWAP3 SWAP2 SWAP1 PUSH2 0x1AA8 JUMP JUMPDEST PUSH1 0x40 MLOAD DUP1 SWAP2 SUB SWAP1 RETURN JUMPDEST PUSH2 0x374 PUSH2 0x75E JUMP JUMPDEST STOP JUMPDEST PUSH2 0x390 PUSH1 0x4 DUP1 CALLDATASIZE SUB DUP2 ADD SWAP1 PUSH2 0x38B SWAP2 SWAP1 PUSH2 0x190E JUMP JUMPDEST PUSH2 0x771 JUMP JUMPDEST STOP JUMPDEST PUSH2 0x39A PUSH2 0x783 JUMP JUMPDEST PUSH1 0x40 MLOAD PUSH2 0x3A7 SWAP2 SWAP1 PUSH2 0x18BA JUMP JUMPDEST PUSH1 0x40 MLOAD DUP1 SWAP2 SUB SWAP1 RETURN JUMPDEST PUSH2 0x3B8 PUSH2 0x789 JUMP JUMPDEST PUSH1 0x40 MLOAD PUSH2 0x3C5 SWAP2 SWAP1 PUSH2 0x1AF6 JUMP JUMPDEST PUSH1 0x40 MLOAD DUP1 SWAP2 SUB SWAP1 RETURN JUMPDEST PUSH2 0x3D6 PUSH2 0x7AE JUMP JUMPDEST PUSH1 0x40 MLOAD PUSH2 0x3E3 SWAP2 SWAP1 PUSH2 0x1B2F JUMP JUMPDEST PUSH1 0x40 MLOAD DUP1 SWAP2 SUB SWAP1 RETURN JUMPDEST PUSH2 0x406 PUSH1 0x4 DUP1 CALLDATASIZE SUB DUP2 ADD SWAP1 PUSH2 0x401 SWAP2 SWAP1 PUSH2 0x1B48 JUMP JUMPDEST PUSH2 0x7D3 JUMP JUMPDEST STOP JUMPDEST PUSH2 0x410 PUSH2 0xB28 JUMP JUMPDEST PUSH1 0x40 MLOAD PUSH2 0x41D SWAP2 SWAP1 PUSH2 0x1BA6 JUMP JUMPDEST PUSH1 0x40 MLOAD DUP1 SWAP2 SUB SWAP1 RETURN JUMPDEST PUSH2 0x440 PUSH1 0x4 DUP1 CALLDATASIZE SUB DUP2 ADD SWAP1 PUSH2 0x43B SWAP2 SWAP1 PUSH2 0x190E JUMP JUMPDEST PUSH2 0xB4F JUMP JUMPDEST STOP JUMPDEST PUSH2 0x44A PUSH2 0xD98 JUMP JUMPDEST PUSH1 0x40 MLOAD PUSH2 0x457 SWAP2 SWAP1 PUSH2 0x1889 JUMP JUMPDEST PUSH1 0x40 MLOAD DUP1 SWAP2 SUB SWAP1 RETURN JUMPDEST PUSH2 0x47A PUSH1 0x4 DUP1 CALLDATASIZE SUB DUP2 ADD SWAP1 PUSH2 0x475 SWAP2 SWAP1 PUSH2 0x1C14 JUMP JUMPDEST PUSH2 0xDBD JUMP JUMPDEST STOP JUMPDEST PUSH2 0x484 PUSH2 0x1500 JUMP JUMPDEST STOP JUMPDEST PUSH2 0x48E PUSH2 0x1553 JUMP JUMPDEST PUSH1 0x40 MLOAD PUSH2 0x49B SWAP2 SWAP1 PUSH2 0x18BA JUMP JUMPDEST PUSH1 0x40 MLOAD DUP1 SWAP2 SUB SWAP1 RETURN JUMPDEST PUSH2 0x4BE PUSH1 0x4 DUP1 CALLDATASIZE SUB DUP2 ADD SWAP1 PUSH2 0x4B9 SWAP2 SWAP1 PUSH2 0x1C9B JUMP JUMPDEST PUSH2 0x1559 JUMP JUMPDEST STOP JUMPDEST PUSH2 0x4C8 PUSH2 0x15DD JUMP JUMPDEST PUSH1 0x40 MLOAD PUSH2 0x4D5 SWAP2 SWAP1 PUSH2 0x1959 JUMP JUMPDEST PUSH1 0x40 MLOAD DUP1 SWAP2 SUB SWAP1 RETURN JUMPDEST PUSH2 0x4E6 PUSH2 0x1602 JUMP JUMPDEST PUSH1 0x40 MLOAD PUSH2 0x4F3 SWAP2 SWAP1 PUSH2 0x1CE6 JUMP JUMPDEST PUSH1 0x40 MLOAD DUP1 SWAP2 SUB SWAP1 RETURN JUMPDEST PUSH1 0x2 PUSH0 SWAP1 SLOAD SWAP1 PUSH2 0x100 EXP SWAP1 DIV PUSH20 0xFFFFFFFFFFFFFFFFFFFFFFFFFFFFFFFFFFFFFFFF AND DUP2 JUMP JUMPDEST PUSH1 0xF SLOAD DUP2 JUMP JUMPDEST PUSH2 0x52F PUSH2 0x1627 JUMP JUMPDEST DUP1 PUSH1 0xD DUP2 SWAP1 SSTORE POP POP JUMP JUMPDEST PUSH0 DUP1 PUSH1 0xA PUSH0 SWAP1 SLOAD SWAP1 PUSH2 0x100 EXP SWAP1 DIV PUSH20 0xFFFFFFFFFFFFFFFFFFFFFFFFFFFFFFFFFFFFFFFF AND PUSH20 0xFFFFFFFFFFFFFFFFFFFFFFFFFFFFFFFFFFFFFFFF AND PUSH4 0xFEAF968C PUSH1 0x40 MLOAD DUP2 PUSH4 0xFFFFFFFF AND PUSH1 0xE0 SHL DUP2 MSTORE PUSH1 0x4 ADD PUSH1 0xA0 PUSH1 0x40 MLOAD DUP1 DUP4 SUB DUP2 DUP7 GAS STATICCALL ISZERO DUP1 ISZERO PUSH2 0x5A5 JUMPI RETURNDATASIZE PUSH0 DUP1 RETURNDATACOPY RETURNDATASIZE PUSH0 REVERT JUMPDEST POP POP POP POP PUSH1 0x40 MLOAD RETURNDATASIZE PUSH1 0x1F NOT PUSH1 0x1F DUP3 ADD AND DUP3 ADD DUP1 PUSH1 0x40 MSTORE POP DUP2 ADD SWAP1 PUSH2 0x5C9 SWAP2 SWAP1 PUSH2 0x1D85 JUMP JUMPDEST POP POP POP SWAP2 POP POP DUP1 SWAP2 POP POP SWAP1 JUMP JUMPDEST PUSH1 0xE SLOAD DUP2 JUMP JUMPDEST PUSH1 0x7 PUSH0 SWAP1 SLOAD SWAP1 PUSH2 0x100 EXP SWAP1 DIV PUSH20 0xFFFFFFFFFFFFFFFFFFFFFFFFFFFFFFFFFFFFFFFF AND DUP2 JUMP JUMPDEST PUSH1 0xD SLOAD DUP2 JUMP JUMPDEST PUSH2 0x60F PUSH2 0x1627 JUMP JUMPDEST DUP1 PUSH1 0xE DUP2 SWAP1 SSTORE POP POP JUMP JUMPDEST PUSH0 PUSH2 0x622 PUSH2 0x539 JUMP JUMPDEST SWAP1 POP PUSH2 0x62D DUP2 PUSH2 0x16AE JUMP JUMPDEST POP POP POP JUMP JUMPDEST PUSH2 0x63A PUSH2 0x1627 JUMP JUMPDEST PUSH2 0x642 PUSH2 0x16EF JUMP JUMPDEST PUSH0 PUSH32 0xAC17DAE82B629EF673F1B5FE90CB139D0174345AA580C06B230674EF96C8ADC8 DUP2 PUSH1 0x40 MLOAD PUSH2 0x672 SWAP2 SWAP1 PUSH2 0x18BA JUMP JUMPDEST PUSH1 0x40 MLOAD DUP1 SWAP2 SUB SWAP1 LOG1 POP PUSH2 0x683 PUSH2 0x173E JUMP JUMPDEST JUMP JUMPDEST PUSH2 0x68D PUSH2 0x1627 JUMP JUMPDEST DUP1 PUSH1 0xC DUP2 SWAP1 SSTORE POP POP JUMP JUMPDEST PUSH1 0x9 PUSH0 SWAP1 SLOAD SWAP1 PUSH2 0x100 EXP SWAP1 DIV PUSH20 0xFFFFFFFFFFFFFFFFFFFFFFFFFFFFFFFFFFFFFFFF AND DUP2 JUMP JUMPDEST PUSH1 0x3 PUSH0 SWAP1 SLOAD SWAP1 PUSH2 0x100 EXP SWAP1 DIV PUSH20 0xFFFFFFFFFFFFFFFFFFFFFFFFFFFFFFFFFFFFFFFF AND DUP2 JUMP JUMPDEST PUSH0 PUSH1 0x60 PUSH0 PUSH2 0x6ED PUSH2 0x539 JUMP JUMPDEST SWAP1 POP PUSH0 PUSH1 0xF SLOAD DUP3 GT PUSH2 0x70C JUMPI DUP2 PUSH1 0xF SLOAD PUSH2 0x707 SWAP2 SWAP1 PUSH2 0x1E29 JUMP JUMPDEST PUSH2 0x71B JUMP JUMPDEST PUSH1 0xF SLOAD DUP3 PUSH2 0x71A SWAP2 SWAP1 PUSH2 0x1E29 JUMP JUMPDEST JUMPDEST SWAP1 POP PUSH0 PUSH1 0xF SLOAD PUSH2 0x2710 DUP4 PUSH2 0x72F SWAP2 SWAP1 PUSH2 0x1E5C JUMP JUMPDEST PUSH2 0x739 SWAP2 SWAP1 PUSH2 0x1ECA JUMP JUMPDEST SWAP1 POP PUSH1 0xD SLOAD DUP2 LT ISZERO SWAP5 POP PUSH1 0x40 MLOAD DUP1 PUSH1 0x20 ADD PUSH1 0x40 MSTORE DUP1 PUSH0 DUP2 MSTORE POP SWAP4 POP POP POP POP SWAP3 POP SWAP3 SWAP1 POP JUMP JUMPDEST PUSH2 0x766 PUSH2 0x1627 JUMP JUMPDEST PUSH2 0x76F PUSH0 PUSH2 0x1747 JUMP JUMPDEST JUMP JUMPDEST PUSH2 0x779 PUSH2 0x1627 JUMP JUMPDEST DUP1 PUSH1 0xB DUP2 SWAP1 SSTORE POP POP JUMP JUMPDEST PUSH1 0xC SLOAD DUP2 JUMP JUMPDEST PUSH1 0x5 PUSH0 SWAP1 SLOAD SWAP1 PUSH2 0x100 EXP SWAP1 DIV PUSH20 0xFFFFFFFFFFFFFFFFFFFFFFFFFFFFFFFFFFFFFFFF AND DUP2 JUMP JUMPDEST PUSH1 0xA PUSH0 SWAP1 SLOAD SWAP1 PUSH2 0x100 EXP SWAP1 DIV PUSH20 0xFFFFFFFFFFFFFFFFFFFFFFFFFFFFFFFFFFFFFFFF AND DUP2 JUMP JUMPDEST PUSH2 0x7DB PUSH2 0x1627 JUMP JUMPDEST PUSH0 DUP3 GT DUP1 ISZERO PUSH2 0x7E9 JUMPI POP PUSH0 DUP2 GT JUMPDEST PUSH2 0x828 JUMPI PUSH1 0x40 MLOAD PUSH32 0x8C379A000000000000000000000000000000000000000000000000000000000 DUP2 MSTORE PUSH1 0x4 ADD PUSH2 0x81F SWAP1 PUSH2 0x1F7A JUMP JUMPDEST PUSH1 0x40 MLOAD DUP1 SWAP2 SUB SWAP1 REVERT JUMPDEST PUSH1 0xB SLOAD DUP3 GT ISZERO DUP1 ISZERO PUSH2 0x83C JUMPI POP PUSH1 0xB SLOAD DUP2 GT ISZERO JUMPDEST PUSH2 0x87B JUMPI PUSH1 0x40 MLOAD PUSH32 0x8C379A000000000000000000000000000000000000000000000000000000000 DUP2 MSTORE PUSH1 0x4 ADD PUSH2 0x872 SWAP1 PUSH2 0x1FE2 JUMP JUMPDEST PUSH1 0x40 MLOAD DUP1 SWAP2 SUB SWAP1 REVERT JUMPDEST PUSH1 0x2 PUSH0 SWAP1 SLOAD SWAP1 PUSH2 0x100 EXP SWAP1 DIV PUSH20 0xFFFFFFFFFFFFFFFFFFFFFFFFFFFFFFFFFFFFFFFF AND PUSH20 0xFFFFFFFFFFFFFFFFFFFFFFFFFFFFFFFFFFFFFFFF AND PUSH4 0x95EA7B3 PUSH1 0x5 PUSH0 SWAP1 SLOAD SWAP1 PUSH2 0x100 EXP SWAP1 DIV PUSH20 0xFFFFFFFFFFFFFFFFFFFFFFFFFFFFFFFFFFFFFFFF AND DUP5 PUSH1 0x40 MLOAD DUP4 PUSH4 0xFFFFFFFF AND PUSH1 0xE0 SHL DUP2 MSTORE PUSH1 0x4 ADD PUSH2 0x8F8 SWAP3 SWAP2 SWAP1 PUSH2 0x2000 JUMP JUMPDEST PUSH1 0x20 PUSH1 0x40 MLOAD DUP1 DUP4 SUB DUP2 PUSH0 DUP8 GAS CALL ISZERO DUP1 ISZERO PUSH2 0x914 JUMPI RETURNDATASIZE PUSH0 DUP1 RETURNDATACOPY RETURNDATASIZE PUSH0 REVERT JUMPDEST POP POP POP POP PUSH1 0x40 MLOAD RETURNDATASIZE PUSH1 0x1F NOT PUSH1 0x1F DUP3 ADD AND DUP3 ADD DUP1 PUSH1 0x40 MSTORE POP DUP2 ADD SWAP1 PUSH2 0x938 SWAP2 SWAP1 PUSH2 0x2051 JUMP JUMPDEST POP PUSH1 0x3 PUSH0 SWAP1 SLOAD SWAP1 PUSH2 0x100 EXP SWAP1 DIV PUSH20 0xFFFFFFFFFFFFFFFFFFFFFFFFFFFFFFFFFFFFFFFF AND PUSH20 0xFFFFFFFFFFFFFFFFFFFFFFFFFFFFFFFFFFFFFFFF AND PUSH4 0x95EA7B3 PUSH1 0x5 PUSH0 SWAP1 SLOAD SWAP1 PUSH2 0x100 EXP SWAP1 DIV PUSH20 0xFFFFFFFFFFFFFFFFFFFFFFFFFFFFFFFFFFFFFFFF AND DUP4 PUSH1 0x40 MLOAD DUP4 PUSH4 0xFFFFFFFF AND PUSH1 0xE0 SHL DUP2 MSTORE PUSH1 0x4 ADD PUSH2 0x9B6 SWAP3 SWAP2 SWAP1 PUSH2 0x2000 JUMP JUMPDEST PUSH1 0x20 PUSH1 0x40 MLOAD DUP1 DUP4 SUB DUP2 PUSH0 DUP8 GAS CALL ISZERO DUP1 ISZERO PUSH2 0x9D2 JUMPI RETURNDATASIZE PUSH0 DUP1 RETURNDATACOPY RETURNDATASIZE PUSH0 REVERT JUMPDEST POP POP POP POP PUSH1 0x40 MLOAD RETURNDATASIZE PUSH1 0x1F NOT PUSH1 0x1F DUP3 ADD AND DUP3 ADD DUP1 PUSH1 0x40 MSTORE POP DUP2 ADD SWAP1 PUSH2 0x9F6 SWAP2 SWAP1 PUSH2 0x2051 JUMP JUMPDEST POP PUSH0 DUP1 PUSH1 0x5 PUSH0 SWAP1 SLOAD SWAP1 PUSH2 0x100 EXP SWAP1 DIV PUSH20 0xFFFFFFFFFFFFFFFFFFFFFFFFFFFFFFFFFFFFFFFF AND PUSH20 0xFFFFFFFFFFFFFFFFFFFFFFFFFFFFFFFFFFFFFFFF AND PUSH4 0xE8E33700 PUSH1 0x2 PUSH0 SWAP1 SLOAD SWAP1 PUSH2 0x100 EXP SWAP1 DIV PUSH20 0xFFFFFFFFFFFFFFFFFFFFFFFFFFFFFFFFFFFFFFFF AND PUSH1 0x3 PUSH0 SWAP1 SLOAD SWAP1 PUSH2 0x100 EXP SWAP1 DIV PUSH20 0xFFFFFFFFFFFFFFFFFFFFFFFFFFFFFFFFFFFFFFFF AND DUP8 DUP8 PUSH1 0x1 DUP1 ADDRESS TIMESTAMP PUSH1 0x40 MLOAD DUP10 PUSH4 0xFFFFFFFF AND PUSH1 0xE0 SHL DUP2 MSTORE PUSH1 0x4 ADD PUSH2 0xAA4 SWAP9 SWAP8 SWAP7 SWAP6 SWAP5 SWAP4 SWAP3 SWAP2 SWAP1 PUSH2 0x20B5 JUMP JUMPDEST PUSH1 0x60 PUSH1 0x40 MLOAD DUP1 DUP4 SUB DUP2 PUSH0 DUP8 GAS CALL ISZERO DUP1 ISZERO PUSH2 0xAC0 JUMPI RETURNDATASIZE PUSH0 DUP1 RETURNDATACOPY RETURNDATASIZE PUSH0 REVERT JUMPDEST POP POP POP POP PUSH1 0x40 MLOAD RETURNDATASIZE PUSH1 0x1F NOT PUSH1 0x1F DUP3 ADD AND DUP3 ADD DUP1 PUSH1 0x40 MSTORE POP DUP2 ADD SWAP1 PUSH2 0xAE4 SWAP2 SWAP1 PUSH2 0x2131 JUMP JUMPDEST POP SWAP2 POP SWAP2 POP PUSH32 0x38F8A0C92F4C5B0B6877F878CB4C0C8D348A47B76D716C8E78F425043DF9515B DUP3 DUP3 PUSH1 0x40 MLOAD PUSH2 0xB1A SWAP3 SWAP2 SWAP1 PUSH2 0x2181 JUMP JUMPDEST PUSH1 0x40 MLOAD DUP1 SWAP2 SUB SWAP1 LOG1 POP POP POP POP JUMP JUMPDEST PUSH0 DUP1 PUSH0 SWAP1 SLOAD SWAP1 PUSH2 0x100 EXP SWAP1 DIV PUSH20 0xFFFFFFFFFFFFFFFFFFFFFFFFFFFFFFFFFFFFFFFF AND SWAP1 POP SWAP1 JUMP JUMPDEST PUSH2 0xB57 PUSH2 0x1627 JUMP JUMPDEST PUSH2 0xB5F PUSH2 0x16EF JUMP JUMPDEST PUSH0 DUP2 GT PUSH2 0xBA1 JUMPI PUSH1 0x40 MLOAD PUSH32 0x8C379A000000000000000000000000000000000000000000000000000000000 DUP2 MSTORE PUSH1 0x4 ADD PUSH2 0xB98 SWAP1 PUSH2 0x2218 JUMP JUMPDEST PUSH1 0x40 MLOAD DUP1 SWAP2 SUB SWAP1 REVERT JUMPDEST PUSH0 PUSH1 0x7 PUSH0 SWAP1 SLOAD SWAP1 PUSH2 0x100 EXP SWAP1 DIV PUSH20 0xFFFFFFFFFFFFFFFFFFFFFFFFFFFFFFFFFFFFFFFF AND SWAP1 POP DUP1 PUSH20 0xFFFFFFFFFFFFFFFFFFFFFFFFFFFFFFFFFFFFFFFF AND PUSH4 0x95EA7B3 PUSH1 0x5 PUSH0 SWAP1 SLOAD SWAP1 PUSH2 0x100 EXP SWAP1 DIV PUSH20 0xFFFFFFFFFFFFFFFFFFFFFFFFFFFFFFFFFFFFFFFF AND DUP5 PUSH1 0x40 MLOAD DUP4 PUSH4 0xFFFFFFFF AND PUSH1 0xE0 SHL DUP2 MSTORE PUSH1 0x4 ADD PUSH2 0xC22 SWAP3 SWAP2 SWAP1 PUSH2 0x2000 JUMP JUMPDEST PUSH1 0x20 PUSH1 0x40 MLOAD DUP1 DUP4 SUB DUP2 PUSH0 DUP8 GAS CALL ISZERO DUP1 ISZERO PUSH2 0xC3E JUMPI RETURNDATASIZE PUSH0 DUP1 RETURNDATACOPY RETURNDATASIZE PUSH0 REVERT JUMPDEST POP POP POP POP PUSH1 0x40 MLOAD RETURNDATASIZE PUSH1 0x1F NOT PUSH1 0x1F DUP3 ADD AND DUP3 ADD DUP1 PUSH1 0x40 MSTORE POP DUP2 ADD SWAP1 PUSH2 0xC62 SWAP2 SWAP1 PUSH2 0x2051 JUMP JUMPDEST POP PUSH0 DUP1 PUSH1 0x5 PUSH0 SWAP1 SLOAD SWAP1 PUSH2 0x100 EXP SWAP1 DIV PUSH20 0xFFFFFFFFFFFFFFFFFFFFFFFFFFFFFFFFFFFFFFFF AND PUSH20 0xFFFFFFFFFFFFFFFFFFFFFFFFFFFFFFFFFFFFFFFF AND PUSH4 0xBAA2ABDE PUSH1 0x2 PUSH0 SWAP1 SLOAD SWAP1 PUSH2 0x100 EXP SWAP1 DIV PUSH20 0xFFFFFFFFFFFFFFFFFFFFFFFFFFFFFFFFFFFFFFFF AND PUSH1 0x3 PUSH0 SWAP1 SLOAD SWAP1 PUSH2 0x100 EXP SWAP1 DIV PUSH20 0xFFFFFFFFFFFFFFFFFFFFFFFFFFFFFFFFFFFFFFFF AND DUP8 PUSH1 0x1 DUP1 ADDRESS TIMESTAMP PUSH1 0x40 MLOAD DUP9 PUSH4 0xFFFFFFFF AND PUSH1 0xE0 SHL DUP2 MSTORE PUSH1 0x4 ADD PUSH2 0xD0E SWAP8 SWAP7 SWAP6 SWAP5 SWAP4 SWAP3 SWAP2 SWAP1 PUSH2 0x2236 JUMP JUMPDEST PUSH1 0x40 DUP1 MLOAD DUP1 DUP4 SUB DUP2 PUSH0 DUP8 GAS CALL ISZERO DUP1 ISZERO PUSH2 0xD29 JUMPI RETURNDATASIZE PUSH0 DUP1 RETURNDATACOPY RETURNDATASIZE PUSH0 REVERT JUMPDEST POP POP POP POP PUSH1 0x40 MLOAD RETURNDATASIZE PUSH1 0x1F NOT PUSH1 0x1F DUP3 ADD AND DUP3 ADD DUP1 PUSH1 0x40 MSTORE POP DUP2 ADD SWAP1 PUSH2 0xD4D SWAP2 SWAP1 PUSH2 0x22A3 JUMP JUMPDEST SWAP2 POP SWAP2 POP PUSH32 0x6F0F96292AE0038C04F9B6BAB30F185D9CA02C471D0983F563F2A4F674AEF137 DUP3 DUP3 PUSH1 0x40 MLOAD PUSH2 0xD82 SWAP3 SWAP2 SWAP1 PUSH2 0x2181 JUMP JUMPDEST PUSH1 0x40 MLOAD DUP1 SWAP2 SUB SWAP1 LOG1 POP POP POP PUSH2 0xD95 PUSH2 0x173E JUMP JUMPDEST POP JUMP JUMPDEST PUSH1 0x4 PUSH0 SWAP1 SLOAD SWAP1 PUSH2 0x100 EXP SWAP1 DIV PUSH20 0xFFFFFFFFFFFFFFFFFFFFFFFFFFFFFFFFFFFFFFFF AND DUP2 JUMP JUMPDEST PUSH2 0xDC5 PUSH2 0x1627 JUMP JUMPDEST PUSH2 0xDCD PUSH2 0x16EF JUMP JUMPDEST PUSH0 DUP4 GT PUSH2 0xE0F JUMPI PUSH1 0x40 MLOAD PUSH32 0x8C379A000000000000000000000000000000000000000000000000000000000 DUP2 MSTORE PUSH1 0x4 ADD PUSH2 0xE06 SWAP1 PUSH2 0x2351 JUMP JUMPDEST PUSH1 0x40 MLOAD DUP1 SWAP2 SUB SWAP1 REVERT JUMPDEST PUSH1 0x2 DUP3 DUP3 SWAP1 POP LT ISZERO PUSH2 0xE56 JUMPI PUSH1 0x40 MLOAD PUSH32 0x8C379A000000000000000000000000000000000000000000000000000000000 DUP2 MSTORE PUSH1 0x4 ADD PUSH2 0xE4D SWAP1 PUSH2 0x23B9 JUMP JUMPDEST PUSH1 0x40 MLOAD DUP1 SWAP2 SUB SWAP1 REVERT JUMPDEST PUSH0 PUSH1 0x5 PUSH0 SWAP1 SLOAD SWAP1 PUSH2 0x100 EXP SWAP1 DIV PUSH20 0xFFFFFFFFFFFFFFFFFFFFFFFFFFFFFFFFFFFFFFFF AND PUSH20 0xFFFFFFFFFFFFFFFFFFFFFFFFFFFFFFFFFFFFFFFF AND PUSH4 0xD06CA61F DUP6 DUP6 DUP6 PUSH1 0x40 MLOAD DUP5 PUSH4 0xFFFFFFFF AND PUSH1 0xE0 SHL DUP2 MSTORE PUSH1 0x4 ADD PUSH2 0xEB5 SWAP4 SWAP3 SWAP2 SWAP1 PUSH2 0x2493 JUMP JUMPDEST PUSH0 PUSH1 0x40 MLOAD DUP1 DUP4 SUB DUP2 DUP7 GAS STATICCALL ISZERO DUP1 ISZERO PUSH2 0xECF JUMPI RETURNDATASIZE PUSH0 DUP1 RETURNDATACOPY RETURNDATASIZE PUSH0 REVERT JUMPDEST POP POP POP POP PUSH1 0x40 MLOAD RETURNDATASIZE PUSH0 DUP3 RETURNDATACOPY RETURNDATASIZE PUSH1 0x1F NOT PUSH1 0x1F DUP3 ADD AND DUP3 ADD DUP1 PUSH1 0x40 MSTORE POP DUP2 ADD SWAP1 PUSH2 0xEF7 SWAP2 SWAP1 PUSH2 0x25FB JUMP JUMPDEST SWAP1 POP PUSH0 PUSH1 0x6 PUSH0 SWAP1 SLOAD SWAP1 PUSH2 0x100 EXP SWAP1 DIV PUSH20 0xFFFFFFFFFFFFFFFFFFFFFFFFFFFFFFFFFFFFFFFF AND PUSH20 0xFFFFFFFFFFFFFFFFFFFFFFFFFFFFFFFFFFFFFFFF AND PUSH4 0x38ED1739 DUP7 PUSH1 0x1 DUP8 DUP8 ADDRESS TIMESTAMP PUSH1 0x40 MLOAD DUP8 PUSH4 0xFFFFFFFF AND PUSH1 0xE0 SHL DUP2 MSTORE PUSH1 0x4 ADD PUSH2 0xF5F SWAP7 SWAP6 SWAP5 SWAP4 SWAP3 SWAP2 SWAP1 PUSH2 0x2642 JUMP JUMPDEST PUSH0 PUSH1 0x40 MLOAD DUP1 DUP4 SUB DUP2 PUSH0 DUP8 GAS CALL ISZERO DUP1 ISZERO PUSH2 0xF7A JUMPI RETURNDATASIZE PUSH0 DUP1 RETURNDATACOPY RETURNDATASIZE PUSH0 REVERT JUMPDEST POP POP POP POP PUSH1 0x40 MLOAD RETURNDATASIZE PUSH0 DUP3 RETURNDATACOPY RETURNDATASIZE PUSH1 0x1F NOT PUSH1 0x1F DUP3 ADD AND DUP3 ADD DUP1 PUSH1 0x40 MSTORE POP DUP2 ADD SWAP1 PUSH2 0xFA2 SWAP2 SWAP1 PUSH2 0x25FB JUMP JUMPDEST SWAP1 POP PUSH0 DUP3 PUSH1 0x1 DUP5 MLOAD PUSH2 0xFB4 SWAP2 SWAP1 PUSH2 0x1E29 JUMP JUMPDEST DUP2 MLOAD DUP2 LT PUSH2 0xFC5 JUMPI PUSH2 0xFC4 PUSH2 0x269C JUMP JUMPDEST JUMPDEST PUSH1 0x20 MUL PUSH1 0x20 ADD ADD MLOAD SWAP1 POP PUSH0 DUP3 PUSH1 0x1 DUP5 MLOAD PUSH2 0xFDF SWAP2 SWAP1 PUSH2 0x1E29 JUMP JUMPDEST DUP2 MLOAD DUP2 LT PUSH2 0xFF0 JUMPI PUSH2 0xFEF PUSH2 0x269C JUMP JUMPDEST JUMPDEST PUSH1 0x20 MUL PUSH1 0x20 ADD ADD MLOAD SWAP1 POP DUP1 DUP3 LT PUSH2 0x127A JUMPI DUP6 DUP6 PUSH0 DUP2 DUP2 LT PUSH2 0x1014 JUMPI PUSH2 0x1013 PUSH2 0x269C JUMP JUMPDEST JUMPDEST SWAP1 POP PUSH1 0x20 MUL ADD PUSH1 0x20 DUP2 ADD SWAP1 PUSH2 0x1029 SWAP2 SWAP1 PUSH2 0x1C9B JUMP JUMPDEST PUSH20 0xFFFFFFFFFFFFFFFFFFFFFFFFFFFFFFFFFFFFFFFF AND PUSH4 0x95EA7B3 PUSH1 0x5 PUSH0 SWAP1 SLOAD SWAP1 PUSH2 0x100 EXP SWAP1 DIV PUSH20 0xFFFFFFFFFFFFFFFFFFFFFFFFFFFFFFFFFFFFFFFF AND DUP10 PUSH1 0x40 MLOAD DUP4 PUSH4 0xFFFFFFFF AND PUSH1 0xE0 SHL DUP2 MSTORE PUSH1 0x4 ADD PUSH2 0x1084 SWAP3 SWAP2 SWAP1 PUSH2 0x2000 JUMP JUMPDEST PUSH1 0x20 PUSH1 0x40 MLOAD DUP1 DUP4 SUB DUP2 PUSH0 DUP8 GAS CALL ISZERO DUP1 ISZERO PUSH2 0x10A0 JUMPI RETURNDATASIZE PUSH0 DUP1 RETURNDATACOPY RETURNDATASIZE PUSH0 REVERT JUMPDEST POP POP POP POP PUSH1 0x40 MLOAD RETURNDATASIZE PUSH1 0x1F NOT PUSH1 0x1F DUP3 ADD AND DUP3 ADD DUP1 PUSH1 0x40 MSTORE POP DUP2 ADD SWAP1 PUSH2 0x10C4 SWAP2 SWAP1 PUSH2 0x2051 JUMP JUMPDEST POP PUSH0 PUSH1 0x5 PUSH0 SWAP1 SLOAD SWAP1 PUSH2 0x100 EXP SWAP1 DIV PUSH20 0xFFFFFFFFFFFFFFFFFFFFFFFFFFFFFFFFFFFFFFFF AND PUSH20 0xFFFFFFFFFFFFFFFFFFFFFFFFFFFFFFFFFFFFFFFF AND PUSH4 0x38ED1739 DUP10 DUP6 DUP11 DUP11 ADDRESS TIMESTAMP PUSH1 0x40 MLOAD DUP8 PUSH4 0xFFFFFFFF AND PUSH1 0xE0 SHL DUP2 MSTORE PUSH1 0x4 ADD PUSH2 0x112A SWAP7 SWAP6 SWAP5 SWAP4 SWAP3 SWAP2 SWAP1 PUSH2 0x26C9 JUMP JUMPDEST PUSH0 PUSH1 0x40 MLOAD DUP1 DUP4 SUB DUP2 PUSH0 DUP8 GAS CALL ISZERO DUP1 ISZERO PUSH2 0x1145 JUMPI RETURNDATASIZE PUSH0 DUP1 RETURNDATACOPY RETURNDATASIZE PUSH0 REVERT JUMPDEST POP POP POP POP PUSH1 0x40 MLOAD RETURNDATASIZE PUSH0 DUP3 RETURNDATACOPY RETURNDATASIZE PUSH1 0x1F NOT PUSH1 0x1F DUP3 ADD AND DUP3 ADD DUP1 PUSH1 0x40 MSTORE POP DUP2 ADD SWAP1 PUSH2 0x116D SWAP2 SWAP1 PUSH2 0x25FB JUMP JUMPDEST SWAP1 POP DUP7 DUP7 PUSH1 0x1 DUP10 DUP10 SWAP1 POP PUSH2 0x1181 SWAP2 SWAP1 PUSH2 0x1E29 JUMP JUMPDEST DUP2 DUP2 LT PUSH2 0x1191 JUMPI PUSH2 0x1190 PUSH2 0x269C JUMP JUMPDEST JUMPDEST SWAP1 POP PUSH1 0x20 MUL ADD PUSH1 0x20 DUP2 ADD SWAP1 PUSH2 0x11A6 SWAP2 SWAP1 PUSH2 0x1C9B JUMP JUMPDEST PUSH20 0xFFFFFFFFFFFFFFFFFFFFFFFFFFFFFFFFFFFFFFFF AND DUP8 DUP8 PUSH0 DUP2 DUP2 LT PUSH2 0x11CF JUMPI PUSH2 0x11CE PUSH2 0x269C JUMP JUMPDEST JUMPDEST SWAP1 POP PUSH1 0x20 MUL ADD PUSH1 0x20 DUP2 ADD SWAP1 PUSH2 0x11E4 SWAP2 SWAP1 PUSH2 0x1C9B JUMP JUMPDEST PUSH20 0xFFFFFFFFFFFFFFFFFFFFFFFFFFFFFFFFFFFFFFFF AND PUSH32 0xDD36740E2A012D93061A0D99EAA9107860955DE4E90027D3CF465A055026C407 DUP4 PUSH0 DUP2 MLOAD DUP2 LT PUSH2 0x122E JUMPI PUSH2 0x122D PUSH2 0x269C JUMP JUMPDEST JUMPDEST PUSH1 0x20 MUL PUSH1 0x20 ADD ADD MLOAD DUP5 PUSH1 0x1 DUP7 MLOAD PUSH2 0x1245 SWAP2 SWAP1 PUSH2 0x1E29 JUMP JUMPDEST DUP2 MLOAD DUP2 LT PUSH2 0x1256 JUMPI PUSH2 0x1255 PUSH2 0x269C JUMP JUMPDEST JUMPDEST PUSH1 0x20 MUL PUSH1 0x20 ADD ADD MLOAD PUSH1 0x40 MLOAD PUSH2 0x126C SWAP3 SWAP2 SWAP1 PUSH2 0x2181 JUMP JUMPDEST PUSH1 0x40 MLOAD DUP1 SWAP2 SUB SWAP1 LOG3 POP PUSH2 0x14EF JUMP JUMPDEST DUP6 DUP6 PUSH0 DUP2 DUP2 LT PUSH2 0x128D JUMPI PUSH2 0x128C PUSH2 0x269C JUMP JUMPDEST JUMPDEST SWAP1 POP PUSH1 0x20 MUL ADD PUSH1 0x20 DUP2 ADD SWAP1 PUSH2 0x12A2 SWAP2 SWAP1 PUSH2 0x1C9B JUMP JUMPDEST PUSH20 0xFFFFFFFFFFFFFFFFFFFFFFFFFFFFFFFFFFFFFFFF AND PUSH4 0x95EA7B3 PUSH1 0x6 PUSH0 SWAP1 SLOAD SWAP1 PUSH2 0x100 EXP SWAP1 DIV PUSH20 0xFFFFFFFFFFFFFFFFFFFFFFFFFFFFFFFFFFFFFFFF AND DUP10 PUSH1 0x40 MLOAD DUP4 PUSH4 0xFFFFFFFF AND PUSH1 0xE0 SHL DUP2 MSTORE PUSH1 0x4 ADD PUSH2 0x12FD SWAP3 SWAP2 SWAP1 PUSH2 0x2000 JUMP JUMPDEST PUSH1 0x20 PUSH1 0x40 MLOAD DUP1 DUP4 SUB DUP2 PUSH0 DUP8 GAS CALL ISZERO DUP1 ISZERO PUSH2 0x1319 JUMPI RETURNDATASIZE PUSH0 DUP1 RETURNDATACOPY RETURNDATASIZE PUSH0 REVERT JUMPDEST POP POP POP POP PUSH1 0x40 MLOAD RETURNDATASIZE PUSH1 0x1F NOT PUSH1 0x1F DUP3 ADD AND DUP3 ADD DUP1 PUSH1 0x40 MSTORE POP DUP2 ADD SWAP1 PUSH2 0x133D SWAP2 SWAP1 PUSH2 0x2051 JUMP JUMPDEST POP PUSH0 PUSH1 0x6 PUSH0 SWAP1 SLOAD SWAP1 PUSH2 0x100 EXP SWAP1 DIV PUSH20 0xFFFFFFFFFFFFFFFFFFFFFFFFFFFFFFFFFFFFFFFF AND PUSH20 0xFFFFFFFFFFFFFFFFFFFFFFFFFFFFFFFFFFFFFFFF AND PUSH4 0x38ED1739 DUP10 DUP5 DUP11 DUP11 ADDRESS TIMESTAMP PUSH1 0x40 MLOAD DUP8 PUSH4 0xFFFFFFFF AND PUSH1 0xE0 SHL DUP2 MSTORE PUSH1 0x4 ADD PUSH2 0x13A3 SWAP7 SWAP6 SWAP5 SWAP4 SWAP3 SWAP2 SWAP1 PUSH2 0x26C9 JUMP JUMPDEST PUSH0 PUSH1 0x40 MLOAD DUP1 DUP4 SUB DUP2 PUSH0 DUP8 GAS CALL ISZERO DUP1 ISZERO PUSH2 0x13BE JUMPI RETURNDATASIZE PUSH0 DUP1 RETURNDATACOPY RETURNDATASIZE PUSH0 REVERT JUMPDEST POP POP POP POP PUSH1 0x40 MLOAD RETURNDATASIZE PUSH0 DUP3 RETURNDATACOPY RETURNDATASIZE PUSH1 0x1F NOT PUSH1 0x1F DUP3 ADD AND DUP3 ADD DUP1 PUSH1 0x40 MSTORE POP DUP2 ADD SWAP1 PUSH2 0x13E6 SWAP2 SWAP1 PUSH2 0x25FB JUMP JUMPDEST SWAP1 POP DUP7 DUP7 PUSH1 0x1 DUP10 DUP10 SWAP1 POP PUSH2 0x13FA SWAP2 SWAP1 PUSH2 0x1E29 JUMP JUMPDEST DUP2 DUP2 LT PUSH2 0x140A JUMPI PUSH2 0x1409 PUSH2 0x269C JUMP JUMPDEST JUMPDEST SWAP1 POP PUSH1 0x20 MUL ADD PUSH1 0x20 DUP2 ADD SWAP1 PUSH2 0x141F SWAP2 SWAP1 PUSH2 0x1C9B JUMP JUMPDEST PUSH20 0xFFFFFFFFFFFFFFFFFFFFFFFFFFFFFFFFFFFFFFFF AND DUP8 DUP8 PUSH0 DUP2 DUP2 LT PUSH2 0x1448 JUMPI PUSH2 0x1447 PUSH2 0x269C JUMP JUMPDEST JUMPDEST SWAP1 POP PUSH1 0x20 MUL ADD PUSH1 0x20 DUP2 ADD SWAP1 PUSH2 0x145D SWAP2 SWAP1 PUSH2 0x1C9B JUMP JUMPDEST PUSH20 0xFFFFFFFFFFFFFFFFFFFFFFFFFFFFFFFFFFFFFFFF AND PUSH32 0xDD36740E2A012D93061A0D99EAA9107860955DE4E90027D3CF465A055026C407 DUP4 PUSH0 DUP2 MLOAD DUP2 LT PUSH2 0x14A7 JUMPI PUSH2 0x14A6 PUSH2 0x269C JUMP JUMPDEST JUMPDEST PUSH1 0x20 MUL PUSH1 0x20 ADD ADD MLOAD DUP5 PUSH1 0x1 DUP7 MLOAD PUSH2 0x14BE SWAP2 SWAP1 PUSH2 0x1E29 JUMP JUMPDEST DUP2 MLOAD DUP2 LT PUSH2 0x14CF JUMPI PUSH2 0x14CE PUSH2 0x269C JUMP JUMPDEST JUMPDEST PUSH1 0x20 MUL PUSH1 0x20 ADD ADD MLOAD PUSH1 0x40 MLOAD PUSH2 0x14E5 SWAP3 SWAP2 SWAP1 PUSH2 0x2181 JUMP JUMPDEST PUSH1 0x40 MLOAD DUP1 SWAP2 SUB SWAP1 LOG3 POP JUMPDEST POP POP POP POP PUSH2 0x14FB PUSH2 0x173E JUMP JUMPDEST POP POP POP JUMP JUMPDEST PUSH2 0x1508 PUSH2 0x1627 JUMP JUMPDEST PUSH2 0x1510 PUSH2 0x16EF JUMP JUMPDEST PUSH0 PUSH32 0x22831A56ED096EC8B35C25FE680899BF95C255557389A8645F13997B42C5CC34 DUP2 PUSH1 0x40 MLOAD PUSH2 0x1540 SWAP2 SWAP1 PUSH2 0x18BA JUMP JUMPDEST PUSH1 0x40 MLOAD DUP1 SWAP2 SUB SWAP1 LOG1 POP PUSH2 0x1551 PUSH2 0x173E JUMP JUMPDEST JUMP JUMPDEST PUSH1 0xB SLOAD DUP2 JUMP JUMPDEST PUSH2 0x1561 PUSH2 0x1627 JUMP JUMPDEST PUSH0 PUSH20 0xFFFFFFFFFFFFFFFFFFFFFFFFFFFFFFFFFFFFFFFF AND DUP2 PUSH20 0xFFFFFFFFFFFFFFFFFFFFFFFFFFFFFFFFFFFFFFFF AND SUB PUSH2 0x15D1 JUMPI PUSH0 PUSH1 0x40 MLOAD PUSH32 0x1E4FBDF700000000000000000000000000000000000000000000000000000000 DUP2 MSTORE PUSH1 0x4 ADD PUSH2 0x15C8 SWAP2 SWAP1 PUSH2 0x1BA6 JUMP JUMPDEST PUSH1 0x40 MLOAD DUP1 SWAP2 SUB SWAP1 REVERT JUMPDEST PUSH2 0x15DA DUP2 PUSH2 0x1747 JUMP JUMPDEST POP JUMP JUMPDEST PUSH1 0x8 PUSH0 SWAP1 SLOAD SWAP1 PUSH2 0x100 EXP SWAP1 DIV PUSH20 0xFFFFFFFFFFFFFFFFFFFFFFFFFFFFFFFFFFFFFFFF AND DUP2 JUMP JUMPDEST PUSH1 0x6 PUSH0 SWAP1 SLOAD SWAP1 PUSH2 0x100 EXP SWAP1 DIV PUSH20 0xFFFFFFFFFFFFFFFFFFFFFFFFFFFFFFFFFFFFFFFF AND DUP2 JUMP JUMPDEST PUSH2 0x162F PUSH2 0x1808 JUMP JUMPDEST PUSH20 0xFFFFFFFFFFFFFFFFFFFFFFFFFFFFFFFFFFFFFFFF AND PUSH2 0x164D PUSH2 0xB28 JUMP JUMPDEST PUSH20 0xFFFFFFFFFFFFFFFFFFFFFFFFFFFFFFFFFFFFFFFF AND EQ PUSH2 0x16AC JUMPI PUSH2 0x1670 PUSH2 0x1808 JUMP JUMPDEST PUSH1 0x40 MLOAD PUSH32 0x118CDAA700000000000000000000000000000000000000000000000000000000 DUP2 MSTORE PUSH1 0x4 ADD PUSH2 0x16A3 SWAP2 SWAP1 PUSH2 0x1BA6 JUMP JUMPDEST PUSH1 0x40 MLOAD DUP1 SWAP2 SUB SWAP1 REVERT JUMPDEST JUMP JUMPDEST DUP1 PUSH1 0xF DUP2 SWAP1 SSTORE POP PUSH32 0xC306AF072396B02BF3A9782C10065CC7FF4AA842934A43F0B76F997B291237C8 DUP2 PUSH1 0x40 MLOAD PUSH2 0x16E4 SWAP2 SWAP1 PUSH2 0x18BA JUMP JUMPDEST PUSH1 0x40 MLOAD DUP1 SWAP2 SUB SWAP1 LOG1 POP JUMP JUMPDEST PUSH1 0x2 PUSH1 0x1 SLOAD SUB PUSH2 0x1734 JUMPI PUSH1 0x40 MLOAD PUSH32 0x8C379A000000000000000000000000000000000000000000000000000000000 DUP2 MSTORE PUSH1 0x4 ADD PUSH2 0x172B SWAP1 PUSH2 0x276D JUMP JUMPDEST PUSH1 0x40 MLOAD DUP1 SWAP2 SUB SWAP1 REVERT JUMPDEST PUSH1 0x2 PUSH1 0x1 DUP2 SWAP1 SSTORE POP JUMP JUMPDEST PUSH1 0x1 DUP1 DUP2 SWAP1 SSTORE POP JUMP JUMPDEST PUSH0 DUP1 PUSH0 SWAP1 SLOAD SWAP1 PUSH2 0x100 EXP SWAP1 DIV PUSH20 0xFFFFFFFFFFFFFFFFFFFFFFFFFFFFFFFFFFFFFFFF AND SWAP1 POP DUP2 PUSH0 DUP1 PUSH2 0x100 EXP DUP2 SLOAD DUP2 PUSH20 0xFFFFFFFFFFFFFFFFFFFFFFFFFFFFFFFFFFFFFFFF MUL NOT AND SWAP1 DUP4 PUSH20 0xFFFFFFFFFFFFFFFFFFFFFFFFFFFFFFFFFFFFFFFF AND MUL OR SWAP1 SSTORE POP DUP2 PUSH20 0xFFFFFFFFFFFFFFFFFFFFFFFFFFFFFFFFFFFFFFFF AND DUP2 PUSH20 0xFFFFFFFFFFFFFFFFFFFFFFFFFFFFFFFFFFFFFFFF AND PUSH32 0x8BE0079C531659141344CD1FD0A4F28419497F9722A3DAAFE3B4186F6B6457E0 PUSH1 0x40 MLOAD PUSH1 0x40 MLOAD DUP1 SWAP2 SUB SWAP1 LOG3 POP POP JUMP JUMPDEST PUSH0 CALLER SWAP1 POP SWAP1 JUMP JUMPDEST PUSH0 PUSH20 0xFFFFFFFFFFFFFFFFFFFFFFFFFFFFFFFFFFFFFFFF DUP3 AND SWAP1 POP SWAP2 SWAP1 POP JUMP JUMPDEST PUSH0 DUP2 SWAP1 POP SWAP2 SWAP1 POP JUMP JUMPDEST PUSH0 PUSH2 0x1851 PUSH2 0x184C PUSH2 0x1847 DUP5 PUSH2 0x180F JUMP JUMPDEST PUSH2 0x182E JUMP JUMPDEST PUSH2 0x180F JUMP JUMPDEST SWAP1 POP SWAP2 SWAP1 POP JUMP JUMPDEST PUSH0 PUSH2 0x1862 DUP3 PUSH2 0x1837 JUMP JUMPDEST SWAP1 POP SWAP2 SWAP1 POP JUMP JUMPDEST PUSH0 PUSH2 0x1873 DUP3 PUSH2 0x1858 JUMP JUMPDEST SWAP1 POP SWAP2 SWAP1 POP JUMP JUMPDEST PUSH2 0x1883 DUP2 PUSH2 0x1869 JUMP JUMPDEST DUP3 MSTORE POP POP JUMP JUMPDEST PUSH0 PUSH1 0x20 DUP3 ADD SWAP1 POP PUSH2 0x189C PUSH0 DUP4 ADD DUP5 PUSH2 0x187A JUMP JUMPDEST SWAP3 SWAP2 POP POP JUMP JUMPDEST PUSH0 DUP2 SWAP1 POP SWAP2 SWAP1 POP JUMP JUMPDEST PUSH2 0x18B4 DUP2 PUSH2 0x18A2 JUMP JUMPDEST DUP3 MSTORE POP POP JUMP JUMPDEST PUSH0 PUSH1 0x20 DUP3 ADD SWAP1 POP PUSH2 0x18CD PUSH0 DUP4 ADD DUP5 PUSH2 0x18AB JUMP JUMPDEST SWAP3 SWAP2 POP POP JUMP JUMPDEST PUSH0 PUSH1 0x40 MLOAD SWAP1 POP SWAP1 JUMP JUMPDEST PUSH0 DUP1 REVERT JUMPDEST PUSH0 DUP1 REVERT JUMPDEST PUSH2 0x18ED DUP2 PUSH2 0x18A2 JUMP JUMPDEST DUP2 EQ PUSH2 0x18F7 JUMPI PUSH0 DUP1 REVERT JUMPDEST POP JUMP JUMPDEST PUSH0 DUP2 CALLDATALOAD SWAP1 POP PUSH2 0x1908 DUP2 PUSH2 0x18E4 JUMP JUMPDEST SWAP3 SWAP2 POP POP JUMP JUMPDEST PUSH0 PUSH1 0x20 DUP3 DUP5 SUB SLT ISZERO PUSH2 0x1923 JUMPI PUSH2 0x1922 PUSH2 0x18DC JUMP JUMPDEST JUMPDEST PUSH0 PUSH2 0x1930 DUP5 DUP3 DUP6 ADD PUSH2 0x18FA JUMP JUMPDEST SWAP2 POP POP SWAP3 SWAP2 POP POP JUMP JUMPDEST PUSH0 PUSH2 0x1943 DUP3 PUSH2 0x1858 JUMP JUMPDEST SWAP1 POP SWAP2 SWAP1 POP JUMP JUMPDEST PUSH2 0x1953 DUP2 PUSH2 0x1939 JUMP JUMPDEST DUP3 MSTORE POP POP JUMP JUMPDEST PUSH0 PUSH1 0x20 DUP3 ADD SWAP1 POP PUSH2 0x196C PUSH0 DUP4 ADD DUP5 PUSH2 0x194A JUMP JUMPDEST SWAP3 SWAP2 POP POP JUMP JUMPDEST PUSH0 DUP1 REVERT JUMPDEST PUSH0 DUP1 REVERT JUMPDEST PUSH0 DUP1 REVERT JUMPDEST PUSH0 DUP1 DUP4 PUSH1 0x1F DUP5 ADD SLT PUSH2 0x1993 JUMPI PUSH2 0x1992 PUSH2 0x1972 JUMP JUMPDEST JUMPDEST DUP3 CALLDATALOAD SWAP1 POP PUSH8 0xFFFFFFFFFFFFFFFF DUP2 GT ISZERO PUSH2 0x19B0 JUMPI PUSH2 0x19AF PUSH2 0x1976 JUMP JUMPDEST JUMPDEST PUSH1 0x20 DUP4 ADD SWAP2 POP DUP4 PUSH1 0x1 DUP3 MUL DUP4 ADD GT ISZERO PUSH2 0x19CC JUMPI PUSH2 0x19CB PUSH2 0x197A JUMP JUMPDEST JUMPDEST SWAP3 POP SWAP3 SWAP1 POP JUMP JUMPDEST PUSH0 DUP1 PUSH1 0x20 DUP4 DUP6 SUB SLT ISZERO PUSH2 0x19E9 JUMPI PUSH2 0x19E8 PUSH2 0x18DC JUMP JUMPDEST JUMPDEST PUSH0 DUP4 ADD CALLDATALOAD PUSH8 0xFFFFFFFFFFFFFFFF DUP2 GT ISZERO PUSH2 0x1A06 JUMPI PUSH2 0x1A05 PUSH2 0x18E0 JUMP JUMPDEST JUMPDEST PUSH2 0x1A12 DUP6 DUP3 DUP7 ADD PUSH2 0x197E JUMP JUMPDEST SWAP3 POP SWAP3 POP POP SWAP3 POP SWAP3 SWAP1 POP JUMP JUMPDEST PUSH0 DUP2 ISZERO ISZERO SWAP1 POP SWAP2 SWAP1 POP JUMP JUMPDEST PUSH2 0x1A32 DUP2 PUSH2 0x1A1E JUMP JUMPDEST DUP3 MSTORE POP POP JUMP JUMPDEST PUSH0 DUP2 MLOAD SWAP1 POP SWAP2 SWAP1 POP JUMP JUMPDEST PUSH0 DUP3 DUP3 MSTORE PUSH1 0x20 DUP3 ADD SWAP1 POP SWAP3 SWAP2 POP POP JUMP JUMPDEST DUP3 DUP2 DUP4 MCOPY PUSH0 DUP4 DUP4 ADD MSTORE POP POP POP JUMP JUMPDEST PUSH0 PUSH1 0x1F NOT PUSH1 0x1F DUP4 ADD AND SWAP1 POP SWAP2 SWAP1 POP JUMP JUMPDEST PUSH0 PUSH2 0x1A7A DUP3 PUSH2 0x1A38 JUMP JUMPDEST PUSH2 0x1A84 DUP2 DUP6 PUSH2 0x1A42 JUMP JUMPDEST SWAP4 POP PUSH2 0x1A94 DUP2 DUP6 PUSH1 0x20 DUP7 ADD PUSH2 0x1A52 JUMP JUMPDEST PUSH2 0x1A9D DUP2 PUSH2 0x1A60 JUMP JUMPDEST DUP5 ADD SWAP2 POP POP SWAP3 SWAP2 POP POP JUMP JUMPDEST PUSH0 PUSH1 0x40 DUP3 ADD SWAP1 POP PUSH2 0x1ABB PUSH0 DUP4 ADD DUP6 PUSH2 0x1A29 JUMP JUMPDEST DUP2 DUP2 SUB PUSH1 0x20 DUP4 ADD MSTORE PUSH2 0x1ACD DUP2 DUP5 PUSH2 0x1A70 JUMP JUMPDEST SWAP1 POP SWAP4 SWAP3 POP POP POP JUMP JUMPDEST PUSH0 PUSH2 0x1AE0 DUP3 PUSH2 0x1858 JUMP JUMPDEST SWAP1 POP SWAP2 SWAP1 POP JUMP JUMPDEST PUSH2 0x1AF0 DUP2 PUSH2 0x1AD6 JUMP JUMPDEST DUP3 MSTORE POP POP JUMP JUMPDEST PUSH0 PUSH1 0x20 DUP3 ADD SWAP1 POP PUSH2 0x1B09 PUSH0 DUP4 ADD DUP5 PUSH2 0x1AE7 JUMP JUMPDEST SWAP3 SWAP2 POP POP JUMP JUMPDEST PUSH0 PUSH2 0x1B19 DUP3 PUSH2 0x1858 JUMP JUMPDEST SWAP1 POP SWAP2 SWAP1 POP JUMP JUMPDEST PUSH2 0x1B29 DUP2 PUSH2 0x1B0F JUMP JUMPDEST DUP3 MSTORE POP POP JUMP JUMPDEST PUSH0 PUSH1 0x20 DUP3 ADD SWAP1 POP PUSH2 0x1B42 PUSH0 DUP4 ADD DUP5 PUSH2 0x1B20 JUMP JUMPDEST SWAP3 SWAP2 POP POP JUMP JUMPDEST PUSH0 DUP1 PUSH1 0x40 DUP4 DUP6 SUB SLT ISZERO PUSH2 0x1B5E JUMPI PUSH2 0x1B5D PUSH2 0x18DC JUMP JUMPDEST JUMPDEST PUSH0 PUSH2 0x1B6B DUP6 DUP3 DUP7 ADD PUSH2 0x18FA JUMP JUMPDEST SWAP3 POP POP PUSH1 0x20 PUSH2 0x1B7C DUP6 DUP3 DUP7 ADD PUSH2 0x18FA JUMP JUMPDEST SWAP2 POP POP SWAP3 POP SWAP3 SWAP1 POP JUMP JUMPDEST PUSH0 PUSH2 0x1B90 DUP3 PUSH2 0x180F JUMP JUMPDEST SWAP1 POP SWAP2 SWAP1 POP JUMP JUMPDEST PUSH2 0x1BA0 DUP2 PUSH2 0x1B86 JUMP JUMPDEST DUP3 MSTORE POP POP JUMP JUMPDEST PUSH0 PUSH1 0x20 DUP3 ADD SWAP1 POP PUSH2 0x1BB9 PUSH0 DUP4 ADD DUP5 PUSH2 0x1B97 JUMP JUMPDEST SWAP3 SWAP2 POP POP JUMP JUMPDEST PUSH0 DUP1 DUP4 PUSH1 0x1F DUP5 ADD SLT PUSH2 0x1BD4 JUMPI PUSH2 0x1BD3 PUSH2 0x1972 JUMP JUMPDEST JUMPDEST DUP3 CALLDATALOAD SWAP1 POP PUSH8 0xFFFFFFFFFFFFFFFF DUP2 GT ISZERO PUSH2 0x1BF1 JUMPI PUSH2 0x1BF0 PUSH2 0x1976 JUMP JUMPDEST JUMPDEST PUSH1 0x20 DUP4 ADD SWAP2 POP DUP4 PUSH1 0x20 DUP3 MUL DUP4 ADD GT ISZERO PUSH2 0x1C0D JUMPI PUSH2 0x1C0C PUSH2 0x197A JUMP JUMPDEST JUMPDEST SWAP3 POP SWAP3 SWAP1 POP JUMP JUMPDEST PUSH0 DUP1 PUSH0 PUSH1 0x40 DUP5 DUP7 SUB SLT ISZERO PUSH2 0x1C2B JUMPI PUSH2 0x1C2A PUSH2 0x18DC JUMP JUMPDEST JUMPDEST PUSH0 PUSH2 0x1C38 DUP7 DUP3 DUP8 ADD PUSH2 0x18FA JUMP JUMPDEST SWAP4 POP POP PUSH1 0x20 DUP5 ADD CALLDATALOAD PUSH8 0xFFFFFFFFFFFFFFFF DUP2 GT ISZERO PUSH2 0x1C59 JUMPI PUSH2 0x1C58 PUSH2 0x18E0 JUMP JUMPDEST JUMPDEST PUSH2 0x1C65 DUP7 DUP3 DUP8 ADD PUSH2 0x1BBF JUMP JUMPDEST SWAP3 POP SWAP3 POP POP SWAP3 POP SWAP3 POP SWAP3 JUMP JUMPDEST PUSH2 0x1C7A DUP2 PUSH2 0x1B86 JUMP JUMPDEST DUP2 EQ PUSH2 0x1C84 JUMPI PUSH0 DUP1 REVERT JUMPDEST POP JUMP JUMPDEST PUSH0 DUP2 CALLDATALOAD SWAP1 POP PUSH2 0x1C95 DUP2 PUSH2 0x1C71 JUMP JUMPDEST SWAP3 SWAP2 POP POP JUMP JUMPDEST PUSH0 PUSH1 0x20 DUP3 DUP5 SUB SLT ISZERO PUSH2 0x1CB0 JUMPI PUSH2 0x1CAF PUSH2 0x18DC JUMP JUMPDEST JUMPDEST PUSH0 PUSH2 0x1CBD DUP5 DUP3 DUP6 ADD PUSH2 0x1C87 JUMP JUMPDEST SWAP2 POP POP SWAP3 SWAP2 POP POP JUMP JUMPDEST PUSH0 PUSH2 0x1CD0 DUP3 PUSH2 0x1858 JUMP JUMPDEST SWAP1 POP SWAP2 SWAP1 POP JUMP JUMPDEST PUSH2 0x1CE0 DUP2 PUSH2 0x1CC6 JUMP JUMPDEST DUP3 MSTORE POP POP JUMP JUMPDEST PUSH0 PUSH1 0x20 DUP3 ADD SWAP1 POP PUSH2 0x1CF9 PUSH0 DUP4 ADD DUP5 PUSH2 0x1CD7 JUMP JUMPDEST SWAP3 SWAP2 POP POP JUMP JUMPDEST PUSH0 PUSH10 0xFFFFFFFFFFFFFFFFFFFF DUP3 AND SWAP1 POP SWAP2 SWAP1 POP JUMP JUMPDEST PUSH2 0x1D1D DUP2 PUSH2 0x1CFF JUMP JUMPDEST DUP2 EQ PUSH2 0x1D27 JUMPI PUSH0 DUP1 REVERT JUMPDEST POP JUMP JUMPDEST PUSH0 DUP2 MLOAD SWAP1 POP PUSH2 0x1D38 DUP2 PUSH2 0x1D14 JUMP JUMPDEST SWAP3 SWAP2 POP POP JUMP JUMPDEST PUSH0 DUP2 SWAP1 POP SWAP2 SWAP1 POP JUMP JUMPDEST PUSH2 0x1D50 DUP2 PUSH2 0x1D3E JUMP JUMPDEST DUP2 EQ PUSH2 0x1D5A JUMPI PUSH0 DUP1 REVERT JUMPDEST POP JUMP JUMPDEST PUSH0 DUP2 MLOAD SWAP1 POP PUSH2 0x1D6B DUP2 PUSH2 0x1D47 JUMP JUMPDEST SWAP3 SWAP2 POP POP JUMP JUMPDEST PUSH0 DUP2 MLOAD SWAP1 POP PUSH2 0x1D7F DUP2 PUSH2 0x18E4 JUMP JUMPDEST SWAP3 SWAP2 POP POP JUMP JUMPDEST PUSH0 DUP1 PUSH0 DUP1 PUSH0 PUSH1 0xA0 DUP7 DUP9 SUB SLT ISZERO PUSH2 0x1D9E JUMPI PUSH2 0x1D9D PUSH2 0x18DC JUMP JUMPDEST JUMPDEST PUSH0 PUSH2 0x1DAB DUP9 DUP3 DUP10 ADD PUSH2 0x1D2A JUMP JUMPDEST SWAP6 POP POP PUSH1 0x20 PUSH2 0x1DBC DUP9 DUP3 DUP10 ADD PUSH2 0x1D5D JUMP JUMPDEST SWAP5 POP POP PUSH1 0x40 PUSH2 0x1DCD DUP9 DUP3 DUP10 ADD PUSH2 0x1D71 JUMP JUMPDEST SWAP4 POP POP PUSH1 0x60 PUSH2 0x1DDE DUP9 DUP3 DUP10 ADD PUSH2 0x1D71 JUMP JUMPDEST SWAP3 POP POP PUSH1 0x80 PUSH2 0x1DEF DUP9 DUP3 DUP10 ADD PUSH2 0x1D2A JUMP JUMPDEST SWAP2 POP POP SWAP3 SWAP6 POP SWAP3 SWAP6 SWAP1 SWAP4 POP JUMP JUMPDEST PUSH32 0x4E487B7100000000000000000000000000000000000000000000000000000000 PUSH0 MSTORE PUSH1 0x11 PUSH1 0x4 MSTORE PUSH1 0x24 PUSH0 REVERT JUMPDEST PUSH0 PUSH2 0x1E33 DUP3 PUSH2 0x18A2 JUMP JUMPDEST SWAP2 POP PUSH2 0x1E3E DUP4 PUSH2 0x18A2 JUMP JUMPDEST SWAP3 POP DUP3 DUP3 SUB SWAP1 POP DUP2 DUP2 GT ISZERO PUSH2 0x1E56 JUMPI PUSH2 0x1E55 PUSH2 0x1DFC JUMP JUMPDEST JUMPDEST SWAP3 SWAP2 POP POP JUMP JUMPDEST PUSH0 PUSH2 0x1E66 DUP3 PUSH2 0x18A2 JUMP JUMPDEST SWAP2 POP PUSH2 0x1E71 DUP4 PUSH2 0x18A2 JUMP JUMPDEST SWAP3 POP DUP3 DUP3 MUL PUSH2 0x1E7F DUP2 PUSH2 0x18A2 JUMP JUMPDEST SWAP2 POP DUP3 DUP3 DIV DUP5 EQ DUP4 ISZERO OR PUSH2 0x1E96 JUMPI PUSH2 0x1E95 PUSH2 0x1DFC JUMP JUMPDEST JUMPDEST POP SWAP3 SWAP2 POP POP JUMP JUMPDEST PUSH32 0x4E487B7100000000000000000000000000000000000000000000000000000000 PUSH0 MSTORE PUSH1 0x12 PUSH1 0x4 MSTORE PUSH1 0x24 PUSH0 REVERT JUMPDEST PUSH0 PUSH2 0x1ED4 DUP3 PUSH2 0x18A2 JUMP JUMPDEST SWAP2 POP PUSH2 0x1EDF DUP4 PUSH2 0x18A2 JUMP JUMPDEST SWAP3 POP DUP3 PUSH2 0x1EEF JUMPI PUSH2 0x1EEE PUSH2 0x1E9D JUMP JUMPDEST JUMPDEST DUP3 DUP3 DIV SWAP1 POP SWAP3 SWAP2 POP POP JUMP JUMPDEST PUSH0 DUP3 DUP3 MSTORE PUSH1 0x20 DUP3 ADD SWAP1 POP SWAP3 SWAP2 POP POP JUMP JUMPDEST PUSH32 0x416D6F756E7473206D7573742062652067726561746572207468616E207A6572 PUSH0 DUP3 ADD MSTORE PUSH32 0x6F2E000000000000000000000000000000000000000000000000000000000000 PUSH1 0x20 DUP3 ADD MSTORE POP JUMP JUMPDEST PUSH0 PUSH2 0x1F64 PUSH1 0x22 DUP4 PUSH2 0x1EFA JUMP JUMPDEST SWAP2 POP PUSH2 0x1F6F DUP3 PUSH2 0x1F0A JUMP JUMPDEST PUSH1 0x40 DUP3 ADD SWAP1 POP SWAP2 SWAP1 POP JUMP JUMPDEST PUSH0 PUSH1 0x20 DUP3 ADD SWAP1 POP DUP2 DUP2 SUB PUSH0 DUP4 ADD MSTORE PUSH2 0x1F91 DUP2 PUSH2 0x1F58 JUMP JUMPDEST SWAP1 POP SWAP2 SWAP1 POP JUMP JUMPDEST PUSH32 0x45786365656473206D6178206F726465722073697A652E000000000000000000 PUSH0 DUP3 ADD MSTORE POP JUMP JUMPDEST PUSH0 PUSH2 0x1FCC PUSH1 0x17 DUP4 PUSH2 0x1EFA JUMP JUMPDEST SWAP2 POP PUSH2 0x1FD7 DUP3 PUSH2 0x1F98 JUMP JUMPDEST PUSH1 0x20 DUP3 ADD SWAP1 POP SWAP2 SWAP1 POP JUMP JUMPDEST PUSH0 PUSH1 0x20 DUP3 ADD SWAP1 POP DUP2 DUP2 SUB PUSH0 DUP4 ADD MSTORE PUSH2 0x1FF9 DUP2 PUSH2 0x1FC0 JUMP JUMPDEST SWAP1 POP SWAP2 SWAP1 POP JUMP JUMPDEST PUSH0 PUSH1 0x40 DUP3 ADD SWAP1 POP PUSH2 0x2013 PUSH0 DUP4 ADD DUP6 PUSH2 0x1B97 JUMP JUMPDEST PUSH2 0x2020 PUSH1 0x20 DUP4 ADD DUP5 PUSH2 0x18AB JUMP JUMPDEST SWAP4 SWAP3 POP POP POP JUMP JUMPDEST PUSH2 0x2030 DUP2 PUSH2 0x1A1E JUMP JUMPDEST DUP2 EQ PUSH2 0x203A JUMPI PUSH0 DUP1 REVERT JUMPDEST POP JUMP JUMPDEST PUSH0 DUP2 MLOAD SWAP1 POP PUSH2 0x204B DUP2 PUSH2 0x2027 JUMP JUMPDEST SWAP3 SWAP2 POP POP JUMP JUMPDEST PUSH0 PUSH1 0x20 DUP3 DUP5 SUB SLT ISZERO PUSH2 0x2066 JUMPI PUSH2 0x2065 PUSH2 0x18DC JUMP JUMPDEST JUMPDEST PUSH0 PUSH2 0x2073 DUP5 DUP3 DUP6 ADD PUSH2 0x203D JUMP JUMPDEST SWAP2 POP POP SWAP3 SWAP2 POP POP JUMP JUMPDEST PUSH0 DUP2 SWAP1 POP SWAP2 SWAP1 POP JUMP JUMPDEST PUSH0 PUSH2 0x209F PUSH2 0x209A PUSH2 0x2095 DUP5 PUSH2 0x207C JUMP JUMPDEST PUSH2 0x182E JUMP JUMPDEST PUSH2 0x18A2 JUMP JUMPDEST SWAP1 POP SWAP2 SWAP1 POP JUMP JUMPDEST PUSH2 0x20AF DUP2 PUSH2 0x2085 JUMP JUMPDEST DUP3 MSTORE POP POP JUMP JUMPDEST PUSH0 PUSH2 0x100 DUP3 ADD SWAP1 POP PUSH2 0x20C9 PUSH0 DUP4 ADD DUP12 PUSH2 0x1B97 JUMP JUMPDEST PUSH2 0x20D6 PUSH1 0x20 DUP4 ADD DUP11 PUSH2 0x1B97 JUMP JUMPDEST PUSH2 0x20E3 PUSH1 0x40 DUP4 ADD DUP10 PUSH2 0x18AB JUMP JUMPDEST PUSH2 0x20F0 PUSH1 0x60 DUP4 ADD DUP9 PUSH2 0x18AB JUMP JUMPDEST PUSH2 0x20FD PUSH1 0x80 DUP4 ADD DUP8 PUSH2 0x20A6 JUMP JUMPDEST PUSH2 0x210A PUSH1 0xA0 DUP4 ADD DUP7 PUSH2 0x20A6 JUMP JUMPDEST PUSH2 0x2117 PUSH1 0xC0 DUP4 ADD DUP6 PUSH2 0x1B97 JUMP JUMPDEST PUSH2 0x2124 PUSH1 0xE0 DUP4 ADD DUP5 PUSH2 0x18AB JUMP JUMPDEST SWAP10 SWAP9 POP POP POP POP POP POP POP POP POP JUMP JUMPDEST PUSH0 DUP1 PUSH0 PUSH1 0x60 DUP5 DUP7 SUB SLT ISZERO PUSH2 0x2148 JUMPI PUSH2 0x2147 PUSH2 0x18DC JUMP JUMPDEST JUMPDEST PUSH0 PUSH2 0x2155 DUP7 DUP3 DUP8 ADD PUSH2 0x1D71 JUMP JUMPDEST SWAP4 POP POP PUSH1 0x20 PUSH2 0x2166 DUP7 DUP3 DUP8 ADD PUSH2 0x1D71 JUMP JUMPDEST SWAP3 POP POP PUSH1 0x40 PUSH2 0x2177 DUP7 DUP3 DUP8 ADD PUSH2 0x1D71 JUMP JUMPDEST SWAP2 POP POP SWAP3 POP SWAP3 POP SWAP3 JUMP JUMPDEST PUSH0 PUSH1 0x40 DUP3 ADD SWAP1 POP PUSH2 0x2194 PUSH0 DUP4 ADD DUP6 PUSH2 0x18AB JUMP JUMPDEST PUSH2 0x21A1 PUSH1 0x20 DUP4 ADD DUP5 PUSH2 0x18AB JUMP JUMPDEST SWAP4 SWAP3 POP POP POP JUMP JUMPDEST PUSH32 0x4C6971756964697479206D7573742062652067726561746572207468616E207A PUSH0 DUP3 ADD MSTORE PUSH32 0x65726F2E00000000000000000000000000000000000000000000000000000000 PUSH1 0x20 DUP3 ADD MSTORE POP JUMP JUMPDEST PUSH0 PUSH2 0x2202 PUSH1 0x24 DUP4 PUSH2 0x1EFA JUMP JUMPDEST SWAP2 POP PUSH2 0x220D DUP3 PUSH2 0x21A8 JUMP JUMPDEST PUSH1 0x40 DUP3 ADD SWAP1 POP SWAP2 SWAP1 POP JUMP JUMPDEST PUSH0 PUSH1 0x20 DUP3 ADD SWAP1 POP DUP2 DUP2 SUB PUSH0 DUP4 ADD MSTORE PUSH2 0x222F DUP2 PUSH2 0x21F6 JUMP JUMPDEST SWAP1 POP SWAP2 SWAP1 POP JUMP JUMPDEST PUSH0 PUSH1 0xE0 DUP3 ADD SWAP1 POP PUSH2 0x2249 PUSH0 DUP4 ADD DUP11 PUSH2 0x1B97 JUMP JUMPDEST PUSH2 0x2256 PUSH1 0x20 DUP4 ADD DUP10 PUSH2 0x1B97 JUMP JUMPDEST PUSH2 0x2263 PUSH1 0x40 DUP4 ADD DUP9 PUSH2 0x18AB JUMP JUMPDEST PUSH2 0x2270 PUSH1 0x60 DUP4 ADD DUP8 PUSH2 0x20A6 JUMP JUMPDEST PUSH2 0x227D PUSH1 0x80 DUP4 ADD DUP7 PUSH2 0x20A6 JUMP JUMPDEST PUSH2 0x228A PUSH1 0xA0 DUP4 ADD DUP6 PUSH2 0x1B97 JUMP JUMPDEST PUSH2 0x2297 PUSH1 0xC0 DUP4 ADD DUP5 PUSH2 0x18AB JUMP JUMPDEST SWAP9 SWAP8 POP POP POP POP POP POP POP POP JUMP JUMPDEST PUSH0 DUP1 PUSH1 0x40 DUP4 DUP6 SUB SLT ISZERO PUSH2 0x22B9 JUMPI PUSH2 0x22B8 PUSH2 0x18DC JUMP JUMPDEST JUMPDEST PUSH0 PUSH2 0x22C6 DUP6 DUP3 DUP7 ADD PUSH2 0x1D71 JUMP JUMPDEST SWAP3 POP POP PUSH1 0x20 PUSH2 0x22D7 DUP6 DUP3 DUP7 ADD PUSH2 0x1D71 JUMP JUMPDEST SWAP2 POP POP SWAP3 POP SWAP3 SWAP1 POP JUMP JUMPDEST PUSH32 0x416D6F756E74206D7573742062652067726561746572207468616E207A65726F PUSH0 DUP3 ADD MSTORE PUSH32 0x2E00000000000000000000000000000000000000000000000000000000000000 PUSH1 0x20 DUP3 ADD MSTORE POP JUMP JUMPDEST PUSH0 PUSH2 0x233B PUSH1 0x21 DUP4 PUSH2 0x1EFA JUMP JUMPDEST SWAP2 POP PUSH2 0x2346 DUP3 PUSH2 0x22E1 JUMP JUMPDEST PUSH1 0x40 DUP3 ADD SWAP1 POP SWAP2 SWAP1 POP JUMP JUMPDEST PUSH0 PUSH1 0x20 DUP3 ADD SWAP1 POP DUP2 DUP2 SUB PUSH0 DUP4 ADD MSTORE PUSH2 0x2368 DUP2 PUSH2 0x232F JUMP JUMPDEST SWAP1 POP SWAP2 SWAP1 POP JUMP JUMPDEST PUSH32 0x496E76616C6964207377617020706174682E0000000000000000000000000000 PUSH0 DUP3 ADD MSTORE POP JUMP JUMPDEST PUSH0 PUSH2 0x23A3 PUSH1 0x12 DUP4 PUSH2 0x1EFA JUMP JUMPDEST SWAP2 POP PUSH2 0x23AE DUP3 PUSH2 0x236F JUMP JUMPDEST PUSH1 0x20 DUP3 ADD SWAP1 POP SWAP2 SWAP1 POP JUMP JUMPDEST PUSH0 PUSH1 0x20 DUP3 ADD SWAP1 POP DUP2 DUP2 SUB PUSH0 DUP4 ADD MSTORE PUSH2 0x23D0 DUP2 PUSH2 0x2397 JUMP JUMPDEST SWAP1 POP SWAP2 SWAP1 POP JUMP JUMPDEST PUSH0 DUP3 DUP3 MSTORE PUSH1 0x20 DUP3 ADD SWAP1 POP SWAP3 SWAP2 POP POP JUMP JUMPDEST PUSH0 DUP2 SWAP1 POP SWAP2 SWAP1 POP JUMP JUMPDEST PUSH2 0x23F9 DUP2 PUSH2 0x1B86 JUMP JUMPDEST DUP3 MSTORE POP POP JUMP JUMPDEST PUSH0 PUSH2 0x240A DUP4 DUP4 PUSH2 0x23F0 JUMP JUMPDEST PUSH1 0x20 DUP4 ADD SWAP1 POP SWAP3 SWAP2 POP POP JUMP JUMPDEST PUSH0 PUSH2 0x2424 PUSH1 0x20 DUP5 ADD DUP5 PUSH2 0x1C87 JUMP JUMPDEST SWAP1 POP SWAP3 SWAP2 POP POP JUMP JUMPDEST PUSH0 PUSH1 0x20 DUP3 ADD SWAP1 POP SWAP2 SWAP1 POP JUMP JUMPDEST PUSH0 PUSH2 0x2443 DUP4 DUP6 PUSH2 0x23D7 JUMP JUMPDEST SWAP4 POP PUSH2 0x244E DUP3 PUSH2 0x23E7 JUMP JUMPDEST DUP1 PUSH0 JUMPDEST DUP6 DUP2 LT ISZERO PUSH2 0x2486 JUMPI PUSH2 0x2463 DUP3 DUP5 PUSH2 0x2416 JUMP JUMPDEST PUSH2 0x246D DUP9 DUP3 PUSH2 0x23FF JUMP JUMPDEST SWAP8 POP PUSH2 0x2478 DUP4 PUSH2 0x242C JUMP JUMPDEST SWAP3 POP POP PUSH1 0x1 DUP2 ADD SWAP1 POP PUSH2 0x2451 JUMP JUMPDEST POP DUP6 SWAP3 POP POP POP SWAP4 SWAP3 POP POP POP JUMP JUMPDEST PUSH0 PUSH1 0x40 DUP3 ADD SWAP1 POP PUSH2 0x24A6 PUSH0 DUP4 ADD DUP7 PUSH2 0x18AB JUMP JUMPDEST DUP2 DUP2 SUB PUSH1 0x20 DUP4 ADD MSTORE PUSH2 0x24B9 DUP2 DUP5 DUP7 PUSH2 0x2438 JUMP JUMPDEST SWAP1 POP SWAP5 SWAP4 POP POP POP POP JUMP JUMPDEST PUSH32 0x4E487B7100000000000000000000000000000000000000000000000000000000 PUSH0 MSTORE PUSH1 0x41 PUSH1 0x4 MSTORE PUSH1 0x24 PUSH0 REVERT JUMPDEST PUSH2 0x24F9 DUP3 PUSH2 0x1A60 JUMP JUMPDEST DUP2 ADD DUP2 DUP2 LT PUSH8 0xFFFFFFFFFFFFFFFF DUP3 GT OR ISZERO PUSH2 0x2518 JUMPI PUSH2 0x2517 PUSH2 0x24C3 JUMP JUMPDEST JUMPDEST DUP1 PUSH1 0x40 MSTORE POP POP POP JUMP JUMPDEST PUSH0 PUSH2 0x252A PUSH2 0x18D3 JUMP JUMPDEST SWAP1 POP PUSH2 0x2536 DUP3 DUP3 PUSH2 0x24F0 JUMP JUMPDEST SWAP2 SWAP1 POP JUMP JUMPDEST PUSH0 PUSH8 0xFFFFFFFFFFFFFFFF DUP3 GT ISZERO PUSH2 0x2555 JUMPI PUSH2 0x2554 PUSH2 0x24C3 JUMP JUMPDEST JUMPDEST PUSH1 0x20 DUP3 MUL SWAP1 POP PUSH1 0x20 DUP2 ADD SWAP1 POP SWAP2 SWAP1 POP JUMP JUMPDEST PUSH0 PUSH2 0x2578 PUSH2 0x2573 DUP5 PUSH2 0x253B JUMP JUMPDEST PUSH2 0x2521 JUMP JUMPDEST SWAP1 POP DUP1 DUP4 DUP3 MSTORE PUSH1 0x20 DUP3 ADD SWAP1 POP PUSH1 0x20 DUP5 MUL DUP4 ADD DUP6 DUP2 GT ISZERO PUSH2 0x259B JUMPI PUSH2 0x259A PUSH2 0x197A JUMP JUMPDEST JUMPDEST DUP4 JUMPDEST DUP2 DUP2 LT ISZERO PUSH2 0x25C4 JUMPI DUP1 PUSH2 0x25B0 DUP9 DUP3 PUSH2 0x1D71 JUMP JUMPDEST DUP5 MSTORE PUSH1 0x20 DUP5 ADD SWAP4 POP POP PUSH1 0x20 DUP2 ADD SWAP1 POP PUSH2 0x259D JUMP JUMPDEST POP POP POP SWAP4 SWAP3 POP POP POP JUMP JUMPDEST PUSH0 DUP3 PUSH1 0x1F DUP4 ADD SLT PUSH2 0x25E2 JUMPI PUSH2 0x25E1 PUSH2 0x1972 JUMP JUMPDEST JUMPDEST DUP2 MLOAD PUSH2 0x25F2 DUP5 DUP3 PUSH1 0x20 DUP7 ADD PUSH2 0x2566 JUMP JUMPDEST SWAP2 POP POP SWAP3 SWAP2 POP POP JUMP JUMPDEST PUSH0 PUSH1 0x20 DUP3 DUP5 SUB SLT ISZERO PUSH2 0x2610 JUMPI PUSH2 0x260F PUSH2 0x18DC JUMP JUMPDEST JUMPDEST PUSH0 DUP3 ADD MLOAD PUSH8 0xFFFFFFFFFFFFFFFF DUP2 GT ISZERO PUSH2 0x262D JUMPI PUSH2 0x262C PUSH2 0x18E0 JUMP JUMPDEST JUMPDEST PUSH2 0x2639 DUP5 DUP3 DUP6 ADD PUSH2 0x25CE JUMP JUMPDEST SWAP2 POP POP SWAP3 SWAP2 POP POP JUMP JUMPDEST PUSH0 PUSH1 0xA0 DUP3 ADD SWAP1 POP PUSH2 0x2655 PUSH0 DUP4 ADD DUP10 PUSH2 0x18AB JUMP JUMPDEST PUSH2 0x2662 PUSH1 0x20 DUP4 ADD DUP9 PUSH2 0x20A6 JUMP JUMPDEST DUP2 DUP2 SUB PUSH1 0x40 DUP4 ADD MSTORE PUSH2 0x2675 DUP2 DUP7 DUP9 PUSH2 0x2438 JUMP JUMPDEST SWAP1 POP PUSH2 0x2684 PUSH1 0x60 DUP4 ADD DUP6 PUSH2 0x1B97 JUMP JUMPDEST PUSH2 0x2691 PUSH1 0x80 DUP4 ADD DUP5 PUSH2 0x18AB JUMP JUMPDEST SWAP8 SWAP7 POP POP POP POP POP POP POP JUMP JUMPDEST PUSH32 0x4E487B7100000000000000000000000000000000000000000000000000000000 PUSH0 MSTORE PUSH1 0x32 PUSH1 0x4 MSTORE PUSH1 0x24 PUSH0 REVERT JUMPDEST PUSH0 PUSH1 0xA0 DUP3 ADD SWAP1 POP PUSH2 0x26DC PUSH0 DUP4 ADD DUP10 PUSH2 0x18AB JUMP JUMPDEST PUSH2 0x26E9 PUSH1 0x20 DUP4 ADD DUP9 PUSH2 0x18AB JUMP JUMPDEST DUP2 DUP2 SUB PUSH1 0x40 DUP4 ADD MSTORE PUSH2 0x26FC DUP2 DUP7 DUP9 PUSH2 0x2438 JUMP JUMPDEST SWAP1 POP PUSH2 0x270B PUSH1 0x60 DUP4 ADD DUP6 PUSH2 0x1B97 JUMP JUMPDEST PUSH2 0x2718 PUSH1 0x80 DUP4 ADD DUP5 PUSH2 0x18AB JUMP JUMPDEST SWAP8 SWAP7 POP POP POP POP POP POP POP JUMP JUMPDEST PUSH32 0x5265656E7472616E637947756172643A207265656E7472616E742063616C6C00 PUSH0 DUP3 ADD MSTORE POP JUMP JUMPDEST PUSH0 PUSH2 0x2757 PUSH1 0x1F DUP4 PUSH2 0x1EFA JUMP JUMPDEST SWAP2 POP PUSH2 0x2762 DUP3 PUSH2 0x2723 JUMP JUMPDEST PUSH1 0x20 DUP3 ADD SWAP1 POP SWAP2 SWAP1 POP JUMP JUMPDEST PUSH0 PUSH1 0x20 DUP3 ADD SWAP1 POP DUP2 DUP2 SUB PUSH0 DUP4 ADD MSTORE PUSH2 0x2784 DUP2 PUSH2 0x274B JUMP JUMPDEST SWAP1 POP SWAP2 SWAP1 POP JUMP INVALID LOG2 PUSH5 0x6970667358 0x22 SLT KECCAK256 PUSH21 0x3317D7EDC4E6073B8008587BB84E0D0EA898208377 0xD4 0xEA 0x24 DUP6 PUSH30 0xABF4A09BB864736F6C634300081A00330000000000000000000000000000 "
		},
		"gasEstimates": {
			"creation": {
				"codeDepositCost": "2035400",
				"executionCost": "infinite",
				"totalCost": "infinite"
			},
			"external": {
				"checkUpkeep(bytes)": "infinite",
				"executeSwap(uint256,address[])": "infinite",
				"getCurrentMarketPrice()": "infinite",
				"lastRebalance()": "2494",
				"maxOrderSize()": "2469",
				"minProfitThreshold()": "2515",
				"mitigateImpermanentLoss()": "infinite",
				"owner()": "2626",
				"performUpkeep(bytes)": "infinite",
				"priceFeed()": "infinite",
				"provideLiquidity(uint256,uint256)": "infinite",
				"rebalanceThreshold()": "2537",
				"removeLiquidity(uint256)": "infinite",
				"renounceOwnership()": "infinite",
				"stopLossThreshold()": "2493",
				"sushiSwapRouter()": "infinite",
				"tokenA()": "infinite",
				"tokenB()": "infinite",
				"tokenC()": "infinite",
				"transferOwnership(address)": "infinite",
				"triggerStopLoss()": "infinite",
				"uniswapPairAB()": "infinite",
				"uniswapPairAC()": "infinite",
				"uniswapPairBC()": "infinite",
				"uniswapRouter()": "infinite",
				"updateMaxOrderSize(uint256)": "infinite",
				"updateMinProfitThreshold(uint256)": "infinite",
				"updateRebalanceThreshold(uint256)": "infinite",
				"updateStopLossThreshold(uint256)": "infinite"
			},
			"internal": {
				"rebalanceLiquidity(uint256)": "infinite"
			}
		},
		"methodIdentifiers": {
			"checkUpkeep(bytes)": "6e04ff0d",
			"executeSwap(uint256,address[])": "d3ec3eec",
			"getCurrentMarketPrice()": "1ae74cce",
			"lastRebalance()": "106b9ca1",
			"maxOrderSize()": "f1a82c7e",
			"minProfitThreshold()": "7341ab8c",
			"mitigateImpermanentLoss()": "d8fc0816",
			"owner()": "8da5cb5b",
			"performUpkeep(bytes)": "4585e33b",
			"priceFeed()": "741bef1a",
			"provideLiquidity(uint256,uint256)": "7a16af7f",
			"rebalanceThreshold()": "3dfe9f6a",
			"removeLiquidity(uint256)": "9c8f9f23",
			"renounceOwnership()": "715018a6",
			"stopLossThreshold()": "2197634f",
			"sushiSwapRouter()": "fd829a23",
			"tokenA()": "0fc63d10",
			"tokenB()": "5f64b55b",
			"tokenC()": "c483a308",
			"transferOwnership(address)": "f2fde38b",
			"triggerStopLoss()": "47c8e13c",
			"uniswapPairAB()": "28a5e10c",
			"uniswapPairAC()": "fbf6db14",
			"uniswapPairBC()": "5a11cd58",
			"uniswapRouter()": "735de9f7",
			"updateMaxOrderSize(uint256)": "730ab60f",
			"updateMinProfitThreshold(uint256)": "58d0ee58",
			"updateRebalanceThreshold(uint256)": "12ddbc4f",
			"updateStopLossThreshold(uint256)": "3ebc480f"
		}
	},
	"abi": [
		{
			"inputs": [
				{
					"internalType": "address",
					"name": "_tokenA",
					"type": "address"
				},
				{
					"internalType": "address",
					"name": "_tokenB",
					"type": "address"
				},
				{
					"internalType": "address",
					"name": "_tokenC",
					"type": "address"
				},
				{
					"internalType": "address",
					"name": "_uniswapRouter",
					"type": "address"
				},
				{
					"internalType": "address",
					"name": "_sushiSwapRouter",
					"type": "address"
				},
				{
					"internalType": "address",
					"name": "_priceFeed",
					"type": "address"
				},
				{
					"internalType": "uint256",
					"name": "_maxOrderSize",
					"type": "uint256"
				},
				{
					"internalType": "uint256",
					"name": "_minProfitThreshold",
					"type": "uint256"
				},
				{
					"internalType": "uint256",
					"name": "_rebalanceThreshold",
					"type": "uint256"
				},
				{
					"internalType": "uint256",
					"name": "_stopLossThreshold",
					"type": "uint256"
				}
			],
			"stateMutability": "nonpayable",
			"type": "constructor"
		},
		{
			"inputs": [
				{
					"internalType": "address",
					"name": "owner",
					"type": "address"
				}
			],
			"name": "OwnableInvalidOwner",
			"type": "error"
		},
		{
			"inputs": [
				{
					"internalType": "address",
					"name": "account",
					"type": "address"
				}
			],
			"name": "OwnableUnauthorizedAccount",
			"type": "error"
		},
		{
			"anonymous": false,
			"inputs": [
				{
					"indexed": false,
					"internalType": "uint256",
					"name": "liquidityWithdrawn",
					"type": "uint256"
				}
			],
			"name": "ImpermanentLossMitigation",
			"type": "event"
		},
		{
			"anonymous": false,
			"inputs": [
				{
					"indexed": false,
					"internalType": "uint256",
					"name": "amountA",
					"type": "uint256"
				},
				{
					"indexed": false,
					"internalType": "uint256",
					"name": "amountB",
					"type": "uint256"
				}
			],
			"name": "LiquidityAdded",
			"type": "event"
		},
		{
			"anonymous": false,
			"inputs": [
				{
					"indexed": false,
					"internalType": "uint256",
					"name": "amountA",
					"type": "uint256"
				},
				{
					"indexed": false,
					"internalType": "uint256",
					"name": "amountB",
					"type": "uint256"
				}
			],
			"name": "LiquidityRemoved",
			"type": "event"
		},
		{
			"anonymous": false,
			"inputs": [
				{
					"indexed": true,
					"internalType": "address",
					"name": "previousOwner",
					"type": "address"
				},
				{
					"indexed": true,
					"internalType": "address",
					"name": "newOwner",
					"type": "address"
				}
			],
			"name": "OwnershipTransferred",
			"type": "event"
		},
		{
			"anonymous": false,
			"inputs": [
				{
					"indexed": false,
					"internalType": "uint256",
					"name": "newPrice",
					"type": "uint256"
				}
			],
			"name": "Rebalanced",
			"type": "event"
		},
		{
			"anonymous": false,
			"inputs": [
				{
					"indexed": false,
					"internalType": "uint256",
					"name": "liquidityWithdrawn",
					"type": "uint256"
				}
			],
			"name": "StopLossTriggered",
			"type": "event"
		},
		{
			"anonymous": false,
			"inputs": [
				{
					"indexed": true,
					"internalType": "address",
					"name": "tokenIn",
					"type": "address"
				},
				{
					"indexed": true,
					"internalType": "address",
					"name": "tokenOut",
					"type": "address"
				},
				{
					"indexed": false,
					"internalType": "uint256",
					"name": "amountIn",
					"type": "uint256"
				},
				{
					"indexed": false,
					"internalType": "uint256",
					"name": "amountOut",
					"type": "uint256"
				}
			],
			"name": "SwapExecuted",
			"type": "event"
		},
		{
			"inputs": [
				{
					"internalType": "bytes",
					"name": "",
					"type": "bytes"
				}
			],
			"name": "checkUpkeep",
			"outputs": [
				{
					"internalType": "bool",
					"name": "upkeepNeeded",
					"type": "bool"
				},
				{
					"internalType": "bytes",
					"name": "performData",
					"type": "bytes"
				}
			],
			"stateMutability": "view",
			"type": "function"
		},
		{
			"inputs": [
				{
					"internalType": "uint256",
					"name": "amountIn",
					"type": "uint256"
				},
				{
					"internalType": "address[]",
					"name": "path",
					"type": "address[]"
				}
			],
			"name": "executeSwap",
			"outputs": [],
			"stateMutability": "nonpayable",
			"type": "function"
		},
		{
			"inputs": [],
			"name": "getCurrentMarketPrice",
			"outputs": [
				{
					"internalType": "uint256",
					"name": "",
					"type": "uint256"
				}
			],
			"stateMutability": "view",
			"type": "function"
		},
		{
			"inputs": [],
			"name": "lastRebalance",
			"outputs": [
				{
					"internalType": "uint256",
					"name": "",
					"type": "uint256"
				}
			],
			"stateMutability": "view",
			"type": "function"
		},
		{
			"inputs": [],
			"name": "maxOrderSize",
			"outputs": [
				{
					"internalType": "uint256",
					"name": "",
					"type": "uint256"
				}
			],
			"stateMutability": "view",
			"type": "function"
		},
		{
			"inputs": [],
			"name": "minProfitThreshold",
			"outputs": [
				{
					"internalType": "uint256",
					"name": "",
					"type": "uint256"
				}
			],
			"stateMutability": "view",
			"type": "function"
		},
		{
			"inputs": [],
			"name": "mitigateImpermanentLoss",
			"outputs": [],
			"stateMutability": "nonpayable",
			"type": "function"
		},
		{
			"inputs": [],
			"name": "owner",
			"outputs": [
				{
					"internalType": "address",
					"name": "",
					"type": "address"
				}
			],
			"stateMutability": "view",
			"type": "function"
		},
		{
			"inputs": [
				{
					"internalType": "bytes",
					"name": "",
					"type": "bytes"
				}
			],
			"name": "performUpkeep",
			"outputs": [],
			"stateMutability": "nonpayable",
			"type": "function"
		},
		{
			"inputs": [],
			"name": "priceFeed",
			"outputs": [
				{
					"internalType": "contract AggregatorV3Interface",
					"name": "",
					"type": "address"
				}
			],
			"stateMutability": "view",
			"type": "function"
		},
		{
			"inputs": [
				{
					"internalType": "uint256",
					"name": "amountA",
					"type": "uint256"
				},
				{
					"internalType": "uint256",
					"name": "amountB",
					"type": "uint256"
				}
			],
			"name": "provideLiquidity",
			"outputs": [],
			"stateMutability": "nonpayable",
			"type": "function"
		},
		{
			"inputs": [],
			"name": "rebalanceThreshold",
			"outputs": [
				{
					"internalType": "uint256",
					"name": "",
					"type": "uint256"
				}
			],
			"stateMutability": "view",
			"type": "function"
		},
		{
			"inputs": [
				{
					"internalType": "uint256",
					"name": "liquidity",
					"type": "uint256"
				}
			],
			"name": "removeLiquidity",
			"outputs": [],
			"stateMutability": "nonpayable",
			"type": "function"
		},
		{
			"inputs": [],
			"name": "renounceOwnership",
			"outputs": [],
			"stateMutability": "nonpayable",
			"type": "function"
		},
		{
			"inputs": [],
			"name": "stopLossThreshold",
			"outputs": [
				{
					"internalType": "uint256",
					"name": "",
					"type": "uint256"
				}
			],
			"stateMutability": "view",
			"type": "function"
		},
		{
			"inputs": [],
			"name": "sushiSwapRouter",
			"outputs": [
				{
					"internalType": "contract ISushiSwapRouter",
					"name": "",
					"type": "address"
				}
			],
			"stateMutability": "view",
			"type": "function"
		},
		{
			"inputs": [],
			"name": "tokenA",
			"outputs": [
				{
					"internalType": "contract IERC20",
					"name": "",
					"type": "address"
				}
			],
			"stateMutability": "view",
			"type": "function"
		},
		{
			"inputs": [],
			"name": "tokenB",
			"outputs": [
				{
					"internalType": "contract IERC20",
					"name": "",
					"type": "address"
				}
			],
			"stateMutability": "view",
			"type": "function"
		},
		{
			"inputs": [],
			"name": "tokenC",
			"outputs": [
				{
					"internalType": "contract IERC20",
					"name": "",
					"type": "address"
				}
			],
			"stateMutability": "view",
			"type": "function"
		},
		{
			"inputs": [
				{
					"internalType": "address",
					"name": "newOwner",
					"type": "address"
				}
			],
			"name": "transferOwnership",
			"outputs": [],
			"stateMutability": "nonpayable",
			"type": "function"
		},
		{
			"inputs": [],
			"name": "triggerStopLoss",
			"outputs": [],
			"stateMutability": "nonpayable",
			"type": "function"
		},
		{
			"inputs": [],
			"name": "uniswapPairAB",
			"outputs": [
				{
					"internalType": "contract IUniswapV2Pair",
					"name": "",
					"type": "address"
				}
			],
			"stateMutability": "view",
			"type": "function"
		},
		{
			"inputs": [],
			"name": "uniswapPairAC",
			"outputs": [
				{
					"internalType": "contract IUniswapV2Pair",
					"name": "",
					"type": "address"
				}
			],
			"stateMutability": "view",
			"type": "function"
		},
		{
			"inputs": [],
			"name": "uniswapPairBC",
			"outputs": [
				{
					"internalType": "contract IUniswapV2Pair",
					"name": "",
					"type": "address"
				}
			],
			"stateMutability": "view",
			"type": "function"
		},
		{
			"inputs": [],
			"name": "uniswapRouter",
			"outputs": [
				{
					"internalType": "contract IUniswapV2Router02",
					"name": "",
					"type": "address"
				}
			],
			"stateMutability": "view",
			"type": "function"
		},
		{
			"inputs": [
				{
					"internalType": "uint256",
					"name": "newMaxOrderSize",
					"type": "uint256"
				}
			],
			"name": "updateMaxOrderSize",
			"outputs": [],
			"stateMutability": "nonpayable",
			"type": "function"
		},
		{
			"inputs": [
				{
					"internalType": "uint256",
					"name": "newMinProfitThreshold",
					"type": "uint256"
				}
			],
			"name": "updateMinProfitThreshold",
			"outputs": [],
			"stateMutability": "nonpayable",
			"type": "function"
		},
		{
			"inputs": [
				{
					"internalType": "uint256",
					"name": "newRebalanceThreshold",
					"type": "uint256"
				}
			],
			"name": "updateRebalanceThreshold",
			"outputs": [],
			"stateMutability": "nonpayable",
			"type": "function"
		},
		{
			"inputs": [
				{
					"internalType": "uint256",
					"name": "newStopLossThreshold",
					"type": "uint256"
				}
			],
			"name": "updateStopLossThreshold",
			"outputs": [],
			"stateMutability": "nonpayable",
			"type": "function"
		}
	]
}